{
  "transactions": [
    {
      "hash": null,
      "transactionType": "CALL",
      "contractName": null,
      "contractAddress": "0xbc24012488bfcfe44875a139299595879c43c2cd",
      "function": "updateBadgeMetadata(uint256,string)",
      "arguments": [
        "1",
        "ipfs/QmPBxt6k98mi4GY41i9n2vVNcVXe5wdKLtdJFVrTLC4RTJ/00000000000000000000000000000000000000000000000000000000000000010000000000000000000000000000000000000000000000000000000000000000.json"
      ],
      "transaction": {
        "from": "0x8835669696fb92839ab198cd80ce9f0d35f45ad5",
        "to": "0xbc24012488bfcfe44875a139299595879c43c2cd",
        "gas": "0x15840",
        "value": "0x0",
        "input": "0x47461b400000000000000000000000000000000000000000000000000000000000000001000000000000000000000000000000000000000000000000000000000000004000000000000000000000000000000000000000000000000000000000000000b9697066732f516d50427874366b39386d69344759343169396e3276564e635658653577644b4c74644a465672544c433452544a2f30303030303030303030303030303030303030303030303030303030303030303030303030303030303030303030303030303030303030303030303030303031303030303030303030303030303030303030303030303030303030303030303030303030303030303030303030303030303030303030303030303030303030302e6a736f6e00000000000000",
        "nonce": "0x5da1e",
        "chainId": "0xa"
      },
      "additionalContracts": [],
      "isFixedGasLimit": false
    },
    {
      "hash": null,
      "transactionType": "CALL",
      "contractName": null,
      "contractAddress": "0xbc24012488bfcfe44875a139299595879c43c2cd",
      "function": "updateBadgeMetadata(uint256,string)",
      "arguments": [
        "2",
        "ipfs/QmPBxt6k98mi4GY41i9n2vVNcVXe5wdKLtdJFVrTLC4RTJ/00000000000000000000000000000000000000000000000000000000000000020000000000000000000000000000000000000000000000000000000000000000.json"
      ],
      "transaction": {
        "from": "0x8835669696fb92839ab198cd80ce9f0d35f45ad5",
        "to": "0xbc24012488bfcfe44875a139299595879c43c2cd",
        "gas": "0x15840",
        "value": "0x0",
        "input": "0x47461b400000000000000000000000000000000000000000000000000000000000000002000000000000000000000000000000000000000000000000000000000000004000000000000000000000000000000000000000000000000000000000000000b9697066732f516d50427874366b39386d69344759343169396e3276564e635658653577644b4c74644a465672544c433452544a2f30303030303030303030303030303030303030303030303030303030303030303030303030303030303030303030303030303030303030303030303030303032303030303030303030303030303030303030303030303030303030303030303030303030303030303030303030303030303030303030303030303030303030302e6a736f6e00000000000000",
        "nonce": "0x5da1f",
        "chainId": "0xa"
      },
      "additionalContracts": [],
      "isFixedGasLimit": false
    },
    {
      "hash": null,
      "transactionType": "CALL",
      "contractName": null,
      "contractAddress": "0xbc24012488bfcfe44875a139299595879c43c2cd",
      "function": "updateBadgeMetadata(uint256,string)",
      "arguments": [
        "3",
        "ipfs/QmPBxt6k98mi4GY41i9n2vVNcVXe5wdKLtdJFVrTLC4RTJ/00000000000000000000000000000000000000000000000000000000000000030000000000000000000000000000000000000000000000000000000000000000.json"
      ],
      "transaction": {
        "from": "0x8835669696fb92839ab198cd80ce9f0d35f45ad5",
        "to": "0xbc24012488bfcfe44875a139299595879c43c2cd",
        "gas": "0x15840",
        "value": "0x0",
        "input": "0x47461b400000000000000000000000000000000000000000000000000000000000000003000000000000000000000000000000000000000000000000000000000000004000000000000000000000000000000000000000000000000000000000000000b9697066732f516d50427874366b39386d69344759343169396e3276564e635658653577644b4c74644a465672544c433452544a2f30303030303030303030303030303030303030303030303030303030303030303030303030303030303030303030303030303030303030303030303030303033303030303030303030303030303030303030303030303030303030303030303030303030303030303030303030303030303030303030303030303030303030302e6a736f6e00000000000000",
        "nonce": "0x5da20",
        "chainId": "0xa"
      },
      "additionalContracts": [],
      "isFixedGasLimit": false
    },
    {
      "hash": null,
      "transactionType": "CALL",
      "contractName": null,
      "contractAddress": "0xbc24012488bfcfe44875a139299595879c43c2cd",
      "function": "updateBadgeMetadata(uint256,string)",
      "arguments": [
        "4",
        "ipfs/QmPBxt6k98mi4GY41i9n2vVNcVXe5wdKLtdJFVrTLC4RTJ/00000000000000000000000000000000000000000000000000000000000000040000000000000000000000000000000000000000000000000000000000000000.json"
      ],
      "transaction": {
        "from": "0x8835669696fb92839ab198cd80ce9f0d35f45ad5",
        "to": "0xbc24012488bfcfe44875a139299595879c43c2cd",
        "gas": "0x15840",
        "value": "0x0",
        "input": "0x47461b400000000000000000000000000000000000000000000000000000000000000004000000000000000000000000000000000000000000000000000000000000004000000000000000000000000000000000000000000000000000000000000000b9697066732f516d50427874366b39386d69344759343169396e3276564e635658653577644b4c74644a465672544c433452544a2f30303030303030303030303030303030303030303030303030303030303030303030303030303030303030303030303030303030303030303030303030303034303030303030303030303030303030303030303030303030303030303030303030303030303030303030303030303030303030303030303030303030303030302e6a736f6e00000000000000",
        "nonce": "0x5da21",
        "chainId": "0xa"
      },
      "additionalContracts": [],
      "isFixedGasLimit": false
    },
    {
      "hash": null,
      "transactionType": "CALL",
      "contractName": null,
      "contractAddress": "0xbc24012488bfcfe44875a139299595879c43c2cd",
      "function": "updateBadgeMetadata(uint256,string)",
      "arguments": [
        "5",
        "ipfs/QmPBxt6k98mi4GY41i9n2vVNcVXe5wdKLtdJFVrTLC4RTJ/00000000000000000000000000000000000000000000000000000000000000050000000000000000000000000000000000000000000000000000000000000000.json"
      ],
      "transaction": {
        "from": "0x8835669696fb92839ab198cd80ce9f0d35f45ad5",
        "to": "0xbc24012488bfcfe44875a139299595879c43c2cd",
        "gas": "0x15840",
        "value": "0x0",
        "input": "0x47461b400000000000000000000000000000000000000000000000000000000000000005000000000000000000000000000000000000000000000000000000000000004000000000000000000000000000000000000000000000000000000000000000b9697066732f516d50427874366b39386d69344759343169396e3276564e635658653577644b4c74644a465672544c433452544a2f30303030303030303030303030303030303030303030303030303030303030303030303030303030303030303030303030303030303030303030303030303035303030303030303030303030303030303030303030303030303030303030303030303030303030303030303030303030303030303030303030303030303030302e6a736f6e00000000000000",
        "nonce": "0x5da22",
        "chainId": "0xa"
      },
      "additionalContracts": [],
      "isFixedGasLimit": false
    },
    {
      "hash": null,
      "transactionType": "CALL",
      "contractName": null,
      "contractAddress": "0xbc24012488bfcfe44875a139299595879c43c2cd",
      "function": "updateBadgeMetadata(uint256,string)",
      "arguments": [
        "6",
        "ipfs/QmPBxt6k98mi4GY41i9n2vVNcVXe5wdKLtdJFVrTLC4RTJ/00000000000000000000000000000000000000000000000000000000000000060000000000000000000000000000000000000000000000000000000000000000.json"
      ],
      "transaction": {
        "from": "0x8835669696fb92839ab198cd80ce9f0d35f45ad5",
        "to": "0xbc24012488bfcfe44875a139299595879c43c2cd",
        "gas": "0x15840",
        "value": "0x0",
        "input": "0x47461b400000000000000000000000000000000000000000000000000000000000000006000000000000000000000000000000000000000000000000000000000000004000000000000000000000000000000000000000000000000000000000000000b9697066732f516d50427874366b39386d69344759343169396e3276564e635658653577644b4c74644a465672544c433452544a2f30303030303030303030303030303030303030303030303030303030303030303030303030303030303030303030303030303030303030303030303030303036303030303030303030303030303030303030303030303030303030303030303030303030303030303030303030303030303030303030303030303030303030302e6a736f6e00000000000000",
        "nonce": "0x5da23",
        "chainId": "0xa"
      },
      "additionalContracts": [],
      "isFixedGasLimit": false
    },
    {
      "hash": null,
      "transactionType": "CALL",
      "contractName": null,
      "contractAddress": "0xbc24012488bfcfe44875a139299595879c43c2cd",
      "function": "updateBadgeMetadata(uint256,string)",
      "arguments": [
        "7",
        "ipfs/QmPBxt6k98mi4GY41i9n2vVNcVXe5wdKLtdJFVrTLC4RTJ/00000000000000000000000000000000000000000000000000000000000000070000000000000000000000000000000000000000000000000000000000000000.json"
      ],
      "transaction": {
        "from": "0x8835669696fb92839ab198cd80ce9f0d35f45ad5",
        "to": "0xbc24012488bfcfe44875a139299595879c43c2cd",
        "gas": "0x15840",
        "value": "0x0",
        "input": "0x47461b400000000000000000000000000000000000000000000000000000000000000007000000000000000000000000000000000000000000000000000000000000004000000000000000000000000000000000000000000000000000000000000000b9697066732f516d50427874366b39386d69344759343169396e3276564e635658653577644b4c74644a465672544c433452544a2f30303030303030303030303030303030303030303030303030303030303030303030303030303030303030303030303030303030303030303030303030303037303030303030303030303030303030303030303030303030303030303030303030303030303030303030303030303030303030303030303030303030303030302e6a736f6e00000000000000",
        "nonce": "0x5da24",
        "chainId": "0xa"
      },
      "additionalContracts": [],
      "isFixedGasLimit": false
    },
    {
      "hash": null,
      "transactionType": "CALL",
      "contractName": null,
      "contractAddress": "0xbc24012488bfcfe44875a139299595879c43c2cd",
      "function": "updateBadgeMetadata(uint256,string)",
      "arguments": [
        "8",
        "ipfs/QmPBxt6k98mi4GY41i9n2vVNcVXe5wdKLtdJFVrTLC4RTJ/00000000000000000000000000000000000000000000000000000000000000080000000000000000000000000000000000000000000000000000000000000000.json"
      ],
      "transaction": {
        "from": "0x8835669696fb92839ab198cd80ce9f0d35f45ad5",
        "to": "0xbc24012488bfcfe44875a139299595879c43c2cd",
        "gas": "0x15840",
        "value": "0x0",
        "input": "0x47461b400000000000000000000000000000000000000000000000000000000000000008000000000000000000000000000000000000000000000000000000000000004000000000000000000000000000000000000000000000000000000000000000b9697066732f516d50427874366b39386d69344759343169396e3276564e635658653577644b4c74644a465672544c433452544a2f30303030303030303030303030303030303030303030303030303030303030303030303030303030303030303030303030303030303030303030303030303038303030303030303030303030303030303030303030303030303030303030303030303030303030303030303030303030303030303030303030303030303030302e6a736f6e00000000000000",
        "nonce": "0x5da25",
        "chainId": "0xa"
      },
      "additionalContracts": [],
      "isFixedGasLimit": false
    },
    {
      "hash": null,
      "transactionType": "CALL",
      "contractName": null,
      "contractAddress": "0xbc24012488bfcfe44875a139299595879c43c2cd",
      "function": "updateBadgeMetadata(uint256,string)",
      "arguments": [
        "9",
        "ipfs/QmPBxt6k98mi4GY41i9n2vVNcVXe5wdKLtdJFVrTLC4RTJ/00000000000000000000000000000000000000000000000000000000000000090000000000000000000000000000000000000000000000000000000000000000.json"
      ],
      "transaction": {
        "from": "0x8835669696fb92839ab198cd80ce9f0d35f45ad5",
        "to": "0xbc24012488bfcfe44875a139299595879c43c2cd",
        "gas": "0x15840",
        "value": "0x0",
        "input": "0x47461b400000000000000000000000000000000000000000000000000000000000000009000000000000000000000000000000000000000000000000000000000000004000000000000000000000000000000000000000000000000000000000000000b9697066732f516d50427874366b39386d69344759343169396e3276564e635658653577644b4c74644a465672544c433452544a2f30303030303030303030303030303030303030303030303030303030303030303030303030303030303030303030303030303030303030303030303030303039303030303030303030303030303030303030303030303030303030303030303030303030303030303030303030303030303030303030303030303030303030302e6a736f6e00000000000000",
        "nonce": "0x5da26",
        "chainId": "0xa"
      },
      "additionalContracts": [],
      "isFixedGasLimit": false
    },
    {
      "hash": null,
      "transactionType": "CALL",
      "contractName": null,
      "contractAddress": "0xbc24012488bfcfe44875a139299595879c43c2cd",
      "function": "updateBadgeMetadata(uint256,string)",
      "arguments": [
        "10",
        "ipfs/QmPBxt6k98mi4GY41i9n2vVNcVXe5wdKLtdJFVrTLC4RTJ/00000000000000000000000000000000000000000000000000000000000000100000000000000000000000000000000000000000000000000000000000000000.json"
      ],
      "transaction": {
        "from": "0x8835669696fb92839ab198cd80ce9f0d35f45ad5",
        "to": "0xbc24012488bfcfe44875a139299595879c43c2cd",
        "gas": "0x15840",
        "value": "0x0",
        "input": "0x47461b40000000000000000000000000000000000000000000000000000000000000000a000000000000000000000000000000000000000000000000000000000000004000000000000000000000000000000000000000000000000000000000000000b9697066732f516d50427874366b39386d69344759343169396e3276564e635658653577644b4c74644a465672544c433452544a2f30303030303030303030303030303030303030303030303030303030303030303030303030303030303030303030303030303030303030303030303030303130303030303030303030303030303030303030303030303030303030303030303030303030303030303030303030303030303030303030303030303030303030302e6a736f6e00000000000000",
        "nonce": "0x5da27",
        "chainId": "0xa"
      },
      "additionalContracts": [],
      "isFixedGasLimit": false
    },
    {
      "hash": null,
      "transactionType": "CALL",
      "contractName": null,
      "contractAddress": "0xbc24012488bfcfe44875a139299595879c43c2cd",
      "function": "updateBadgeMetadata(uint256,string)",
      "arguments": [
        "11",
        "ipfs/QmPBxt6k98mi4GY41i9n2vVNcVXe5wdKLtdJFVrTLC4RTJ/00000000000000000000000000000000000000000000000000000000000000110000000000000000000000000000000000000000000000000000000000000000.json"
      ],
      "transaction": {
        "from": "0x8835669696fb92839ab198cd80ce9f0d35f45ad5",
        "to": "0xbc24012488bfcfe44875a139299595879c43c2cd",
        "gas": "0x15840",
        "value": "0x0",
        "input": "0x47461b40000000000000000000000000000000000000000000000000000000000000000b000000000000000000000000000000000000000000000000000000000000004000000000000000000000000000000000000000000000000000000000000000b9697066732f516d50427874366b39386d69344759343169396e3276564e635658653577644b4c74644a465672544c433452544a2f30303030303030303030303030303030303030303030303030303030303030303030303030303030303030303030303030303030303030303030303030303131303030303030303030303030303030303030303030303030303030303030303030303030303030303030303030303030303030303030303030303030303030302e6a736f6e00000000000000",
        "nonce": "0x5da28",
        "chainId": "0xa"
      },
      "additionalContracts": [],
      "isFixedGasLimit": false
    },
    {
      "hash": null,
      "transactionType": "CALL",
      "contractName": null,
      "contractAddress": "0xbc24012488bfcfe44875a139299595879c43c2cd",
      "function": "updateBadgeMetadata(uint256,string)",
      "arguments": [
        "12",
        "ipfs/QmPBxt6k98mi4GY41i9n2vVNcVXe5wdKLtdJFVrTLC4RTJ/00000000000000000000000000000000000000000000000000000000000000120000000000000000000000000000000000000000000000000000000000000000.json"
      ],
      "transaction": {
        "from": "0x8835669696fb92839ab198cd80ce9f0d35f45ad5",
        "to": "0xbc24012488bfcfe44875a139299595879c43c2cd",
        "gas": "0x15840",
        "value": "0x0",
        "input": "0x47461b40000000000000000000000000000000000000000000000000000000000000000c000000000000000000000000000000000000000000000000000000000000004000000000000000000000000000000000000000000000000000000000000000b9697066732f516d50427874366b39386d69344759343169396e3276564e635658653577644b4c74644a465672544c433452544a2f30303030303030303030303030303030303030303030303030303030303030303030303030303030303030303030303030303030303030303030303030303132303030303030303030303030303030303030303030303030303030303030303030303030303030303030303030303030303030303030303030303030303030302e6a736f6e00000000000000",
        "nonce": "0x5da29",
        "chainId": "0xa"
      },
      "additionalContracts": [],
      "isFixedGasLimit": false
    },
    {
      "hash": null,
      "transactionType": "CALL",
      "contractName": null,
      "contractAddress": "0xbc24012488bfcfe44875a139299595879c43c2cd",
      "function": "updateBadgeMetadata(uint256,string)",
      "arguments": [
        "13",
        "ipfs/QmPBxt6k98mi4GY41i9n2vVNcVXe5wdKLtdJFVrTLC4RTJ/00000000000000000000000000000000000000000000000000000000000000130000000000000000000000000000000000000000000000000000000000000000.json"
      ],
      "transaction": {
        "from": "0x8835669696fb92839ab198cd80ce9f0d35f45ad5",
        "to": "0xbc24012488bfcfe44875a139299595879c43c2cd",
        "gas": "0x15840",
        "value": "0x0",
        "input": "0x47461b40000000000000000000000000000000000000000000000000000000000000000d000000000000000000000000000000000000000000000000000000000000004000000000000000000000000000000000000000000000000000000000000000b9697066732f516d50427874366b39386d69344759343169396e3276564e635658653577644b4c74644a465672544c433452544a2f30303030303030303030303030303030303030303030303030303030303030303030303030303030303030303030303030303030303030303030303030303133303030303030303030303030303030303030303030303030303030303030303030303030303030303030303030303030303030303030303030303030303030302e6a736f6e00000000000000",
        "nonce": "0x5da2a",
        "chainId": "0xa"
      },
      "additionalContracts": [],
      "isFixedGasLimit": false
    },
    {
      "hash": null,
      "transactionType": "CALL",
      "contractName": null,
      "contractAddress": "0xbc24012488bfcfe44875a139299595879c43c2cd",
      "function": "updateBadgeMetadata(uint256,string)",
      "arguments": [
        "14",
        "ipfs/QmPBxt6k98mi4GY41i9n2vVNcVXe5wdKLtdJFVrTLC4RTJ/00000000000000000000000000000000000000000000000000000000000000140000000000000000000000000000000000000000000000000000000000000000.json"
      ],
      "transaction": {
        "from": "0x8835669696fb92839ab198cd80ce9f0d35f45ad5",
        "to": "0xbc24012488bfcfe44875a139299595879c43c2cd",
        "gas": "0x15840",
        "value": "0x0",
        "input": "0x47461b40000000000000000000000000000000000000000000000000000000000000000e000000000000000000000000000000000000000000000000000000000000004000000000000000000000000000000000000000000000000000000000000000b9697066732f516d50427874366b39386d69344759343169396e3276564e635658653577644b4c74644a465672544c433452544a2f30303030303030303030303030303030303030303030303030303030303030303030303030303030303030303030303030303030303030303030303030303134303030303030303030303030303030303030303030303030303030303030303030303030303030303030303030303030303030303030303030303030303030302e6a736f6e00000000000000",
        "nonce": "0x5da2b",
        "chainId": "0xa"
      },
      "additionalContracts": [],
      "isFixedGasLimit": false
    },
    {
      "hash": null,
      "transactionType": "CALL",
      "contractName": null,
      "contractAddress": "0xbc24012488bfcfe44875a139299595879c43c2cd",
      "function": "updateBadgeMetadata(uint256,string)",
      "arguments": [
        "15",
        "ipfs/QmPBxt6k98mi4GY41i9n2vVNcVXe5wdKLtdJFVrTLC4RTJ/00000000000000000000000000000000000000000000000000000000000000150000000000000000000000000000000000000000000000000000000000000000.json"
      ],
      "transaction": {
        "from": "0x8835669696fb92839ab198cd80ce9f0d35f45ad5",
        "to": "0xbc24012488bfcfe44875a139299595879c43c2cd",
        "gas": "0x15840",
        "value": "0x0",
        "input": "0x47461b40000000000000000000000000000000000000000000000000000000000000000f000000000000000000000000000000000000000000000000000000000000004000000000000000000000000000000000000000000000000000000000000000b9697066732f516d50427874366b39386d69344759343169396e3276564e635658653577644b4c74644a465672544c433452544a2f30303030303030303030303030303030303030303030303030303030303030303030303030303030303030303030303030303030303030303030303030303135303030303030303030303030303030303030303030303030303030303030303030303030303030303030303030303030303030303030303030303030303030302e6a736f6e00000000000000",
        "nonce": "0x5da2c",
        "chainId": "0xa"
      },
      "additionalContracts": [],
      "isFixedGasLimit": false
    },
    {
      "hash": null,
      "transactionType": "CALL",
      "contractName": null,
      "contractAddress": "0xbc24012488bfcfe44875a139299595879c43c2cd",
      "function": "updateBadgeMetadata(uint256,string)",
      "arguments": [
        "16",
        "ipfs/QmPBxt6k98mi4GY41i9n2vVNcVXe5wdKLtdJFVrTLC4RTJ/00000000000000000000000000000000000000000000000000000000000000160000000000000000000000000000000000000000000000000000000000000000.json"
      ],
      "transaction": {
        "from": "0x8835669696fb92839ab198cd80ce9f0d35f45ad5",
        "to": "0xbc24012488bfcfe44875a139299595879c43c2cd",
        "gas": "0x15840",
        "value": "0x0",
        "input": "0x47461b400000000000000000000000000000000000000000000000000000000000000010000000000000000000000000000000000000000000000000000000000000004000000000000000000000000000000000000000000000000000000000000000b9697066732f516d50427874366b39386d69344759343169396e3276564e635658653577644b4c74644a465672544c433452544a2f30303030303030303030303030303030303030303030303030303030303030303030303030303030303030303030303030303030303030303030303030303136303030303030303030303030303030303030303030303030303030303030303030303030303030303030303030303030303030303030303030303030303030302e6a736f6e00000000000000",
        "nonce": "0x5da2d",
        "chainId": "0xa"
      },
      "additionalContracts": [],
      "isFixedGasLimit": false
    },
    {
      "hash": null,
      "transactionType": "CALL",
      "contractName": null,
      "contractAddress": "0xbc24012488bfcfe44875a139299595879c43c2cd",
      "function": "updateBadgeMetadata(uint256,string)",
      "arguments": [
        "17",
        "ipfs/QmPBxt6k98mi4GY41i9n2vVNcVXe5wdKLtdJFVrTLC4RTJ/00000000000000000000000000000000000000000000000000000000000000170000000000000000000000000000000000000000000000000000000000000000.json"
      ],
      "transaction": {
        "from": "0x8835669696fb92839ab198cd80ce9f0d35f45ad5",
        "to": "0xbc24012488bfcfe44875a139299595879c43c2cd",
        "gas": "0x15840",
        "value": "0x0",
        "input": "0x47461b400000000000000000000000000000000000000000000000000000000000000011000000000000000000000000000000000000000000000000000000000000004000000000000000000000000000000000000000000000000000000000000000b9697066732f516d50427874366b39386d69344759343169396e3276564e635658653577644b4c74644a465672544c433452544a2f30303030303030303030303030303030303030303030303030303030303030303030303030303030303030303030303030303030303030303030303030303137303030303030303030303030303030303030303030303030303030303030303030303030303030303030303030303030303030303030303030303030303030302e6a736f6e00000000000000",
        "nonce": "0x5da2e",
        "chainId": "0xa"
      },
      "additionalContracts": [],
      "isFixedGasLimit": false
    },
    {
      "hash": null,
      "transactionType": "CALL",
      "contractName": null,
      "contractAddress": "0xbc24012488bfcfe44875a139299595879c43c2cd",
      "function": "updateBadgeMetadata(uint256,string)",
      "arguments": [
        "18",
        "ipfs/QmPBxt6k98mi4GY41i9n2vVNcVXe5wdKLtdJFVrTLC4RTJ/00000000000000000000000000000000000000000000000000000000000000180000000000000000000000000000000000000000000000000000000000000000.json"
      ],
      "transaction": {
        "from": "0x8835669696fb92839ab198cd80ce9f0d35f45ad5",
        "to": "0xbc24012488bfcfe44875a139299595879c43c2cd",
        "gas": "0x15840",
        "value": "0x0",
        "input": "0x47461b400000000000000000000000000000000000000000000000000000000000000012000000000000000000000000000000000000000000000000000000000000004000000000000000000000000000000000000000000000000000000000000000b9697066732f516d50427874366b39386d69344759343169396e3276564e635658653577644b4c74644a465672544c433452544a2f30303030303030303030303030303030303030303030303030303030303030303030303030303030303030303030303030303030303030303030303030303138303030303030303030303030303030303030303030303030303030303030303030303030303030303030303030303030303030303030303030303030303030302e6a736f6e00000000000000",
        "nonce": "0x5da2f",
        "chainId": "0xa"
      },
      "additionalContracts": [],
      "isFixedGasLimit": false
    },
    {
      "hash": null,
      "transactionType": "CALL",
      "contractName": null,
      "contractAddress": "0xbc24012488bfcfe44875a139299595879c43c2cd",
      "function": "updateBadgeMetadata(uint256,string)",
      "arguments": [
        "19",
        "ipfs/QmPBxt6k98mi4GY41i9n2vVNcVXe5wdKLtdJFVrTLC4RTJ/00000000000000000000000000000000000000000000000000000000000000190000000000000000000000000000000000000000000000000000000000000000.json"
      ],
      "transaction": {
        "from": "0x8835669696fb92839ab198cd80ce9f0d35f45ad5",
        "to": "0xbc24012488bfcfe44875a139299595879c43c2cd",
        "gas": "0x15840",
        "value": "0x0",
        "input": "0x47461b400000000000000000000000000000000000000000000000000000000000000013000000000000000000000000000000000000000000000000000000000000004000000000000000000000000000000000000000000000000000000000000000b9697066732f516d50427874366b39386d69344759343169396e3276564e635658653577644b4c74644a465672544c433452544a2f30303030303030303030303030303030303030303030303030303030303030303030303030303030303030303030303030303030303030303030303030303139303030303030303030303030303030303030303030303030303030303030303030303030303030303030303030303030303030303030303030303030303030302e6a736f6e00000000000000",
        "nonce": "0x5da30",
        "chainId": "0xa"
      },
      "additionalContracts": [],
      "isFixedGasLimit": false
    },
    {
      "hash": null,
      "transactionType": "CALL",
      "contractName": null,
      "contractAddress": "0xbc24012488bfcfe44875a139299595879c43c2cd",
      "function": "updateBadgeMetadata(uint256,string)",
      "arguments": [
        "20",
        "ipfs/QmPBxt6k98mi4GY41i9n2vVNcVXe5wdKLtdJFVrTLC4RTJ/00000000000000000000000000000000000000000000000000000000000000200000000000000000000000000000000000000000000000000000000000000000.json"
      ],
      "transaction": {
        "from": "0x8835669696fb92839ab198cd80ce9f0d35f45ad5",
        "to": "0xbc24012488bfcfe44875a139299595879c43c2cd",
        "gas": "0x15840",
        "value": "0x0",
        "input": "0x47461b400000000000000000000000000000000000000000000000000000000000000014000000000000000000000000000000000000000000000000000000000000004000000000000000000000000000000000000000000000000000000000000000b9697066732f516d50427874366b39386d69344759343169396e3276564e635658653577644b4c74644a465672544c433452544a2f30303030303030303030303030303030303030303030303030303030303030303030303030303030303030303030303030303030303030303030303030303230303030303030303030303030303030303030303030303030303030303030303030303030303030303030303030303030303030303030303030303030303030302e6a736f6e00000000000000",
        "nonce": "0x5da31",
        "chainId": "0xa"
      },
      "additionalContracts": [],
      "isFixedGasLimit": false
    },
    {
      "hash": null,
      "transactionType": "CALL",
      "contractName": null,
      "contractAddress": "0xbc24012488bfcfe44875a139299595879c43c2cd",
      "function": "updateBadgeMetadata(uint256,string)",
      "arguments": [
        "21",
        "ipfs/QmPBxt6k98mi4GY41i9n2vVNcVXe5wdKLtdJFVrTLC4RTJ/00000000000000000000000000000000000000000000000000000000000000210000000000000000000000000000000000000000000000000000000000000000.json"
      ],
      "transaction": {
        "from": "0x8835669696fb92839ab198cd80ce9f0d35f45ad5",
        "to": "0xbc24012488bfcfe44875a139299595879c43c2cd",
        "gas": "0x15840",
        "value": "0x0",
        "input": "0x47461b400000000000000000000000000000000000000000000000000000000000000015000000000000000000000000000000000000000000000000000000000000004000000000000000000000000000000000000000000000000000000000000000b9697066732f516d50427874366b39386d69344759343169396e3276564e635658653577644b4c74644a465672544c433452544a2f30303030303030303030303030303030303030303030303030303030303030303030303030303030303030303030303030303030303030303030303030303231303030303030303030303030303030303030303030303030303030303030303030303030303030303030303030303030303030303030303030303030303030302e6a736f6e00000000000000",
        "nonce": "0x5da32",
        "chainId": "0xa"
      },
      "additionalContracts": [],
      "isFixedGasLimit": false
    },
    {
      "hash": null,
      "transactionType": "CALL",
      "contractName": null,
      "contractAddress": "0xbc24012488bfcfe44875a139299595879c43c2cd",
      "function": "updateBadgeMetadata(uint256,string)",
      "arguments": [
        "22",
        "ipfs/QmPBxt6k98mi4GY41i9n2vVNcVXe5wdKLtdJFVrTLC4RTJ/00000000000000000000000000000000000000000000000000000000000000220000000000000000000000000000000000000000000000000000000000000000.json"
      ],
      "transaction": {
        "from": "0x8835669696fb92839ab198cd80ce9f0d35f45ad5",
        "to": "0xbc24012488bfcfe44875a139299595879c43c2cd",
        "gas": "0x15840",
        "value": "0x0",
        "input": "0x47461b400000000000000000000000000000000000000000000000000000000000000016000000000000000000000000000000000000000000000000000000000000004000000000000000000000000000000000000000000000000000000000000000b9697066732f516d50427874366b39386d69344759343169396e3276564e635658653577644b4c74644a465672544c433452544a2f30303030303030303030303030303030303030303030303030303030303030303030303030303030303030303030303030303030303030303030303030303232303030303030303030303030303030303030303030303030303030303030303030303030303030303030303030303030303030303030303030303030303030302e6a736f6e00000000000000",
        "nonce": "0x5da33",
        "chainId": "0xa"
      },
      "additionalContracts": [],
      "isFixedGasLimit": false
    },
    {
      "hash": null,
      "transactionType": "CALL",
      "contractName": null,
      "contractAddress": "0xbc24012488bfcfe44875a139299595879c43c2cd",
      "function": "updateBadgeMetadata(uint256,string)",
      "arguments": [
        "23",
        "ipfs/QmPBxt6k98mi4GY41i9n2vVNcVXe5wdKLtdJFVrTLC4RTJ/00000000000000000000000000000000000000000000000000000000000000230000000000000000000000000000000000000000000000000000000000000000.json"
      ],
      "transaction": {
        "from": "0x8835669696fb92839ab198cd80ce9f0d35f45ad5",
        "to": "0xbc24012488bfcfe44875a139299595879c43c2cd",
        "gas": "0x15840",
        "value": "0x0",
        "input": "0x47461b400000000000000000000000000000000000000000000000000000000000000017000000000000000000000000000000000000000000000000000000000000004000000000000000000000000000000000000000000000000000000000000000b9697066732f516d50427874366b39386d69344759343169396e3276564e635658653577644b4c74644a465672544c433452544a2f30303030303030303030303030303030303030303030303030303030303030303030303030303030303030303030303030303030303030303030303030303233303030303030303030303030303030303030303030303030303030303030303030303030303030303030303030303030303030303030303030303030303030302e6a736f6e00000000000000",
        "nonce": "0x5da34",
        "chainId": "0xa"
      },
      "additionalContracts": [],
      "isFixedGasLimit": false
    },
    {
      "hash": null,
      "transactionType": "CALL",
      "contractName": null,
      "contractAddress": "0xbc24012488bfcfe44875a139299595879c43c2cd",
      "function": "updateBadgeMetadata(uint256,string)",
      "arguments": [
        "24",
        "ipfs/QmPBxt6k98mi4GY41i9n2vVNcVXe5wdKLtdJFVrTLC4RTJ/00000000000000000000000000000000000000000000000000000000000000240000000000000000000000000000000000000000000000000000000000000000.json"
      ],
      "transaction": {
        "from": "0x8835669696fb92839ab198cd80ce9f0d35f45ad5",
        "to": "0xbc24012488bfcfe44875a139299595879c43c2cd",
        "gas": "0x15840",
        "value": "0x0",
        "input": "0x47461b400000000000000000000000000000000000000000000000000000000000000018000000000000000000000000000000000000000000000000000000000000004000000000000000000000000000000000000000000000000000000000000000b9697066732f516d50427874366b39386d69344759343169396e3276564e635658653577644b4c74644a465672544c433452544a2f30303030303030303030303030303030303030303030303030303030303030303030303030303030303030303030303030303030303030303030303030303234303030303030303030303030303030303030303030303030303030303030303030303030303030303030303030303030303030303030303030303030303030302e6a736f6e00000000000000",
        "nonce": "0x5da35",
        "chainId": "0xa"
      },
      "additionalContracts": [],
      "isFixedGasLimit": false
    },
    {
      "hash": null,
      "transactionType": "CALL",
      "contractName": null,
      "contractAddress": "0xbc24012488bfcfe44875a139299595879c43c2cd",
      "function": "updateBadgeMetadata(uint256,string)",
      "arguments": [
        "25",
        "ipfs/QmPBxt6k98mi4GY41i9n2vVNcVXe5wdKLtdJFVrTLC4RTJ/00000000000000000000000000000000000000000000000000000000000000250000000000000000000000000000000000000000000000000000000000000000.json"
      ],
      "transaction": {
        "from": "0x8835669696fb92839ab198cd80ce9f0d35f45ad5",
        "to": "0xbc24012488bfcfe44875a139299595879c43c2cd",
        "gas": "0x15840",
        "value": "0x0",
        "input": "0x47461b400000000000000000000000000000000000000000000000000000000000000019000000000000000000000000000000000000000000000000000000000000004000000000000000000000000000000000000000000000000000000000000000b9697066732f516d50427874366b39386d69344759343169396e3276564e635658653577644b4c74644a465672544c433452544a2f30303030303030303030303030303030303030303030303030303030303030303030303030303030303030303030303030303030303030303030303030303235303030303030303030303030303030303030303030303030303030303030303030303030303030303030303030303030303030303030303030303030303030302e6a736f6e00000000000000",
        "nonce": "0x5da36",
        "chainId": "0xa"
      },
      "additionalContracts": [],
      "isFixedGasLimit": false
    },
    {
      "hash": null,
      "transactionType": "CALL",
      "contractName": null,
      "contractAddress": "0xbc24012488bfcfe44875a139299595879c43c2cd",
      "function": "updateBadgeMetadata(uint256,string)",
      "arguments": [
        "26",
        "ipfs/QmPBxt6k98mi4GY41i9n2vVNcVXe5wdKLtdJFVrTLC4RTJ/00000000000000000000000000000000000000000000000000000000000000260000000000000000000000000000000000000000000000000000000000000000.json"
      ],
      "transaction": {
        "from": "0x8835669696fb92839ab198cd80ce9f0d35f45ad5",
        "to": "0xbc24012488bfcfe44875a139299595879c43c2cd",
        "gas": "0x15840",
        "value": "0x0",
        "input": "0x47461b40000000000000000000000000000000000000000000000000000000000000001a000000000000000000000000000000000000000000000000000000000000004000000000000000000000000000000000000000000000000000000000000000b9697066732f516d50427874366b39386d69344759343169396e3276564e635658653577644b4c74644a465672544c433452544a2f30303030303030303030303030303030303030303030303030303030303030303030303030303030303030303030303030303030303030303030303030303236303030303030303030303030303030303030303030303030303030303030303030303030303030303030303030303030303030303030303030303030303030302e6a736f6e00000000000000",
        "nonce": "0x5da37",
        "chainId": "0xa"
      },
      "additionalContracts": [],
      "isFixedGasLimit": false
    },
    {
      "hash": null,
      "transactionType": "CALL",
      "contractName": null,
      "contractAddress": "0xbc24012488bfcfe44875a139299595879c43c2cd",
      "function": "updateBadgeMetadata(uint256,string)",
      "arguments": [
        "27",
        "ipfs/QmPBxt6k98mi4GY41i9n2vVNcVXe5wdKLtdJFVrTLC4RTJ/00000000000000000000000000000000000000000000000000000000000000270000000000000000000000000000000000000000000000000000000000000000.json"
      ],
      "transaction": {
        "from": "0x8835669696fb92839ab198cd80ce9f0d35f45ad5",
        "to": "0xbc24012488bfcfe44875a139299595879c43c2cd",
        "gas": "0x15840",
        "value": "0x0",
        "input": "0x47461b40000000000000000000000000000000000000000000000000000000000000001b000000000000000000000000000000000000000000000000000000000000004000000000000000000000000000000000000000000000000000000000000000b9697066732f516d50427874366b39386d69344759343169396e3276564e635658653577644b4c74644a465672544c433452544a2f30303030303030303030303030303030303030303030303030303030303030303030303030303030303030303030303030303030303030303030303030303237303030303030303030303030303030303030303030303030303030303030303030303030303030303030303030303030303030303030303030303030303030302e6a736f6e00000000000000",
        "nonce": "0x5da38",
        "chainId": "0xa"
      },
      "additionalContracts": [],
      "isFixedGasLimit": false
    },
    {
      "hash": null,
      "transactionType": "CALL",
      "contractName": null,
      "contractAddress": "0xbc24012488bfcfe44875a139299595879c43c2cd",
      "function": "setBadgeMetadata(uint256,string)",
      "arguments": [
        "28",
        "ipfs/QmPBxt6k98mi4GY41i9n2vVNcVXe5wdKLtdJFVrTLC4RTJ/00000000000000000000000000000000000000000000000000000000000000280000000000000000000000000000000000000000000000000000000000000000.json"
      ],
      "transaction": {
        "from": "0x8835669696fb92839ab198cd80ce9f0d35f45ad5",
        "to": "0xbc24012488bfcfe44875a139299595879c43c2cd",
        "gas": "0x41338",
        "value": "0x0",
        "input": "0xce64b45f000000000000000000000000000000000000000000000000000000000000001c000000000000000000000000000000000000000000000000000000000000004000000000000000000000000000000000000000000000000000000000000000b9697066732f516d50427874366b39386d69344759343169396e3276564e635658653577644b4c74644a465672544c433452544a2f30303030303030303030303030303030303030303030303030303030303030303030303030303030303030303030303030303030303030303030303030303238303030303030303030303030303030303030303030303030303030303030303030303030303030303030303030303030303030303030303030303030303030302e6a736f6e00000000000000",
        "nonce": "0x5da39",
        "chainId": "0xa"
      },
      "additionalContracts": [],
      "isFixedGasLimit": false
    },
    {
      "hash": null,
      "transactionType": "CALL",
      "contractName": null,
      "contractAddress": "0xbc24012488bfcfe44875a139299595879c43c2cd",
      "function": "updateBadgeTierMetadata(uint256,uint256,string)",
      "arguments": [
        "1",
        "1",
        "ipfs/QmPBxt6k98mi4GY41i9n2vVNcVXe5wdKLtdJFVrTLC4RTJ/00000000000000000000000000000000000000000000000000000000000000010000000000000000000000000000000000000000000000000000000000000001.json"
      ],
      "transaction": {
        "from": "0x8835669696fb92839ab198cd80ce9f0d35f45ad5",
        "to": "0xbc24012488bfcfe44875a139299595879c43c2cd",
        "gas": "0x15688",
        "value": "0x0",
        "input": "0xc43e4f4c00000000000000000000000000000000000000000000000000000000000000010000000000000000000000000000000000000000000000000000000000000001000000000000000000000000000000000000000000000000000000000000006000000000000000000000000000000000000000000000000000000000000000b9697066732f516d50427874366b39386d69344759343169396e3276564e635658653577644b4c74644a465672544c433452544a2f30303030303030303030303030303030303030303030303030303030303030303030303030303030303030303030303030303030303030303030303030303031303030303030303030303030303030303030303030303030303030303030303030303030303030303030303030303030303030303030303030303030303030312e6a736f6e00000000000000",
        "nonce": "0x5da3a",
        "chainId": "0xa"
      },
      "additionalContracts": [],
      "isFixedGasLimit": false
    },
    {
      "hash": null,
      "transactionType": "CALL",
      "contractName": null,
      "contractAddress": "0xbc24012488bfcfe44875a139299595879c43c2cd",
      "function": "updateBadgeTierMetadata(uint256,uint256,string)",
      "arguments": [
        "1",
        "2",
        "ipfs/QmPBxt6k98mi4GY41i9n2vVNcVXe5wdKLtdJFVrTLC4RTJ/00000000000000000000000000000000000000000000000000000000000000010000000000000000000000000000000000000000000000000000000000000002.json"
      ],
      "transaction": {
        "from": "0x8835669696fb92839ab198cd80ce9f0d35f45ad5",
        "to": "0xbc24012488bfcfe44875a139299595879c43c2cd",
        "gas": "0x15688",
        "value": "0x0",
        "input": "0xc43e4f4c00000000000000000000000000000000000000000000000000000000000000010000000000000000000000000000000000000000000000000000000000000002000000000000000000000000000000000000000000000000000000000000006000000000000000000000000000000000000000000000000000000000000000b9697066732f516d50427874366b39386d69344759343169396e3276564e635658653577644b4c74644a465672544c433452544a2f30303030303030303030303030303030303030303030303030303030303030303030303030303030303030303030303030303030303030303030303030303031303030303030303030303030303030303030303030303030303030303030303030303030303030303030303030303030303030303030303030303030303030322e6a736f6e00000000000000",
        "nonce": "0x5da3b",
        "chainId": "0xa"
      },
      "additionalContracts": [],
      "isFixedGasLimit": false
    },
    {
      "hash": null,
      "transactionType": "CALL",
      "contractName": null,
      "contractAddress": "0xbc24012488bfcfe44875a139299595879c43c2cd",
      "function": "updateBadgeTierMetadata(uint256,uint256,string)",
      "arguments": [
        "1",
        "3",
        "ipfs/QmPBxt6k98mi4GY41i9n2vVNcVXe5wdKLtdJFVrTLC4RTJ/00000000000000000000000000000000000000000000000000000000000000010000000000000000000000000000000000000000000000000000000000000003.json"
      ],
      "transaction": {
        "from": "0x8835669696fb92839ab198cd80ce9f0d35f45ad5",
        "to": "0xbc24012488bfcfe44875a139299595879c43c2cd",
        "gas": "0x15688",
        "value": "0x0",
        "input": "0xc43e4f4c00000000000000000000000000000000000000000000000000000000000000010000000000000000000000000000000000000000000000000000000000000003000000000000000000000000000000000000000000000000000000000000006000000000000000000000000000000000000000000000000000000000000000b9697066732f516d50427874366b39386d69344759343169396e3276564e635658653577644b4c74644a465672544c433452544a2f30303030303030303030303030303030303030303030303030303030303030303030303030303030303030303030303030303030303030303030303030303031303030303030303030303030303030303030303030303030303030303030303030303030303030303030303030303030303030303030303030303030303030332e6a736f6e00000000000000",
        "nonce": "0x5da3c",
        "chainId": "0xa"
      },
      "additionalContracts": [],
      "isFixedGasLimit": false
    },
    {
      "hash": null,
      "transactionType": "CALL",
      "contractName": null,
      "contractAddress": "0xbc24012488bfcfe44875a139299595879c43c2cd",
      "function": "updateBadgeTierMetadata(uint256,uint256,string)",
      "arguments": [
        "1",
        "4",
        "ipfs/QmPBxt6k98mi4GY41i9n2vVNcVXe5wdKLtdJFVrTLC4RTJ/00000000000000000000000000000000000000000000000000000000000000010000000000000000000000000000000000000000000000000000000000000004.json"
      ],
      "transaction": {
        "from": "0x8835669696fb92839ab198cd80ce9f0d35f45ad5",
        "to": "0xbc24012488bfcfe44875a139299595879c43c2cd",
        "gas": "0x15688",
        "value": "0x0",
        "input": "0xc43e4f4c00000000000000000000000000000000000000000000000000000000000000010000000000000000000000000000000000000000000000000000000000000004000000000000000000000000000000000000000000000000000000000000006000000000000000000000000000000000000000000000000000000000000000b9697066732f516d50427874366b39386d69344759343169396e3276564e635658653577644b4c74644a465672544c433452544a2f30303030303030303030303030303030303030303030303030303030303030303030303030303030303030303030303030303030303030303030303030303031303030303030303030303030303030303030303030303030303030303030303030303030303030303030303030303030303030303030303030303030303030342e6a736f6e00000000000000",
        "nonce": "0x5da3d",
        "chainId": "0xa"
      },
      "additionalContracts": [],
      "isFixedGasLimit": false
    },
    {
      "hash": null,
      "transactionType": "CALL",
      "contractName": null,
      "contractAddress": "0xbc24012488bfcfe44875a139299595879c43c2cd",
      "function": "updateBadgeTierMetadata(uint256,uint256,string)",
      "arguments": [
        "1",
        "5",
        "ipfs/QmPBxt6k98mi4GY41i9n2vVNcVXe5wdKLtdJFVrTLC4RTJ/00000000000000000000000000000000000000000000000000000000000000010000000000000000000000000000000000000000000000000000000000000005.json"
      ],
      "transaction": {
        "from": "0x8835669696fb92839ab198cd80ce9f0d35f45ad5",
        "to": "0xbc24012488bfcfe44875a139299595879c43c2cd",
        "gas": "0x15688",
        "value": "0x0",
        "input": "0xc43e4f4c00000000000000000000000000000000000000000000000000000000000000010000000000000000000000000000000000000000000000000000000000000005000000000000000000000000000000000000000000000000000000000000006000000000000000000000000000000000000000000000000000000000000000b9697066732f516d50427874366b39386d69344759343169396e3276564e635658653577644b4c74644a465672544c433452544a2f30303030303030303030303030303030303030303030303030303030303030303030303030303030303030303030303030303030303030303030303030303031303030303030303030303030303030303030303030303030303030303030303030303030303030303030303030303030303030303030303030303030303030352e6a736f6e00000000000000",
        "nonce": "0x5da3e",
        "chainId": "0xa"
      },
      "additionalContracts": [],
      "isFixedGasLimit": false
    },
    {
      "hash": null,
      "transactionType": "CALL",
      "contractName": null,
      "contractAddress": "0xbc24012488bfcfe44875a139299595879c43c2cd",
      "function": "updateBadgeTierMetadata(uint256,uint256,string)",
      "arguments": [
        "2",
        "1",
        "ipfs/QmPBxt6k98mi4GY41i9n2vVNcVXe5wdKLtdJFVrTLC4RTJ/00000000000000000000000000000000000000000000000000000000000000020000000000000000000000000000000000000000000000000000000000000001.json"
      ],
      "transaction": {
        "from": "0x8835669696fb92839ab198cd80ce9f0d35f45ad5",
        "to": "0xbc24012488bfcfe44875a139299595879c43c2cd",
        "gas": "0x15688",
        "value": "0x0",
        "input": "0xc43e4f4c00000000000000000000000000000000000000000000000000000000000000020000000000000000000000000000000000000000000000000000000000000001000000000000000000000000000000000000000000000000000000000000006000000000000000000000000000000000000000000000000000000000000000b9697066732f516d50427874366b39386d69344759343169396e3276564e635658653577644b4c74644a465672544c433452544a2f30303030303030303030303030303030303030303030303030303030303030303030303030303030303030303030303030303030303030303030303030303032303030303030303030303030303030303030303030303030303030303030303030303030303030303030303030303030303030303030303030303030303030312e6a736f6e00000000000000",
        "nonce": "0x5da3f",
        "chainId": "0xa"
      },
      "additionalContracts": [],
      "isFixedGasLimit": false
    },
    {
      "hash": null,
      "transactionType": "CALL",
      "contractName": null,
      "contractAddress": "0xbc24012488bfcfe44875a139299595879c43c2cd",
      "function": "updateBadgeTierMetadata(uint256,uint256,string)",
      "arguments": [
        "2",
        "2",
        "ipfs/QmPBxt6k98mi4GY41i9n2vVNcVXe5wdKLtdJFVrTLC4RTJ/00000000000000000000000000000000000000000000000000000000000000020000000000000000000000000000000000000000000000000000000000000002.json"
      ],
      "transaction": {
        "from": "0x8835669696fb92839ab198cd80ce9f0d35f45ad5",
        "to": "0xbc24012488bfcfe44875a139299595879c43c2cd",
        "gas": "0x15688",
        "value": "0x0",
        "input": "0xc43e4f4c00000000000000000000000000000000000000000000000000000000000000020000000000000000000000000000000000000000000000000000000000000002000000000000000000000000000000000000000000000000000000000000006000000000000000000000000000000000000000000000000000000000000000b9697066732f516d50427874366b39386d69344759343169396e3276564e635658653577644b4c74644a465672544c433452544a2f30303030303030303030303030303030303030303030303030303030303030303030303030303030303030303030303030303030303030303030303030303032303030303030303030303030303030303030303030303030303030303030303030303030303030303030303030303030303030303030303030303030303030322e6a736f6e00000000000000",
        "nonce": "0x5da40",
        "chainId": "0xa"
      },
      "additionalContracts": [],
      "isFixedGasLimit": false
    },
    {
      "hash": null,
      "transactionType": "CALL",
      "contractName": null,
      "contractAddress": "0xbc24012488bfcfe44875a139299595879c43c2cd",
      "function": "updateBadgeTierMetadata(uint256,uint256,string)",
      "arguments": [
        "2",
        "3",
        "ipfs/QmPBxt6k98mi4GY41i9n2vVNcVXe5wdKLtdJFVrTLC4RTJ/00000000000000000000000000000000000000000000000000000000000000020000000000000000000000000000000000000000000000000000000000000003.json"
      ],
      "transaction": {
        "from": "0x8835669696fb92839ab198cd80ce9f0d35f45ad5",
        "to": "0xbc24012488bfcfe44875a139299595879c43c2cd",
        "gas": "0x15688",
        "value": "0x0",
        "input": "0xc43e4f4c00000000000000000000000000000000000000000000000000000000000000020000000000000000000000000000000000000000000000000000000000000003000000000000000000000000000000000000000000000000000000000000006000000000000000000000000000000000000000000000000000000000000000b9697066732f516d50427874366b39386d69344759343169396e3276564e635658653577644b4c74644a465672544c433452544a2f30303030303030303030303030303030303030303030303030303030303030303030303030303030303030303030303030303030303030303030303030303032303030303030303030303030303030303030303030303030303030303030303030303030303030303030303030303030303030303030303030303030303030332e6a736f6e00000000000000",
        "nonce": "0x5da41",
        "chainId": "0xa"
      },
      "additionalContracts": [],
      "isFixedGasLimit": false
    },
    {
      "hash": null,
      "transactionType": "CALL",
      "contractName": null,
      "contractAddress": "0xbc24012488bfcfe44875a139299595879c43c2cd",
      "function": "updateBadgeTierMetadata(uint256,uint256,string)",
      "arguments": [
        "2",
        "4",
        "ipfs/QmPBxt6k98mi4GY41i9n2vVNcVXe5wdKLtdJFVrTLC4RTJ/00000000000000000000000000000000000000000000000000000000000000020000000000000000000000000000000000000000000000000000000000000004.json"
      ],
      "transaction": {
        "from": "0x8835669696fb92839ab198cd80ce9f0d35f45ad5",
        "to": "0xbc24012488bfcfe44875a139299595879c43c2cd",
        "gas": "0x15688",
        "value": "0x0",
        "input": "0xc43e4f4c00000000000000000000000000000000000000000000000000000000000000020000000000000000000000000000000000000000000000000000000000000004000000000000000000000000000000000000000000000000000000000000006000000000000000000000000000000000000000000000000000000000000000b9697066732f516d50427874366b39386d69344759343169396e3276564e635658653577644b4c74644a465672544c433452544a2f30303030303030303030303030303030303030303030303030303030303030303030303030303030303030303030303030303030303030303030303030303032303030303030303030303030303030303030303030303030303030303030303030303030303030303030303030303030303030303030303030303030303030342e6a736f6e00000000000000",
        "nonce": "0x5da42",
        "chainId": "0xa"
      },
      "additionalContracts": [],
      "isFixedGasLimit": false
    },
    {
      "hash": null,
      "transactionType": "CALL",
      "contractName": null,
      "contractAddress": "0xbc24012488bfcfe44875a139299595879c43c2cd",
      "function": "updateBadgeTierMetadata(uint256,uint256,string)",
      "arguments": [
        "2",
        "5",
        "ipfs/QmPBxt6k98mi4GY41i9n2vVNcVXe5wdKLtdJFVrTLC4RTJ/00000000000000000000000000000000000000000000000000000000000000020000000000000000000000000000000000000000000000000000000000000005.json"
      ],
      "transaction": {
        "from": "0x8835669696fb92839ab198cd80ce9f0d35f45ad5",
        "to": "0xbc24012488bfcfe44875a139299595879c43c2cd",
        "gas": "0x15688",
        "value": "0x0",
        "input": "0xc43e4f4c00000000000000000000000000000000000000000000000000000000000000020000000000000000000000000000000000000000000000000000000000000005000000000000000000000000000000000000000000000000000000000000006000000000000000000000000000000000000000000000000000000000000000b9697066732f516d50427874366b39386d69344759343169396e3276564e635658653577644b4c74644a465672544c433452544a2f30303030303030303030303030303030303030303030303030303030303030303030303030303030303030303030303030303030303030303030303030303032303030303030303030303030303030303030303030303030303030303030303030303030303030303030303030303030303030303030303030303030303030352e6a736f6e00000000000000",
        "nonce": "0x5da43",
        "chainId": "0xa"
      },
      "additionalContracts": [],
      "isFixedGasLimit": false
    },
    {
      "hash": null,
      "transactionType": "CALL",
      "contractName": null,
      "contractAddress": "0xbc24012488bfcfe44875a139299595879c43c2cd",
      "function": "updateBadgeTierMetadata(uint256,uint256,string)",
      "arguments": [
        "3",
        "1",
        "ipfs/QmPBxt6k98mi4GY41i9n2vVNcVXe5wdKLtdJFVrTLC4RTJ/00000000000000000000000000000000000000000000000000000000000000030000000000000000000000000000000000000000000000000000000000000001.json"
      ],
      "transaction": {
        "from": "0x8835669696fb92839ab198cd80ce9f0d35f45ad5",
        "to": "0xbc24012488bfcfe44875a139299595879c43c2cd",
        "gas": "0x15688",
        "value": "0x0",
        "input": "0xc43e4f4c00000000000000000000000000000000000000000000000000000000000000030000000000000000000000000000000000000000000000000000000000000001000000000000000000000000000000000000000000000000000000000000006000000000000000000000000000000000000000000000000000000000000000b9697066732f516d50427874366b39386d69344759343169396e3276564e635658653577644b4c74644a465672544c433452544a2f30303030303030303030303030303030303030303030303030303030303030303030303030303030303030303030303030303030303030303030303030303033303030303030303030303030303030303030303030303030303030303030303030303030303030303030303030303030303030303030303030303030303030312e6a736f6e00000000000000",
        "nonce": "0x5da44",
        "chainId": "0xa"
      },
      "additionalContracts": [],
      "isFixedGasLimit": false
    },
    {
      "hash": null,
      "transactionType": "CALL",
      "contractName": null,
      "contractAddress": "0xbc24012488bfcfe44875a139299595879c43c2cd",
      "function": "updateBadgeTierMetadata(uint256,uint256,string)",
      "arguments": [
        "3",
        "2",
        "ipfs/QmPBxt6k98mi4GY41i9n2vVNcVXe5wdKLtdJFVrTLC4RTJ/00000000000000000000000000000000000000000000000000000000000000030000000000000000000000000000000000000000000000000000000000000002.json"
      ],
      "transaction": {
        "from": "0x8835669696fb92839ab198cd80ce9f0d35f45ad5",
        "to": "0xbc24012488bfcfe44875a139299595879c43c2cd",
        "gas": "0x15688",
        "value": "0x0",
        "input": "0xc43e4f4c00000000000000000000000000000000000000000000000000000000000000030000000000000000000000000000000000000000000000000000000000000002000000000000000000000000000000000000000000000000000000000000006000000000000000000000000000000000000000000000000000000000000000b9697066732f516d50427874366b39386d69344759343169396e3276564e635658653577644b4c74644a465672544c433452544a2f30303030303030303030303030303030303030303030303030303030303030303030303030303030303030303030303030303030303030303030303030303033303030303030303030303030303030303030303030303030303030303030303030303030303030303030303030303030303030303030303030303030303030322e6a736f6e00000000000000",
        "nonce": "0x5da45",
        "chainId": "0xa"
      },
      "additionalContracts": [],
      "isFixedGasLimit": false
    },
    {
      "hash": null,
      "transactionType": "CALL",
      "contractName": null,
      "contractAddress": "0xbc24012488bfcfe44875a139299595879c43c2cd",
      "function": "updateBadgeTierMetadata(uint256,uint256,string)",
      "arguments": [
        "3",
        "3",
        "ipfs/QmPBxt6k98mi4GY41i9n2vVNcVXe5wdKLtdJFVrTLC4RTJ/00000000000000000000000000000000000000000000000000000000000000030000000000000000000000000000000000000000000000000000000000000003.json"
      ],
      "transaction": {
        "from": "0x8835669696fb92839ab198cd80ce9f0d35f45ad5",
        "to": "0xbc24012488bfcfe44875a139299595879c43c2cd",
        "gas": "0x15688",
        "value": "0x0",
        "input": "0xc43e4f4c00000000000000000000000000000000000000000000000000000000000000030000000000000000000000000000000000000000000000000000000000000003000000000000000000000000000000000000000000000000000000000000006000000000000000000000000000000000000000000000000000000000000000b9697066732f516d50427874366b39386d69344759343169396e3276564e635658653577644b4c74644a465672544c433452544a2f30303030303030303030303030303030303030303030303030303030303030303030303030303030303030303030303030303030303030303030303030303033303030303030303030303030303030303030303030303030303030303030303030303030303030303030303030303030303030303030303030303030303030332e6a736f6e00000000000000",
        "nonce": "0x5da46",
        "chainId": "0xa"
      },
      "additionalContracts": [],
      "isFixedGasLimit": false
    },
    {
      "hash": null,
      "transactionType": "CALL",
      "contractName": null,
      "contractAddress": "0xbc24012488bfcfe44875a139299595879c43c2cd",
      "function": "updateBadgeTierMetadata(uint256,uint256,string)",
      "arguments": [
        "4",
        "1",
        "ipfs/QmPBxt6k98mi4GY41i9n2vVNcVXe5wdKLtdJFVrTLC4RTJ/00000000000000000000000000000000000000000000000000000000000000040000000000000000000000000000000000000000000000000000000000000001.json"
      ],
      "transaction": {
        "from": "0x8835669696fb92839ab198cd80ce9f0d35f45ad5",
        "to": "0xbc24012488bfcfe44875a139299595879c43c2cd",
        "gas": "0x15688",
        "value": "0x0",
        "input": "0xc43e4f4c00000000000000000000000000000000000000000000000000000000000000040000000000000000000000000000000000000000000000000000000000000001000000000000000000000000000000000000000000000000000000000000006000000000000000000000000000000000000000000000000000000000000000b9697066732f516d50427874366b39386d69344759343169396e3276564e635658653577644b4c74644a465672544c433452544a2f30303030303030303030303030303030303030303030303030303030303030303030303030303030303030303030303030303030303030303030303030303034303030303030303030303030303030303030303030303030303030303030303030303030303030303030303030303030303030303030303030303030303030312e6a736f6e00000000000000",
        "nonce": "0x5da47",
        "chainId": "0xa"
      },
      "additionalContracts": [],
      "isFixedGasLimit": false
    },
    {
      "hash": null,
      "transactionType": "CALL",
      "contractName": null,
      "contractAddress": "0xbc24012488bfcfe44875a139299595879c43c2cd",
      "function": "updateBadgeTierMetadata(uint256,uint256,string)",
      "arguments": [
        "4",
        "2",
        "ipfs/QmPBxt6k98mi4GY41i9n2vVNcVXe5wdKLtdJFVrTLC4RTJ/00000000000000000000000000000000000000000000000000000000000000040000000000000000000000000000000000000000000000000000000000000002.json"
      ],
      "transaction": {
        "from": "0x8835669696fb92839ab198cd80ce9f0d35f45ad5",
        "to": "0xbc24012488bfcfe44875a139299595879c43c2cd",
        "gas": "0x15688",
        "value": "0x0",
        "input": "0xc43e4f4c00000000000000000000000000000000000000000000000000000000000000040000000000000000000000000000000000000000000000000000000000000002000000000000000000000000000000000000000000000000000000000000006000000000000000000000000000000000000000000000000000000000000000b9697066732f516d50427874366b39386d69344759343169396e3276564e635658653577644b4c74644a465672544c433452544a2f30303030303030303030303030303030303030303030303030303030303030303030303030303030303030303030303030303030303030303030303030303034303030303030303030303030303030303030303030303030303030303030303030303030303030303030303030303030303030303030303030303030303030322e6a736f6e00000000000000",
        "nonce": "0x5da48",
        "chainId": "0xa"
      },
      "additionalContracts": [],
      "isFixedGasLimit": false
    },
    {
      "hash": null,
      "transactionType": "CALL",
      "contractName": null,
      "contractAddress": "0xbc24012488bfcfe44875a139299595879c43c2cd",
      "function": "updateBadgeTierMetadata(uint256,uint256,string)",
      "arguments": [
        "4",
        "3",
        "ipfs/QmPBxt6k98mi4GY41i9n2vVNcVXe5wdKLtdJFVrTLC4RTJ/00000000000000000000000000000000000000000000000000000000000000040000000000000000000000000000000000000000000000000000000000000003.json"
      ],
      "transaction": {
        "from": "0x8835669696fb92839ab198cd80ce9f0d35f45ad5",
        "to": "0xbc24012488bfcfe44875a139299595879c43c2cd",
        "gas": "0x15688",
        "value": "0x0",
        "input": "0xc43e4f4c00000000000000000000000000000000000000000000000000000000000000040000000000000000000000000000000000000000000000000000000000000003000000000000000000000000000000000000000000000000000000000000006000000000000000000000000000000000000000000000000000000000000000b9697066732f516d50427874366b39386d69344759343169396e3276564e635658653577644b4c74644a465672544c433452544a2f30303030303030303030303030303030303030303030303030303030303030303030303030303030303030303030303030303030303030303030303030303034303030303030303030303030303030303030303030303030303030303030303030303030303030303030303030303030303030303030303030303030303030332e6a736f6e00000000000000",
        "nonce": "0x5da49",
        "chainId": "0xa"
      },
      "additionalContracts": [],
      "isFixedGasLimit": false
    },
    {
      "hash": null,
      "transactionType": "CALL",
      "contractName": null,
      "contractAddress": "0xbc24012488bfcfe44875a139299595879c43c2cd",
      "function": "updateBadgeTierMetadata(uint256,uint256,string)",
      "arguments": [
        "5",
        "1",
        "ipfs/QmPBxt6k98mi4GY41i9n2vVNcVXe5wdKLtdJFVrTLC4RTJ/00000000000000000000000000000000000000000000000000000000000000050000000000000000000000000000000000000000000000000000000000000001.json"
      ],
      "transaction": {
        "from": "0x8835669696fb92839ab198cd80ce9f0d35f45ad5",
        "to": "0xbc24012488bfcfe44875a139299595879c43c2cd",
        "gas": "0x15688",
        "value": "0x0",
        "input": "0xc43e4f4c00000000000000000000000000000000000000000000000000000000000000050000000000000000000000000000000000000000000000000000000000000001000000000000000000000000000000000000000000000000000000000000006000000000000000000000000000000000000000000000000000000000000000b9697066732f516d50427874366b39386d69344759343169396e3276564e635658653577644b4c74644a465672544c433452544a2f30303030303030303030303030303030303030303030303030303030303030303030303030303030303030303030303030303030303030303030303030303035303030303030303030303030303030303030303030303030303030303030303030303030303030303030303030303030303030303030303030303030303030312e6a736f6e00000000000000",
        "nonce": "0x5da4a",
        "chainId": "0xa"
      },
      "additionalContracts": [],
      "isFixedGasLimit": false
    },
    {
      "hash": null,
      "transactionType": "CALL",
      "contractName": null,
      "contractAddress": "0xbc24012488bfcfe44875a139299595879c43c2cd",
      "function": "updateBadgeTierMetadata(uint256,uint256,string)",
      "arguments": [
        "6",
        "1",
        "ipfs/QmPBxt6k98mi4GY41i9n2vVNcVXe5wdKLtdJFVrTLC4RTJ/00000000000000000000000000000000000000000000000000000000000000060000000000000000000000000000000000000000000000000000000000000001.json"
      ],
      "transaction": {
        "from": "0x8835669696fb92839ab198cd80ce9f0d35f45ad5",
        "to": "0xbc24012488bfcfe44875a139299595879c43c2cd",
        "gas": "0x15688",
        "value": "0x0",
        "input": "0xc43e4f4c00000000000000000000000000000000000000000000000000000000000000060000000000000000000000000000000000000000000000000000000000000001000000000000000000000000000000000000000000000000000000000000006000000000000000000000000000000000000000000000000000000000000000b9697066732f516d50427874366b39386d69344759343169396e3276564e635658653577644b4c74644a465672544c433452544a2f30303030303030303030303030303030303030303030303030303030303030303030303030303030303030303030303030303030303030303030303030303036303030303030303030303030303030303030303030303030303030303030303030303030303030303030303030303030303030303030303030303030303030312e6a736f6e00000000000000",
        "nonce": "0x5da4b",
        "chainId": "0xa"
      },
      "additionalContracts": [],
      "isFixedGasLimit": false
    },
    {
      "hash": null,
      "transactionType": "CALL",
      "contractName": null,
      "contractAddress": "0xbc24012488bfcfe44875a139299595879c43c2cd",
      "function": "updateBadgeTierMetadata(uint256,uint256,string)",
      "arguments": [
        "6",
        "2",
        "ipfs/QmPBxt6k98mi4GY41i9n2vVNcVXe5wdKLtdJFVrTLC4RTJ/00000000000000000000000000000000000000000000000000000000000000060000000000000000000000000000000000000000000000000000000000000002.json"
      ],
      "transaction": {
        "from": "0x8835669696fb92839ab198cd80ce9f0d35f45ad5",
        "to": "0xbc24012488bfcfe44875a139299595879c43c2cd",
        "gas": "0x15688",
        "value": "0x0",
        "input": "0xc43e4f4c00000000000000000000000000000000000000000000000000000000000000060000000000000000000000000000000000000000000000000000000000000002000000000000000000000000000000000000000000000000000000000000006000000000000000000000000000000000000000000000000000000000000000b9697066732f516d50427874366b39386d69344759343169396e3276564e635658653577644b4c74644a465672544c433452544a2f30303030303030303030303030303030303030303030303030303030303030303030303030303030303030303030303030303030303030303030303030303036303030303030303030303030303030303030303030303030303030303030303030303030303030303030303030303030303030303030303030303030303030322e6a736f6e00000000000000",
        "nonce": "0x5da4c",
        "chainId": "0xa"
      },
      "additionalContracts": [],
      "isFixedGasLimit": false
    },
    {
      "hash": null,
      "transactionType": "CALL",
      "contractName": null,
      "contractAddress": "0xbc24012488bfcfe44875a139299595879c43c2cd",
      "function": "updateBadgeTierMetadata(uint256,uint256,string)",
      "arguments": [
        "6",
        "3",
        "ipfs/QmPBxt6k98mi4GY41i9n2vVNcVXe5wdKLtdJFVrTLC4RTJ/00000000000000000000000000000000000000000000000000000000000000060000000000000000000000000000000000000000000000000000000000000003.json"
      ],
      "transaction": {
        "from": "0x8835669696fb92839ab198cd80ce9f0d35f45ad5",
        "to": "0xbc24012488bfcfe44875a139299595879c43c2cd",
        "gas": "0x15688",
        "value": "0x0",
        "input": "0xc43e4f4c00000000000000000000000000000000000000000000000000000000000000060000000000000000000000000000000000000000000000000000000000000003000000000000000000000000000000000000000000000000000000000000006000000000000000000000000000000000000000000000000000000000000000b9697066732f516d50427874366b39386d69344759343169396e3276564e635658653577644b4c74644a465672544c433452544a2f30303030303030303030303030303030303030303030303030303030303030303030303030303030303030303030303030303030303030303030303030303036303030303030303030303030303030303030303030303030303030303030303030303030303030303030303030303030303030303030303030303030303030332e6a736f6e00000000000000",
        "nonce": "0x5da4d",
        "chainId": "0xa"
      },
      "additionalContracts": [],
      "isFixedGasLimit": false
    },
    {
      "hash": null,
      "transactionType": "CALL",
      "contractName": null,
      "contractAddress": "0xbc24012488bfcfe44875a139299595879c43c2cd",
      "function": "updateBadgeTierMetadata(uint256,uint256,string)",
      "arguments": [
        "6",
        "4",
        "ipfs/QmPBxt6k98mi4GY41i9n2vVNcVXe5wdKLtdJFVrTLC4RTJ/00000000000000000000000000000000000000000000000000000000000000060000000000000000000000000000000000000000000000000000000000000004.json"
      ],
      "transaction": {
        "from": "0x8835669696fb92839ab198cd80ce9f0d35f45ad5",
        "to": "0xbc24012488bfcfe44875a139299595879c43c2cd",
        "gas": "0x15688",
        "value": "0x0",
        "input": "0xc43e4f4c00000000000000000000000000000000000000000000000000000000000000060000000000000000000000000000000000000000000000000000000000000004000000000000000000000000000000000000000000000000000000000000006000000000000000000000000000000000000000000000000000000000000000b9697066732f516d50427874366b39386d69344759343169396e3276564e635658653577644b4c74644a465672544c433452544a2f30303030303030303030303030303030303030303030303030303030303030303030303030303030303030303030303030303030303030303030303030303036303030303030303030303030303030303030303030303030303030303030303030303030303030303030303030303030303030303030303030303030303030342e6a736f6e00000000000000",
        "nonce": "0x5da4e",
        "chainId": "0xa"
      },
      "additionalContracts": [],
      "isFixedGasLimit": false
    },
    {
      "hash": null,
      "transactionType": "CALL",
      "contractName": null,
      "contractAddress": "0xbc24012488bfcfe44875a139299595879c43c2cd",
      "function": "updateBadgeTierMetadata(uint256,uint256,string)",
      "arguments": [
        "7",
        "1",
        "ipfs/QmPBxt6k98mi4GY41i9n2vVNcVXe5wdKLtdJFVrTLC4RTJ/00000000000000000000000000000000000000000000000000000000000000070000000000000000000000000000000000000000000000000000000000000001.json"
      ],
      "transaction": {
        "from": "0x8835669696fb92839ab198cd80ce9f0d35f45ad5",
        "to": "0xbc24012488bfcfe44875a139299595879c43c2cd",
        "gas": "0x15688",
        "value": "0x0",
        "input": "0xc43e4f4c00000000000000000000000000000000000000000000000000000000000000070000000000000000000000000000000000000000000000000000000000000001000000000000000000000000000000000000000000000000000000000000006000000000000000000000000000000000000000000000000000000000000000b9697066732f516d50427874366b39386d69344759343169396e3276564e635658653577644b4c74644a465672544c433452544a2f30303030303030303030303030303030303030303030303030303030303030303030303030303030303030303030303030303030303030303030303030303037303030303030303030303030303030303030303030303030303030303030303030303030303030303030303030303030303030303030303030303030303030312e6a736f6e00000000000000",
        "nonce": "0x5da4f",
        "chainId": "0xa"
      },
      "additionalContracts": [],
      "isFixedGasLimit": false
    },
    {
      "hash": null,
      "transactionType": "CALL",
      "contractName": null,
      "contractAddress": "0xbc24012488bfcfe44875a139299595879c43c2cd",
      "function": "updateBadgeTierMetadata(uint256,uint256,string)",
      "arguments": [
        "7",
        "2",
        "ipfs/QmPBxt6k98mi4GY41i9n2vVNcVXe5wdKLtdJFVrTLC4RTJ/00000000000000000000000000000000000000000000000000000000000000070000000000000000000000000000000000000000000000000000000000000002.json"
      ],
      "transaction": {
        "from": "0x8835669696fb92839ab198cd80ce9f0d35f45ad5",
        "to": "0xbc24012488bfcfe44875a139299595879c43c2cd",
        "gas": "0x15688",
        "value": "0x0",
        "input": "0xc43e4f4c00000000000000000000000000000000000000000000000000000000000000070000000000000000000000000000000000000000000000000000000000000002000000000000000000000000000000000000000000000000000000000000006000000000000000000000000000000000000000000000000000000000000000b9697066732f516d50427874366b39386d69344759343169396e3276564e635658653577644b4c74644a465672544c433452544a2f30303030303030303030303030303030303030303030303030303030303030303030303030303030303030303030303030303030303030303030303030303037303030303030303030303030303030303030303030303030303030303030303030303030303030303030303030303030303030303030303030303030303030322e6a736f6e00000000000000",
        "nonce": "0x5da50",
        "chainId": "0xa"
      },
      "additionalContracts": [],
      "isFixedGasLimit": false
    },
    {
      "hash": null,
      "transactionType": "CALL",
      "contractName": null,
      "contractAddress": "0xbc24012488bfcfe44875a139299595879c43c2cd",
      "function": "updateBadgeTierMetadata(uint256,uint256,string)",
      "arguments": [
        "7",
        "3",
        "ipfs/QmPBxt6k98mi4GY41i9n2vVNcVXe5wdKLtdJFVrTLC4RTJ/00000000000000000000000000000000000000000000000000000000000000070000000000000000000000000000000000000000000000000000000000000003.json"
      ],
      "transaction": {
        "from": "0x8835669696fb92839ab198cd80ce9f0d35f45ad5",
        "to": "0xbc24012488bfcfe44875a139299595879c43c2cd",
        "gas": "0x15688",
        "value": "0x0",
        "input": "0xc43e4f4c00000000000000000000000000000000000000000000000000000000000000070000000000000000000000000000000000000000000000000000000000000003000000000000000000000000000000000000000000000000000000000000006000000000000000000000000000000000000000000000000000000000000000b9697066732f516d50427874366b39386d69344759343169396e3276564e635658653577644b4c74644a465672544c433452544a2f30303030303030303030303030303030303030303030303030303030303030303030303030303030303030303030303030303030303030303030303030303037303030303030303030303030303030303030303030303030303030303030303030303030303030303030303030303030303030303030303030303030303030332e6a736f6e00000000000000",
        "nonce": "0x5da51",
        "chainId": "0xa"
      },
      "additionalContracts": [],
      "isFixedGasLimit": false
    },
    {
      "hash": null,
      "transactionType": "CALL",
      "contractName": null,
      "contractAddress": "0xbc24012488bfcfe44875a139299595879c43c2cd",
      "function": "updateBadgeTierMetadata(uint256,uint256,string)",
      "arguments": [
        "8",
        "1",
        "ipfs/QmPBxt6k98mi4GY41i9n2vVNcVXe5wdKLtdJFVrTLC4RTJ/00000000000000000000000000000000000000000000000000000000000000080000000000000000000000000000000000000000000000000000000000000001.json"
      ],
      "transaction": {
        "from": "0x8835669696fb92839ab198cd80ce9f0d35f45ad5",
        "to": "0xbc24012488bfcfe44875a139299595879c43c2cd",
        "gas": "0x15688",
        "value": "0x0",
        "input": "0xc43e4f4c00000000000000000000000000000000000000000000000000000000000000080000000000000000000000000000000000000000000000000000000000000001000000000000000000000000000000000000000000000000000000000000006000000000000000000000000000000000000000000000000000000000000000b9697066732f516d50427874366b39386d69344759343169396e3276564e635658653577644b4c74644a465672544c433452544a2f30303030303030303030303030303030303030303030303030303030303030303030303030303030303030303030303030303030303030303030303030303038303030303030303030303030303030303030303030303030303030303030303030303030303030303030303030303030303030303030303030303030303030312e6a736f6e00000000000000",
        "nonce": "0x5da52",
        "chainId": "0xa"
      },
      "additionalContracts": [],
      "isFixedGasLimit": false
    },
    {
      "hash": null,
      "transactionType": "CALL",
      "contractName": null,
      "contractAddress": "0xbc24012488bfcfe44875a139299595879c43c2cd",
      "function": "updateBadgeTierMetadata(uint256,uint256,string)",
      "arguments": [
        "9",
        "1",
        "ipfs/QmPBxt6k98mi4GY41i9n2vVNcVXe5wdKLtdJFVrTLC4RTJ/00000000000000000000000000000000000000000000000000000000000000090000000000000000000000000000000000000000000000000000000000000001.json"
      ],
      "transaction": {
        "from": "0x8835669696fb92839ab198cd80ce9f0d35f45ad5",
        "to": "0xbc24012488bfcfe44875a139299595879c43c2cd",
        "gas": "0x15688",
        "value": "0x0",
        "input": "0xc43e4f4c00000000000000000000000000000000000000000000000000000000000000090000000000000000000000000000000000000000000000000000000000000001000000000000000000000000000000000000000000000000000000000000006000000000000000000000000000000000000000000000000000000000000000b9697066732f516d50427874366b39386d69344759343169396e3276564e635658653577644b4c74644a465672544c433452544a2f30303030303030303030303030303030303030303030303030303030303030303030303030303030303030303030303030303030303030303030303030303039303030303030303030303030303030303030303030303030303030303030303030303030303030303030303030303030303030303030303030303030303030312e6a736f6e00000000000000",
        "nonce": "0x5da53",
        "chainId": "0xa"
      },
      "additionalContracts": [],
      "isFixedGasLimit": false
    },
    {
      "hash": null,
      "transactionType": "CALL",
      "contractName": null,
      "contractAddress": "0xbc24012488bfcfe44875a139299595879c43c2cd",
      "function": "updateBadgeTierMetadata(uint256,uint256,string)",
      "arguments": [
        "9",
        "2",
        "ipfs/QmPBxt6k98mi4GY41i9n2vVNcVXe5wdKLtdJFVrTLC4RTJ/00000000000000000000000000000000000000000000000000000000000000090000000000000000000000000000000000000000000000000000000000000002.json"
      ],
      "transaction": {
        "from": "0x8835669696fb92839ab198cd80ce9f0d35f45ad5",
        "to": "0xbc24012488bfcfe44875a139299595879c43c2cd",
        "gas": "0x15688",
        "value": "0x0",
        "input": "0xc43e4f4c00000000000000000000000000000000000000000000000000000000000000090000000000000000000000000000000000000000000000000000000000000002000000000000000000000000000000000000000000000000000000000000006000000000000000000000000000000000000000000000000000000000000000b9697066732f516d50427874366b39386d69344759343169396e3276564e635658653577644b4c74644a465672544c433452544a2f30303030303030303030303030303030303030303030303030303030303030303030303030303030303030303030303030303030303030303030303030303039303030303030303030303030303030303030303030303030303030303030303030303030303030303030303030303030303030303030303030303030303030322e6a736f6e00000000000000",
        "nonce": "0x5da54",
        "chainId": "0xa"
      },
      "additionalContracts": [],
      "isFixedGasLimit": false
    },
    {
      "hash": null,
      "transactionType": "CALL",
      "contractName": null,
      "contractAddress": "0xbc24012488bfcfe44875a139299595879c43c2cd",
      "function": "updateBadgeTierMetadata(uint256,uint256,string)",
      "arguments": [
        "9",
        "3",
        "ipfs/QmPBxt6k98mi4GY41i9n2vVNcVXe5wdKLtdJFVrTLC4RTJ/00000000000000000000000000000000000000000000000000000000000000090000000000000000000000000000000000000000000000000000000000000003.json"
      ],
      "transaction": {
        "from": "0x8835669696fb92839ab198cd80ce9f0d35f45ad5",
        "to": "0xbc24012488bfcfe44875a139299595879c43c2cd",
        "gas": "0x15688",
        "value": "0x0",
        "input": "0xc43e4f4c00000000000000000000000000000000000000000000000000000000000000090000000000000000000000000000000000000000000000000000000000000003000000000000000000000000000000000000000000000000000000000000006000000000000000000000000000000000000000000000000000000000000000b9697066732f516d50427874366b39386d69344759343169396e3276564e635658653577644b4c74644a465672544c433452544a2f30303030303030303030303030303030303030303030303030303030303030303030303030303030303030303030303030303030303030303030303030303039303030303030303030303030303030303030303030303030303030303030303030303030303030303030303030303030303030303030303030303030303030332e6a736f6e00000000000000",
        "nonce": "0x5da55",
        "chainId": "0xa"
      },
      "additionalContracts": [],
      "isFixedGasLimit": false
    },
    {
      "hash": null,
      "transactionType": "CALL",
      "contractName": null,
      "contractAddress": "0xbc24012488bfcfe44875a139299595879c43c2cd",
      "function": "updateBadgeTierMetadata(uint256,uint256,string)",
      "arguments": [
        "9",
        "4",
        "ipfs/QmPBxt6k98mi4GY41i9n2vVNcVXe5wdKLtdJFVrTLC4RTJ/00000000000000000000000000000000000000000000000000000000000000090000000000000000000000000000000000000000000000000000000000000004.json"
      ],
      "transaction": {
        "from": "0x8835669696fb92839ab198cd80ce9f0d35f45ad5",
        "to": "0xbc24012488bfcfe44875a139299595879c43c2cd",
        "gas": "0x15688",
        "value": "0x0",
        "input": "0xc43e4f4c00000000000000000000000000000000000000000000000000000000000000090000000000000000000000000000000000000000000000000000000000000004000000000000000000000000000000000000000000000000000000000000006000000000000000000000000000000000000000000000000000000000000000b9697066732f516d50427874366b39386d69344759343169396e3276564e635658653577644b4c74644a465672544c433452544a2f30303030303030303030303030303030303030303030303030303030303030303030303030303030303030303030303030303030303030303030303030303039303030303030303030303030303030303030303030303030303030303030303030303030303030303030303030303030303030303030303030303030303030342e6a736f6e00000000000000",
        "nonce": "0x5da56",
        "chainId": "0xa"
      },
      "additionalContracts": [],
      "isFixedGasLimit": false
    },
    {
      "hash": null,
      "transactionType": "CALL",
      "contractName": null,
      "contractAddress": "0xbc24012488bfcfe44875a139299595879c43c2cd",
      "function": "updateBadgeTierMetadata(uint256,uint256,string)",
      "arguments": [
        "10",
        "1",
        "ipfs/QmPBxt6k98mi4GY41i9n2vVNcVXe5wdKLtdJFVrTLC4RTJ/00000000000000000000000000000000000000000000000000000000000000100000000000000000000000000000000000000000000000000000000000000001.json"
      ],
      "transaction": {
        "from": "0x8835669696fb92839ab198cd80ce9f0d35f45ad5",
        "to": "0xbc24012488bfcfe44875a139299595879c43c2cd",
        "gas": "0x15688",
        "value": "0x0",
        "input": "0xc43e4f4c000000000000000000000000000000000000000000000000000000000000000a0000000000000000000000000000000000000000000000000000000000000001000000000000000000000000000000000000000000000000000000000000006000000000000000000000000000000000000000000000000000000000000000b9697066732f516d50427874366b39386d69344759343169396e3276564e635658653577644b4c74644a465672544c433452544a2f30303030303030303030303030303030303030303030303030303030303030303030303030303030303030303030303030303030303030303030303030303130303030303030303030303030303030303030303030303030303030303030303030303030303030303030303030303030303030303030303030303030303030312e6a736f6e00000000000000",
        "nonce": "0x5da57",
        "chainId": "0xa"
      },
      "additionalContracts": [],
      "isFixedGasLimit": false
    },
    {
      "hash": null,
      "transactionType": "CALL",
      "contractName": null,
      "contractAddress": "0xbc24012488bfcfe44875a139299595879c43c2cd",
      "function": "updateBadgeTierMetadata(uint256,uint256,string)",
      "arguments": [
        "10",
        "2",
        "ipfs/QmPBxt6k98mi4GY41i9n2vVNcVXe5wdKLtdJFVrTLC4RTJ/00000000000000000000000000000000000000000000000000000000000000100000000000000000000000000000000000000000000000000000000000000002.json"
      ],
      "transaction": {
        "from": "0x8835669696fb92839ab198cd80ce9f0d35f45ad5",
        "to": "0xbc24012488bfcfe44875a139299595879c43c2cd",
        "gas": "0x15688",
        "value": "0x0",
        "input": "0xc43e4f4c000000000000000000000000000000000000000000000000000000000000000a0000000000000000000000000000000000000000000000000000000000000002000000000000000000000000000000000000000000000000000000000000006000000000000000000000000000000000000000000000000000000000000000b9697066732f516d50427874366b39386d69344759343169396e3276564e635658653577644b4c74644a465672544c433452544a2f30303030303030303030303030303030303030303030303030303030303030303030303030303030303030303030303030303030303030303030303030303130303030303030303030303030303030303030303030303030303030303030303030303030303030303030303030303030303030303030303030303030303030322e6a736f6e00000000000000",
        "nonce": "0x5da58",
        "chainId": "0xa"
      },
      "additionalContracts": [],
      "isFixedGasLimit": false
    },
    {
      "hash": null,
      "transactionType": "CALL",
      "contractName": null,
      "contractAddress": "0xbc24012488bfcfe44875a139299595879c43c2cd",
      "function": "updateBadgeTierMetadata(uint256,uint256,string)",
      "arguments": [
        "10",
        "3",
        "ipfs/QmPBxt6k98mi4GY41i9n2vVNcVXe5wdKLtdJFVrTLC4RTJ/00000000000000000000000000000000000000000000000000000000000000100000000000000000000000000000000000000000000000000000000000000003.json"
      ],
      "transaction": {
        "from": "0x8835669696fb92839ab198cd80ce9f0d35f45ad5",
        "to": "0xbc24012488bfcfe44875a139299595879c43c2cd",
        "gas": "0x15688",
        "value": "0x0",
        "input": "0xc43e4f4c000000000000000000000000000000000000000000000000000000000000000a0000000000000000000000000000000000000000000000000000000000000003000000000000000000000000000000000000000000000000000000000000006000000000000000000000000000000000000000000000000000000000000000b9697066732f516d50427874366b39386d69344759343169396e3276564e635658653577644b4c74644a465672544c433452544a2f30303030303030303030303030303030303030303030303030303030303030303030303030303030303030303030303030303030303030303030303030303130303030303030303030303030303030303030303030303030303030303030303030303030303030303030303030303030303030303030303030303030303030332e6a736f6e00000000000000",
        "nonce": "0x5da59",
        "chainId": "0xa"
      },
      "additionalContracts": [],
      "isFixedGasLimit": false
    },
    {
      "hash": null,
      "transactionType": "CALL",
      "contractName": null,
      "contractAddress": "0xbc24012488bfcfe44875a139299595879c43c2cd",
      "function": "updateBadgeTierMetadata(uint256,uint256,string)",
      "arguments": [
        "10",
        "4",
        "ipfs/QmPBxt6k98mi4GY41i9n2vVNcVXe5wdKLtdJFVrTLC4RTJ/00000000000000000000000000000000000000000000000000000000000000100000000000000000000000000000000000000000000000000000000000000004.json"
      ],
      "transaction": {
        "from": "0x8835669696fb92839ab198cd80ce9f0d35f45ad5",
        "to": "0xbc24012488bfcfe44875a139299595879c43c2cd",
        "gas": "0x15688",
        "value": "0x0",
        "input": "0xc43e4f4c000000000000000000000000000000000000000000000000000000000000000a0000000000000000000000000000000000000000000000000000000000000004000000000000000000000000000000000000000000000000000000000000006000000000000000000000000000000000000000000000000000000000000000b9697066732f516d50427874366b39386d69344759343169396e3276564e635658653577644b4c74644a465672544c433452544a2f30303030303030303030303030303030303030303030303030303030303030303030303030303030303030303030303030303030303030303030303030303130303030303030303030303030303030303030303030303030303030303030303030303030303030303030303030303030303030303030303030303030303030342e6a736f6e00000000000000",
        "nonce": "0x5da5a",
        "chainId": "0xa"
      },
      "additionalContracts": [],
      "isFixedGasLimit": false
    },
    {
      "hash": null,
      "transactionType": "CALL",
      "contractName": null,
      "contractAddress": "0xbc24012488bfcfe44875a139299595879c43c2cd",
      "function": "updateBadgeTierMetadata(uint256,uint256,string)",
      "arguments": [
        "10",
        "5",
        "ipfs/QmPBxt6k98mi4GY41i9n2vVNcVXe5wdKLtdJFVrTLC4RTJ/00000000000000000000000000000000000000000000000000000000000000100000000000000000000000000000000000000000000000000000000000000005.json"
      ],
      "transaction": {
        "from": "0x8835669696fb92839ab198cd80ce9f0d35f45ad5",
        "to": "0xbc24012488bfcfe44875a139299595879c43c2cd",
        "gas": "0x15688",
        "value": "0x0",
        "input": "0xc43e4f4c000000000000000000000000000000000000000000000000000000000000000a0000000000000000000000000000000000000000000000000000000000000005000000000000000000000000000000000000000000000000000000000000006000000000000000000000000000000000000000000000000000000000000000b9697066732f516d50427874366b39386d69344759343169396e3276564e635658653577644b4c74644a465672544c433452544a2f30303030303030303030303030303030303030303030303030303030303030303030303030303030303030303030303030303030303030303030303030303130303030303030303030303030303030303030303030303030303030303030303030303030303030303030303030303030303030303030303030303030303030352e6a736f6e00000000000000",
        "nonce": "0x5da5b",
        "chainId": "0xa"
      },
      "additionalContracts": [],
      "isFixedGasLimit": false
    },
    {
      "hash": null,
      "transactionType": "CALL",
      "contractName": null,
      "contractAddress": "0xbc24012488bfcfe44875a139299595879c43c2cd",
      "function": "updateBadgeTierMetadata(uint256,uint256,string)",
      "arguments": [
        "11",
        "1",
        "ipfs/QmPBxt6k98mi4GY41i9n2vVNcVXe5wdKLtdJFVrTLC4RTJ/00000000000000000000000000000000000000000000000000000000000000110000000000000000000000000000000000000000000000000000000000000001.json"
      ],
      "transaction": {
        "from": "0x8835669696fb92839ab198cd80ce9f0d35f45ad5",
        "to": "0xbc24012488bfcfe44875a139299595879c43c2cd",
        "gas": "0x15688",
        "value": "0x0",
        "input": "0xc43e4f4c000000000000000000000000000000000000000000000000000000000000000b0000000000000000000000000000000000000000000000000000000000000001000000000000000000000000000000000000000000000000000000000000006000000000000000000000000000000000000000000000000000000000000000b9697066732f516d50427874366b39386d69344759343169396e3276564e635658653577644b4c74644a465672544c433452544a2f30303030303030303030303030303030303030303030303030303030303030303030303030303030303030303030303030303030303030303030303030303131303030303030303030303030303030303030303030303030303030303030303030303030303030303030303030303030303030303030303030303030303030312e6a736f6e00000000000000",
        "nonce": "0x5da5c",
        "chainId": "0xa"
      },
      "additionalContracts": [],
      "isFixedGasLimit": false
    },
    {
      "hash": null,
      "transactionType": "CALL",
      "contractName": null,
      "contractAddress": "0xbc24012488bfcfe44875a139299595879c43c2cd",
      "function": "updateBadgeTierMetadata(uint256,uint256,string)",
      "arguments": [
        "12",
        "1",
        "ipfs/QmPBxt6k98mi4GY41i9n2vVNcVXe5wdKLtdJFVrTLC4RTJ/00000000000000000000000000000000000000000000000000000000000000120000000000000000000000000000000000000000000000000000000000000001.json"
      ],
      "transaction": {
        "from": "0x8835669696fb92839ab198cd80ce9f0d35f45ad5",
        "to": "0xbc24012488bfcfe44875a139299595879c43c2cd",
        "gas": "0x15688",
        "value": "0x0",
        "input": "0xc43e4f4c000000000000000000000000000000000000000000000000000000000000000c0000000000000000000000000000000000000000000000000000000000000001000000000000000000000000000000000000000000000000000000000000006000000000000000000000000000000000000000000000000000000000000000b9697066732f516d50427874366b39386d69344759343169396e3276564e635658653577644b4c74644a465672544c433452544a2f30303030303030303030303030303030303030303030303030303030303030303030303030303030303030303030303030303030303030303030303030303132303030303030303030303030303030303030303030303030303030303030303030303030303030303030303030303030303030303030303030303030303030312e6a736f6e00000000000000",
        "nonce": "0x5da5d",
        "chainId": "0xa"
      },
      "additionalContracts": [],
      "isFixedGasLimit": false
    },
    {
      "hash": null,
      "transactionType": "CALL",
      "contractName": null,
      "contractAddress": "0xbc24012488bfcfe44875a139299595879c43c2cd",
      "function": "updateBadgeTierMetadata(uint256,uint256,string)",
      "arguments": [
        "12",
        "2",
        "ipfs/QmPBxt6k98mi4GY41i9n2vVNcVXe5wdKLtdJFVrTLC4RTJ/00000000000000000000000000000000000000000000000000000000000000120000000000000000000000000000000000000000000000000000000000000002.json"
      ],
      "transaction": {
        "from": "0x8835669696fb92839ab198cd80ce9f0d35f45ad5",
        "to": "0xbc24012488bfcfe44875a139299595879c43c2cd",
        "gas": "0x15688",
        "value": "0x0",
        "input": "0xc43e4f4c000000000000000000000000000000000000000000000000000000000000000c0000000000000000000000000000000000000000000000000000000000000002000000000000000000000000000000000000000000000000000000000000006000000000000000000000000000000000000000000000000000000000000000b9697066732f516d50427874366b39386d69344759343169396e3276564e635658653577644b4c74644a465672544c433452544a2f30303030303030303030303030303030303030303030303030303030303030303030303030303030303030303030303030303030303030303030303030303132303030303030303030303030303030303030303030303030303030303030303030303030303030303030303030303030303030303030303030303030303030322e6a736f6e00000000000000",
        "nonce": "0x5da5e",
        "chainId": "0xa"
      },
      "additionalContracts": [],
      "isFixedGasLimit": false
    },
    {
      "hash": null,
      "transactionType": "CALL",
      "contractName": null,
      "contractAddress": "0xbc24012488bfcfe44875a139299595879c43c2cd",
      "function": "updateBadgeTierMetadata(uint256,uint256,string)",
      "arguments": [
        "12",
        "3",
        "ipfs/QmPBxt6k98mi4GY41i9n2vVNcVXe5wdKLtdJFVrTLC4RTJ/00000000000000000000000000000000000000000000000000000000000000120000000000000000000000000000000000000000000000000000000000000003.json"
      ],
      "transaction": {
        "from": "0x8835669696fb92839ab198cd80ce9f0d35f45ad5",
        "to": "0xbc24012488bfcfe44875a139299595879c43c2cd",
        "gas": "0x15688",
        "value": "0x0",
        "input": "0xc43e4f4c000000000000000000000000000000000000000000000000000000000000000c0000000000000000000000000000000000000000000000000000000000000003000000000000000000000000000000000000000000000000000000000000006000000000000000000000000000000000000000000000000000000000000000b9697066732f516d50427874366b39386d69344759343169396e3276564e635658653577644b4c74644a465672544c433452544a2f30303030303030303030303030303030303030303030303030303030303030303030303030303030303030303030303030303030303030303030303030303132303030303030303030303030303030303030303030303030303030303030303030303030303030303030303030303030303030303030303030303030303030332e6a736f6e00000000000000",
        "nonce": "0x5da5f",
        "chainId": "0xa"
      },
      "additionalContracts": [],
      "isFixedGasLimit": false
    },
    {
      "hash": null,
      "transactionType": "CALL",
      "contractName": null,
      "contractAddress": "0xbc24012488bfcfe44875a139299595879c43c2cd",
      "function": "updateBadgeTierMetadata(uint256,uint256,string)",
      "arguments": [
        "12",
        "4",
        "ipfs/QmPBxt6k98mi4GY41i9n2vVNcVXe5wdKLtdJFVrTLC4RTJ/00000000000000000000000000000000000000000000000000000000000000120000000000000000000000000000000000000000000000000000000000000004.json"
      ],
      "transaction": {
        "from": "0x8835669696fb92839ab198cd80ce9f0d35f45ad5",
        "to": "0xbc24012488bfcfe44875a139299595879c43c2cd",
        "gas": "0x15688",
        "value": "0x0",
        "input": "0xc43e4f4c000000000000000000000000000000000000000000000000000000000000000c0000000000000000000000000000000000000000000000000000000000000004000000000000000000000000000000000000000000000000000000000000006000000000000000000000000000000000000000000000000000000000000000b9697066732f516d50427874366b39386d69344759343169396e3276564e635658653577644b4c74644a465672544c433452544a2f30303030303030303030303030303030303030303030303030303030303030303030303030303030303030303030303030303030303030303030303030303132303030303030303030303030303030303030303030303030303030303030303030303030303030303030303030303030303030303030303030303030303030342e6a736f6e00000000000000",
        "nonce": "0x5da60",
        "chainId": "0xa"
      },
      "additionalContracts": [],
      "isFixedGasLimit": false
    },
    {
      "hash": null,
      "transactionType": "CALL",
      "contractName": null,
      "contractAddress": "0xbc24012488bfcfe44875a139299595879c43c2cd",
      "function": "updateBadgeTierMetadata(uint256,uint256,string)",
      "arguments": [
        "12",
        "5",
        "ipfs/QmPBxt6k98mi4GY41i9n2vVNcVXe5wdKLtdJFVrTLC4RTJ/00000000000000000000000000000000000000000000000000000000000000120000000000000000000000000000000000000000000000000000000000000005.json"
      ],
      "transaction": {
        "from": "0x8835669696fb92839ab198cd80ce9f0d35f45ad5",
        "to": "0xbc24012488bfcfe44875a139299595879c43c2cd",
        "gas": "0x15688",
        "value": "0x0",
        "input": "0xc43e4f4c000000000000000000000000000000000000000000000000000000000000000c0000000000000000000000000000000000000000000000000000000000000005000000000000000000000000000000000000000000000000000000000000006000000000000000000000000000000000000000000000000000000000000000b9697066732f516d50427874366b39386d69344759343169396e3276564e635658653577644b4c74644a465672544c433452544a2f30303030303030303030303030303030303030303030303030303030303030303030303030303030303030303030303030303030303030303030303030303132303030303030303030303030303030303030303030303030303030303030303030303030303030303030303030303030303030303030303030303030303030352e6a736f6e00000000000000",
        "nonce": "0x5da61",
        "chainId": "0xa"
      },
      "additionalContracts": [],
      "isFixedGasLimit": false
    },
    {
      "hash": null,
      "transactionType": "CALL",
      "contractName": null,
      "contractAddress": "0xbc24012488bfcfe44875a139299595879c43c2cd",
      "function": "updateBadgeTierMetadata(uint256,uint256,string)",
      "arguments": [
        "13",
        "1",
        "ipfs/QmPBxt6k98mi4GY41i9n2vVNcVXe5wdKLtdJFVrTLC4RTJ/00000000000000000000000000000000000000000000000000000000000000130000000000000000000000000000000000000000000000000000000000000001.json"
      ],
      "transaction": {
        "from": "0x8835669696fb92839ab198cd80ce9f0d35f45ad5",
        "to": "0xbc24012488bfcfe44875a139299595879c43c2cd",
        "gas": "0x15688",
        "value": "0x0",
        "input": "0xc43e4f4c000000000000000000000000000000000000000000000000000000000000000d0000000000000000000000000000000000000000000000000000000000000001000000000000000000000000000000000000000000000000000000000000006000000000000000000000000000000000000000000000000000000000000000b9697066732f516d50427874366b39386d69344759343169396e3276564e635658653577644b4c74644a465672544c433452544a2f30303030303030303030303030303030303030303030303030303030303030303030303030303030303030303030303030303030303030303030303030303133303030303030303030303030303030303030303030303030303030303030303030303030303030303030303030303030303030303030303030303030303030312e6a736f6e00000000000000",
        "nonce": "0x5da62",
        "chainId": "0xa"
      },
      "additionalContracts": [],
      "isFixedGasLimit": false
    },
    {
      "hash": null,
      "transactionType": "CALL",
      "contractName": null,
      "contractAddress": "0xbc24012488bfcfe44875a139299595879c43c2cd",
      "function": "updateBadgeTierMetadata(uint256,uint256,string)",
      "arguments": [
        "14",
        "1",
        "ipfs/QmPBxt6k98mi4GY41i9n2vVNcVXe5wdKLtdJFVrTLC4RTJ/00000000000000000000000000000000000000000000000000000000000000140000000000000000000000000000000000000000000000000000000000000001.json"
      ],
      "transaction": {
        "from": "0x8835669696fb92839ab198cd80ce9f0d35f45ad5",
        "to": "0xbc24012488bfcfe44875a139299595879c43c2cd",
        "gas": "0x15688",
        "value": "0x0",
        "input": "0xc43e4f4c000000000000000000000000000000000000000000000000000000000000000e0000000000000000000000000000000000000000000000000000000000000001000000000000000000000000000000000000000000000000000000000000006000000000000000000000000000000000000000000000000000000000000000b9697066732f516d50427874366b39386d69344759343169396e3276564e635658653577644b4c74644a465672544c433452544a2f30303030303030303030303030303030303030303030303030303030303030303030303030303030303030303030303030303030303030303030303030303134303030303030303030303030303030303030303030303030303030303030303030303030303030303030303030303030303030303030303030303030303030312e6a736f6e00000000000000",
        "nonce": "0x5da63",
        "chainId": "0xa"
      },
      "additionalContracts": [],
      "isFixedGasLimit": false
    },
    {
      "hash": null,
      "transactionType": "CALL",
      "contractName": null,
      "contractAddress": "0xbc24012488bfcfe44875a139299595879c43c2cd",
      "function": "updateBadgeTierMetadata(uint256,uint256,string)",
      "arguments": [
        "15",
        "1",
        "ipfs/QmPBxt6k98mi4GY41i9n2vVNcVXe5wdKLtdJFVrTLC4RTJ/00000000000000000000000000000000000000000000000000000000000000150000000000000000000000000000000000000000000000000000000000000001.json"
      ],
      "transaction": {
        "from": "0x8835669696fb92839ab198cd80ce9f0d35f45ad5",
        "to": "0xbc24012488bfcfe44875a139299595879c43c2cd",
        "gas": "0x15688",
        "value": "0x0",
        "input": "0xc43e4f4c000000000000000000000000000000000000000000000000000000000000000f0000000000000000000000000000000000000000000000000000000000000001000000000000000000000000000000000000000000000000000000000000006000000000000000000000000000000000000000000000000000000000000000b9697066732f516d50427874366b39386d69344759343169396e3276564e635658653577644b4c74644a465672544c433452544a2f30303030303030303030303030303030303030303030303030303030303030303030303030303030303030303030303030303030303030303030303030303135303030303030303030303030303030303030303030303030303030303030303030303030303030303030303030303030303030303030303030303030303030312e6a736f6e00000000000000",
        "nonce": "0x5da64",
        "chainId": "0xa"
      },
      "additionalContracts": [],
      "isFixedGasLimit": false
    },
    {
      "hash": null,
      "transactionType": "CALL",
      "contractName": null,
      "contractAddress": "0xbc24012488bfcfe44875a139299595879c43c2cd",
      "function": "updateBadgeTierMetadata(uint256,uint256,string)",
      "arguments": [
        "15",
        "2",
        "ipfs/QmPBxt6k98mi4GY41i9n2vVNcVXe5wdKLtdJFVrTLC4RTJ/00000000000000000000000000000000000000000000000000000000000000150000000000000000000000000000000000000000000000000000000000000002.json"
      ],
      "transaction": {
        "from": "0x8835669696fb92839ab198cd80ce9f0d35f45ad5",
        "to": "0xbc24012488bfcfe44875a139299595879c43c2cd",
        "gas": "0x15688",
        "value": "0x0",
        "input": "0xc43e4f4c000000000000000000000000000000000000000000000000000000000000000f0000000000000000000000000000000000000000000000000000000000000002000000000000000000000000000000000000000000000000000000000000006000000000000000000000000000000000000000000000000000000000000000b9697066732f516d50427874366b39386d69344759343169396e3276564e635658653577644b4c74644a465672544c433452544a2f30303030303030303030303030303030303030303030303030303030303030303030303030303030303030303030303030303030303030303030303030303135303030303030303030303030303030303030303030303030303030303030303030303030303030303030303030303030303030303030303030303030303030322e6a736f6e00000000000000",
        "nonce": "0x5da65",
        "chainId": "0xa"
      },
      "additionalContracts": [],
      "isFixedGasLimit": false
    },
    {
      "hash": null,
      "transactionType": "CALL",
      "contractName": null,
      "contractAddress": "0xbc24012488bfcfe44875a139299595879c43c2cd",
      "function": "updateBadgeTierMetadata(uint256,uint256,string)",
      "arguments": [
        "15",
        "3",
        "ipfs/QmPBxt6k98mi4GY41i9n2vVNcVXe5wdKLtdJFVrTLC4RTJ/00000000000000000000000000000000000000000000000000000000000000150000000000000000000000000000000000000000000000000000000000000003.json"
      ],
      "transaction": {
        "from": "0x8835669696fb92839ab198cd80ce9f0d35f45ad5",
        "to": "0xbc24012488bfcfe44875a139299595879c43c2cd",
        "gas": "0x15688",
        "value": "0x0",
        "input": "0xc43e4f4c000000000000000000000000000000000000000000000000000000000000000f0000000000000000000000000000000000000000000000000000000000000003000000000000000000000000000000000000000000000000000000000000006000000000000000000000000000000000000000000000000000000000000000b9697066732f516d50427874366b39386d69344759343169396e3276564e635658653577644b4c74644a465672544c433452544a2f30303030303030303030303030303030303030303030303030303030303030303030303030303030303030303030303030303030303030303030303030303135303030303030303030303030303030303030303030303030303030303030303030303030303030303030303030303030303030303030303030303030303030332e6a736f6e00000000000000",
        "nonce": "0x5da66",
        "chainId": "0xa"
      },
      "additionalContracts": [],
      "isFixedGasLimit": false
    },
    {
      "hash": null,
      "transactionType": "CALL",
      "contractName": null,
      "contractAddress": "0xbc24012488bfcfe44875a139299595879c43c2cd",
      "function": "updateBadgeTierMetadata(uint256,uint256,string)",
      "arguments": [
        "15",
        "4",
        "ipfs/QmPBxt6k98mi4GY41i9n2vVNcVXe5wdKLtdJFVrTLC4RTJ/00000000000000000000000000000000000000000000000000000000000000150000000000000000000000000000000000000000000000000000000000000004.json"
      ],
      "transaction": {
        "from": "0x8835669696fb92839ab198cd80ce9f0d35f45ad5",
        "to": "0xbc24012488bfcfe44875a139299595879c43c2cd",
        "gas": "0x15688",
        "value": "0x0",
        "input": "0xc43e4f4c000000000000000000000000000000000000000000000000000000000000000f0000000000000000000000000000000000000000000000000000000000000004000000000000000000000000000000000000000000000000000000000000006000000000000000000000000000000000000000000000000000000000000000b9697066732f516d50427874366b39386d69344759343169396e3276564e635658653577644b4c74644a465672544c433452544a2f30303030303030303030303030303030303030303030303030303030303030303030303030303030303030303030303030303030303030303030303030303135303030303030303030303030303030303030303030303030303030303030303030303030303030303030303030303030303030303030303030303030303030342e6a736f6e00000000000000",
        "nonce": "0x5da67",
        "chainId": "0xa"
      },
      "additionalContracts": [],
      "isFixedGasLimit": false
    },
    {
      "hash": null,
      "transactionType": "CALL",
      "contractName": null,
      "contractAddress": "0xbc24012488bfcfe44875a139299595879c43c2cd",
      "function": "updateBadgeTierMetadata(uint256,uint256,string)",
      "arguments": [
        "15",
        "5",
        "ipfs/QmPBxt6k98mi4GY41i9n2vVNcVXe5wdKLtdJFVrTLC4RTJ/00000000000000000000000000000000000000000000000000000000000000150000000000000000000000000000000000000000000000000000000000000005.json"
      ],
      "transaction": {
        "from": "0x8835669696fb92839ab198cd80ce9f0d35f45ad5",
        "to": "0xbc24012488bfcfe44875a139299595879c43c2cd",
        "gas": "0x15688",
        "value": "0x0",
        "input": "0xc43e4f4c000000000000000000000000000000000000000000000000000000000000000f0000000000000000000000000000000000000000000000000000000000000005000000000000000000000000000000000000000000000000000000000000006000000000000000000000000000000000000000000000000000000000000000b9697066732f516d50427874366b39386d69344759343169396e3276564e635658653577644b4c74644a465672544c433452544a2f30303030303030303030303030303030303030303030303030303030303030303030303030303030303030303030303030303030303030303030303030303135303030303030303030303030303030303030303030303030303030303030303030303030303030303030303030303030303030303030303030303030303030352e6a736f6e00000000000000",
        "nonce": "0x5da68",
        "chainId": "0xa"
      },
      "additionalContracts": [],
      "isFixedGasLimit": false
    },
    {
      "hash": null,
      "transactionType": "CALL",
      "contractName": null,
      "contractAddress": "0xbc24012488bfcfe44875a139299595879c43c2cd",
      "function": "updateBadgeTierMetadata(uint256,uint256,string)",
      "arguments": [
        "16",
        "1",
        "ipfs/QmPBxt6k98mi4GY41i9n2vVNcVXe5wdKLtdJFVrTLC4RTJ/00000000000000000000000000000000000000000000000000000000000000160000000000000000000000000000000000000000000000000000000000000001.json"
      ],
      "transaction": {
        "from": "0x8835669696fb92839ab198cd80ce9f0d35f45ad5",
        "to": "0xbc24012488bfcfe44875a139299595879c43c2cd",
        "gas": "0x15688",
        "value": "0x0",
        "input": "0xc43e4f4c00000000000000000000000000000000000000000000000000000000000000100000000000000000000000000000000000000000000000000000000000000001000000000000000000000000000000000000000000000000000000000000006000000000000000000000000000000000000000000000000000000000000000b9697066732f516d50427874366b39386d69344759343169396e3276564e635658653577644b4c74644a465672544c433452544a2f30303030303030303030303030303030303030303030303030303030303030303030303030303030303030303030303030303030303030303030303030303136303030303030303030303030303030303030303030303030303030303030303030303030303030303030303030303030303030303030303030303030303030312e6a736f6e00000000000000",
        "nonce": "0x5da69",
        "chainId": "0xa"
      },
      "additionalContracts": [],
      "isFixedGasLimit": false
    },
    {
      "hash": null,
      "transactionType": "CALL",
      "contractName": null,
      "contractAddress": "0xbc24012488bfcfe44875a139299595879c43c2cd",
      "function": "updateBadgeTierMetadata(uint256,uint256,string)",
      "arguments": [
        "16",
        "2",
        "ipfs/QmPBxt6k98mi4GY41i9n2vVNcVXe5wdKLtdJFVrTLC4RTJ/00000000000000000000000000000000000000000000000000000000000000160000000000000000000000000000000000000000000000000000000000000002.json"
      ],
      "transaction": {
        "from": "0x8835669696fb92839ab198cd80ce9f0d35f45ad5",
        "to": "0xbc24012488bfcfe44875a139299595879c43c2cd",
        "gas": "0x15688",
        "value": "0x0",
        "input": "0xc43e4f4c00000000000000000000000000000000000000000000000000000000000000100000000000000000000000000000000000000000000000000000000000000002000000000000000000000000000000000000000000000000000000000000006000000000000000000000000000000000000000000000000000000000000000b9697066732f516d50427874366b39386d69344759343169396e3276564e635658653577644b4c74644a465672544c433452544a2f30303030303030303030303030303030303030303030303030303030303030303030303030303030303030303030303030303030303030303030303030303136303030303030303030303030303030303030303030303030303030303030303030303030303030303030303030303030303030303030303030303030303030322e6a736f6e00000000000000",
        "nonce": "0x5da6a",
        "chainId": "0xa"
      },
      "additionalContracts": [],
      "isFixedGasLimit": false
    },
    {
      "hash": null,
      "transactionType": "CALL",
      "contractName": null,
      "contractAddress": "0xbc24012488bfcfe44875a139299595879c43c2cd",
      "function": "updateBadgeTierMetadata(uint256,uint256,string)",
      "arguments": [
        "16",
        "3",
        "ipfs/QmPBxt6k98mi4GY41i9n2vVNcVXe5wdKLtdJFVrTLC4RTJ/00000000000000000000000000000000000000000000000000000000000000160000000000000000000000000000000000000000000000000000000000000003.json"
      ],
      "transaction": {
        "from": "0x8835669696fb92839ab198cd80ce9f0d35f45ad5",
        "to": "0xbc24012488bfcfe44875a139299595879c43c2cd",
        "gas": "0x15688",
        "value": "0x0",
        "input": "0xc43e4f4c00000000000000000000000000000000000000000000000000000000000000100000000000000000000000000000000000000000000000000000000000000003000000000000000000000000000000000000000000000000000000000000006000000000000000000000000000000000000000000000000000000000000000b9697066732f516d50427874366b39386d69344759343169396e3276564e635658653577644b4c74644a465672544c433452544a2f30303030303030303030303030303030303030303030303030303030303030303030303030303030303030303030303030303030303030303030303030303136303030303030303030303030303030303030303030303030303030303030303030303030303030303030303030303030303030303030303030303030303030332e6a736f6e00000000000000",
        "nonce": "0x5da6b",
        "chainId": "0xa"
      },
      "additionalContracts": [],
      "isFixedGasLimit": false
    },
    {
      "hash": null,
      "transactionType": "CALL",
      "contractName": null,
      "contractAddress": "0xbc24012488bfcfe44875a139299595879c43c2cd",
      "function": "updateBadgeTierMetadata(uint256,uint256,string)",
      "arguments": [
        "16",
        "4",
        "ipfs/QmPBxt6k98mi4GY41i9n2vVNcVXe5wdKLtdJFVrTLC4RTJ/00000000000000000000000000000000000000000000000000000000000000160000000000000000000000000000000000000000000000000000000000000004.json"
      ],
      "transaction": {
        "from": "0x8835669696fb92839ab198cd80ce9f0d35f45ad5",
        "to": "0xbc24012488bfcfe44875a139299595879c43c2cd",
        "gas": "0x15688",
        "value": "0x0",
        "input": "0xc43e4f4c00000000000000000000000000000000000000000000000000000000000000100000000000000000000000000000000000000000000000000000000000000004000000000000000000000000000000000000000000000000000000000000006000000000000000000000000000000000000000000000000000000000000000b9697066732f516d50427874366b39386d69344759343169396e3276564e635658653577644b4c74644a465672544c433452544a2f30303030303030303030303030303030303030303030303030303030303030303030303030303030303030303030303030303030303030303030303030303136303030303030303030303030303030303030303030303030303030303030303030303030303030303030303030303030303030303030303030303030303030342e6a736f6e00000000000000",
        "nonce": "0x5da6c",
        "chainId": "0xa"
      },
      "additionalContracts": [],
      "isFixedGasLimit": false
    },
    {
      "hash": null,
      "transactionType": "CALL",
      "contractName": null,
      "contractAddress": "0xbc24012488bfcfe44875a139299595879c43c2cd",
      "function": "updateBadgeTierMetadata(uint256,uint256,string)",
      "arguments": [
        "16",
        "5",
        "ipfs/QmPBxt6k98mi4GY41i9n2vVNcVXe5wdKLtdJFVrTLC4RTJ/00000000000000000000000000000000000000000000000000000000000000160000000000000000000000000000000000000000000000000000000000000005.json"
      ],
      "transaction": {
        "from": "0x8835669696fb92839ab198cd80ce9f0d35f45ad5",
        "to": "0xbc24012488bfcfe44875a139299595879c43c2cd",
        "gas": "0x15688",
        "value": "0x0",
        "input": "0xc43e4f4c00000000000000000000000000000000000000000000000000000000000000100000000000000000000000000000000000000000000000000000000000000005000000000000000000000000000000000000000000000000000000000000006000000000000000000000000000000000000000000000000000000000000000b9697066732f516d50427874366b39386d69344759343169396e3276564e635658653577644b4c74644a465672544c433452544a2f30303030303030303030303030303030303030303030303030303030303030303030303030303030303030303030303030303030303030303030303030303136303030303030303030303030303030303030303030303030303030303030303030303030303030303030303030303030303030303030303030303030303030352e6a736f6e00000000000000",
        "nonce": "0x5da6d",
        "chainId": "0xa"
      },
      "additionalContracts": [],
      "isFixedGasLimit": false
    },
    {
      "hash": null,
      "transactionType": "CALL",
      "contractName": null,
      "contractAddress": "0xbc24012488bfcfe44875a139299595879c43c2cd",
      "function": "updateBadgeTierMetadata(uint256,uint256,string)",
      "arguments": [
        "17",
        "1",
        "ipfs/QmPBxt6k98mi4GY41i9n2vVNcVXe5wdKLtdJFVrTLC4RTJ/00000000000000000000000000000000000000000000000000000000000000170000000000000000000000000000000000000000000000000000000000000001.json"
      ],
      "transaction": {
        "from": "0x8835669696fb92839ab198cd80ce9f0d35f45ad5",
        "to": "0xbc24012488bfcfe44875a139299595879c43c2cd",
        "gas": "0x15688",
        "value": "0x0",
        "input": "0xc43e4f4c00000000000000000000000000000000000000000000000000000000000000110000000000000000000000000000000000000000000000000000000000000001000000000000000000000000000000000000000000000000000000000000006000000000000000000000000000000000000000000000000000000000000000b9697066732f516d50427874366b39386d69344759343169396e3276564e635658653577644b4c74644a465672544c433452544a2f30303030303030303030303030303030303030303030303030303030303030303030303030303030303030303030303030303030303030303030303030303137303030303030303030303030303030303030303030303030303030303030303030303030303030303030303030303030303030303030303030303030303030312e6a736f6e00000000000000",
        "nonce": "0x5da6e",
        "chainId": "0xa"
      },
      "additionalContracts": [],
      "isFixedGasLimit": false
    },
    {
      "hash": null,
      "transactionType": "CALL",
      "contractName": null,
      "contractAddress": "0xbc24012488bfcfe44875a139299595879c43c2cd",
      "function": "updateBadgeTierMetadata(uint256,uint256,string)",
      "arguments": [
        "17",
        "2",
        "ipfs/QmPBxt6k98mi4GY41i9n2vVNcVXe5wdKLtdJFVrTLC4RTJ/00000000000000000000000000000000000000000000000000000000000000170000000000000000000000000000000000000000000000000000000000000002.json"
      ],
      "transaction": {
        "from": "0x8835669696fb92839ab198cd80ce9f0d35f45ad5",
        "to": "0xbc24012488bfcfe44875a139299595879c43c2cd",
        "gas": "0x15688",
        "value": "0x0",
        "input": "0xc43e4f4c00000000000000000000000000000000000000000000000000000000000000110000000000000000000000000000000000000000000000000000000000000002000000000000000000000000000000000000000000000000000000000000006000000000000000000000000000000000000000000000000000000000000000b9697066732f516d50427874366b39386d69344759343169396e3276564e635658653577644b4c74644a465672544c433452544a2f30303030303030303030303030303030303030303030303030303030303030303030303030303030303030303030303030303030303030303030303030303137303030303030303030303030303030303030303030303030303030303030303030303030303030303030303030303030303030303030303030303030303030322e6a736f6e00000000000000",
        "nonce": "0x5da6f",
        "chainId": "0xa"
      },
      "additionalContracts": [],
      "isFixedGasLimit": false
    },
    {
      "hash": null,
      "transactionType": "CALL",
      "contractName": null,
      "contractAddress": "0xbc24012488bfcfe44875a139299595879c43c2cd",
      "function": "updateBadgeTierMetadata(uint256,uint256,string)",
      "arguments": [
        "17",
        "3",
        "ipfs/QmPBxt6k98mi4GY41i9n2vVNcVXe5wdKLtdJFVrTLC4RTJ/00000000000000000000000000000000000000000000000000000000000000170000000000000000000000000000000000000000000000000000000000000003.json"
      ],
      "transaction": {
        "from": "0x8835669696fb92839ab198cd80ce9f0d35f45ad5",
        "to": "0xbc24012488bfcfe44875a139299595879c43c2cd",
        "gas": "0x15688",
        "value": "0x0",
        "input": "0xc43e4f4c00000000000000000000000000000000000000000000000000000000000000110000000000000000000000000000000000000000000000000000000000000003000000000000000000000000000000000000000000000000000000000000006000000000000000000000000000000000000000000000000000000000000000b9697066732f516d50427874366b39386d69344759343169396e3276564e635658653577644b4c74644a465672544c433452544a2f30303030303030303030303030303030303030303030303030303030303030303030303030303030303030303030303030303030303030303030303030303137303030303030303030303030303030303030303030303030303030303030303030303030303030303030303030303030303030303030303030303030303030332e6a736f6e00000000000000",
        "nonce": "0x5da70",
        "chainId": "0xa"
      },
      "additionalContracts": [],
      "isFixedGasLimit": false
    },
    {
      "hash": null,
      "transactionType": "CALL",
      "contractName": null,
      "contractAddress": "0xbc24012488bfcfe44875a139299595879c43c2cd",
      "function": "updateBadgeTierMetadata(uint256,uint256,string)",
      "arguments": [
        "17",
        "4",
        "ipfs/QmPBxt6k98mi4GY41i9n2vVNcVXe5wdKLtdJFVrTLC4RTJ/00000000000000000000000000000000000000000000000000000000000000170000000000000000000000000000000000000000000000000000000000000004.json"
      ],
      "transaction": {
        "from": "0x8835669696fb92839ab198cd80ce9f0d35f45ad5",
        "to": "0xbc24012488bfcfe44875a139299595879c43c2cd",
        "gas": "0x15688",
        "value": "0x0",
        "input": "0xc43e4f4c00000000000000000000000000000000000000000000000000000000000000110000000000000000000000000000000000000000000000000000000000000004000000000000000000000000000000000000000000000000000000000000006000000000000000000000000000000000000000000000000000000000000000b9697066732f516d50427874366b39386d69344759343169396e3276564e635658653577644b4c74644a465672544c433452544a2f30303030303030303030303030303030303030303030303030303030303030303030303030303030303030303030303030303030303030303030303030303137303030303030303030303030303030303030303030303030303030303030303030303030303030303030303030303030303030303030303030303030303030342e6a736f6e00000000000000",
        "nonce": "0x5da71",
        "chainId": "0xa"
      },
      "additionalContracts": [],
      "isFixedGasLimit": false
    },
    {
      "hash": null,
      "transactionType": "CALL",
      "contractName": null,
      "contractAddress": "0xbc24012488bfcfe44875a139299595879c43c2cd",
      "function": "updateBadgeTierMetadata(uint256,uint256,string)",
      "arguments": [
        "17",
        "5",
        "ipfs/QmPBxt6k98mi4GY41i9n2vVNcVXe5wdKLtdJFVrTLC4RTJ/00000000000000000000000000000000000000000000000000000000000000170000000000000000000000000000000000000000000000000000000000000005.json"
      ],
      "transaction": {
        "from": "0x8835669696fb92839ab198cd80ce9f0d35f45ad5",
        "to": "0xbc24012488bfcfe44875a139299595879c43c2cd",
        "gas": "0x15688",
        "value": "0x0",
        "input": "0xc43e4f4c00000000000000000000000000000000000000000000000000000000000000110000000000000000000000000000000000000000000000000000000000000005000000000000000000000000000000000000000000000000000000000000006000000000000000000000000000000000000000000000000000000000000000b9697066732f516d50427874366b39386d69344759343169396e3276564e635658653577644b4c74644a465672544c433452544a2f30303030303030303030303030303030303030303030303030303030303030303030303030303030303030303030303030303030303030303030303030303137303030303030303030303030303030303030303030303030303030303030303030303030303030303030303030303030303030303030303030303030303030352e6a736f6e00000000000000",
        "nonce": "0x5da72",
        "chainId": "0xa"
      },
      "additionalContracts": [],
      "isFixedGasLimit": false
    },
    {
      "hash": null,
      "transactionType": "CALL",
      "contractName": null,
      "contractAddress": "0xbc24012488bfcfe44875a139299595879c43c2cd",
      "function": "updateBadgeTierMetadata(uint256,uint256,string)",
      "arguments": [
        "18",
        "1",
        "ipfs/QmPBxt6k98mi4GY41i9n2vVNcVXe5wdKLtdJFVrTLC4RTJ/00000000000000000000000000000000000000000000000000000000000000180000000000000000000000000000000000000000000000000000000000000001.json"
      ],
      "transaction": {
        "from": "0x8835669696fb92839ab198cd80ce9f0d35f45ad5",
        "to": "0xbc24012488bfcfe44875a139299595879c43c2cd",
        "gas": "0x15688",
        "value": "0x0",
        "input": "0xc43e4f4c00000000000000000000000000000000000000000000000000000000000000120000000000000000000000000000000000000000000000000000000000000001000000000000000000000000000000000000000000000000000000000000006000000000000000000000000000000000000000000000000000000000000000b9697066732f516d50427874366b39386d69344759343169396e3276564e635658653577644b4c74644a465672544c433452544a2f30303030303030303030303030303030303030303030303030303030303030303030303030303030303030303030303030303030303030303030303030303138303030303030303030303030303030303030303030303030303030303030303030303030303030303030303030303030303030303030303030303030303030312e6a736f6e00000000000000",
        "nonce": "0x5da73",
        "chainId": "0xa"
      },
      "additionalContracts": [],
      "isFixedGasLimit": false
    },
    {
      "hash": null,
      "transactionType": "CALL",
      "contractName": null,
      "contractAddress": "0xbc24012488bfcfe44875a139299595879c43c2cd",
      "function": "updateBadgeTierMetadata(uint256,uint256,string)",
      "arguments": [
        "18",
        "2",
        "ipfs/QmPBxt6k98mi4GY41i9n2vVNcVXe5wdKLtdJFVrTLC4RTJ/00000000000000000000000000000000000000000000000000000000000000180000000000000000000000000000000000000000000000000000000000000002.json"
      ],
      "transaction": {
        "from": "0x8835669696fb92839ab198cd80ce9f0d35f45ad5",
        "to": "0xbc24012488bfcfe44875a139299595879c43c2cd",
        "gas": "0x15688",
        "value": "0x0",
        "input": "0xc43e4f4c00000000000000000000000000000000000000000000000000000000000000120000000000000000000000000000000000000000000000000000000000000002000000000000000000000000000000000000000000000000000000000000006000000000000000000000000000000000000000000000000000000000000000b9697066732f516d50427874366b39386d69344759343169396e3276564e635658653577644b4c74644a465672544c433452544a2f30303030303030303030303030303030303030303030303030303030303030303030303030303030303030303030303030303030303030303030303030303138303030303030303030303030303030303030303030303030303030303030303030303030303030303030303030303030303030303030303030303030303030322e6a736f6e00000000000000",
        "nonce": "0x5da74",
        "chainId": "0xa"
      },
      "additionalContracts": [],
      "isFixedGasLimit": false
    },
    {
      "hash": null,
      "transactionType": "CALL",
      "contractName": null,
      "contractAddress": "0xbc24012488bfcfe44875a139299595879c43c2cd",
      "function": "updateBadgeTierMetadata(uint256,uint256,string)",
      "arguments": [
        "18",
        "3",
        "ipfs/QmPBxt6k98mi4GY41i9n2vVNcVXe5wdKLtdJFVrTLC4RTJ/00000000000000000000000000000000000000000000000000000000000000180000000000000000000000000000000000000000000000000000000000000003.json"
      ],
      "transaction": {
        "from": "0x8835669696fb92839ab198cd80ce9f0d35f45ad5",
        "to": "0xbc24012488bfcfe44875a139299595879c43c2cd",
        "gas": "0x15688",
        "value": "0x0",
        "input": "0xc43e4f4c00000000000000000000000000000000000000000000000000000000000000120000000000000000000000000000000000000000000000000000000000000003000000000000000000000000000000000000000000000000000000000000006000000000000000000000000000000000000000000000000000000000000000b9697066732f516d50427874366b39386d69344759343169396e3276564e635658653577644b4c74644a465672544c433452544a2f30303030303030303030303030303030303030303030303030303030303030303030303030303030303030303030303030303030303030303030303030303138303030303030303030303030303030303030303030303030303030303030303030303030303030303030303030303030303030303030303030303030303030332e6a736f6e00000000000000",
        "nonce": "0x5da75",
        "chainId": "0xa"
      },
      "additionalContracts": [],
      "isFixedGasLimit": false
    },
    {
      "hash": null,
      "transactionType": "CALL",
      "contractName": null,
      "contractAddress": "0xbc24012488bfcfe44875a139299595879c43c2cd",
      "function": "updateBadgeTierMetadata(uint256,uint256,string)",
      "arguments": [
        "18",
        "4",
        "ipfs/QmPBxt6k98mi4GY41i9n2vVNcVXe5wdKLtdJFVrTLC4RTJ/00000000000000000000000000000000000000000000000000000000000000180000000000000000000000000000000000000000000000000000000000000004.json"
      ],
      "transaction": {
        "from": "0x8835669696fb92839ab198cd80ce9f0d35f45ad5",
        "to": "0xbc24012488bfcfe44875a139299595879c43c2cd",
        "gas": "0x15688",
        "value": "0x0",
        "input": "0xc43e4f4c00000000000000000000000000000000000000000000000000000000000000120000000000000000000000000000000000000000000000000000000000000004000000000000000000000000000000000000000000000000000000000000006000000000000000000000000000000000000000000000000000000000000000b9697066732f516d50427874366b39386d69344759343169396e3276564e635658653577644b4c74644a465672544c433452544a2f30303030303030303030303030303030303030303030303030303030303030303030303030303030303030303030303030303030303030303030303030303138303030303030303030303030303030303030303030303030303030303030303030303030303030303030303030303030303030303030303030303030303030342e6a736f6e00000000000000",
        "nonce": "0x5da76",
        "chainId": "0xa"
      },
      "additionalContracts": [],
      "isFixedGasLimit": false
    },
    {
      "hash": null,
      "transactionType": "CALL",
      "contractName": null,
      "contractAddress": "0xbc24012488bfcfe44875a139299595879c43c2cd",
      "function": "updateBadgeTierMetadata(uint256,uint256,string)",
      "arguments": [
        "18",
        "5",
        "ipfs/QmPBxt6k98mi4GY41i9n2vVNcVXe5wdKLtdJFVrTLC4RTJ/00000000000000000000000000000000000000000000000000000000000000180000000000000000000000000000000000000000000000000000000000000005.json"
      ],
      "transaction": {
        "from": "0x8835669696fb92839ab198cd80ce9f0d35f45ad5",
        "to": "0xbc24012488bfcfe44875a139299595879c43c2cd",
        "gas": "0x15688",
        "value": "0x0",
        "input": "0xc43e4f4c00000000000000000000000000000000000000000000000000000000000000120000000000000000000000000000000000000000000000000000000000000005000000000000000000000000000000000000000000000000000000000000006000000000000000000000000000000000000000000000000000000000000000b9697066732f516d50427874366b39386d69344759343169396e3276564e635658653577644b4c74644a465672544c433452544a2f30303030303030303030303030303030303030303030303030303030303030303030303030303030303030303030303030303030303030303030303030303138303030303030303030303030303030303030303030303030303030303030303030303030303030303030303030303030303030303030303030303030303030352e6a736f6e00000000000000",
        "nonce": "0x5da77",
        "chainId": "0xa"
      },
      "additionalContracts": [],
      "isFixedGasLimit": false
    },
    {
      "hash": null,
      "transactionType": "CALL",
      "contractName": null,
      "contractAddress": "0xbc24012488bfcfe44875a139299595879c43c2cd",
      "function": "updateBadgeTierMetadata(uint256,uint256,string)",
      "arguments": [
        "19",
        "1",
        "ipfs/QmPBxt6k98mi4GY41i9n2vVNcVXe5wdKLtdJFVrTLC4RTJ/00000000000000000000000000000000000000000000000000000000000000190000000000000000000000000000000000000000000000000000000000000001.json"
      ],
      "transaction": {
        "from": "0x8835669696fb92839ab198cd80ce9f0d35f45ad5",
        "to": "0xbc24012488bfcfe44875a139299595879c43c2cd",
        "gas": "0x15688",
        "value": "0x0",
        "input": "0xc43e4f4c00000000000000000000000000000000000000000000000000000000000000130000000000000000000000000000000000000000000000000000000000000001000000000000000000000000000000000000000000000000000000000000006000000000000000000000000000000000000000000000000000000000000000b9697066732f516d50427874366b39386d69344759343169396e3276564e635658653577644b4c74644a465672544c433452544a2f30303030303030303030303030303030303030303030303030303030303030303030303030303030303030303030303030303030303030303030303030303139303030303030303030303030303030303030303030303030303030303030303030303030303030303030303030303030303030303030303030303030303030312e6a736f6e00000000000000",
        "nonce": "0x5da78",
        "chainId": "0xa"
      },
      "additionalContracts": [],
      "isFixedGasLimit": false
    },
    {
      "hash": null,
      "transactionType": "CALL",
      "contractName": null,
      "contractAddress": "0xbc24012488bfcfe44875a139299595879c43c2cd",
      "function": "updateBadgeTierMetadata(uint256,uint256,string)",
      "arguments": [
        "19",
        "2",
        "ipfs/QmPBxt6k98mi4GY41i9n2vVNcVXe5wdKLtdJFVrTLC4RTJ/00000000000000000000000000000000000000000000000000000000000000190000000000000000000000000000000000000000000000000000000000000002.json"
      ],
      "transaction": {
        "from": "0x8835669696fb92839ab198cd80ce9f0d35f45ad5",
        "to": "0xbc24012488bfcfe44875a139299595879c43c2cd",
        "gas": "0x15688",
        "value": "0x0",
        "input": "0xc43e4f4c00000000000000000000000000000000000000000000000000000000000000130000000000000000000000000000000000000000000000000000000000000002000000000000000000000000000000000000000000000000000000000000006000000000000000000000000000000000000000000000000000000000000000b9697066732f516d50427874366b39386d69344759343169396e3276564e635658653577644b4c74644a465672544c433452544a2f30303030303030303030303030303030303030303030303030303030303030303030303030303030303030303030303030303030303030303030303030303139303030303030303030303030303030303030303030303030303030303030303030303030303030303030303030303030303030303030303030303030303030322e6a736f6e00000000000000",
        "nonce": "0x5da79",
        "chainId": "0xa"
      },
      "additionalContracts": [],
      "isFixedGasLimit": false
    },
    {
      "hash": null,
      "transactionType": "CALL",
      "contractName": null,
      "contractAddress": "0xbc24012488bfcfe44875a139299595879c43c2cd",
      "function": "updateBadgeTierMetadata(uint256,uint256,string)",
      "arguments": [
        "19",
        "3",
        "ipfs/QmPBxt6k98mi4GY41i9n2vVNcVXe5wdKLtdJFVrTLC4RTJ/00000000000000000000000000000000000000000000000000000000000000190000000000000000000000000000000000000000000000000000000000000003.json"
      ],
      "transaction": {
        "from": "0x8835669696fb92839ab198cd80ce9f0d35f45ad5",
        "to": "0xbc24012488bfcfe44875a139299595879c43c2cd",
        "gas": "0x15688",
        "value": "0x0",
        "input": "0xc43e4f4c00000000000000000000000000000000000000000000000000000000000000130000000000000000000000000000000000000000000000000000000000000003000000000000000000000000000000000000000000000000000000000000006000000000000000000000000000000000000000000000000000000000000000b9697066732f516d50427874366b39386d69344759343169396e3276564e635658653577644b4c74644a465672544c433452544a2f30303030303030303030303030303030303030303030303030303030303030303030303030303030303030303030303030303030303030303030303030303139303030303030303030303030303030303030303030303030303030303030303030303030303030303030303030303030303030303030303030303030303030332e6a736f6e00000000000000",
        "nonce": "0x5da7a",
        "chainId": "0xa"
      },
      "additionalContracts": [],
      "isFixedGasLimit": false
    },
    {
      "hash": null,
      "transactionType": "CALL",
      "contractName": null,
      "contractAddress": "0xbc24012488bfcfe44875a139299595879c43c2cd",
      "function": "updateBadgeTierMetadata(uint256,uint256,string)",
      "arguments": [
        "19",
        "4",
        "ipfs/QmPBxt6k98mi4GY41i9n2vVNcVXe5wdKLtdJFVrTLC4RTJ/00000000000000000000000000000000000000000000000000000000000000190000000000000000000000000000000000000000000000000000000000000004.json"
      ],
      "transaction": {
        "from": "0x8835669696fb92839ab198cd80ce9f0d35f45ad5",
        "to": "0xbc24012488bfcfe44875a139299595879c43c2cd",
        "gas": "0x15688",
        "value": "0x0",
        "input": "0xc43e4f4c00000000000000000000000000000000000000000000000000000000000000130000000000000000000000000000000000000000000000000000000000000004000000000000000000000000000000000000000000000000000000000000006000000000000000000000000000000000000000000000000000000000000000b9697066732f516d50427874366b39386d69344759343169396e3276564e635658653577644b4c74644a465672544c433452544a2f30303030303030303030303030303030303030303030303030303030303030303030303030303030303030303030303030303030303030303030303030303139303030303030303030303030303030303030303030303030303030303030303030303030303030303030303030303030303030303030303030303030303030342e6a736f6e00000000000000",
        "nonce": "0x5da7b",
        "chainId": "0xa"
      },
      "additionalContracts": [],
      "isFixedGasLimit": false
    },
    {
      "hash": null,
      "transactionType": "CALL",
      "contractName": null,
      "contractAddress": "0xbc24012488bfcfe44875a139299595879c43c2cd",
      "function": "updateBadgeTierMetadata(uint256,uint256,string)",
      "arguments": [
        "19",
        "5",
        "ipfs/QmPBxt6k98mi4GY41i9n2vVNcVXe5wdKLtdJFVrTLC4RTJ/00000000000000000000000000000000000000000000000000000000000000190000000000000000000000000000000000000000000000000000000000000005.json"
      ],
      "transaction": {
        "from": "0x8835669696fb92839ab198cd80ce9f0d35f45ad5",
        "to": "0xbc24012488bfcfe44875a139299595879c43c2cd",
        "gas": "0x15688",
        "value": "0x0",
        "input": "0xc43e4f4c00000000000000000000000000000000000000000000000000000000000000130000000000000000000000000000000000000000000000000000000000000005000000000000000000000000000000000000000000000000000000000000006000000000000000000000000000000000000000000000000000000000000000b9697066732f516d50427874366b39386d69344759343169396e3276564e635658653577644b4c74644a465672544c433452544a2f30303030303030303030303030303030303030303030303030303030303030303030303030303030303030303030303030303030303030303030303030303139303030303030303030303030303030303030303030303030303030303030303030303030303030303030303030303030303030303030303030303030303030352e6a736f6e00000000000000",
        "nonce": "0x5da7c",
        "chainId": "0xa"
      },
      "additionalContracts": [],
      "isFixedGasLimit": false
    },
    {
      "hash": null,
      "transactionType": "CALL",
      "contractName": null,
      "contractAddress": "0xbc24012488bfcfe44875a139299595879c43c2cd",
      "function": "updateBadgeTierMetadata(uint256,uint256,string)",
      "arguments": [
        "20",
        "1",
        "ipfs/QmPBxt6k98mi4GY41i9n2vVNcVXe5wdKLtdJFVrTLC4RTJ/00000000000000000000000000000000000000000000000000000000000000200000000000000000000000000000000000000000000000000000000000000001.json"
      ],
      "transaction": {
        "from": "0x8835669696fb92839ab198cd80ce9f0d35f45ad5",
        "to": "0xbc24012488bfcfe44875a139299595879c43c2cd",
        "gas": "0x15688",
        "value": "0x0",
        "input": "0xc43e4f4c00000000000000000000000000000000000000000000000000000000000000140000000000000000000000000000000000000000000000000000000000000001000000000000000000000000000000000000000000000000000000000000006000000000000000000000000000000000000000000000000000000000000000b9697066732f516d50427874366b39386d69344759343169396e3276564e635658653577644b4c74644a465672544c433452544a2f30303030303030303030303030303030303030303030303030303030303030303030303030303030303030303030303030303030303030303030303030303230303030303030303030303030303030303030303030303030303030303030303030303030303030303030303030303030303030303030303030303030303030312e6a736f6e00000000000000",
        "nonce": "0x5da7d",
        "chainId": "0xa"
      },
      "additionalContracts": [],
      "isFixedGasLimit": false
    },
    {
      "hash": null,
      "transactionType": "CALL",
      "contractName": null,
      "contractAddress": "0xbc24012488bfcfe44875a139299595879c43c2cd",
      "function": "updateBadgeTierMetadata(uint256,uint256,string)",
      "arguments": [
        "20",
        "2",
        "ipfs/QmPBxt6k98mi4GY41i9n2vVNcVXe5wdKLtdJFVrTLC4RTJ/00000000000000000000000000000000000000000000000000000000000000200000000000000000000000000000000000000000000000000000000000000002.json"
      ],
      "transaction": {
        "from": "0x8835669696fb92839ab198cd80ce9f0d35f45ad5",
        "to": "0xbc24012488bfcfe44875a139299595879c43c2cd",
        "gas": "0x15688",
        "value": "0x0",
        "input": "0xc43e4f4c00000000000000000000000000000000000000000000000000000000000000140000000000000000000000000000000000000000000000000000000000000002000000000000000000000000000000000000000000000000000000000000006000000000000000000000000000000000000000000000000000000000000000b9697066732f516d50427874366b39386d69344759343169396e3276564e635658653577644b4c74644a465672544c433452544a2f30303030303030303030303030303030303030303030303030303030303030303030303030303030303030303030303030303030303030303030303030303230303030303030303030303030303030303030303030303030303030303030303030303030303030303030303030303030303030303030303030303030303030322e6a736f6e00000000000000",
        "nonce": "0x5da7e",
        "chainId": "0xa"
      },
      "additionalContracts": [],
      "isFixedGasLimit": false
    },
    {
      "hash": null,
      "transactionType": "CALL",
      "contractName": null,
      "contractAddress": "0xbc24012488bfcfe44875a139299595879c43c2cd",
      "function": "updateBadgeTierMetadata(uint256,uint256,string)",
      "arguments": [
        "20",
        "3",
        "ipfs/QmPBxt6k98mi4GY41i9n2vVNcVXe5wdKLtdJFVrTLC4RTJ/00000000000000000000000000000000000000000000000000000000000000200000000000000000000000000000000000000000000000000000000000000003.json"
      ],
      "transaction": {
        "from": "0x8835669696fb92839ab198cd80ce9f0d35f45ad5",
        "to": "0xbc24012488bfcfe44875a139299595879c43c2cd",
        "gas": "0x15688",
        "value": "0x0",
        "input": "0xc43e4f4c00000000000000000000000000000000000000000000000000000000000000140000000000000000000000000000000000000000000000000000000000000003000000000000000000000000000000000000000000000000000000000000006000000000000000000000000000000000000000000000000000000000000000b9697066732f516d50427874366b39386d69344759343169396e3276564e635658653577644b4c74644a465672544c433452544a2f30303030303030303030303030303030303030303030303030303030303030303030303030303030303030303030303030303030303030303030303030303230303030303030303030303030303030303030303030303030303030303030303030303030303030303030303030303030303030303030303030303030303030332e6a736f6e00000000000000",
        "nonce": "0x5da7f",
        "chainId": "0xa"
      },
      "additionalContracts": [],
      "isFixedGasLimit": false
    },
    {
      "hash": null,
      "transactionType": "CALL",
      "contractName": null,
      "contractAddress": "0xbc24012488bfcfe44875a139299595879c43c2cd",
      "function": "updateBadgeTierMetadata(uint256,uint256,string)",
      "arguments": [
        "21",
        "1",
        "ipfs/QmPBxt6k98mi4GY41i9n2vVNcVXe5wdKLtdJFVrTLC4RTJ/00000000000000000000000000000000000000000000000000000000000000210000000000000000000000000000000000000000000000000000000000000001.json"
      ],
      "transaction": {
        "from": "0x8835669696fb92839ab198cd80ce9f0d35f45ad5",
        "to": "0xbc24012488bfcfe44875a139299595879c43c2cd",
        "gas": "0x15688",
        "value": "0x0",
        "input": "0xc43e4f4c00000000000000000000000000000000000000000000000000000000000000150000000000000000000000000000000000000000000000000000000000000001000000000000000000000000000000000000000000000000000000000000006000000000000000000000000000000000000000000000000000000000000000b9697066732f516d50427874366b39386d69344759343169396e3276564e635658653577644b4c74644a465672544c433452544a2f30303030303030303030303030303030303030303030303030303030303030303030303030303030303030303030303030303030303030303030303030303231303030303030303030303030303030303030303030303030303030303030303030303030303030303030303030303030303030303030303030303030303030312e6a736f6e00000000000000",
        "nonce": "0x5da80",
        "chainId": "0xa"
      },
      "additionalContracts": [],
      "isFixedGasLimit": false
    },
    {
      "hash": null,
      "transactionType": "CALL",
      "contractName": null,
      "contractAddress": "0xbc24012488bfcfe44875a139299595879c43c2cd",
      "function": "updateBadgeTierMetadata(uint256,uint256,string)",
      "arguments": [
        "21",
        "2",
        "ipfs/QmPBxt6k98mi4GY41i9n2vVNcVXe5wdKLtdJFVrTLC4RTJ/00000000000000000000000000000000000000000000000000000000000000210000000000000000000000000000000000000000000000000000000000000002.json"
      ],
      "transaction": {
        "from": "0x8835669696fb92839ab198cd80ce9f0d35f45ad5",
        "to": "0xbc24012488bfcfe44875a139299595879c43c2cd",
        "gas": "0x15688",
        "value": "0x0",
        "input": "0xc43e4f4c00000000000000000000000000000000000000000000000000000000000000150000000000000000000000000000000000000000000000000000000000000002000000000000000000000000000000000000000000000000000000000000006000000000000000000000000000000000000000000000000000000000000000b9697066732f516d50427874366b39386d69344759343169396e3276564e635658653577644b4c74644a465672544c433452544a2f30303030303030303030303030303030303030303030303030303030303030303030303030303030303030303030303030303030303030303030303030303231303030303030303030303030303030303030303030303030303030303030303030303030303030303030303030303030303030303030303030303030303030322e6a736f6e00000000000000",
        "nonce": "0x5da81",
        "chainId": "0xa"
      },
      "additionalContracts": [],
      "isFixedGasLimit": false
    },
    {
      "hash": null,
      "transactionType": "CALL",
      "contractName": null,
      "contractAddress": "0xbc24012488bfcfe44875a139299595879c43c2cd",
      "function": "updateBadgeTierMetadata(uint256,uint256,string)",
      "arguments": [
        "21",
        "3",
        "ipfs/QmPBxt6k98mi4GY41i9n2vVNcVXe5wdKLtdJFVrTLC4RTJ/00000000000000000000000000000000000000000000000000000000000000210000000000000000000000000000000000000000000000000000000000000003.json"
      ],
      "transaction": {
        "from": "0x8835669696fb92839ab198cd80ce9f0d35f45ad5",
        "to": "0xbc24012488bfcfe44875a139299595879c43c2cd",
        "gas": "0x15688",
        "value": "0x0",
        "input": "0xc43e4f4c00000000000000000000000000000000000000000000000000000000000000150000000000000000000000000000000000000000000000000000000000000003000000000000000000000000000000000000000000000000000000000000006000000000000000000000000000000000000000000000000000000000000000b9697066732f516d50427874366b39386d69344759343169396e3276564e635658653577644b4c74644a465672544c433452544a2f30303030303030303030303030303030303030303030303030303030303030303030303030303030303030303030303030303030303030303030303030303231303030303030303030303030303030303030303030303030303030303030303030303030303030303030303030303030303030303030303030303030303030332e6a736f6e00000000000000",
        "nonce": "0x5da82",
        "chainId": "0xa"
      },
      "additionalContracts": [],
      "isFixedGasLimit": false
    },
    {
      "hash": null,
      "transactionType": "CALL",
      "contractName": null,
      "contractAddress": "0xbc24012488bfcfe44875a139299595879c43c2cd",
      "function": "updateBadgeTierMetadata(uint256,uint256,string)",
      "arguments": [
        "22",
        "1",
        "ipfs/QmPBxt6k98mi4GY41i9n2vVNcVXe5wdKLtdJFVrTLC4RTJ/00000000000000000000000000000000000000000000000000000000000000220000000000000000000000000000000000000000000000000000000000000001.json"
      ],
      "transaction": {
        "from": "0x8835669696fb92839ab198cd80ce9f0d35f45ad5",
        "to": "0xbc24012488bfcfe44875a139299595879c43c2cd",
        "gas": "0x15688",
        "value": "0x0",
        "input": "0xc43e4f4c00000000000000000000000000000000000000000000000000000000000000160000000000000000000000000000000000000000000000000000000000000001000000000000000000000000000000000000000000000000000000000000006000000000000000000000000000000000000000000000000000000000000000b9697066732f516d50427874366b39386d69344759343169396e3276564e635658653577644b4c74644a465672544c433452544a2f30303030303030303030303030303030303030303030303030303030303030303030303030303030303030303030303030303030303030303030303030303232303030303030303030303030303030303030303030303030303030303030303030303030303030303030303030303030303030303030303030303030303030312e6a736f6e00000000000000",
        "nonce": "0x5da83",
        "chainId": "0xa"
      },
      "additionalContracts": [],
      "isFixedGasLimit": false
    },
    {
      "hash": null,
      "transactionType": "CALL",
      "contractName": null,
      "contractAddress": "0xbc24012488bfcfe44875a139299595879c43c2cd",
      "function": "updateBadgeTierMetadata(uint256,uint256,string)",
      "arguments": [
        "23",
        "1",
        "ipfs/QmPBxt6k98mi4GY41i9n2vVNcVXe5wdKLtdJFVrTLC4RTJ/00000000000000000000000000000000000000000000000000000000000000230000000000000000000000000000000000000000000000000000000000000001.json"
      ],
      "transaction": {
        "from": "0x8835669696fb92839ab198cd80ce9f0d35f45ad5",
        "to": "0xbc24012488bfcfe44875a139299595879c43c2cd",
        "gas": "0x15688",
        "value": "0x0",
        "input": "0xc43e4f4c00000000000000000000000000000000000000000000000000000000000000170000000000000000000000000000000000000000000000000000000000000001000000000000000000000000000000000000000000000000000000000000006000000000000000000000000000000000000000000000000000000000000000b9697066732f516d50427874366b39386d69344759343169396e3276564e635658653577644b4c74644a465672544c433452544a2f30303030303030303030303030303030303030303030303030303030303030303030303030303030303030303030303030303030303030303030303030303233303030303030303030303030303030303030303030303030303030303030303030303030303030303030303030303030303030303030303030303030303030312e6a736f6e00000000000000",
        "nonce": "0x5da84",
        "chainId": "0xa"
      },
      "additionalContracts": [],
      "isFixedGasLimit": false
    },
    {
      "hash": null,
      "transactionType": "CALL",
      "contractName": null,
      "contractAddress": "0xbc24012488bfcfe44875a139299595879c43c2cd",
      "function": "updateBadgeTierMetadata(uint256,uint256,string)",
      "arguments": [
        "23",
        "2",
        "ipfs/QmPBxt6k98mi4GY41i9n2vVNcVXe5wdKLtdJFVrTLC4RTJ/00000000000000000000000000000000000000000000000000000000000000230000000000000000000000000000000000000000000000000000000000000002.json"
      ],
      "transaction": {
        "from": "0x8835669696fb92839ab198cd80ce9f0d35f45ad5",
        "to": "0xbc24012488bfcfe44875a139299595879c43c2cd",
        "gas": "0x15688",
        "value": "0x0",
        "input": "0xc43e4f4c00000000000000000000000000000000000000000000000000000000000000170000000000000000000000000000000000000000000000000000000000000002000000000000000000000000000000000000000000000000000000000000006000000000000000000000000000000000000000000000000000000000000000b9697066732f516d50427874366b39386d69344759343169396e3276564e635658653577644b4c74644a465672544c433452544a2f30303030303030303030303030303030303030303030303030303030303030303030303030303030303030303030303030303030303030303030303030303233303030303030303030303030303030303030303030303030303030303030303030303030303030303030303030303030303030303030303030303030303030322e6a736f6e00000000000000",
        "nonce": "0x5da85",
        "chainId": "0xa"
      },
      "additionalContracts": [],
      "isFixedGasLimit": false
    },
    {
      "hash": null,
      "transactionType": "CALL",
      "contractName": null,
      "contractAddress": "0xbc24012488bfcfe44875a139299595879c43c2cd",
      "function": "updateBadgeTierMetadata(uint256,uint256,string)",
      "arguments": [
        "23",
        "3",
        "ipfs/QmPBxt6k98mi4GY41i9n2vVNcVXe5wdKLtdJFVrTLC4RTJ/00000000000000000000000000000000000000000000000000000000000000230000000000000000000000000000000000000000000000000000000000000003.json"
      ],
      "transaction": {
        "from": "0x8835669696fb92839ab198cd80ce9f0d35f45ad5",
        "to": "0xbc24012488bfcfe44875a139299595879c43c2cd",
        "gas": "0x15688",
        "value": "0x0",
        "input": "0xc43e4f4c00000000000000000000000000000000000000000000000000000000000000170000000000000000000000000000000000000000000000000000000000000003000000000000000000000000000000000000000000000000000000000000006000000000000000000000000000000000000000000000000000000000000000b9697066732f516d50427874366b39386d69344759343169396e3276564e635658653577644b4c74644a465672544c433452544a2f30303030303030303030303030303030303030303030303030303030303030303030303030303030303030303030303030303030303030303030303030303233303030303030303030303030303030303030303030303030303030303030303030303030303030303030303030303030303030303030303030303030303030332e6a736f6e00000000000000",
        "nonce": "0x5da86",
        "chainId": "0xa"
      },
      "additionalContracts": [],
      "isFixedGasLimit": false
    },
    {
      "hash": null,
      "transactionType": "CALL",
      "contractName": null,
      "contractAddress": "0xbc24012488bfcfe44875a139299595879c43c2cd",
      "function": "updateBadgeTierMetadata(uint256,uint256,string)",
      "arguments": [
        "23",
        "4",
        "ipfs/QmPBxt6k98mi4GY41i9n2vVNcVXe5wdKLtdJFVrTLC4RTJ/00000000000000000000000000000000000000000000000000000000000000230000000000000000000000000000000000000000000000000000000000000004.json"
      ],
      "transaction": {
        "from": "0x8835669696fb92839ab198cd80ce9f0d35f45ad5",
        "to": "0xbc24012488bfcfe44875a139299595879c43c2cd",
        "gas": "0x15688",
        "value": "0x0",
        "input": "0xc43e4f4c00000000000000000000000000000000000000000000000000000000000000170000000000000000000000000000000000000000000000000000000000000004000000000000000000000000000000000000000000000000000000000000006000000000000000000000000000000000000000000000000000000000000000b9697066732f516d50427874366b39386d69344759343169396e3276564e635658653577644b4c74644a465672544c433452544a2f30303030303030303030303030303030303030303030303030303030303030303030303030303030303030303030303030303030303030303030303030303233303030303030303030303030303030303030303030303030303030303030303030303030303030303030303030303030303030303030303030303030303030342e6a736f6e00000000000000",
        "nonce": "0x5da87",
        "chainId": "0xa"
      },
      "additionalContracts": [],
      "isFixedGasLimit": false
    },
    {
      "hash": null,
      "transactionType": "CALL",
      "contractName": null,
      "contractAddress": "0xbc24012488bfcfe44875a139299595879c43c2cd",
      "function": "updateBadgeTierMetadata(uint256,uint256,string)",
      "arguments": [
        "23",
        "5",
        "ipfs/QmPBxt6k98mi4GY41i9n2vVNcVXe5wdKLtdJFVrTLC4RTJ/00000000000000000000000000000000000000000000000000000000000000230000000000000000000000000000000000000000000000000000000000000005.json"
      ],
      "transaction": {
        "from": "0x8835669696fb92839ab198cd80ce9f0d35f45ad5",
        "to": "0xbc24012488bfcfe44875a139299595879c43c2cd",
        "gas": "0x15688",
        "value": "0x0",
        "input": "0xc43e4f4c00000000000000000000000000000000000000000000000000000000000000170000000000000000000000000000000000000000000000000000000000000005000000000000000000000000000000000000000000000000000000000000006000000000000000000000000000000000000000000000000000000000000000b9697066732f516d50427874366b39386d69344759343169396e3276564e635658653577644b4c74644a465672544c433452544a2f30303030303030303030303030303030303030303030303030303030303030303030303030303030303030303030303030303030303030303030303030303233303030303030303030303030303030303030303030303030303030303030303030303030303030303030303030303030303030303030303030303030303030352e6a736f6e00000000000000",
        "nonce": "0x5da88",
        "chainId": "0xa"
      },
      "additionalContracts": [],
      "isFixedGasLimit": false
    },
    {
      "hash": null,
      "transactionType": "CALL",
      "contractName": null,
      "contractAddress": "0xbc24012488bfcfe44875a139299595879c43c2cd",
      "function": "updateBadgeTierMetadata(uint256,uint256,string)",
      "arguments": [
        "24",
        "1",
        "ipfs/QmPBxt6k98mi4GY41i9n2vVNcVXe5wdKLtdJFVrTLC4RTJ/00000000000000000000000000000000000000000000000000000000000000240000000000000000000000000000000000000000000000000000000000000001.json"
      ],
      "transaction": {
        "from": "0x8835669696fb92839ab198cd80ce9f0d35f45ad5",
        "to": "0xbc24012488bfcfe44875a139299595879c43c2cd",
        "gas": "0x15688",
        "value": "0x0",
        "input": "0xc43e4f4c00000000000000000000000000000000000000000000000000000000000000180000000000000000000000000000000000000000000000000000000000000001000000000000000000000000000000000000000000000000000000000000006000000000000000000000000000000000000000000000000000000000000000b9697066732f516d50427874366b39386d69344759343169396e3276564e635658653577644b4c74644a465672544c433452544a2f30303030303030303030303030303030303030303030303030303030303030303030303030303030303030303030303030303030303030303030303030303234303030303030303030303030303030303030303030303030303030303030303030303030303030303030303030303030303030303030303030303030303030312e6a736f6e00000000000000",
        "nonce": "0x5da89",
        "chainId": "0xa"
      },
      "additionalContracts": [],
      "isFixedGasLimit": false
    },
    {
      "hash": null,
      "transactionType": "CALL",
      "contractName": null,
      "contractAddress": "0xbc24012488bfcfe44875a139299595879c43c2cd",
      "function": "updateBadgeTierMetadata(uint256,uint256,string)",
      "arguments": [
        "24",
        "2",
        "ipfs/QmPBxt6k98mi4GY41i9n2vVNcVXe5wdKLtdJFVrTLC4RTJ/00000000000000000000000000000000000000000000000000000000000000240000000000000000000000000000000000000000000000000000000000000002.json"
      ],
      "transaction": {
        "from": "0x8835669696fb92839ab198cd80ce9f0d35f45ad5",
        "to": "0xbc24012488bfcfe44875a139299595879c43c2cd",
        "gas": "0x15688",
        "value": "0x0",
        "input": "0xc43e4f4c00000000000000000000000000000000000000000000000000000000000000180000000000000000000000000000000000000000000000000000000000000002000000000000000000000000000000000000000000000000000000000000006000000000000000000000000000000000000000000000000000000000000000b9697066732f516d50427874366b39386d69344759343169396e3276564e635658653577644b4c74644a465672544c433452544a2f30303030303030303030303030303030303030303030303030303030303030303030303030303030303030303030303030303030303030303030303030303234303030303030303030303030303030303030303030303030303030303030303030303030303030303030303030303030303030303030303030303030303030322e6a736f6e00000000000000",
        "nonce": "0x5da8a",
        "chainId": "0xa"
      },
      "additionalContracts": [],
      "isFixedGasLimit": false
    },
    {
      "hash": null,
      "transactionType": "CALL",
      "contractName": null,
      "contractAddress": "0xbc24012488bfcfe44875a139299595879c43c2cd",
      "function": "updateBadgeTierMetadata(uint256,uint256,string)",
      "arguments": [
        "24",
        "3",
        "ipfs/QmPBxt6k98mi4GY41i9n2vVNcVXe5wdKLtdJFVrTLC4RTJ/00000000000000000000000000000000000000000000000000000000000000240000000000000000000000000000000000000000000000000000000000000003.json"
      ],
      "transaction": {
        "from": "0x8835669696fb92839ab198cd80ce9f0d35f45ad5",
        "to": "0xbc24012488bfcfe44875a139299595879c43c2cd",
        "gas": "0x15688",
        "value": "0x0",
        "input": "0xc43e4f4c00000000000000000000000000000000000000000000000000000000000000180000000000000000000000000000000000000000000000000000000000000003000000000000000000000000000000000000000000000000000000000000006000000000000000000000000000000000000000000000000000000000000000b9697066732f516d50427874366b39386d69344759343169396e3276564e635658653577644b4c74644a465672544c433452544a2f30303030303030303030303030303030303030303030303030303030303030303030303030303030303030303030303030303030303030303030303030303234303030303030303030303030303030303030303030303030303030303030303030303030303030303030303030303030303030303030303030303030303030332e6a736f6e00000000000000",
        "nonce": "0x5da8b",
        "chainId": "0xa"
      },
      "additionalContracts": [],
      "isFixedGasLimit": false
    },
    {
      "hash": null,
      "transactionType": "CALL",
      "contractName": null,
      "contractAddress": "0xbc24012488bfcfe44875a139299595879c43c2cd",
      "function": "updateBadgeTierMetadata(uint256,uint256,string)",
      "arguments": [
        "24",
        "4",
        "ipfs/QmPBxt6k98mi4GY41i9n2vVNcVXe5wdKLtdJFVrTLC4RTJ/00000000000000000000000000000000000000000000000000000000000000240000000000000000000000000000000000000000000000000000000000000004.json"
      ],
      "transaction": {
        "from": "0x8835669696fb92839ab198cd80ce9f0d35f45ad5",
        "to": "0xbc24012488bfcfe44875a139299595879c43c2cd",
        "gas": "0x15688",
        "value": "0x0",
        "input": "0xc43e4f4c00000000000000000000000000000000000000000000000000000000000000180000000000000000000000000000000000000000000000000000000000000004000000000000000000000000000000000000000000000000000000000000006000000000000000000000000000000000000000000000000000000000000000b9697066732f516d50427874366b39386d69344759343169396e3276564e635658653577644b4c74644a465672544c433452544a2f30303030303030303030303030303030303030303030303030303030303030303030303030303030303030303030303030303030303030303030303030303234303030303030303030303030303030303030303030303030303030303030303030303030303030303030303030303030303030303030303030303030303030342e6a736f6e00000000000000",
        "nonce": "0x5da8c",
        "chainId": "0xa"
      },
      "additionalContracts": [],
      "isFixedGasLimit": false
    },
    {
      "hash": null,
      "transactionType": "CALL",
      "contractName": null,
      "contractAddress": "0xbc24012488bfcfe44875a139299595879c43c2cd",
      "function": "updateBadgeTierMetadata(uint256,uint256,string)",
      "arguments": [
        "24",
        "5",
        "ipfs/QmPBxt6k98mi4GY41i9n2vVNcVXe5wdKLtdJFVrTLC4RTJ/00000000000000000000000000000000000000000000000000000000000000240000000000000000000000000000000000000000000000000000000000000005.json"
      ],
      "transaction": {
        "from": "0x8835669696fb92839ab198cd80ce9f0d35f45ad5",
        "to": "0xbc24012488bfcfe44875a139299595879c43c2cd",
        "gas": "0x15688",
        "value": "0x0",
        "input": "0xc43e4f4c00000000000000000000000000000000000000000000000000000000000000180000000000000000000000000000000000000000000000000000000000000005000000000000000000000000000000000000000000000000000000000000006000000000000000000000000000000000000000000000000000000000000000b9697066732f516d50427874366b39386d69344759343169396e3276564e635658653577644b4c74644a465672544c433452544a2f30303030303030303030303030303030303030303030303030303030303030303030303030303030303030303030303030303030303030303030303030303234303030303030303030303030303030303030303030303030303030303030303030303030303030303030303030303030303030303030303030303030303030352e6a736f6e00000000000000",
        "nonce": "0x5da8d",
        "chainId": "0xa"
      },
      "additionalContracts": [],
      "isFixedGasLimit": false
    },
    {
      "hash": null,
      "transactionType": "CALL",
      "contractName": null,
      "contractAddress": "0xbc24012488bfcfe44875a139299595879c43c2cd",
      "function": "updateBadgeTierMetadata(uint256,uint256,string)",
      "arguments": [
        "25",
        "1",
        "ipfs/QmPBxt6k98mi4GY41i9n2vVNcVXe5wdKLtdJFVrTLC4RTJ/00000000000000000000000000000000000000000000000000000000000000250000000000000000000000000000000000000000000000000000000000000001.json"
      ],
      "transaction": {
        "from": "0x8835669696fb92839ab198cd80ce9f0d35f45ad5",
        "to": "0xbc24012488bfcfe44875a139299595879c43c2cd",
        "gas": "0x15688",
        "value": "0x0",
        "input": "0xc43e4f4c00000000000000000000000000000000000000000000000000000000000000190000000000000000000000000000000000000000000000000000000000000001000000000000000000000000000000000000000000000000000000000000006000000000000000000000000000000000000000000000000000000000000000b9697066732f516d50427874366b39386d69344759343169396e3276564e635658653577644b4c74644a465672544c433452544a2f30303030303030303030303030303030303030303030303030303030303030303030303030303030303030303030303030303030303030303030303030303235303030303030303030303030303030303030303030303030303030303030303030303030303030303030303030303030303030303030303030303030303030312e6a736f6e00000000000000",
        "nonce": "0x5da8e",
        "chainId": "0xa"
      },
      "additionalContracts": [],
      "isFixedGasLimit": false
    },
    {
      "hash": null,
      "transactionType": "CALL",
      "contractName": null,
      "contractAddress": "0xbc24012488bfcfe44875a139299595879c43c2cd",
      "function": "updateBadgeTierMetadata(uint256,uint256,string)",
      "arguments": [
        "25",
        "2",
        "ipfs/QmPBxt6k98mi4GY41i9n2vVNcVXe5wdKLtdJFVrTLC4RTJ/00000000000000000000000000000000000000000000000000000000000000250000000000000000000000000000000000000000000000000000000000000002.json"
      ],
      "transaction": {
        "from": "0x8835669696fb92839ab198cd80ce9f0d35f45ad5",
        "to": "0xbc24012488bfcfe44875a139299595879c43c2cd",
        "gas": "0x15688",
        "value": "0x0",
        "input": "0xc43e4f4c00000000000000000000000000000000000000000000000000000000000000190000000000000000000000000000000000000000000000000000000000000002000000000000000000000000000000000000000000000000000000000000006000000000000000000000000000000000000000000000000000000000000000b9697066732f516d50427874366b39386d69344759343169396e3276564e635658653577644b4c74644a465672544c433452544a2f30303030303030303030303030303030303030303030303030303030303030303030303030303030303030303030303030303030303030303030303030303235303030303030303030303030303030303030303030303030303030303030303030303030303030303030303030303030303030303030303030303030303030322e6a736f6e00000000000000",
        "nonce": "0x5da8f",
        "chainId": "0xa"
      },
      "additionalContracts": [],
      "isFixedGasLimit": false
    },
    {
      "hash": null,
      "transactionType": "CALL",
      "contractName": null,
      "contractAddress": "0xbc24012488bfcfe44875a139299595879c43c2cd",
      "function": "updateBadgeTierMetadata(uint256,uint256,string)",
      "arguments": [
        "25",
        "3",
        "ipfs/QmPBxt6k98mi4GY41i9n2vVNcVXe5wdKLtdJFVrTLC4RTJ/00000000000000000000000000000000000000000000000000000000000000250000000000000000000000000000000000000000000000000000000000000003.json"
      ],
      "transaction": {
        "from": "0x8835669696fb92839ab198cd80ce9f0d35f45ad5",
        "to": "0xbc24012488bfcfe44875a139299595879c43c2cd",
        "gas": "0x15688",
        "value": "0x0",
        "input": "0xc43e4f4c00000000000000000000000000000000000000000000000000000000000000190000000000000000000000000000000000000000000000000000000000000003000000000000000000000000000000000000000000000000000000000000006000000000000000000000000000000000000000000000000000000000000000b9697066732f516d50427874366b39386d69344759343169396e3276564e635658653577644b4c74644a465672544c433452544a2f30303030303030303030303030303030303030303030303030303030303030303030303030303030303030303030303030303030303030303030303030303235303030303030303030303030303030303030303030303030303030303030303030303030303030303030303030303030303030303030303030303030303030332e6a736f6e00000000000000",
        "nonce": "0x5da90",
        "chainId": "0xa"
      },
      "additionalContracts": [],
      "isFixedGasLimit": false
    },
    {
      "hash": null,
      "transactionType": "CALL",
      "contractName": null,
      "contractAddress": "0xbc24012488bfcfe44875a139299595879c43c2cd",
      "function": "updateBadgeTierMetadata(uint256,uint256,string)",
      "arguments": [
        "25",
        "4",
        "ipfs/QmPBxt6k98mi4GY41i9n2vVNcVXe5wdKLtdJFVrTLC4RTJ/00000000000000000000000000000000000000000000000000000000000000250000000000000000000000000000000000000000000000000000000000000004.json"
      ],
      "transaction": {
        "from": "0x8835669696fb92839ab198cd80ce9f0d35f45ad5",
        "to": "0xbc24012488bfcfe44875a139299595879c43c2cd",
        "gas": "0x15688",
        "value": "0x0",
        "input": "0xc43e4f4c00000000000000000000000000000000000000000000000000000000000000190000000000000000000000000000000000000000000000000000000000000004000000000000000000000000000000000000000000000000000000000000006000000000000000000000000000000000000000000000000000000000000000b9697066732f516d50427874366b39386d69344759343169396e3276564e635658653577644b4c74644a465672544c433452544a2f30303030303030303030303030303030303030303030303030303030303030303030303030303030303030303030303030303030303030303030303030303235303030303030303030303030303030303030303030303030303030303030303030303030303030303030303030303030303030303030303030303030303030342e6a736f6e00000000000000",
        "nonce": "0x5da91",
        "chainId": "0xa"
      },
      "additionalContracts": [],
      "isFixedGasLimit": false
    },
    {
      "hash": null,
      "transactionType": "CALL",
      "contractName": null,
      "contractAddress": "0xbc24012488bfcfe44875a139299595879c43c2cd",
      "function": "updateBadgeTierMetadata(uint256,uint256,string)",
      "arguments": [
        "26",
        "1",
        "ipfs/QmPBxt6k98mi4GY41i9n2vVNcVXe5wdKLtdJFVrTLC4RTJ/00000000000000000000000000000000000000000000000000000000000000260000000000000000000000000000000000000000000000000000000000000001.json"
      ],
      "transaction": {
        "from": "0x8835669696fb92839ab198cd80ce9f0d35f45ad5",
        "to": "0xbc24012488bfcfe44875a139299595879c43c2cd",
        "gas": "0x15688",
        "value": "0x0",
        "input": "0xc43e4f4c000000000000000000000000000000000000000000000000000000000000001a0000000000000000000000000000000000000000000000000000000000000001000000000000000000000000000000000000000000000000000000000000006000000000000000000000000000000000000000000000000000000000000000b9697066732f516d50427874366b39386d69344759343169396e3276564e635658653577644b4c74644a465672544c433452544a2f30303030303030303030303030303030303030303030303030303030303030303030303030303030303030303030303030303030303030303030303030303236303030303030303030303030303030303030303030303030303030303030303030303030303030303030303030303030303030303030303030303030303030312e6a736f6e00000000000000",
        "nonce": "0x5da92",
        "chainId": "0xa"
      },
      "additionalContracts": [],
      "isFixedGasLimit": false
    },
    {
      "hash": null,
      "transactionType": "CALL",
      "contractName": null,
      "contractAddress": "0xbc24012488bfcfe44875a139299595879c43c2cd",
      "function": "updateBadgeTierMetadata(uint256,uint256,string)",
      "arguments": [
        "26",
        "2",
        "ipfs/QmPBxt6k98mi4GY41i9n2vVNcVXe5wdKLtdJFVrTLC4RTJ/00000000000000000000000000000000000000000000000000000000000000260000000000000000000000000000000000000000000000000000000000000002.json"
      ],
      "transaction": {
        "from": "0x8835669696fb92839ab198cd80ce9f0d35f45ad5",
        "to": "0xbc24012488bfcfe44875a139299595879c43c2cd",
        "gas": "0x15688",
        "value": "0x0",
        "input": "0xc43e4f4c000000000000000000000000000000000000000000000000000000000000001a0000000000000000000000000000000000000000000000000000000000000002000000000000000000000000000000000000000000000000000000000000006000000000000000000000000000000000000000000000000000000000000000b9697066732f516d50427874366b39386d69344759343169396e3276564e635658653577644b4c74644a465672544c433452544a2f30303030303030303030303030303030303030303030303030303030303030303030303030303030303030303030303030303030303030303030303030303236303030303030303030303030303030303030303030303030303030303030303030303030303030303030303030303030303030303030303030303030303030322e6a736f6e00000000000000",
        "nonce": "0x5da93",
        "chainId": "0xa"
      },
      "additionalContracts": [],
      "isFixedGasLimit": false
    },
    {
      "hash": null,
      "transactionType": "CALL",
      "contractName": null,
      "contractAddress": "0xbc24012488bfcfe44875a139299595879c43c2cd",
      "function": "updateBadgeTierMetadata(uint256,uint256,string)",
      "arguments": [
        "26",
        "3",
        "ipfs/QmPBxt6k98mi4GY41i9n2vVNcVXe5wdKLtdJFVrTLC4RTJ/00000000000000000000000000000000000000000000000000000000000000260000000000000000000000000000000000000000000000000000000000000003.json"
      ],
      "transaction": {
        "from": "0x8835669696fb92839ab198cd80ce9f0d35f45ad5",
        "to": "0xbc24012488bfcfe44875a139299595879c43c2cd",
        "gas": "0x15688",
        "value": "0x0",
        "input": "0xc43e4f4c000000000000000000000000000000000000000000000000000000000000001a0000000000000000000000000000000000000000000000000000000000000003000000000000000000000000000000000000000000000000000000000000006000000000000000000000000000000000000000000000000000000000000000b9697066732f516d50427874366b39386d69344759343169396e3276564e635658653577644b4c74644a465672544c433452544a2f30303030303030303030303030303030303030303030303030303030303030303030303030303030303030303030303030303030303030303030303030303236303030303030303030303030303030303030303030303030303030303030303030303030303030303030303030303030303030303030303030303030303030332e6a736f6e00000000000000",
        "nonce": "0x5da94",
        "chainId": "0xa"
      },
      "additionalContracts": [],
      "isFixedGasLimit": false
    },
    {
      "hash": null,
      "transactionType": "CALL",
      "contractName": null,
      "contractAddress": "0xbc24012488bfcfe44875a139299595879c43c2cd",
      "function": "updateBadgeTierMetadata(uint256,uint256,string)",
      "arguments": [
        "26",
        "4",
        "ipfs/QmPBxt6k98mi4GY41i9n2vVNcVXe5wdKLtdJFVrTLC4RTJ/00000000000000000000000000000000000000000000000000000000000000260000000000000000000000000000000000000000000000000000000000000004.json"
      ],
      "transaction": {
        "from": "0x8835669696fb92839ab198cd80ce9f0d35f45ad5",
        "to": "0xbc24012488bfcfe44875a139299595879c43c2cd",
        "gas": "0x15688",
        "value": "0x0",
        "input": "0xc43e4f4c000000000000000000000000000000000000000000000000000000000000001a0000000000000000000000000000000000000000000000000000000000000004000000000000000000000000000000000000000000000000000000000000006000000000000000000000000000000000000000000000000000000000000000b9697066732f516d50427874366b39386d69344759343169396e3276564e635658653577644b4c74644a465672544c433452544a2f30303030303030303030303030303030303030303030303030303030303030303030303030303030303030303030303030303030303030303030303030303236303030303030303030303030303030303030303030303030303030303030303030303030303030303030303030303030303030303030303030303030303030342e6a736f6e00000000000000",
        "nonce": "0x5da95",
        "chainId": "0xa"
      },
      "additionalContracts": [],
      "isFixedGasLimit": false
    },
    {
      "hash": null,
      "transactionType": "CALL",
      "contractName": null,
      "contractAddress": "0xbc24012488bfcfe44875a139299595879c43c2cd",
      "function": "updateBadgeTierMetadata(uint256,uint256,string)",
      "arguments": [
        "26",
        "5",
        "ipfs/QmPBxt6k98mi4GY41i9n2vVNcVXe5wdKLtdJFVrTLC4RTJ/00000000000000000000000000000000000000000000000000000000000000260000000000000000000000000000000000000000000000000000000000000005.json"
      ],
      "transaction": {
        "from": "0x8835669696fb92839ab198cd80ce9f0d35f45ad5",
        "to": "0xbc24012488bfcfe44875a139299595879c43c2cd",
        "gas": "0x15688",
        "value": "0x0",
        "input": "0xc43e4f4c000000000000000000000000000000000000000000000000000000000000001a0000000000000000000000000000000000000000000000000000000000000005000000000000000000000000000000000000000000000000000000000000006000000000000000000000000000000000000000000000000000000000000000b9697066732f516d50427874366b39386d69344759343169396e3276564e635658653577644b4c74644a465672544c433452544a2f30303030303030303030303030303030303030303030303030303030303030303030303030303030303030303030303030303030303030303030303030303236303030303030303030303030303030303030303030303030303030303030303030303030303030303030303030303030303030303030303030303030303030352e6a736f6e00000000000000",
        "nonce": "0x5da96",
        "chainId": "0xa"
      },
      "additionalContracts": [],
      "isFixedGasLimit": false
    },
    {
      "hash": null,
      "transactionType": "CALL",
      "contractName": null,
      "contractAddress": "0xbc24012488bfcfe44875a139299595879c43c2cd",
      "function": "updateBadgeTierMetadata(uint256,uint256,string)",
      "arguments": [
        "27",
        "1",
        "ipfs/QmPBxt6k98mi4GY41i9n2vVNcVXe5wdKLtdJFVrTLC4RTJ/00000000000000000000000000000000000000000000000000000000000000270000000000000000000000000000000000000000000000000000000000000001.json"
      ],
      "transaction": {
        "from": "0x8835669696fb92839ab198cd80ce9f0d35f45ad5",
        "to": "0xbc24012488bfcfe44875a139299595879c43c2cd",
        "gas": "0x15688",
        "value": "0x0",
        "input": "0xc43e4f4c000000000000000000000000000000000000000000000000000000000000001b0000000000000000000000000000000000000000000000000000000000000001000000000000000000000000000000000000000000000000000000000000006000000000000000000000000000000000000000000000000000000000000000b9697066732f516d50427874366b39386d69344759343169396e3276564e635658653577644b4c74644a465672544c433452544a2f30303030303030303030303030303030303030303030303030303030303030303030303030303030303030303030303030303030303030303030303030303237303030303030303030303030303030303030303030303030303030303030303030303030303030303030303030303030303030303030303030303030303030312e6a736f6e00000000000000",
        "nonce": "0x5da97",
        "chainId": "0xa"
      },
      "additionalContracts": [],
      "isFixedGasLimit": false
    },
    {
      "hash": null,
      "transactionType": "CALL",
      "contractName": null,
      "contractAddress": "0xbc24012488bfcfe44875a139299595879c43c2cd",
      "function": "setBadgeTier(uint256,uint256,string,uint256)",
      "arguments": [
        "28",
        "1",
        "ipfs/QmPBxt6k98mi4GY41i9n2vVNcVXe5wdKLtdJFVrTLC4RTJ/00000000000000000000000000000000000000000000000000000000000000280000000000000000000000000000000000000000000000000000000000000001.json",
        "10"
      ],
      "transaction": {
        "from": "0x8835669696fb92839ab198cd80ce9f0d35f45ad5",
        "to": "0xbc24012488bfcfe44875a139299595879c43c2cd",
        "gas": "0x51905",
        "value": "0x0",
        "input": "0xcf132d1c000000000000000000000000000000000000000000000000000000000000001c00000000000000000000000000000000000000000000000000000000000000010000000000000000000000000000000000000000000000000000000000000080000000000000000000000000000000000000000000000000000000000000000a00000000000000000000000000000000000000000000000000000000000000b9697066732f516d50427874366b39386d69344759343169396e3276564e635658653577644b4c74644a465672544c433452544a2f30303030303030303030303030303030303030303030303030303030303030303030303030303030303030303030303030303030303030303030303030303238303030303030303030303030303030303030303030303030303030303030303030303030303030303030303030303030303030303030303030303030303030312e6a736f6e00000000000000",
        "nonce": "0x5da98",
        "chainId": "0xa"
      },
      "additionalContracts": [],
      "isFixedGasLimit": false
    },
    {
      "hash": null,
      "transactionType": "CALL",
      "contractName": null,
      "contractAddress": "0xbc24012488bfcfe44875a139299595879c43c2cd",
      "function": "setBadgeTier(uint256,uint256,string,uint256)",
      "arguments": [
        "28",
        "2",
        "ipfs/QmPBxt6k98mi4GY41i9n2vVNcVXe5wdKLtdJFVrTLC4RTJ/00000000000000000000000000000000000000000000000000000000000000280000000000000000000000000000000000000000000000000000000000000002.json",
        "20"
      ],
      "transaction": {
        "from": "0x8835669696fb92839ab198cd80ce9f0d35f45ad5",
        "to": "0xbc24012488bfcfe44875a139299595879c43c2cd",
        "gas": "0x51240",
        "value": "0x0",
        "input": "0xcf132d1c000000000000000000000000000000000000000000000000000000000000001c00000000000000000000000000000000000000000000000000000000000000020000000000000000000000000000000000000000000000000000000000000080000000000000000000000000000000000000000000000000000000000000001400000000000000000000000000000000000000000000000000000000000000b9697066732f516d50427874366b39386d69344759343169396e3276564e635658653577644b4c74644a465672544c433452544a2f30303030303030303030303030303030303030303030303030303030303030303030303030303030303030303030303030303030303030303030303030303238303030303030303030303030303030303030303030303030303030303030303030303030303030303030303030303030303030303030303030303030303030322e6a736f6e00000000000000",
        "nonce": "0x5da99",
        "chainId": "0xa"
      },
      "additionalContracts": [],
      "isFixedGasLimit": false
    },
    {
      "hash": null,
      "transactionType": "CALL",
      "contractName": null,
      "contractAddress": "0xbc24012488bfcfe44875a139299595879c43c2cd",
      "function": "setBadgeTier(uint256,uint256,string,uint256)",
      "arguments": [
        "28",
        "3",
        "ipfs/QmPBxt6k98mi4GY41i9n2vVNcVXe5wdKLtdJFVrTLC4RTJ/00000000000000000000000000000000000000000000000000000000000000280000000000000000000000000000000000000000000000000000000000000003.json",
        "30"
      ],
      "transaction": {
        "from": "0x8835669696fb92839ab198cd80ce9f0d35f45ad5",
        "to": "0xbc24012488bfcfe44875a139299595879c43c2cd",
        "gas": "0x51240",
        "value": "0x0",
        "input": "0xcf132d1c000000000000000000000000000000000000000000000000000000000000001c00000000000000000000000000000000000000000000000000000000000000030000000000000000000000000000000000000000000000000000000000000080000000000000000000000000000000000000000000000000000000000000001e00000000000000000000000000000000000000000000000000000000000000b9697066732f516d50427874366b39386d69344759343169396e3276564e635658653577644b4c74644a465672544c433452544a2f30303030303030303030303030303030303030303030303030303030303030303030303030303030303030303030303030303030303030303030303030303238303030303030303030303030303030303030303030303030303030303030303030303030303030303030303030303030303030303030303030303030303030332e6a736f6e00000000000000",
        "nonce": "0x5da9a",
        "chainId": "0xa"
      },
      "additionalContracts": [],
      "isFixedGasLimit": false
    },
    {
      "hash": null,
      "transactionType": "CALL",
      "contractName": null,
      "contractAddress": "0xbc24012488bfcfe44875a139299595879c43c2cd",
      "function": "setBadgeTier(uint256,uint256,string,uint256)",
      "arguments": [
        "28",
        "4",
        "ipfs/QmPBxt6k98mi4GY41i9n2vVNcVXe5wdKLtdJFVrTLC4RTJ/00000000000000000000000000000000000000000000000000000000000000280000000000000000000000000000000000000000000000000000000000000004.json",
        "40"
      ],
      "transaction": {
        "from": "0x8835669696fb92839ab198cd80ce9f0d35f45ad5",
        "to": "0xbc24012488bfcfe44875a139299595879c43c2cd",
        "gas": "0x51240",
        "value": "0x0",
        "input": "0xcf132d1c000000000000000000000000000000000000000000000000000000000000001c00000000000000000000000000000000000000000000000000000000000000040000000000000000000000000000000000000000000000000000000000000080000000000000000000000000000000000000000000000000000000000000002800000000000000000000000000000000000000000000000000000000000000b9697066732f516d50427874366b39386d69344759343169396e3276564e635658653577644b4c74644a465672544c433452544a2f30303030303030303030303030303030303030303030303030303030303030303030303030303030303030303030303030303030303030303030303030303238303030303030303030303030303030303030303030303030303030303030303030303030303030303030303030303030303030303030303030303030303030342e6a736f6e00000000000000",
        "nonce": "0x5da9b",
        "chainId": "0xa"
      },
      "additionalContracts": [],
      "isFixedGasLimit": false
    },
    {
      "hash": null,
      "transactionType": "CALL",
      "contractName": null,
      "contractAddress": "0xbc24012488bfcfe44875a139299595879c43c2cd",
      "function": "setBadgeTier(uint256,uint256,string,uint256)",
      "arguments": [
        "28",
        "5",
        "ipfs/QmPBxt6k98mi4GY41i9n2vVNcVXe5wdKLtdJFVrTLC4RTJ/00000000000000000000000000000000000000000000000000000000000000280000000000000000000000000000000000000000000000000000000000000005.json",
        "50"
      ],
      "transaction": {
        "from": "0x8835669696fb92839ab198cd80ce9f0d35f45ad5",
        "to": "0xbc24012488bfcfe44875a139299595879c43c2cd",
        "gas": "0x51240",
        "value": "0x0",
        "input": "0xcf132d1c000000000000000000000000000000000000000000000000000000000000001c00000000000000000000000000000000000000000000000000000000000000050000000000000000000000000000000000000000000000000000000000000080000000000000000000000000000000000000000000000000000000000000003200000000000000000000000000000000000000000000000000000000000000b9697066732f516d50427874366b39386d69344759343169396e3276564e635658653577644b4c74644a465672544c433452544a2f30303030303030303030303030303030303030303030303030303030303030303030303030303030303030303030303030303030303030303030303030303238303030303030303030303030303030303030303030303030303030303030303030303030303030303030303030303030303030303030303030303030303030352e6a736f6e00000000000000",
        "nonce": "0x5da9c",
        "chainId": "0xa"
      },
      "additionalContracts": [],
      "isFixedGasLimit": false
    }
  ],
  "receipts": [],
  "libraries": [],
  "pending": [],
  "returns": {
    "0": {
      "internal_type": "address",
      "value": "0x0000000000000000000000000000000000000000"
    }
  },
  "timestamp": 1764641971,
  "chain": 10,
  "commit": "2b9bb27"
}