{
  "transactions": [
    {
      "hash": "0xdfa724d7aac8ecd4b087218286eb720f1c696c9c373e0d35a5532d53fe4ad805",
      "transactionType": "CALL",
      "contractName": null,
      "contractAddress": "0xbc24012488bfcfe44875a139299595879c43c2cd",
      "function": "setBadgeTier(uint256,uint256,string,uint256)",
      "arguments": [
        "16",
        "1",
        "ipfs/QmZwGU3UjbGffjYaMwhDGNGyWprejH2FpKWDxrgS7TzRKm/00000000000000000000000000000000000000000000000000000000000000160000000000000000000000000000000000000000000000000000000000000001.json",
        "10"
      ],
      "transaction": {
        "from": "0x8835669696fb92839ab198cd80ce9f0d35f45ad5",
        "to": "0xbc24012488bfcfe44875a139299595879c43c2cd",
        "gas": "0x5285d",
        "value": "0x0",
        "input": "0xcf132d1c000000000000000000000000000000000000000000000000000000000000001000000000000000000000000000000000000000000000000000000000000000010000000000000000000000000000000000000000000000000000000000000080000000000000000000000000000000000000000000000000000000000000000a00000000000000000000000000000000000000000000000000000000000000b9697066732f516d5a77475533556a624766666a59614d776844474e4779577072656a483246704b57447872675337547a524b6d2f30303030303030303030303030303030303030303030303030303030303030303030303030303030303030303030303030303030303030303030303030303136303030303030303030303030303030303030303030303030303030303030303030303030303030303030303030303030303030303030303030303030303030312e6a736f6e00000000000000",
        "nonce": "0x140e0",
        "chainId": "0xa"
      },
      "additionalContracts": [],
      "isFixedGasLimit": false
    },
    {
      "hash": "0x8070a5cf0aaf2d6c52076773d9acb8910e21fd410bf7a55b6e3884857ec48513",
      "transactionType": "CALL",
      "contractName": null,
      "contractAddress": "0xbc24012488bfcfe44875a139299595879c43c2cd",
      "function": "setBadgeTier(uint256,uint256,string,uint256)",
      "arguments": [
        "16",
        "2",
        "ipfs/QmZwGU3UjbGffjYaMwhDGNGyWprejH2FpKWDxrgS7TzRKm/00000000000000000000000000000000000000000000000000000000000000160000000000000000000000000000000000000000000000000000000000000002.json",
        "20"
      ],
      "transaction": {
        "from": "0x8835669696fb92839ab198cd80ce9f0d35f45ad5",
        "to": "0xbc24012488bfcfe44875a139299595879c43c2cd",
        "gas": "0x52588",
        "value": "0x0",
        "input": "0xcf132d1c000000000000000000000000000000000000000000000000000000000000001000000000000000000000000000000000000000000000000000000000000000020000000000000000000000000000000000000000000000000000000000000080000000000000000000000000000000000000000000000000000000000000001400000000000000000000000000000000000000000000000000000000000000b9697066732f516d5a77475533556a624766666a59614d776844474e4779577072656a483246704b57447872675337547a524b6d2f30303030303030303030303030303030303030303030303030303030303030303030303030303030303030303030303030303030303030303030303030303136303030303030303030303030303030303030303030303030303030303030303030303030303030303030303030303030303030303030303030303030303030322e6a736f6e00000000000000",
        "nonce": "0x140e1",
        "chainId": "0xa"
      },
      "additionalContracts": [],
      "isFixedGasLimit": false
    },
    {
      "hash": "0x5e92bd4887ef18a52dd35bcc4a91128733ee6ff0125ae4088fca9a59c158cbd7",
      "transactionType": "CALL",
      "contractName": null,
      "contractAddress": "0xbc24012488bfcfe44875a139299595879c43c2cd",
      "function": "setBadgeTier(uint256,uint256,string,uint256)",
      "arguments": [
        "16",
        "3",
        "ipfs/QmZwGU3UjbGffjYaMwhDGNGyWprejH2FpKWDxrgS7TzRKm/00000000000000000000000000000000000000000000000000000000000000160000000000000000000000000000000000000000000000000000000000000003.json",
        "30"
      ],
      "transaction": {
        "from": "0x8835669696fb92839ab198cd80ce9f0d35f45ad5",
        "to": "0xbc24012488bfcfe44875a139299595879c43c2cd",
        "gas": "0x52588",
        "value": "0x0",
        "input": "0xcf132d1c000000000000000000000000000000000000000000000000000000000000001000000000000000000000000000000000000000000000000000000000000000030000000000000000000000000000000000000000000000000000000000000080000000000000000000000000000000000000000000000000000000000000001e00000000000000000000000000000000000000000000000000000000000000b9697066732f516d5a77475533556a624766666a59614d776844474e4779577072656a483246704b57447872675337547a524b6d2f30303030303030303030303030303030303030303030303030303030303030303030303030303030303030303030303030303030303030303030303030303136303030303030303030303030303030303030303030303030303030303030303030303030303030303030303030303030303030303030303030303030303030332e6a736f6e00000000000000",
        "nonce": "0x140e2",
        "chainId": "0xa"
      },
      "additionalContracts": [],
      "isFixedGasLimit": false
    },
    {
      "hash": "0x07170dbc01f7f54dae07caaeac83816944879bd9db7b7f01f2ec8742f104f67f",
      "transactionType": "CALL",
      "contractName": null,
      "contractAddress": "0xbc24012488bfcfe44875a139299595879c43c2cd",
      "function": "setBadgeTier(uint256,uint256,string,uint256)",
      "arguments": [
        "16",
        "4",
        "ipfs/QmZwGU3UjbGffjYaMwhDGNGyWprejH2FpKWDxrgS7TzRKm/00000000000000000000000000000000000000000000000000000000000000160000000000000000000000000000000000000000000000000000000000000004.json",
        "40"
      ],
      "transaction": {
        "from": "0x8835669696fb92839ab198cd80ce9f0d35f45ad5",
        "to": "0xbc24012488bfcfe44875a139299595879c43c2cd",
        "gas": "0x52588",
        "value": "0x0",
        "input": "0xcf132d1c000000000000000000000000000000000000000000000000000000000000001000000000000000000000000000000000000000000000000000000000000000040000000000000000000000000000000000000000000000000000000000000080000000000000000000000000000000000000000000000000000000000000002800000000000000000000000000000000000000000000000000000000000000b9697066732f516d5a77475533556a624766666a59614d776844474e4779577072656a483246704b57447872675337547a524b6d2f30303030303030303030303030303030303030303030303030303030303030303030303030303030303030303030303030303030303030303030303030303136303030303030303030303030303030303030303030303030303030303030303030303030303030303030303030303030303030303030303030303030303030342e6a736f6e00000000000000",
        "nonce": "0x140e3",
        "chainId": "0xa"
      },
      "additionalContracts": [],
      "isFixedGasLimit": false
    },
    {
      "hash": "0xc9b32e16415ced448f5dfa64ae5adc188ceea701264266f4f5f23816b0d7727a",
      "transactionType": "CALL",
      "contractName": null,
      "contractAddress": "0xbc24012488bfcfe44875a139299595879c43c2cd",
      "function": "setBadgeTier(uint256,uint256,string,uint256)",
      "arguments": [
        "16",
        "5",
        "ipfs/QmZwGU3UjbGffjYaMwhDGNGyWprejH2FpKWDxrgS7TzRKm/00000000000000000000000000000000000000000000000000000000000000160000000000000000000000000000000000000000000000000000000000000005.json",
        "50"
      ],
      "transaction": {
        "from": "0x8835669696fb92839ab198cd80ce9f0d35f45ad5",
        "to": "0xbc24012488bfcfe44875a139299595879c43c2cd",
        "gas": "0x52588",
        "value": "0x0",
        "input": "0xcf132d1c000000000000000000000000000000000000000000000000000000000000001000000000000000000000000000000000000000000000000000000000000000050000000000000000000000000000000000000000000000000000000000000080000000000000000000000000000000000000000000000000000000000000003200000000000000000000000000000000000000000000000000000000000000b9697066732f516d5a77475533556a624766666a59614d776844474e4779577072656a483246704b57447872675337547a524b6d2f30303030303030303030303030303030303030303030303030303030303030303030303030303030303030303030303030303030303030303030303030303136303030303030303030303030303030303030303030303030303030303030303030303030303030303030303030303030303030303030303030303030303030352e6a736f6e00000000000000",
        "nonce": "0x140e4",
        "chainId": "0xa"
      },
      "additionalContracts": [],
      "isFixedGasLimit": false
    }
  ],
  "receipts": [
    {
      "status": "0x1",
      "cumulativeGasUsed": "0x1227e1a",
      "logs": [
        {
          "address": "0xbc24012488bfcfe44875a139299595879c43c2cd",
          "topics": [
            "0x5625f15df4cbadf2e6e3f80e2406aec5d99a432335ef0e9a1fba9e48b0558303",
            "0x0000000000000000000000000000000000000000000000000000000000000010"
          ],
          "data": "0x00000000000000000000000000000000000000000000000000000000000000010000000000000000000000000000000000000000000000000000000000000060000000000000000000000000000000000000000000000000000000000000000a00000000000000000000000000000000000000000000000000000000000000b9697066732f516d5a77475533556a624766666a59614d776844474e4779577072656a483246704b57447872675337547a524b6d2f30303030303030303030303030303030303030303030303030303030303030303030303030303030303030303030303030303030303030303030303030303136303030303030303030303030303030303030303030303030303030303030303030303030303030303030303030303030303030303030303030303030303030312e6a736f6e00000000000000",
          "blockHash": "0xcdf3085cb248e2ad52dd66f3d5d0b6ff443f5ecfff86f18dc831513b27ddba64",
          "blockNumber": "0x7f844b3",
          "transactionHash": "0xdfa724d7aac8ecd4b087218286eb720f1c696c9c373e0d35a5532d53fe4ad805",
          "transactionIndex": "0x31",
          "logIndex": "0xea",
          "removed": false
        }
      ],
      "logsBloom": "0x00000000140000000200000000000000000000000000000000000000000000000000000000000000000000000000000000000000000000000000000000000000000000000000000000000000000000000000000000000000000000000000000000040000000000000000000000000000000000000000000000000000040000000000000000000000000000000000000000000100000000000000000000000000000000000000000000000000000000000000000000000000000000000000000000000000000000000000004000000000000000000000000000004000000000000000000000000000000000000000000000000000010000000000000000000000",
      "type": "0x2",
      "transactionHash": "0xdfa724d7aac8ecd4b087218286eb720f1c696c9c373e0d35a5532d53fe4ad805",
      "transactionIndex": "0x31",
      "blockHash": "0xcdf3085cb248e2ad52dd66f3d5d0b6ff443f5ecfff86f18dc831513b27ddba64",
      "blockNumber": "0x7f844b3",
      "gasUsed": "0x3bbec",
      "effectiveGasPrice": "0x30e2e",
      "from": "0x8835669696fb92839ab198cd80ce9f0d35f45ad5",
      "to": "0xbc24012488bfcfe44875a139299595879c43c2cd",
      "contractAddress": null,
      "l1BaseFeeScalar": "0x146b",
      "l1BlobBaseFee": "0x19ea7d3",
      "l1BlobBaseFeeScalar": "0xf79c5",
      "l1Fee": "0x2512a8572",
      "l1GasPrice": "0x1cc86110",
      "l1GasUsed": "0x927"
    },
    {
      "status": "0x1",
      "cumulativeGasUsed": "0x12602fb",
      "logs": [
        {
          "address": "0xbc24012488bfcfe44875a139299595879c43c2cd",
          "topics": [
            "0x5625f15df4cbadf2e6e3f80e2406aec5d99a432335ef0e9a1fba9e48b0558303",
            "0x0000000000000000000000000000000000000000000000000000000000000010"
          ],
          "data": "0x00000000000000000000000000000000000000000000000000000000000000020000000000000000000000000000000000000000000000000000000000000060000000000000000000000000000000000000000000000000000000000000001400000000000000000000000000000000000000000000000000000000000000b9697066732f516d5a77475533556a624766666a59614d776844474e4779577072656a483246704b57447872675337547a524b6d2f30303030303030303030303030303030303030303030303030303030303030303030303030303030303030303030303030303030303030303030303030303136303030303030303030303030303030303030303030303030303030303030303030303030303030303030303030303030303030303030303030303030303030322e6a736f6e00000000000000",
          "blockHash": "0xcdf3085cb248e2ad52dd66f3d5d0b6ff443f5ecfff86f18dc831513b27ddba64",
          "blockNumber": "0x7f844b3",
          "transactionHash": "0x8070a5cf0aaf2d6c52076773d9acb8910e21fd410bf7a55b6e3884857ec48513",
          "transactionIndex": "0x32",
          "logIndex": "0xeb",
          "removed": false
        }
      ],
      "logsBloom": "0x00000000140000000200000000000000000000000000000000000000000000000000000000000000000000000000000000000000000000000000000000000000000000000000000000000000000000000000000000000000000000000000000000040000000000000000000000000000000000000000000000000000040000000000000000000000000000000000000000000100000000000000000000000000000000000000000000000000000000000000000000000000000000000000000000000000000000000000004000000000000000000000000000004000000000000000000000000000000000000000000000000000010000000000000000000000",
      "type": "0x2",
      "transactionHash": "0x8070a5cf0aaf2d6c52076773d9acb8910e21fd410bf7a55b6e3884857ec48513",
      "transactionIndex": "0x32",
      "blockHash": "0xcdf3085cb248e2ad52dd66f3d5d0b6ff443f5ecfff86f18dc831513b27ddba64",
      "blockNumber": "0x7f844b3",
      "gasUsed": "0x384e1",
      "effectiveGasPrice": "0x30e2e",
      "from": "0x8835669696fb92839ab198cd80ce9f0d35f45ad5",
      "to": "0xbc24012488bfcfe44875a139299595879c43c2cd",
      "contractAddress": null,
      "l1BaseFeeScalar": "0x146b",
      "l1BlobBaseFee": "0x19ea7d3",
      "l1BlobBaseFeeScalar": "0xf79c5",
      "l1Fee": "0x2548dc9f4",
      "l1GasPrice": "0x1cc86110",
      "l1GasUsed": "0x934"
    },
    {
      "status": "0x1",
      "cumulativeGasUsed": "0x12987dc",
      "logs": [
        {
          "address": "0xbc24012488bfcfe44875a139299595879c43c2cd",
          "topics": [
            "0x5625f15df4cbadf2e6e3f80e2406aec5d99a432335ef0e9a1fba9e48b0558303",
            "0x0000000000000000000000000000000000000000000000000000000000000010"
          ],
          "data": "0x00000000000000000000000000000000000000000000000000000000000000030000000000000000000000000000000000000000000000000000000000000060000000000000000000000000000000000000000000000000000000000000001e00000000000000000000000000000000000000000000000000000000000000b9697066732f516d5a77475533556a624766666a59614d776844474e4779577072656a483246704b57447872675337547a524b6d2f30303030303030303030303030303030303030303030303030303030303030303030303030303030303030303030303030303030303030303030303030303136303030303030303030303030303030303030303030303030303030303030303030303030303030303030303030303030303030303030303030303030303030332e6a736f6e00000000000000",
          "blockHash": "0xcdf3085cb248e2ad52dd66f3d5d0b6ff443f5ecfff86f18dc831513b27ddba64",
          "blockNumber": "0x7f844b3",
          "transactionHash": "0x5e92bd4887ef18a52dd35bcc4a91128733ee6ff0125ae4088fca9a59c158cbd7",
          "transactionIndex": "0x33",
          "logIndex": "0xec",
          "removed": false
        }
      ],
      "logsBloom": "0x00000000140000000200000000000000000000000000000000000000000000000000000000000000000000000000000000000000000000000000000000000000000000000000000000000000000000000000000000000000000000000000000000040000000000000000000000000000000000000000000000000000040000000000000000000000000000000000000000000100000000000000000000000000000000000000000000000000000000000000000000000000000000000000000000000000000000000000004000000000000000000000000000004000000000000000000000000000000000000000000000000000010000000000000000000000",
      "type": "0x2",
      "transactionHash": "0x5e92bd4887ef18a52dd35bcc4a91128733ee6ff0125ae4088fca9a59c158cbd7",
      "transactionIndex": "0x33",
      "blockHash": "0xcdf3085cb248e2ad52dd66f3d5d0b6ff443f5ecfff86f18dc831513b27ddba64",
      "blockNumber": "0x7f844b3",
      "gasUsed": "0x384e1",
      "effectiveGasPrice": "0x30e2e",
      "from": "0x8835669696fb92839ab198cd80ce9f0d35f45ad5",
      "to": "0xbc24012488bfcfe44875a139299595879c43c2cd",
      "contractAddress": null,
      "l1BaseFeeScalar": "0x146b",
      "l1BlobBaseFee": "0x19ea7d3",
      "l1BlobBaseFeeScalar": "0xf79c5",
      "l1Fee": "0x2548dc9f4",
      "l1GasPrice": "0x1cc86110",
      "l1GasUsed": "0x934"
    },
    {
      "status": "0x1",
      "cumulativeGasUsed": "0x12d0cbd",
      "logs": [
        {
          "address": "0xbc24012488bfcfe44875a139299595879c43c2cd",
          "topics": [
            "0x5625f15df4cbadf2e6e3f80e2406aec5d99a432335ef0e9a1fba9e48b0558303",
            "0x0000000000000000000000000000000000000000000000000000000000000010"
          ],
          "data": "0x00000000000000000000000000000000000000000000000000000000000000040000000000000000000000000000000000000000000000000000000000000060000000000000000000000000000000000000000000000000000000000000002800000000000000000000000000000000000000000000000000000000000000b9697066732f516d5a77475533556a624766666a59614d776844474e4779577072656a483246704b57447872675337547a524b6d2f30303030303030303030303030303030303030303030303030303030303030303030303030303030303030303030303030303030303030303030303030303136303030303030303030303030303030303030303030303030303030303030303030303030303030303030303030303030303030303030303030303030303030342e6a736f6e00000000000000",
          "blockHash": "0xcdf3085cb248e2ad52dd66f3d5d0b6ff443f5ecfff86f18dc831513b27ddba64",
          "blockNumber": "0x7f844b3",
          "transactionHash": "0x07170dbc01f7f54dae07caaeac83816944879bd9db7b7f01f2ec8742f104f67f",
          "transactionIndex": "0x34",
          "logIndex": "0xed",
          "removed": false
        }
      ],
      "logsBloom": "0x00000000140000000200000000000000000000000000000000000000000000000000000000000000000000000000000000000000000000000000000000000000000000000000000000000000000000000000000000000000000000000000000000040000000000000000000000000000000000000000000000000000040000000000000000000000000000000000000000000100000000000000000000000000000000000000000000000000000000000000000000000000000000000000000000000000000000000000004000000000000000000000000000004000000000000000000000000000000000000000000000000000010000000000000000000000",
      "type": "0x2",
      "transactionHash": "0x07170dbc01f7f54dae07caaeac83816944879bd9db7b7f01f2ec8742f104f67f",
      "transactionIndex": "0x34",
      "blockHash": "0xcdf3085cb248e2ad52dd66f3d5d0b6ff443f5ecfff86f18dc831513b27ddba64",
      "blockNumber": "0x7f844b3",
      "gasUsed": "0x384e1",
      "effectiveGasPrice": "0x30e2e",
      "from": "0x8835669696fb92839ab198cd80ce9f0d35f45ad5",
      "to": "0xbc24012488bfcfe44875a139299595879c43c2cd",
      "contractAddress": null,
      "l1BaseFeeScalar": "0x146b",
      "l1BlobBaseFee": "0x19ea7d3",
      "l1BlobBaseFeeScalar": "0xf79c5",
      "l1Fee": "0x2548dc9f4",
      "l1GasPrice": "0x1cc86110",
      "l1GasUsed": "0x934"
    },
    {
      "status": "0x1",
      "cumulativeGasUsed": "0x130919e",
      "logs": [
        {
          "address": "0xbc24012488bfcfe44875a139299595879c43c2cd",
          "topics": [
            "0x5625f15df4cbadf2e6e3f80e2406aec5d99a432335ef0e9a1fba9e48b0558303",
            "0x0000000000000000000000000000000000000000000000000000000000000010"
          ],
          "data": "0x00000000000000000000000000000000000000000000000000000000000000050000000000000000000000000000000000000000000000000000000000000060000000000000000000000000000000000000000000000000000000000000003200000000000000000000000000000000000000000000000000000000000000b9697066732f516d5a77475533556a624766666a59614d776844474e4779577072656a483246704b57447872675337547a524b6d2f30303030303030303030303030303030303030303030303030303030303030303030303030303030303030303030303030303030303030303030303030303136303030303030303030303030303030303030303030303030303030303030303030303030303030303030303030303030303030303030303030303030303030352e6a736f6e00000000000000",
          "blockHash": "0xcdf3085cb248e2ad52dd66f3d5d0b6ff443f5ecfff86f18dc831513b27ddba64",
          "blockNumber": "0x7f844b3",
          "transactionHash": "0xc9b32e16415ced448f5dfa64ae5adc188ceea701264266f4f5f23816b0d7727a",
          "transactionIndex": "0x35",
          "logIndex": "0xee",
          "removed": false
        }
      ],
      "logsBloom": "0x00000000140000000200000000000000000000000000000000000000000000000000000000000000000000000000000000000000000000000000000000000000000000000000000000000000000000000000000000000000000000000000000000040000000000000000000000000000000000000000000000000000040000000000000000000000000000000000000000000100000000000000000000000000000000000000000000000000000000000000000000000000000000000000000000000000000000000000004000000000000000000000000000004000000000000000000000000000000000000000000000000000010000000000000000000000",
      "type": "0x2",
      "transactionHash": "0xc9b32e16415ced448f5dfa64ae5adc188ceea701264266f4f5f23816b0d7727a",
      "transactionIndex": "0x35",
      "blockHash": "0xcdf3085cb248e2ad52dd66f3d5d0b6ff443f5ecfff86f18dc831513b27ddba64",
      "blockNumber": "0x7f844b3",
      "gasUsed": "0x384e1",
      "effectiveGasPrice": "0x30e2e",
      "from": "0x8835669696fb92839ab198cd80ce9f0d35f45ad5",
      "to": "0xbc24012488bfcfe44875a139299595879c43c2cd",
      "contractAddress": null,
      "l1BaseFeeScalar": "0x146b",
      "l1BlobBaseFee": "0x19ea7d3",
      "l1BlobBaseFeeScalar": "0xf79c5",
      "l1Fee": "0x2548dc9f4",
      "l1GasPrice": "0x1cc86110",
      "l1GasUsed": "0x934"
    }
  ],
  "libraries": [],
  "pending": [],
  "returns": {
    "0": {
      "internal_type": "address",
      "value": "0x0000000000000000000000000000000000000000"
    }
  },
  "timestamp": 1743020834,
  "chain": 10,
  "commit": "2198f53"
}