{
  "transactions": [
    {
      "hash": null,
      "transactionType": "CALL",
      "contractName": null,
      "contractAddress": "0xbc24012488bfcfe44875a139299595879c43c2cd",
      "function": "setBadgeMetadata(uint256,string)",
      "arguments": [
        "15",
        "ipfs/QmZwGU3UjbGffjYaMwhDGNGyWprejH2FpKWDxrgS7TzRKm/00000000000000000000000000000000000000000000000000000000000000150000000000000000000000000000000000000000000000000000000000000000.json"
      ],
      "transaction": {
        "from": "0x8835669696fb92839ab198cd80ce9f0d35f45ad5",
        "to": "0xbc24012488bfcfe44875a139299595879c43c2cd",
        "gas": "0x1284c",
        "value": "0x0",
        "input": "0xce64b45f000000000000000000000000000000000000000000000000000000000000000f000000000000000000000000000000000000000000000000000000000000004000000000000000000000000000000000000000000000000000000000000000b9697066732f516d5a77475533556a624766666a59614d776844474e4779577072656a483246704b57447872675337547a524b6d2f30303030303030303030303030303030303030303030303030303030303030303030303030303030303030303030303030303030303030303030303030303135303030303030303030303030303030303030303030303030303030303030303030303030303030303030303030303030303030303030303030303030303030302e6a736f6e00000000000000",
        "nonce": "0x140c9",
        "chainId": "0xa"
      },
      "additionalContracts": [],
      "isFixedGasLimit": false
    },
    {
      "hash": null,
      "transactionType": "CALL",
      "contractName": null,
      "contractAddress": "0xbc24012488bfcfe44875a139299595879c43c2cd",
      "function": "setBadgeMetadata(uint256,string)",
      "arguments": [
        "16",
        "ipfs/QmZwGU3UjbGffjYaMwhDGNGyWprejH2FpKWDxrgS7TzRKm/00000000000000000000000000000000000000000000000000000000000000160000000000000000000000000000000000000000000000000000000000000000.json"
      ],
      "transaction": {
        "from": "0x8835669696fb92839ab198cd80ce9f0d35f45ad5",
        "to": "0xbc24012488bfcfe44875a139299595879c43c2cd",
        "gas": "0x1284c",
        "value": "0x0",
        "input": "0xce64b45f0000000000000000000000000000000000000000000000000000000000000010000000000000000000000000000000000000000000000000000000000000004000000000000000000000000000000000000000000000000000000000000000b9697066732f516d5a77475533556a624766666a59614d776844474e4779577072656a483246704b57447872675337547a524b6d2f30303030303030303030303030303030303030303030303030303030303030303030303030303030303030303030303030303030303030303030303030303136303030303030303030303030303030303030303030303030303030303030303030303030303030303030303030303030303030303030303030303030303030302e6a736f6e00000000000000",
        "nonce": "0x140ca",
        "chainId": "0xa"
      },
      "additionalContracts": [],
      "isFixedGasLimit": false
    },
    {
      "hash": null,
      "transactionType": "CALL",
      "contractName": null,
      "contractAddress": "0xbc24012488bfcfe44875a139299595879c43c2cd",
      "function": "setBadgeMetadata(uint256,string)",
      "arguments": [
        "17",
        "ipfs/QmZwGU3UjbGffjYaMwhDGNGyWprejH2FpKWDxrgS7TzRKm/00000000000000000000000000000000000000000000000000000000000000170000000000000000000000000000000000000000000000000000000000000000.json"
      ],
      "transaction": {
        "from": "0x8835669696fb92839ab198cd80ce9f0d35f45ad5",
        "to": "0xbc24012488bfcfe44875a139299595879c43c2cd",
        "gas": "0x1284c",
        "value": "0x0",
        "input": "0xce64b45f0000000000000000000000000000000000000000000000000000000000000011000000000000000000000000000000000000000000000000000000000000004000000000000000000000000000000000000000000000000000000000000000b9697066732f516d5a77475533556a624766666a59614d776844474e4779577072656a483246704b57447872675337547a524b6d2f30303030303030303030303030303030303030303030303030303030303030303030303030303030303030303030303030303030303030303030303030303137303030303030303030303030303030303030303030303030303030303030303030303030303030303030303030303030303030303030303030303030303030302e6a736f6e00000000000000",
        "nonce": "0x140cb",
        "chainId": "0xa"
      },
      "additionalContracts": [],
      "isFixedGasLimit": false
    },
    {
      "hash": null,
      "transactionType": "CALL",
      "contractName": null,
      "contractAddress": "0xbc24012488bfcfe44875a139299595879c43c2cd",
      "function": "setBadgeTier(uint256,uint256,string,uint256)",
      "arguments": [
        "15",
        "1",
        "ipfs/QmZwGU3UjbGffjYaMwhDGNGyWprejH2FpKWDxrgS7TzRKm/00000000000000000000000000000000000000000000000000000000000000150000000000000000000000000000000000000000000000000000000000000001.json",
        "10"
      ],
      "transaction": {
        "from": "0x8835669696fb92839ab198cd80ce9f0d35f45ad5",
        "to": "0xbc24012488bfcfe44875a139299595879c43c2cd",
        "gas": "0x5285d",
        "value": "0x0",
        "input": "0xcf132d1c000000000000000000000000000000000000000000000000000000000000000f00000000000000000000000000000000000000000000000000000000000000010000000000000000000000000000000000000000000000000000000000000080000000000000000000000000000000000000000000000000000000000000000a00000000000000000000000000000000000000000000000000000000000000b9697066732f516d5a77475533556a624766666a59614d776844474e4779577072656a483246704b57447872675337547a524b6d2f30303030303030303030303030303030303030303030303030303030303030303030303030303030303030303030303030303030303030303030303030303135303030303030303030303030303030303030303030303030303030303030303030303030303030303030303030303030303030303030303030303030303030312e6a736f6e00000000000000",
        "nonce": "0x140cc",
        "chainId": "0xa"
      },
      "additionalContracts": [],
      "isFixedGasLimit": false
    },
    {
      "hash": null,
      "transactionType": "CALL",
      "contractName": null,
      "contractAddress": "0xbc24012488bfcfe44875a139299595879c43c2cd",
      "function": "setBadgeTier(uint256,uint256,string,uint256)",
      "arguments": [
        "15",
        "2",
        "ipfs/QmZwGU3UjbGffjYaMwhDGNGyWprejH2FpKWDxrgS7TzRKm/00000000000000000000000000000000000000000000000000000000000000150000000000000000000000000000000000000000000000000000000000000002.json",
        "20"
      ],
      "transaction": {
        "from": "0x8835669696fb92839ab198cd80ce9f0d35f45ad5",
        "to": "0xbc24012488bfcfe44875a139299595879c43c2cd",
        "gas": "0x52588",
        "value": "0x0",
        "input": "0xcf132d1c000000000000000000000000000000000000000000000000000000000000000f00000000000000000000000000000000000000000000000000000000000000020000000000000000000000000000000000000000000000000000000000000080000000000000000000000000000000000000000000000000000000000000001400000000000000000000000000000000000000000000000000000000000000b9697066732f516d5a77475533556a624766666a59614d776844474e4779577072656a483246704b57447872675337547a524b6d2f30303030303030303030303030303030303030303030303030303030303030303030303030303030303030303030303030303030303030303030303030303135303030303030303030303030303030303030303030303030303030303030303030303030303030303030303030303030303030303030303030303030303030322e6a736f6e00000000000000",
        "nonce": "0x140cd",
        "chainId": "0xa"
      },
      "additionalContracts": [],
      "isFixedGasLimit": false
    },
    {
      "hash": null,
      "transactionType": "CALL",
      "contractName": null,
      "contractAddress": "0xbc24012488bfcfe44875a139299595879c43c2cd",
      "function": "setBadgeTier(uint256,uint256,string,uint256)",
      "arguments": [
        "15",
        "3",
        "ipfs/QmZwGU3UjbGffjYaMwhDGNGyWprejH2FpKWDxrgS7TzRKm/00000000000000000000000000000000000000000000000000000000000000150000000000000000000000000000000000000000000000000000000000000003.json",
        "30"
      ],
      "transaction": {
        "from": "0x8835669696fb92839ab198cd80ce9f0d35f45ad5",
        "to": "0xbc24012488bfcfe44875a139299595879c43c2cd",
        "gas": "0x52588",
        "value": "0x0",
        "input": "0xcf132d1c000000000000000000000000000000000000000000000000000000000000000f00000000000000000000000000000000000000000000000000000000000000030000000000000000000000000000000000000000000000000000000000000080000000000000000000000000000000000000000000000000000000000000001e00000000000000000000000000000000000000000000000000000000000000b9697066732f516d5a77475533556a624766666a59614d776844474e4779577072656a483246704b57447872675337547a524b6d2f30303030303030303030303030303030303030303030303030303030303030303030303030303030303030303030303030303030303030303030303030303135303030303030303030303030303030303030303030303030303030303030303030303030303030303030303030303030303030303030303030303030303030332e6a736f6e00000000000000",
        "nonce": "0x140ce",
        "chainId": "0xa"
      },
      "additionalContracts": [],
      "isFixedGasLimit": false
    },
    {
      "hash": null,
      "transactionType": "CALL",
      "contractName": null,
      "contractAddress": "0xbc24012488bfcfe44875a139299595879c43c2cd",
      "function": "setBadgeTier(uint256,uint256,string,uint256)",
      "arguments": [
        "15",
        "4",
        "ipfs/QmZwGU3UjbGffjYaMwhDGNGyWprejH2FpKWDxrgS7TzRKm/00000000000000000000000000000000000000000000000000000000000000150000000000000000000000000000000000000000000000000000000000000004.json",
        "40"
      ],
      "transaction": {
        "from": "0x8835669696fb92839ab198cd80ce9f0d35f45ad5",
        "to": "0xbc24012488bfcfe44875a139299595879c43c2cd",
        "gas": "0x52588",
        "value": "0x0",
        "input": "0xcf132d1c000000000000000000000000000000000000000000000000000000000000000f00000000000000000000000000000000000000000000000000000000000000040000000000000000000000000000000000000000000000000000000000000080000000000000000000000000000000000000000000000000000000000000002800000000000000000000000000000000000000000000000000000000000000b9697066732f516d5a77475533556a624766666a59614d776844474e4779577072656a483246704b57447872675337547a524b6d2f30303030303030303030303030303030303030303030303030303030303030303030303030303030303030303030303030303030303030303030303030303135303030303030303030303030303030303030303030303030303030303030303030303030303030303030303030303030303030303030303030303030303030342e6a736f6e00000000000000",
        "nonce": "0x140cf",
        "chainId": "0xa"
      },
      "additionalContracts": [],
      "isFixedGasLimit": false
    },
    {
      "hash": null,
      "transactionType": "CALL",
      "contractName": null,
      "contractAddress": "0xbc24012488bfcfe44875a139299595879c43c2cd",
      "function": "setBadgeTier(uint256,uint256,string,uint256)",
      "arguments": [
        "15",
        "5",
        "ipfs/QmZwGU3UjbGffjYaMwhDGNGyWprejH2FpKWDxrgS7TzRKm/00000000000000000000000000000000000000000000000000000000000000150000000000000000000000000000000000000000000000000000000000000005.json",
        "50"
      ],
      "transaction": {
        "from": "0x8835669696fb92839ab198cd80ce9f0d35f45ad5",
        "to": "0xbc24012488bfcfe44875a139299595879c43c2cd",
        "gas": "0x52588",
        "value": "0x0",
        "input": "0xcf132d1c000000000000000000000000000000000000000000000000000000000000000f00000000000000000000000000000000000000000000000000000000000000050000000000000000000000000000000000000000000000000000000000000080000000000000000000000000000000000000000000000000000000000000003200000000000000000000000000000000000000000000000000000000000000b9697066732f516d5a77475533556a624766666a59614d776844474e4779577072656a483246704b57447872675337547a524b6d2f30303030303030303030303030303030303030303030303030303030303030303030303030303030303030303030303030303030303030303030303030303135303030303030303030303030303030303030303030303030303030303030303030303030303030303030303030303030303030303030303030303030303030352e6a736f6e00000000000000",
        "nonce": "0x140d0",
        "chainId": "0xa"
      },
      "additionalContracts": [],
      "isFixedGasLimit": false
    },
    {
      "hash": null,
      "transactionType": "CALL",
      "contractName": null,
      "contractAddress": "0xbc24012488bfcfe44875a139299595879c43c2cd",
      "function": "setBadgeTier(uint256,uint256,string,uint256)",
      "arguments": [
        "16",
        "1",
        "ipfs/QmZwGU3UjbGffjYaMwhDGNGyWprejH2FpKWDxrgS7TzRKm/00000000000000000000000000000000000000000000000000000000000000160000000000000000000000000000000000000000000000000000000000000001.json",
        "10"
      ],
      "transaction": {
        "from": "0x8835669696fb92839ab198cd80ce9f0d35f45ad5",
        "to": "0xbc24012488bfcfe44875a139299595879c43c2cd",
        "gas": "0x5285d",
        "value": "0x0",
        "input": "0xcf132d1c000000000000000000000000000000000000000000000000000000000000001000000000000000000000000000000000000000000000000000000000000000010000000000000000000000000000000000000000000000000000000000000080000000000000000000000000000000000000000000000000000000000000000a00000000000000000000000000000000000000000000000000000000000000b9697066732f516d5a77475533556a624766666a59614d776844474e4779577072656a483246704b57447872675337547a524b6d2f30303030303030303030303030303030303030303030303030303030303030303030303030303030303030303030303030303030303030303030303030303136303030303030303030303030303030303030303030303030303030303030303030303030303030303030303030303030303030303030303030303030303030312e6a736f6e00000000000000",
        "nonce": "0x140d1",
        "chainId": "0xa"
      },
      "additionalContracts": [],
      "isFixedGasLimit": false
    },
    {
      "hash": null,
      "transactionType": "CALL",
      "contractName": null,
      "contractAddress": "0xbc24012488bfcfe44875a139299595879c43c2cd",
      "function": "setBadgeTier(uint256,uint256,string,uint256)",
      "arguments": [
        "16",
        "2",
        "ipfs/QmZwGU3UjbGffjYaMwhDGNGyWprejH2FpKWDxrgS7TzRKm/00000000000000000000000000000000000000000000000000000000000000160000000000000000000000000000000000000000000000000000000000000002.json",
        "20"
      ],
      "transaction": {
        "from": "0x8835669696fb92839ab198cd80ce9f0d35f45ad5",
        "to": "0xbc24012488bfcfe44875a139299595879c43c2cd",
        "gas": "0x52588",
        "value": "0x0",
        "input": "0xcf132d1c000000000000000000000000000000000000000000000000000000000000001000000000000000000000000000000000000000000000000000000000000000020000000000000000000000000000000000000000000000000000000000000080000000000000000000000000000000000000000000000000000000000000001400000000000000000000000000000000000000000000000000000000000000b9697066732f516d5a77475533556a624766666a59614d776844474e4779577072656a483246704b57447872675337547a524b6d2f30303030303030303030303030303030303030303030303030303030303030303030303030303030303030303030303030303030303030303030303030303136303030303030303030303030303030303030303030303030303030303030303030303030303030303030303030303030303030303030303030303030303030322e6a736f6e00000000000000",
        "nonce": "0x140d2",
        "chainId": "0xa"
      },
      "additionalContracts": [],
      "isFixedGasLimit": false
    },
    {
      "hash": null,
      "transactionType": "CALL",
      "contractName": null,
      "contractAddress": "0xbc24012488bfcfe44875a139299595879c43c2cd",
      "function": "setBadgeTier(uint256,uint256,string,uint256)",
      "arguments": [
        "16",
        "3",
        "ipfs/QmZwGU3UjbGffjYaMwhDGNGyWprejH2FpKWDxrgS7TzRKm/00000000000000000000000000000000000000000000000000000000000000160000000000000000000000000000000000000000000000000000000000000003.json",
        "30"
      ],
      "transaction": {
        "from": "0x8835669696fb92839ab198cd80ce9f0d35f45ad5",
        "to": "0xbc24012488bfcfe44875a139299595879c43c2cd",
        "gas": "0x52588",
        "value": "0x0",
        "input": "0xcf132d1c000000000000000000000000000000000000000000000000000000000000001000000000000000000000000000000000000000000000000000000000000000030000000000000000000000000000000000000000000000000000000000000080000000000000000000000000000000000000000000000000000000000000001e00000000000000000000000000000000000000000000000000000000000000b9697066732f516d5a77475533556a624766666a59614d776844474e4779577072656a483246704b57447872675337547a524b6d2f30303030303030303030303030303030303030303030303030303030303030303030303030303030303030303030303030303030303030303030303030303136303030303030303030303030303030303030303030303030303030303030303030303030303030303030303030303030303030303030303030303030303030332e6a736f6e00000000000000",
        "nonce": "0x140d3",
        "chainId": "0xa"
      },
      "additionalContracts": [],
      "isFixedGasLimit": false
    },
    {
      "hash": null,
      "transactionType": "CALL",
      "contractName": null,
      "contractAddress": "0xbc24012488bfcfe44875a139299595879c43c2cd",
      "function": "setBadgeTier(uint256,uint256,string,uint256)",
      "arguments": [
        "16",
        "4",
        "ipfs/QmZwGU3UjbGffjYaMwhDGNGyWprejH2FpKWDxrgS7TzRKm/00000000000000000000000000000000000000000000000000000000000000160000000000000000000000000000000000000000000000000000000000000004.json",
        "40"
      ],
      "transaction": {
        "from": "0x8835669696fb92839ab198cd80ce9f0d35f45ad5",
        "to": "0xbc24012488bfcfe44875a139299595879c43c2cd",
        "gas": "0x52588",
        "value": "0x0",
        "input": "0xcf132d1c000000000000000000000000000000000000000000000000000000000000001000000000000000000000000000000000000000000000000000000000000000040000000000000000000000000000000000000000000000000000000000000080000000000000000000000000000000000000000000000000000000000000002800000000000000000000000000000000000000000000000000000000000000b9697066732f516d5a77475533556a624766666a59614d776844474e4779577072656a483246704b57447872675337547a524b6d2f30303030303030303030303030303030303030303030303030303030303030303030303030303030303030303030303030303030303030303030303030303136303030303030303030303030303030303030303030303030303030303030303030303030303030303030303030303030303030303030303030303030303030342e6a736f6e00000000000000",
        "nonce": "0x140d4",
        "chainId": "0xa"
      },
      "additionalContracts": [],
      "isFixedGasLimit": false
    },
    {
      "hash": null,
      "transactionType": "CALL",
      "contractName": null,
      "contractAddress": "0xbc24012488bfcfe44875a139299595879c43c2cd",
      "function": "setBadgeTier(uint256,uint256,string,uint256)",
      "arguments": [
        "16",
        "5",
        "ipfs/QmZwGU3UjbGffjYaMwhDGNGyWprejH2FpKWDxrgS7TzRKm/00000000000000000000000000000000000000000000000000000000000000160000000000000000000000000000000000000000000000000000000000000005.json",
        "50"
      ],
      "transaction": {
        "from": "0x8835669696fb92839ab198cd80ce9f0d35f45ad5",
        "to": "0xbc24012488bfcfe44875a139299595879c43c2cd",
        "gas": "0x52588",
        "value": "0x0",
        "input": "0xcf132d1c000000000000000000000000000000000000000000000000000000000000001000000000000000000000000000000000000000000000000000000000000000050000000000000000000000000000000000000000000000000000000000000080000000000000000000000000000000000000000000000000000000000000003200000000000000000000000000000000000000000000000000000000000000b9697066732f516d5a77475533556a624766666a59614d776844474e4779577072656a483246704b57447872675337547a524b6d2f30303030303030303030303030303030303030303030303030303030303030303030303030303030303030303030303030303030303030303030303030303136303030303030303030303030303030303030303030303030303030303030303030303030303030303030303030303030303030303030303030303030303030352e6a736f6e00000000000000",
        "nonce": "0x140d5",
        "chainId": "0xa"
      },
      "additionalContracts": [],
      "isFixedGasLimit": false
    },
    {
      "hash": null,
      "transactionType": "CALL",
      "contractName": null,
      "contractAddress": "0xbc24012488bfcfe44875a139299595879c43c2cd",
      "function": "setBadgeTier(uint256,uint256,string,uint256)",
      "arguments": [
        "17",
        "1",
        "ipfs/QmZwGU3UjbGffjYaMwhDGNGyWprejH2FpKWDxrgS7TzRKm/00000000000000000000000000000000000000000000000000000000000000170000000000000000000000000000000000000000000000000000000000000001.json",
        "20"
      ],
      "transaction": {
        "from": "0x8835669696fb92839ab198cd80ce9f0d35f45ad5",
        "to": "0xbc24012488bfcfe44875a139299595879c43c2cd",
        "gas": "0x5285d",
        "value": "0x0",
        "input": "0xcf132d1c000000000000000000000000000000000000000000000000000000000000001100000000000000000000000000000000000000000000000000000000000000010000000000000000000000000000000000000000000000000000000000000080000000000000000000000000000000000000000000000000000000000000001400000000000000000000000000000000000000000000000000000000000000b9697066732f516d5a77475533556a624766666a59614d776844474e4779577072656a483246704b57447872675337547a524b6d2f30303030303030303030303030303030303030303030303030303030303030303030303030303030303030303030303030303030303030303030303030303137303030303030303030303030303030303030303030303030303030303030303030303030303030303030303030303030303030303030303030303030303030312e6a736f6e00000000000000",
        "nonce": "0x140d6",
        "chainId": "0xa"
      },
      "additionalContracts": [],
      "isFixedGasLimit": false
    },
    {
      "hash": null,
      "transactionType": "CALL",
      "contractName": null,
      "contractAddress": "0xbc24012488bfcfe44875a139299595879c43c2cd",
      "function": "setBadgeTier(uint256,uint256,string,uint256)",
      "arguments": [
        "17",
        "2",
        "ipfs/QmZwGU3UjbGffjYaMwhDGNGyWprejH2FpKWDxrgS7TzRKm/00000000000000000000000000000000000000000000000000000000000000170000000000000000000000000000000000000000000000000000000000000002.json",
        "40"
      ],
      "transaction": {
        "from": "0x8835669696fb92839ab198cd80ce9f0d35f45ad5",
        "to": "0xbc24012488bfcfe44875a139299595879c43c2cd",
        "gas": "0x52588",
        "value": "0x0",
        "input": "0xcf132d1c000000000000000000000000000000000000000000000000000000000000001100000000000000000000000000000000000000000000000000000000000000020000000000000000000000000000000000000000000000000000000000000080000000000000000000000000000000000000000000000000000000000000002800000000000000000000000000000000000000000000000000000000000000b9697066732f516d5a77475533556a624766666a59614d776844474e4779577072656a483246704b57447872675337547a524b6d2f30303030303030303030303030303030303030303030303030303030303030303030303030303030303030303030303030303030303030303030303030303137303030303030303030303030303030303030303030303030303030303030303030303030303030303030303030303030303030303030303030303030303030322e6a736f6e00000000000000",
        "nonce": "0x140d7",
        "chainId": "0xa"
      },
      "additionalContracts": [],
      "isFixedGasLimit": false
    },
    {
      "hash": null,
      "transactionType": "CALL",
      "contractName": null,
      "contractAddress": "0xbc24012488bfcfe44875a139299595879c43c2cd",
      "function": "setBadgeTier(uint256,uint256,string,uint256)",
      "arguments": [
        "17",
        "3",
        "ipfs/QmZwGU3UjbGffjYaMwhDGNGyWprejH2FpKWDxrgS7TzRKm/00000000000000000000000000000000000000000000000000000000000000170000000000000000000000000000000000000000000000000000000000000003.json",
        "60"
      ],
      "transaction": {
        "from": "0x8835669696fb92839ab198cd80ce9f0d35f45ad5",
        "to": "0xbc24012488bfcfe44875a139299595879c43c2cd",
        "gas": "0x52588",
        "value": "0x0",
        "input": "0xcf132d1c000000000000000000000000000000000000000000000000000000000000001100000000000000000000000000000000000000000000000000000000000000030000000000000000000000000000000000000000000000000000000000000080000000000000000000000000000000000000000000000000000000000000003c00000000000000000000000000000000000000000000000000000000000000b9697066732f516d5a77475533556a624766666a59614d776844474e4779577072656a483246704b57447872675337547a524b6d2f30303030303030303030303030303030303030303030303030303030303030303030303030303030303030303030303030303030303030303030303030303137303030303030303030303030303030303030303030303030303030303030303030303030303030303030303030303030303030303030303030303030303030332e6a736f6e00000000000000",
        "nonce": "0x140d8",
        "chainId": "0xa"
      },
      "additionalContracts": [],
      "isFixedGasLimit": false
    },
    {
      "hash": null,
      "transactionType": "CALL",
      "contractName": null,
      "contractAddress": "0xbc24012488bfcfe44875a139299595879c43c2cd",
      "function": "setBadgeTier(uint256,uint256,string,uint256)",
      "arguments": [
        "17",
        "4",
        "ipfs/QmZwGU3UjbGffjYaMwhDGNGyWprejH2FpKWDxrgS7TzRKm/00000000000000000000000000000000000000000000000000000000000000170000000000000000000000000000000000000000000000000000000000000004.json",
        "80"
      ],
      "transaction": {
        "from": "0x8835669696fb92839ab198cd80ce9f0d35f45ad5",
        "to": "0xbc24012488bfcfe44875a139299595879c43c2cd",
        "gas": "0x52588",
        "value": "0x0",
        "input": "0xcf132d1c000000000000000000000000000000000000000000000000000000000000001100000000000000000000000000000000000000000000000000000000000000040000000000000000000000000000000000000000000000000000000000000080000000000000000000000000000000000000000000000000000000000000005000000000000000000000000000000000000000000000000000000000000000b9697066732f516d5a77475533556a624766666a59614d776844474e4779577072656a483246704b57447872675337547a524b6d2f30303030303030303030303030303030303030303030303030303030303030303030303030303030303030303030303030303030303030303030303030303137303030303030303030303030303030303030303030303030303030303030303030303030303030303030303030303030303030303030303030303030303030342e6a736f6e00000000000000",
        "nonce": "0x140d9",
        "chainId": "0xa"
      },
      "additionalContracts": [],
      "isFixedGasLimit": false
    },
    {
      "hash": null,
      "transactionType": "CALL",
      "contractName": null,
      "contractAddress": "0xbc24012488bfcfe44875a139299595879c43c2cd",
      "function": "setBadgeTier(uint256,uint256,string,uint256)",
      "arguments": [
        "17",
        "5",
        "ipfs/QmZwGU3UjbGffjYaMwhDGNGyWprejH2FpKWDxrgS7TzRKm/00000000000000000000000000000000000000000000000000000000000000170000000000000000000000000000000000000000000000000000000000000005.json",
        "100"
      ],
      "transaction": {
        "from": "0x8835669696fb92839ab198cd80ce9f0d35f45ad5",
        "to": "0xbc24012488bfcfe44875a139299595879c43c2cd",
        "gas": "0x52588",
        "value": "0x0",
        "input": "0xcf132d1c000000000000000000000000000000000000000000000000000000000000001100000000000000000000000000000000000000000000000000000000000000050000000000000000000000000000000000000000000000000000000000000080000000000000000000000000000000000000000000000000000000000000006400000000000000000000000000000000000000000000000000000000000000b9697066732f516d5a77475533556a624766666a59614d776844474e4779577072656a483246704b57447872675337547a524b6d2f30303030303030303030303030303030303030303030303030303030303030303030303030303030303030303030303030303030303030303030303030303137303030303030303030303030303030303030303030303030303030303030303030303030303030303030303030303030303030303030303030303030303030352e6a736f6e00000000000000",
        "nonce": "0x140da",
        "chainId": "0xa"
      },
      "additionalContracts": [],
      "isFixedGasLimit": false
    }
  ],
  "receipts": [],
  "libraries": [],
  "pending": [],
  "returns": {
    "0": {
      "internal_type": "address",
      "value": "0x0000000000000000000000000000000000000000"
    }
  },
  "timestamp": 1743020356,
  "chain": 10,
  "commit": "2198f53"
}