{
  "transactions": [
    {
      "hash": "0x816afe7c5cf3f9eb52fe70a482ce1b39fa6931faaf8bd8650df1ce37dc4dd213",
      "transactionType": "CALL",
      "contractName": null,
      "contractAddress": "0x03e2c563cf77e3cdc0b7663cee117da14ea60848",
      "function": "setBadgeMetadata(uint256,string)",
      "arguments": [
        "28",
        "ipfs/QmPBxt6k98mi4GY41i9n2vVNcVXe5wdKLtdJFVrTLC4RTJ/00000000000000000000000000000000000000000000000000000000000000280000000000000000000000000000000000000000000000000000000000000000.json"
      ],
      "transaction": {
        "from": "0x8835669696fb92839ab198cd80ce9f0d35f45ad5",
        "to": "0x03e2c563cf77e3cdc0b7663cee117da14ea60848",
        "gas": "0x41165",
        "value": "0x0",
        "input": "0xce64b45f000000000000000000000000000000000000000000000000000000000000001c000000000000000000000000000000000000000000000000000000000000004000000000000000000000000000000000000000000000000000000000000000b9697066732f516d50427874366b39386d69344759343169396e3276564e635658653577644b4c74644a465672544c433452544a2f30303030303030303030303030303030303030303030303030303030303030303030303030303030303030303030303030303030303030303030303030303238303030303030303030303030303030303030303030303030303030303030303030303030303030303030303030303030303030303030303030303030303030302e6a736f6e00000000000000",
        "nonce": "0x5daa8",
        "chainId": "0xa"
      },
      "additionalContracts": [],
      "isFixedGasLimit": false
    },
    {
      "hash": "0x367c6815ede7e3bcdf5819a7278fa50161139df348e739e5c866e956660edfa8",
      "transactionType": "CALL",
      "contractName": null,
      "contractAddress": "0x03e2c563cf77e3cdc0b7663cee117da14ea60848",
      "function": "setBadgeTier(uint256,uint256,string,uint256)",
      "arguments": [
        "28",
        "1",
        "ipfs/QmPBxt6k98mi4GY41i9n2vVNcVXe5wdKLtdJFVrTLC4RTJ/00000000000000000000000000000000000000000000000000000000000000280000000000000000000000000000000000000000000000000000000000000001.json",
        "10"
      ],
      "transaction": {
        "from": "0x8835669696fb92839ab198cd80ce9f0d35f45ad5",
        "to": "0x03e2c563cf77e3cdc0b7663cee117da14ea60848",
        "gas": "0x51731",
        "value": "0x0",
        "input": "0xcf132d1c000000000000000000000000000000000000000000000000000000000000001c00000000000000000000000000000000000000000000000000000000000000010000000000000000000000000000000000000000000000000000000000000080000000000000000000000000000000000000000000000000000000000000000a00000000000000000000000000000000000000000000000000000000000000b9697066732f516d50427874366b39386d69344759343169396e3276564e635658653577644b4c74644a465672544c433452544a2f30303030303030303030303030303030303030303030303030303030303030303030303030303030303030303030303030303030303030303030303030303238303030303030303030303030303030303030303030303030303030303030303030303030303030303030303030303030303030303030303030303030303030312e6a736f6e00000000000000",
        "nonce": "0x5daa9",
        "chainId": "0xa"
      },
      "additionalContracts": [],
      "isFixedGasLimit": false
    },
    {
      "hash": "0x4f01bfe8c47e21f7ef9f6443b6ac9726d9d9f904b6e2ac729e3ea219098b0d41",
      "transactionType": "CALL",
      "contractName": null,
      "contractAddress": "0x03e2c563cf77e3cdc0b7663cee117da14ea60848",
      "function": "setBadgeTier(uint256,uint256,string,uint256)",
      "arguments": [
        "28",
        "2",
        "ipfs/QmPBxt6k98mi4GY41i9n2vVNcVXe5wdKLtdJFVrTLC4RTJ/00000000000000000000000000000000000000000000000000000000000000280000000000000000000000000000000000000000000000000000000000000002.json",
        "20"
      ],
      "transaction": {
        "from": "0x8835669696fb92839ab198cd80ce9f0d35f45ad5",
        "to": "0x03e2c563cf77e3cdc0b7663cee117da14ea60848",
        "gas": "0x4c84e",
        "value": "0x0",
        "input": "0xcf132d1c000000000000000000000000000000000000000000000000000000000000001c00000000000000000000000000000000000000000000000000000000000000020000000000000000000000000000000000000000000000000000000000000080000000000000000000000000000000000000000000000000000000000000001400000000000000000000000000000000000000000000000000000000000000b9697066732f516d50427874366b39386d69344759343169396e3276564e635658653577644b4c74644a465672544c433452544a2f30303030303030303030303030303030303030303030303030303030303030303030303030303030303030303030303030303030303030303030303030303238303030303030303030303030303030303030303030303030303030303030303030303030303030303030303030303030303030303030303030303030303030322e6a736f6e00000000000000",
        "nonce": "0x5daaa",
        "chainId": "0xa"
      },
      "additionalContracts": [],
      "isFixedGasLimit": false
    },
    {
      "hash": "0xc723c6a200eb6928ea3dbb16a84a7636d9eb4d1efabf19b20f63a00613b16a06",
      "transactionType": "CALL",
      "contractName": null,
      "contractAddress": "0x03e2c563cf77e3cdc0b7663cee117da14ea60848",
      "function": "setBadgeTier(uint256,uint256,string,uint256)",
      "arguments": [
        "28",
        "3",
        "ipfs/QmPBxt6k98mi4GY41i9n2vVNcVXe5wdKLtdJFVrTLC4RTJ/00000000000000000000000000000000000000000000000000000000000000280000000000000000000000000000000000000000000000000000000000000003.json",
        "30"
      ],
      "transaction": {
        "from": "0x8835669696fb92839ab198cd80ce9f0d35f45ad5",
        "to": "0x03e2c563cf77e3cdc0b7663cee117da14ea60848",
        "gas": "0x4c84e",
        "value": "0x0",
        "input": "0xcf132d1c000000000000000000000000000000000000000000000000000000000000001c00000000000000000000000000000000000000000000000000000000000000030000000000000000000000000000000000000000000000000000000000000080000000000000000000000000000000000000000000000000000000000000001e00000000000000000000000000000000000000000000000000000000000000b9697066732f516d50427874366b39386d69344759343169396e3276564e635658653577644b4c74644a465672544c433452544a2f30303030303030303030303030303030303030303030303030303030303030303030303030303030303030303030303030303030303030303030303030303238303030303030303030303030303030303030303030303030303030303030303030303030303030303030303030303030303030303030303030303030303030332e6a736f6e00000000000000",
        "nonce": "0x5daab",
        "chainId": "0xa"
      },
      "additionalContracts": [],
      "isFixedGasLimit": false
    },
    {
      "hash": "0x16051f7ccb7b95fd4e678a93441a90eb3ee4c58c58e007342273aefb54e1ff74",
      "transactionType": "CALL",
      "contractName": null,
      "contractAddress": "0x03e2c563cf77e3cdc0b7663cee117da14ea60848",
      "function": "setBadgeTier(uint256,uint256,string,uint256)",
      "arguments": [
        "28",
        "4",
        "ipfs/QmPBxt6k98mi4GY41i9n2vVNcVXe5wdKLtdJFVrTLC4RTJ/00000000000000000000000000000000000000000000000000000000000000280000000000000000000000000000000000000000000000000000000000000004.json",
        "40"
      ],
      "transaction": {
        "from": "0x8835669696fb92839ab198cd80ce9f0d35f45ad5",
        "to": "0x03e2c563cf77e3cdc0b7663cee117da14ea60848",
        "gas": "0x4c84e",
        "value": "0x0",
        "input": "0xcf132d1c000000000000000000000000000000000000000000000000000000000000001c00000000000000000000000000000000000000000000000000000000000000040000000000000000000000000000000000000000000000000000000000000080000000000000000000000000000000000000000000000000000000000000002800000000000000000000000000000000000000000000000000000000000000b9697066732f516d50427874366b39386d69344759343169396e3276564e635658653577644b4c74644a465672544c433452544a2f30303030303030303030303030303030303030303030303030303030303030303030303030303030303030303030303030303030303030303030303030303238303030303030303030303030303030303030303030303030303030303030303030303030303030303030303030303030303030303030303030303030303030342e6a736f6e00000000000000",
        "nonce": "0x5daac",
        "chainId": "0xa"
      },
      "additionalContracts": [],
      "isFixedGasLimit": false
    },
    {
      "hash": "0xa39f5c011ff5d7384d3a780316b40ac82c3fb22be0ff9ae1b4f4d1aeb5ab8653",
      "transactionType": "CALL",
      "contractName": null,
      "contractAddress": "0x03e2c563cf77e3cdc0b7663cee117da14ea60848",
      "function": "setBadgeTier(uint256,uint256,string,uint256)",
      "arguments": [
        "28",
        "5",
        "ipfs/QmPBxt6k98mi4GY41i9n2vVNcVXe5wdKLtdJFVrTLC4RTJ/00000000000000000000000000000000000000000000000000000000000000280000000000000000000000000000000000000000000000000000000000000005.json",
        "50"
      ],
      "transaction": {
        "from": "0x8835669696fb92839ab198cd80ce9f0d35f45ad5",
        "to": "0x03e2c563cf77e3cdc0b7663cee117da14ea60848",
        "gas": "0x4c84e",
        "value": "0x0",
        "input": "0xcf132d1c000000000000000000000000000000000000000000000000000000000000001c00000000000000000000000000000000000000000000000000000000000000050000000000000000000000000000000000000000000000000000000000000080000000000000000000000000000000000000000000000000000000000000003200000000000000000000000000000000000000000000000000000000000000b9697066732f516d50427874366b39386d69344759343169396e3276564e635658653577644b4c74644a465672544c433452544a2f30303030303030303030303030303030303030303030303030303030303030303030303030303030303030303030303030303030303030303030303030303238303030303030303030303030303030303030303030303030303030303030303030303030303030303030303030303030303030303030303030303030303030352e6a736f6e00000000000000",
        "nonce": "0x5daad",
        "chainId": "0xa"
      },
      "additionalContracts": [],
      "isFixedGasLimit": false
    }
  ],
  "receipts": [
    {
      "status": "0x1",
      "cumulativeGasUsed": "0x3a640",
      "logs": [
        {
          "address": "0x03e2c563cf77e3cdc0b7663cee117da14ea60848",
          "topics": [
            "0x2e5977e12fac9a91696e22ba811f2893e11ad62f8aa53e99a628b031d18a379f",
            "0x000000000000000000000000000000000000000000000000000000000000001c"
          ],
          "data": "0x000000000000000000000000000000000000000000000000000000000000002000000000000000000000000000000000000000000000000000000000000000b9697066732f516d50427874366b39386d69344759343169396e3276564e635658653577644b4c74644a465672544c433452544a2f30303030303030303030303030303030303030303030303030303030303030303030303030303030303030303030303030303030303030303030303030303238303030303030303030303030303030303030303030303030303030303030303030303030303030303030303030303030303030303030303030303030303030302e6a736f6e00000000000000",
          "blockHash": "0x4f354c3de9499eaf0a4d07e052eb10b068128d3be41f78eb048735fa88335238",
          "blockNumber": "0x89d3e04",
          "blockTimestamp": "0x692e55c1",
          "transactionHash": "0x816afe7c5cf3f9eb52fe70a482ce1b39fa6931faaf8bd8650df1ce37dc4dd213",
          "transactionIndex": "0x1",
          "logIndex": "0x0",
          "removed": false
        }
      ],
      "logsBloom": "0x00000000000000000000000000000000000000000000000000000000000000000000000000000000000000000000000000000000000000200000000000008000000000000000000000000000000000000000000000000000000000000000000000000000000000000000000000000000000000000000000000000000000004000000000000000000001000000000000200000000000000000000000000000000000000000000000000000002000000000000000000000100000000000000001000000000000000000000000000000000000000000000000000000000400000000000000000000000000000000000000000000000000000000000000000000000",
      "type": "0x2",
      "transactionHash": "0x816afe7c5cf3f9eb52fe70a482ce1b39fa6931faaf8bd8650df1ce37dc4dd213",
      "transactionIndex": "0x1",
      "blockHash": "0x4f354c3de9499eaf0a4d07e052eb10b068128d3be41f78eb048735fa88335238",
      "blockNumber": "0x89d3e04",
      "gasUsed": "0x2f1f4",
      "effectiveGasPrice": "0x184",
      "from": "0x8835669696fb92839ab198cd80ce9f0d35f45ad5",
      "to": "0x03e2c563cf77e3cdc0b7663cee117da14ea60848",
      "contractAddress": null,
      "l1BaseFeeScalar": "0x146b",
      "l1BlobBaseFee": "0x1",
      "l1BlobBaseFeeScalar": "0xf79c5",
      "l1Fee": "0x185d5e4c",
      "l1GasPrice": "0x22cecc5",
      "l1GasUsed": "0x85e"
    },
    {
      "status": "0x1",
      "cumulativeGasUsed": "0x755be",
      "logs": [
        {
          "address": "0x03e2c563cf77e3cdc0b7663cee117da14ea60848",
          "topics": [
            "0x5625f15df4cbadf2e6e3f80e2406aec5d99a432335ef0e9a1fba9e48b0558303",
            "0x000000000000000000000000000000000000000000000000000000000000001c"
          ],
          "data": "0x00000000000000000000000000000000000000000000000000000000000000010000000000000000000000000000000000000000000000000000000000000060000000000000000000000000000000000000000000000000000000000000000a00000000000000000000000000000000000000000000000000000000000000b9697066732f516d50427874366b39386d69344759343169396e3276564e635658653577644b4c74644a465672544c433452544a2f30303030303030303030303030303030303030303030303030303030303030303030303030303030303030303030303030303030303030303030303030303238303030303030303030303030303030303030303030303030303030303030303030303030303030303030303030303030303030303030303030303030303030312e6a736f6e00000000000000",
          "blockHash": "0x2eb5e084b084eb47411a4b38421271812ff29552fdd9052981c9cbded2ae1fa0",
          "blockNumber": "0x89d3e04",
          "blockTimestamp": "0x692e55c1",
          "transactionHash": "0x367c6815ede7e3bcdf5819a7278fa50161139df348e739e5c866e956660edfa8",
          "transactionIndex": "0x2",
          "logIndex": "0x1",
          "removed": false
        }
      ],
      "logsBloom": "0x00000000000000000000000000000000000000000000000000000000000000000000000000000000000000000000000000000000000000200000000000008000000000000000000000000000000000000000000000000000000000000000000000040000000000000000000000000000000000000000000000000000000000000000000000000000001000000000000200000000000000000000000000000000000000000000000000000002000000000000000000000000000000000000001000000000000000000000004000000000000000000000000000000000000000000000000000000000000000000000000000000000010000000000000000000000",
      "type": "0x2",
      "transactionHash": "0x367c6815ede7e3bcdf5819a7278fa50161139df348e739e5c866e956660edfa8",
      "transactionIndex": "0x2",
      "blockHash": "0x2eb5e084b084eb47411a4b38421271812ff29552fdd9052981c9cbded2ae1fa0",
      "blockNumber": "0x89d3e04",
      "gasUsed": "0x3af7e",
      "effectiveGasPrice": "0x184",
      "from": "0x8835669696fb92839ab198cd80ce9f0d35f45ad5",
      "to": "0x03e2c563cf77e3cdc0b7663cee117da14ea60848",
      "contractAddress": null,
      "l1BaseFeeScalar": "0x146b",
      "l1BlobBaseFee": "0x1",
      "l1BlobBaseFeeScalar": "0xf79c5",
      "l1Fee": "0x185d5e4c",
      "l1GasPrice": "0x22cecc5",
      "l1GasUsed": "0x90c"
    },
    {
      "status": "0x1",
      "cumulativeGasUsed": "0xacc1e",
      "logs": [
        {
          "address": "0x03e2c563cf77e3cdc0b7663cee117da14ea60848",
          "topics": [
            "0x5625f15df4cbadf2e6e3f80e2406aec5d99a432335ef0e9a1fba9e48b0558303",
            "0x000000000000000000000000000000000000000000000000000000000000001c"
          ],
          "data": "0x00000000000000000000000000000000000000000000000000000000000000020000000000000000000000000000000000000000000000000000000000000060000000000000000000000000000000000000000000000000000000000000001400000000000000000000000000000000000000000000000000000000000000b9697066732f516d50427874366b39386d69344759343169396e3276564e635658653577644b4c74644a465672544c433452544a2f30303030303030303030303030303030303030303030303030303030303030303030303030303030303030303030303030303030303030303030303030303238303030303030303030303030303030303030303030303030303030303030303030303030303030303030303030303030303030303030303030303030303030322e6a736f6e00000000000000",
          "blockHash": "0x2eb5e084b084eb47411a4b38421271812ff29552fdd9052981c9cbded2ae1fa0",
          "blockNumber": "0x89d3e04",
          "blockTimestamp": "0x692e55c1",
          "transactionHash": "0x4f01bfe8c47e21f7ef9f6443b6ac9726d9d9f904b6e2ac729e3ea219098b0d41",
          "transactionIndex": "0x3",
          "logIndex": "0x2",
          "removed": false
        }
      ],
      "logsBloom": "0x00000000000000000000000000000000000000000000000000000000000000000000000000000000000000000000000000000000000000200000000000008000000000000000000000000000000000000000000000000000000000000000000000040000000000000000000000000000000000000000000000000000000000000000000000000000001000000000000200000000000000000000000000000000000000000000000000000002000000000000000000000000000000000000001000000000000000000000004000000000000000000000000000000000000000000000000000000000000000000000000000000000010000000000000000000000",
      "type": "0x2",
      "transactionHash": "0x4f01bfe8c47e21f7ef9f6443b6ac9726d9d9f904b6e2ac729e3ea219098b0d41",
      "transactionIndex": "0x3",
      "blockHash": "0x2eb5e084b084eb47411a4b38421271812ff29552fdd9052981c9cbded2ae1fa0",
      "blockNumber": "0x89d3e04",
      "gasUsed": "0x37660",
      "effectiveGasPrice": "0x184",
      "from": "0x8835669696fb92839ab198cd80ce9f0d35f45ad5",
      "to": "0x03e2c563cf77e3cdc0b7663cee117da14ea60848",
      "contractAddress": null,
      "l1BaseFeeScalar": "0x146b",
      "l1BlobBaseFee": "0x1",
      "l1BlobBaseFeeScalar": "0xf79c5",
      "l1Fee": "0x185d5e4c",
      "l1GasPrice": "0x22cecc5",
      "l1GasUsed": "0x8ff"
    },
    {
      "status": "0x1",
      "cumulativeGasUsed": "0xe427e",
      "logs": [
        {
          "address": "0x03e2c563cf77e3cdc0b7663cee117da14ea60848",
          "topics": [
            "0x5625f15df4cbadf2e6e3f80e2406aec5d99a432335ef0e9a1fba9e48b0558303",
            "0x000000000000000000000000000000000000000000000000000000000000001c"
          ],
          "data": "0x00000000000000000000000000000000000000000000000000000000000000030000000000000000000000000000000000000000000000000000000000000060000000000000000000000000000000000000000000000000000000000000001e00000000000000000000000000000000000000000000000000000000000000b9697066732f516d50427874366b39386d69344759343169396e3276564e635658653577644b4c74644a465672544c433452544a2f30303030303030303030303030303030303030303030303030303030303030303030303030303030303030303030303030303030303030303030303030303238303030303030303030303030303030303030303030303030303030303030303030303030303030303030303030303030303030303030303030303030303030332e6a736f6e00000000000000",
          "blockHash": "0x4f354c3de9499eaf0a4d07e052eb10b068128d3be41f78eb048735fa88335238",
          "blockNumber": "0x89d3e04",
          "blockTimestamp": "0x692e55c1",
          "transactionHash": "0xc723c6a200eb6928ea3dbb16a84a7636d9eb4d1efabf19b20f63a00613b16a06",
          "transactionIndex": "0x4",
          "logIndex": "0x3",
          "removed": false
        }
      ],
      "logsBloom": "0x00000000000000000000000000000000000000000000000000000000000000000000000000000000000000000000000000000000000000200000000000008000000000000000000000000000000000000000000000000000000000000000000000040000000000000000000000000000000000000000000000000000000000000000000000000000001000000000000200000000000000000000000000000000000000000000000000000002000000000000000000000000000000000000001000000000000000000000004000000000000000000000000000000000000000000000000000000000000000000000000000000000010000000000000000000000",
      "type": "0x2",
      "transactionHash": "0xc723c6a200eb6928ea3dbb16a84a7636d9eb4d1efabf19b20f63a00613b16a06",
      "transactionIndex": "0x4",
      "blockHash": "0x4f354c3de9499eaf0a4d07e052eb10b068128d3be41f78eb048735fa88335238",
      "blockNumber": "0x89d3e04",
      "gasUsed": "0x37660",
      "effectiveGasPrice": "0x184",
      "from": "0x8835669696fb92839ab198cd80ce9f0d35f45ad5",
      "to": "0x03e2c563cf77e3cdc0b7663cee117da14ea60848",
      "contractAddress": null,
      "l1BaseFeeScalar": "0x146b",
      "l1BlobBaseFee": "0x1",
      "l1BlobBaseFeeScalar": "0xf79c5",
      "l1Fee": "0x1a57de07",
      "l1GasPrice": "0x22cecc5",
      "l1GasUsed": "0x90c"
    },
    {
      "status": "0x1",
      "cumulativeGasUsed": "0x11b8de",
      "logs": [
        {
          "address": "0x03e2c563cf77e3cdc0b7663cee117da14ea60848",
          "topics": [
            "0x5625f15df4cbadf2e6e3f80e2406aec5d99a432335ef0e9a1fba9e48b0558303",
            "0x000000000000000000000000000000000000000000000000000000000000001c"
          ],
          "data": "0x00000000000000000000000000000000000000000000000000000000000000040000000000000000000000000000000000000000000000000000000000000060000000000000000000000000000000000000000000000000000000000000002800000000000000000000000000000000000000000000000000000000000000b9697066732f516d50427874366b39386d69344759343169396e3276564e635658653577644b4c74644a465672544c433452544a2f30303030303030303030303030303030303030303030303030303030303030303030303030303030303030303030303030303030303030303030303030303238303030303030303030303030303030303030303030303030303030303030303030303030303030303030303030303030303030303030303030303030303030342e6a736f6e00000000000000",
          "blockHash": "0x2eb5e084b084eb47411a4b38421271812ff29552fdd9052981c9cbded2ae1fa0",
          "blockNumber": "0x89d3e04",
          "blockTimestamp": "0x692e55c1",
          "transactionHash": "0x16051f7ccb7b95fd4e678a93441a90eb3ee4c58c58e007342273aefb54e1ff74",
          "transactionIndex": "0x5",
          "logIndex": "0x4",
          "removed": false
        }
      ],
      "logsBloom": "0x00000000000000000000000000000000000000000000000000000000000000000000000000000000000000000000000000000000000000200000000000008000000000000000000000000000000000000000000000000000000000000000000000040000000000000000000000000000000000000000000000000000000000000000000000000000001000000000000200000000000000000000000000000000000000000000000000000002000000000000000000000000000000000000001000000000000000000000004000000000000000000000000000000000000000000000000000000000000000000000000000000000010000000000000000000000",
      "type": "0x2",
      "transactionHash": "0x16051f7ccb7b95fd4e678a93441a90eb3ee4c58c58e007342273aefb54e1ff74",
      "transactionIndex": "0x5",
      "blockHash": "0x2eb5e084b084eb47411a4b38421271812ff29552fdd9052981c9cbded2ae1fa0",
      "blockNumber": "0x89d3e04",
      "gasUsed": "0x37660",
      "effectiveGasPrice": "0x184",
      "from": "0x8835669696fb92839ab198cd80ce9f0d35f45ad5",
      "to": "0x03e2c563cf77e3cdc0b7663cee117da14ea60848",
      "contractAddress": null,
      "l1BaseFeeScalar": "0x146b",
      "l1BlobBaseFee": "0x1",
      "l1BlobBaseFeeScalar": "0xf79c5",
      "l1Fee": "0x185d5e4c",
      "l1GasPrice": "0x22cecc5",
      "l1GasUsed": "0x90c"
    },
    {
      "status": "0x1",
      "cumulativeGasUsed": "0x152f3e",
      "logs": [
        {
          "address": "0x03e2c563cf77e3cdc0b7663cee117da14ea60848",
          "topics": [
            "0x5625f15df4cbadf2e6e3f80e2406aec5d99a432335ef0e9a1fba9e48b0558303",
            "0x000000000000000000000000000000000000000000000000000000000000001c"
          ],
          "data": "0x00000000000000000000000000000000000000000000000000000000000000050000000000000000000000000000000000000000000000000000000000000060000000000000000000000000000000000000000000000000000000000000003200000000000000000000000000000000000000000000000000000000000000b9697066732f516d50427874366b39386d69344759343169396e3276564e635658653577644b4c74644a465672544c433452544a2f30303030303030303030303030303030303030303030303030303030303030303030303030303030303030303030303030303030303030303030303030303238303030303030303030303030303030303030303030303030303030303030303030303030303030303030303030303030303030303030303030303030303030352e6a736f6e00000000000000",
          "blockHash": "0x4f354c3de9499eaf0a4d07e052eb10b068128d3be41f78eb048735fa88335238",
          "blockNumber": "0x89d3e04",
          "blockTimestamp": "0x692e55c1",
          "transactionHash": "0xa39f5c011ff5d7384d3a780316b40ac82c3fb22be0ff9ae1b4f4d1aeb5ab8653",
          "transactionIndex": "0x6",
          "logIndex": "0x5",
          "removed": false
        }
      ],
      "logsBloom": "0x00000000000000000000000000000000000000000000000000000000000000000000000000000000000000000000000000000000000000200000000000008000000000000000000000000000000000000000000000000000000000000000000000040000000000000000000000000000000000000000000000000000000000000000000000000000001000000000000200000000000000000000000000000000000000000000000000000002000000000000000000000000000000000000001000000000000000000000004000000000000000000000000000000000000000000000000000000000000000000000000000000000010000000000000000000000",
      "type": "0x2",
      "transactionHash": "0xa39f5c011ff5d7384d3a780316b40ac82c3fb22be0ff9ae1b4f4d1aeb5ab8653",
      "transactionIndex": "0x6",
      "blockHash": "0x4f354c3de9499eaf0a4d07e052eb10b068128d3be41f78eb048735fa88335238",
      "blockNumber": "0x89d3e04",
      "gasUsed": "0x37660",
      "effectiveGasPrice": "0x184",
      "from": "0x8835669696fb92839ab198cd80ce9f0d35f45ad5",
      "to": "0x03e2c563cf77e3cdc0b7663cee117da14ea60848",
      "contractAddress": null,
      "l1BaseFeeScalar": "0x146b",
      "l1BlobBaseFee": "0x1",
      "l1BlobBaseFeeScalar": "0xf79c5",
      "l1Fee": "0x1a57de07",
      "l1GasPrice": "0x22cecc5",
      "l1GasUsed": "0x90c"
    }
  ],
  "libraries": [],
  "pending": [],
  "returns": {},
  "timestamp": 1764644290,
  "chain": 10,
  "commit": "2b9bb27"
}