{
  "transactions": [
    {
      "hash": "0xeaae8228547604e93b6530c79f6df894c6f8f569af1b74c5379c47cbc7707c05",
      "transactionType": "CALL",
      "contractName": null,
      "contractAddress": "0x03e2c563cf77e3cdc0b7663cee117da14ea60848",
      "function": "setBadgeMetadata(uint256,string)",
      "arguments": [
        "24",
        "ipfs/QmPsrBayH69LDDS9teMvzjRgcXVuBUeQM77uR6NRokkhFv/00000000000000000000000000000000000000000000000000000000000000240000000000000000000000000000000000000000000000000000000000000000.json"
      ],
      "transaction": {
        "from": "0x8835669696fb92839ab198cd80ce9f0d35f45ad5",
        "to": "0x03e2c563cf77e3cdc0b7663cee117da14ea60848",
        "gas": "0x41165",
        "value": "0x0",
        "input": "0xce64b45f0000000000000000000000000000000000000000000000000000000000000018000000000000000000000000000000000000000000000000000000000000004000000000000000000000000000000000000000000000000000000000000000b9697066732f516d5073724261794836394c4444533974654d767a6a526763585675425565514d37377552364e526f6b6b6846762f30303030303030303030303030303030303030303030303030303030303030303030303030303030303030303030303030303030303030303030303030303234303030303030303030303030303030303030303030303030303030303030303030303030303030303030303030303030303030303030303030303030303030302e6a736f6e00000000000000",
        "nonce": "0x4dbd7",
        "chainId": "0xa"
      },
      "additionalContracts": [],
      "isFixedGasLimit": false
    },
    {
      "hash": "0x1803e231559d75931032d7572ed4c7ace502d0c97b7c7873f886d665034fb841",
      "transactionType": "CALL",
      "contractName": null,
      "contractAddress": "0x03e2c563cf77e3cdc0b7663cee117da14ea60848",
      "function": "setBadgeTier(uint256,uint256,string,uint256)",
      "arguments": [
        "24",
        "1",
        "ipfs/QmPsrBayH69LDDS9teMvzjRgcXVuBUeQM77uR6NRokkhFv/00000000000000000000000000000000000000000000000000000000000000240000000000000000000000000000000000000000000000000000000000000001.json",
        "20"
      ],
      "transaction": {
        "from": "0x8835669696fb92839ab198cd80ce9f0d35f45ad5",
        "to": "0x03e2c563cf77e3cdc0b7663cee117da14ea60848",
        "gas": "0x51731",
        "value": "0x0",
        "input": "0xcf132d1c000000000000000000000000000000000000000000000000000000000000001800000000000000000000000000000000000000000000000000000000000000010000000000000000000000000000000000000000000000000000000000000080000000000000000000000000000000000000000000000000000000000000001400000000000000000000000000000000000000000000000000000000000000b9697066732f516d5073724261794836394c4444533974654d767a6a526763585675425565514d37377552364e526f6b6b6846762f30303030303030303030303030303030303030303030303030303030303030303030303030303030303030303030303030303030303030303030303030303234303030303030303030303030303030303030303030303030303030303030303030303030303030303030303030303030303030303030303030303030303030312e6a736f6e00000000000000",
        "nonce": "0x4dbd8",
        "chainId": "0xa"
      },
      "additionalContracts": [],
      "isFixedGasLimit": false
    },
    {
      "hash": "0xba272c0d8561b3378ad0b7168bd1a36a9155fa28707a3c4864607755696a2c10",
      "transactionType": "CALL",
      "contractName": null,
      "contractAddress": "0x03e2c563cf77e3cdc0b7663cee117da14ea60848",
      "function": "setBadgeTier(uint256,uint256,string,uint256)",
      "arguments": [
        "24",
        "2",
        "ipfs/QmPsrBayH69LDDS9teMvzjRgcXVuBUeQM77uR6NRokkhFv/00000000000000000000000000000000000000000000000000000000000000240000000000000000000000000000000000000000000000000000000000000002.json",
        "40"
      ],
      "transaction": {
        "from": "0x8835669696fb92839ab198cd80ce9f0d35f45ad5",
        "to": "0x03e2c563cf77e3cdc0b7663cee117da14ea60848",
        "gas": "0x4c84e",
        "value": "0x0",
        "input": "0xcf132d1c000000000000000000000000000000000000000000000000000000000000001800000000000000000000000000000000000000000000000000000000000000020000000000000000000000000000000000000000000000000000000000000080000000000000000000000000000000000000000000000000000000000000002800000000000000000000000000000000000000000000000000000000000000b9697066732f516d5073724261794836394c4444533974654d767a6a526763585675425565514d37377552364e526f6b6b6846762f30303030303030303030303030303030303030303030303030303030303030303030303030303030303030303030303030303030303030303030303030303234303030303030303030303030303030303030303030303030303030303030303030303030303030303030303030303030303030303030303030303030303030322e6a736f6e00000000000000",
        "nonce": "0x4dbd9",
        "chainId": "0xa"
      },
      "additionalContracts": [],
      "isFixedGasLimit": false
    },
    {
      "hash": "0x1c7f66decef983de1317ab762798a761ca13016fed41508d4fb6ec33c8663695",
      "transactionType": "CALL",
      "contractName": null,
      "contractAddress": "0x03e2c563cf77e3cdc0b7663cee117da14ea60848",
      "function": "setBadgeTier(uint256,uint256,string,uint256)",
      "arguments": [
        "24",
        "3",
        "ipfs/QmPsrBayH69LDDS9teMvzjRgcXVuBUeQM77uR6NRokkhFv/00000000000000000000000000000000000000000000000000000000000000240000000000000000000000000000000000000000000000000000000000000003.json",
        "60"
      ],
      "transaction": {
        "from": "0x8835669696fb92839ab198cd80ce9f0d35f45ad5",
        "to": "0x03e2c563cf77e3cdc0b7663cee117da14ea60848",
        "gas": "0x4c84e",
        "value": "0x0",
        "input": "0xcf132d1c000000000000000000000000000000000000000000000000000000000000001800000000000000000000000000000000000000000000000000000000000000030000000000000000000000000000000000000000000000000000000000000080000000000000000000000000000000000000000000000000000000000000003c00000000000000000000000000000000000000000000000000000000000000b9697066732f516d5073724261794836394c4444533974654d767a6a526763585675425565514d37377552364e526f6b6b6846762f30303030303030303030303030303030303030303030303030303030303030303030303030303030303030303030303030303030303030303030303030303234303030303030303030303030303030303030303030303030303030303030303030303030303030303030303030303030303030303030303030303030303030332e6a736f6e00000000000000",
        "nonce": "0x4dbda",
        "chainId": "0xa"
      },
      "additionalContracts": [],
      "isFixedGasLimit": false
    },
    {
      "hash": "0x60f92c56fe7952bd8334c2e39a2cfdb8d55c631170b1c80d1994b0358adba39a",
      "transactionType": "CALL",
      "contractName": null,
      "contractAddress": "0x03e2c563cf77e3cdc0b7663cee117da14ea60848",
      "function": "setBadgeTier(uint256,uint256,string,uint256)",
      "arguments": [
        "24",
        "4",
        "ipfs/QmPsrBayH69LDDS9teMvzjRgcXVuBUeQM77uR6NRokkhFv/00000000000000000000000000000000000000000000000000000000000000240000000000000000000000000000000000000000000000000000000000000004.json",
        "80"
      ],
      "transaction": {
        "from": "0x8835669696fb92839ab198cd80ce9f0d35f45ad5",
        "to": "0x03e2c563cf77e3cdc0b7663cee117da14ea60848",
        "gas": "0x4c84e",
        "value": "0x0",
        "input": "0xcf132d1c000000000000000000000000000000000000000000000000000000000000001800000000000000000000000000000000000000000000000000000000000000040000000000000000000000000000000000000000000000000000000000000080000000000000000000000000000000000000000000000000000000000000005000000000000000000000000000000000000000000000000000000000000000b9697066732f516d5073724261794836394c4444533974654d767a6a526763585675425565514d37377552364e526f6b6b6846762f30303030303030303030303030303030303030303030303030303030303030303030303030303030303030303030303030303030303030303030303030303234303030303030303030303030303030303030303030303030303030303030303030303030303030303030303030303030303030303030303030303030303030342e6a736f6e00000000000000",
        "nonce": "0x4dbdb",
        "chainId": "0xa"
      },
      "additionalContracts": [],
      "isFixedGasLimit": false
    },
    {
      "hash": "0xecf28577c84525ca29743bd5c91b15f78c9db4f3e1dddc3698b4b5d4bd72c30c",
      "transactionType": "CALL",
      "contractName": null,
      "contractAddress": "0x03e2c563cf77e3cdc0b7663cee117da14ea60848",
      "function": "setBadgeTier(uint256,uint256,string,uint256)",
      "arguments": [
        "24",
        "5",
        "ipfs/QmPsrBayH69LDDS9teMvzjRgcXVuBUeQM77uR6NRokkhFv/00000000000000000000000000000000000000000000000000000000000000240000000000000000000000000000000000000000000000000000000000000005.json",
        "100"
      ],
      "transaction": {
        "from": "0x8835669696fb92839ab198cd80ce9f0d35f45ad5",
        "to": "0x03e2c563cf77e3cdc0b7663cee117da14ea60848",
        "gas": "0x4c84e",
        "value": "0x0",
        "input": "0xcf132d1c000000000000000000000000000000000000000000000000000000000000001800000000000000000000000000000000000000000000000000000000000000050000000000000000000000000000000000000000000000000000000000000080000000000000000000000000000000000000000000000000000000000000006400000000000000000000000000000000000000000000000000000000000000b9697066732f516d5073724261794836394c4444533974654d767a6a526763585675425565514d37377552364e526f6b6b6846762f30303030303030303030303030303030303030303030303030303030303030303030303030303030303030303030303030303030303030303030303030303234303030303030303030303030303030303030303030303030303030303030303030303030303030303030303030303030303030303030303030303030303030352e6a736f6e00000000000000",
        "nonce": "0x4dbdc",
        "chainId": "0xa"
      },
      "additionalContracts": [],
      "isFixedGasLimit": false
    }
  ],
  "receipts": [
    {
      "status": "0x1",
      "cumulativeGasUsed": "0xfbf50b",
      "logs": [
        {
          "address": "0x03e2c563cf77e3cdc0b7663cee117da14ea60848",
          "topics": [
            "0x2e5977e12fac9a91696e22ba811f2893e11ad62f8aa53e99a628b031d18a379f",
            "0x0000000000000000000000000000000000000000000000000000000000000018"
          ],
          "data": "0x000000000000000000000000000000000000000000000000000000000000002000000000000000000000000000000000000000000000000000000000000000b9697066732f516d5073724261794836394c4444533974654d767a6a526763585675425565514d37377552364e526f6b6b6846762f30303030303030303030303030303030303030303030303030303030303030303030303030303030303030303030303030303030303030303030303030303234303030303030303030303030303030303030303030303030303030303030303030303030303030303030303030303030303030303030303030303030303030302e6a736f6e00000000000000",
          "blockHash": "0xb90c4246bcbe87bb4bdb76edaad0532033810323c50dab97ed855c2d071752b0",
          "blockNumber": "0x84b0964",
          "transactionHash": "0xeaae8228547604e93b6530c79f6df894c6f8f569af1b74c5379c47cbc7707c05",
          "transactionIndex": "0x23",
          "logIndex": "0xa1",
          "removed": false
        }
      ],
      "logsBloom": "0x00000000000000000000000000000000000000000000000000000000000000000000000000000000000000000000000000000000000000000000000000008000000000000000000000000000000000000040000000000000000000000000000000000000000000000000000000000000000000000000000000000000000004000000000000000000001000000000000000000000000000000000000000000000000000000000000000000000000000000000000000000100000000000000001000100000000000000000000000000000000000000000000020000000400000000000000000000000000000000000000000000000000000000000000000000000",
      "type": "0x2",
      "transactionHash": "0xeaae8228547604e93b6530c79f6df894c6f8f569af1b74c5379c47cbc7707c05",
      "transactionIndex": "0x23",
      "blockHash": "0xb90c4246bcbe87bb4bdb76edaad0532033810323c50dab97ed855c2d071752b0",
      "blockNumber": "0x84b0964",
      "gasUsed": "0x2f1f4",
      "effectiveGasPrice": "0x18866",
      "from": "0x8835669696fb92839ab198cd80ce9f0d35f45ad5",
      "to": "0x03e2c563cf77e3cdc0b7663cee117da14ea60848",
      "contractAddress": null,
      "l1BaseFeeScalar": "0x146b",
      "l1BlobBaseFee": "0x1",
      "l1BlobBaseFeeScalar": "0xf79c5",
      "l1Fee": "0x61a756260",
      "l1GasPrice": "0x881bd649",
      "l1GasUsed": "0x894",
      "operatorFeeConstant": "0x0",
      "operatorFeeScalar": "0x0"
    },
    {
      "status": "0x1",
      "cumulativeGasUsed": "0xffa489",
      "logs": [
        {
          "address": "0x03e2c563cf77e3cdc0b7663cee117da14ea60848",
          "topics": [
            "0x5625f15df4cbadf2e6e3f80e2406aec5d99a432335ef0e9a1fba9e48b0558303",
            "0x0000000000000000000000000000000000000000000000000000000000000018"
          ],
          "data": "0x00000000000000000000000000000000000000000000000000000000000000010000000000000000000000000000000000000000000000000000000000000060000000000000000000000000000000000000000000000000000000000000001400000000000000000000000000000000000000000000000000000000000000b9697066732f516d5073724261794836394c4444533974654d767a6a526763585675425565514d37377552364e526f6b6b6846762f30303030303030303030303030303030303030303030303030303030303030303030303030303030303030303030303030303030303030303030303030303234303030303030303030303030303030303030303030303030303030303030303030303030303030303030303030303030303030303030303030303030303030312e6a736f6e00000000000000",
          "blockHash": "0xb90c4246bcbe87bb4bdb76edaad0532033810323c50dab97ed855c2d071752b0",
          "blockNumber": "0x84b0964",
          "transactionHash": "0x1803e231559d75931032d7572ed4c7ace502d0c97b7c7873f886d665034fb841",
          "transactionIndex": "0x24",
          "logIndex": "0xa2",
          "removed": false
        }
      ],
      "logsBloom": "0x00000000000000000000000000000000000000000000000000000000000000000000000000000000000000000000000000000000000000000000000000008000000000000000000000000000000000000040000000000000000000000000000000040000000000000000000000000000000000000000000000000000000000000000000000000000001000000000000000000000000000000000000000000000000000000000000000000000000000000000000000000000000000000000001000100000000000000000004000000000000000000000000020000000000000000000000000000000000000000000000000000000010000000000000000000000",
      "type": "0x2",
      "transactionHash": "0x1803e231559d75931032d7572ed4c7ace502d0c97b7c7873f886d665034fb841",
      "transactionIndex": "0x24",
      "blockHash": "0xb90c4246bcbe87bb4bdb76edaad0532033810323c50dab97ed855c2d071752b0",
      "blockNumber": "0x84b0964",
      "gasUsed": "0x3af7e",
      "effectiveGasPrice": "0x18866",
      "from": "0x8835669696fb92839ab198cd80ce9f0d35f45ad5",
      "to": "0x03e2c563cf77e3cdc0b7663cee117da14ea60848",
      "contractAddress": null,
      "l1BaseFeeScalar": "0x146b",
      "l1BlobBaseFee": "0x1",
      "l1BlobBaseFeeScalar": "0xf79c5",
      "l1Fee": "0x6a9498cb0",
      "l1GasPrice": "0x881bd649",
      "l1GasUsed": "0x95c",
      "operatorFeeConstant": "0x0",
      "operatorFeeScalar": "0x0"
    },
    {
      "status": "0x1",
      "cumulativeGasUsed": "0x1031ae9",
      "logs": [
        {
          "address": "0x03e2c563cf77e3cdc0b7663cee117da14ea60848",
          "topics": [
            "0x5625f15df4cbadf2e6e3f80e2406aec5d99a432335ef0e9a1fba9e48b0558303",
            "0x0000000000000000000000000000000000000000000000000000000000000018"
          ],
          "data": "0x00000000000000000000000000000000000000000000000000000000000000020000000000000000000000000000000000000000000000000000000000000060000000000000000000000000000000000000000000000000000000000000002800000000000000000000000000000000000000000000000000000000000000b9697066732f516d5073724261794836394c4444533974654d767a6a526763585675425565514d37377552364e526f6b6b6846762f30303030303030303030303030303030303030303030303030303030303030303030303030303030303030303030303030303030303030303030303030303234303030303030303030303030303030303030303030303030303030303030303030303030303030303030303030303030303030303030303030303030303030322e6a736f6e00000000000000",
          "blockHash": "0xb90c4246bcbe87bb4bdb76edaad0532033810323c50dab97ed855c2d071752b0",
          "blockNumber": "0x84b0964",
          "transactionHash": "0xba272c0d8561b3378ad0b7168bd1a36a9155fa28707a3c4864607755696a2c10",
          "transactionIndex": "0x25",
          "logIndex": "0xa3",
          "removed": false
        }
      ],
      "logsBloom": "0x00000000000000000000000000000000000000000000000000000000000000000000000000000000000000000000000000000000000000000000000000008000000000000000000000000000000000000040000000000000000000000000000000040000000000000000000000000000000000000000000000000000000000000000000000000000001000000000000000000000000000000000000000000000000000000000000000000000000000000000000000000000000000000000001000100000000000000000004000000000000000000000000020000000000000000000000000000000000000000000000000000000010000000000000000000000",
      "type": "0x2",
      "transactionHash": "0xba272c0d8561b3378ad0b7168bd1a36a9155fa28707a3c4864607755696a2c10",
      "transactionIndex": "0x25",
      "blockHash": "0xb90c4246bcbe87bb4bdb76edaad0532033810323c50dab97ed855c2d071752b0",
      "blockNumber": "0x84b0964",
      "gasUsed": "0x37660",
      "effectiveGasPrice": "0x18866",
      "from": "0x8835669696fb92839ab198cd80ce9f0d35f45ad5",
      "to": "0x03e2c563cf77e3cdc0b7663cee117da14ea60848",
      "contractAddress": null,
      "l1BaseFeeScalar": "0x146b",
      "l1BlobBaseFee": "0x1",
      "l1BlobBaseFeeScalar": "0xf79c5",
      "l1Fee": "0x69fc3f044",
      "l1GasPrice": "0x881bd649",
      "l1GasUsed": "0x94f",
      "operatorFeeConstant": "0x0",
      "operatorFeeScalar": "0x0"
    },
    {
      "status": "0x1",
      "cumulativeGasUsed": "0x1069149",
      "logs": [
        {
          "address": "0x03e2c563cf77e3cdc0b7663cee117da14ea60848",
          "topics": [
            "0x5625f15df4cbadf2e6e3f80e2406aec5d99a432335ef0e9a1fba9e48b0558303",
            "0x0000000000000000000000000000000000000000000000000000000000000018"
          ],
          "data": "0x00000000000000000000000000000000000000000000000000000000000000030000000000000000000000000000000000000000000000000000000000000060000000000000000000000000000000000000000000000000000000000000003c00000000000000000000000000000000000000000000000000000000000000b9697066732f516d5073724261794836394c4444533974654d767a6a526763585675425565514d37377552364e526f6b6b6846762f30303030303030303030303030303030303030303030303030303030303030303030303030303030303030303030303030303030303030303030303030303234303030303030303030303030303030303030303030303030303030303030303030303030303030303030303030303030303030303030303030303030303030332e6a736f6e00000000000000",
          "blockHash": "0xb90c4246bcbe87bb4bdb76edaad0532033810323c50dab97ed855c2d071752b0",
          "blockNumber": "0x84b0964",
          "transactionHash": "0x1c7f66decef983de1317ab762798a761ca13016fed41508d4fb6ec33c8663695",
          "transactionIndex": "0x26",
          "logIndex": "0xa4",
          "removed": false
        }
      ],
      "logsBloom": "0x00000000000000000000000000000000000000000000000000000000000000000000000000000000000000000000000000000000000000000000000000008000000000000000000000000000000000000040000000000000000000000000000000040000000000000000000000000000000000000000000000000000000000000000000000000000001000000000000000000000000000000000000000000000000000000000000000000000000000000000000000000000000000000000001000100000000000000000004000000000000000000000000020000000000000000000000000000000000000000000000000000000010000000000000000000000",
      "type": "0x2",
      "transactionHash": "0x1c7f66decef983de1317ab762798a761ca13016fed41508d4fb6ec33c8663695",
      "transactionIndex": "0x26",
      "blockHash": "0xb90c4246bcbe87bb4bdb76edaad0532033810323c50dab97ed855c2d071752b0",
      "blockNumber": "0x84b0964",
      "gasUsed": "0x37660",
      "effectiveGasPrice": "0x18866",
      "from": "0x8835669696fb92839ab198cd80ce9f0d35f45ad5",
      "to": "0x03e2c563cf77e3cdc0b7663cee117da14ea60848",
      "contractAddress": null,
      "l1BaseFeeScalar": "0x146b",
      "l1BlobBaseFee": "0x1",
      "l1BlobBaseFeeScalar": "0xf79c5",
      "l1Fee": "0x6a9498cb0",
      "l1GasPrice": "0x881bd649",
      "l1GasUsed": "0x95c",
      "operatorFeeConstant": "0x0",
      "operatorFeeScalar": "0x0"
    },
    {
      "status": "0x1",
      "cumulativeGasUsed": "0x10a07a9",
      "logs": [
        {
          "address": "0x03e2c563cf77e3cdc0b7663cee117da14ea60848",
          "topics": [
            "0x5625f15df4cbadf2e6e3f80e2406aec5d99a432335ef0e9a1fba9e48b0558303",
            "0x0000000000000000000000000000000000000000000000000000000000000018"
          ],
          "data": "0x00000000000000000000000000000000000000000000000000000000000000040000000000000000000000000000000000000000000000000000000000000060000000000000000000000000000000000000000000000000000000000000005000000000000000000000000000000000000000000000000000000000000000b9697066732f516d5073724261794836394c4444533974654d767a6a526763585675425565514d37377552364e526f6b6b6846762f30303030303030303030303030303030303030303030303030303030303030303030303030303030303030303030303030303030303030303030303030303234303030303030303030303030303030303030303030303030303030303030303030303030303030303030303030303030303030303030303030303030303030342e6a736f6e00000000000000",
          "blockHash": "0xb90c4246bcbe87bb4bdb76edaad0532033810323c50dab97ed855c2d071752b0",
          "blockNumber": "0x84b0964",
          "transactionHash": "0x60f92c56fe7952bd8334c2e39a2cfdb8d55c631170b1c80d1994b0358adba39a",
          "transactionIndex": "0x27",
          "logIndex": "0xa5",
          "removed": false
        }
      ],
      "logsBloom": "0x00000000000000000000000000000000000000000000000000000000000000000000000000000000000000000000000000000000000000000000000000008000000000000000000000000000000000000040000000000000000000000000000000040000000000000000000000000000000000000000000000000000000000000000000000000000001000000000000000000000000000000000000000000000000000000000000000000000000000000000000000000000000000000000001000100000000000000000004000000000000000000000000020000000000000000000000000000000000000000000000000000000010000000000000000000000",
      "type": "0x2",
      "transactionHash": "0x60f92c56fe7952bd8334c2e39a2cfdb8d55c631170b1c80d1994b0358adba39a",
      "transactionIndex": "0x27",
      "blockHash": "0xb90c4246bcbe87bb4bdb76edaad0532033810323c50dab97ed855c2d071752b0",
      "blockNumber": "0x84b0964",
      "gasUsed": "0x37660",
      "effectiveGasPrice": "0x18866",
      "from": "0x8835669696fb92839ab198cd80ce9f0d35f45ad5",
      "to": "0x03e2c563cf77e3cdc0b7663cee117da14ea60848",
      "contractAddress": null,
      "l1BaseFeeScalar": "0x146b",
      "l1BlobBaseFee": "0x1",
      "l1BlobBaseFeeScalar": "0xf79c5",
      "l1Fee": "0x6a9498cb0",
      "l1GasPrice": "0x881bd649",
      "l1GasUsed": "0x95c",
      "operatorFeeConstant": "0x0",
      "operatorFeeScalar": "0x0"
    },
    {
      "status": "0x1",
      "cumulativeGasUsed": "0x10d7e09",
      "logs": [
        {
          "address": "0x03e2c563cf77e3cdc0b7663cee117da14ea60848",
          "topics": [
            "0x5625f15df4cbadf2e6e3f80e2406aec5d99a432335ef0e9a1fba9e48b0558303",
            "0x0000000000000000000000000000000000000000000000000000000000000018"
          ],
          "data": "0x00000000000000000000000000000000000000000000000000000000000000050000000000000000000000000000000000000000000000000000000000000060000000000000000000000000000000000000000000000000000000000000006400000000000000000000000000000000000000000000000000000000000000b9697066732f516d5073724261794836394c4444533974654d767a6a526763585675425565514d37377552364e526f6b6b6846762f30303030303030303030303030303030303030303030303030303030303030303030303030303030303030303030303030303030303030303030303030303234303030303030303030303030303030303030303030303030303030303030303030303030303030303030303030303030303030303030303030303030303030352e6a736f6e00000000000000",
          "blockHash": "0xb90c4246bcbe87bb4bdb76edaad0532033810323c50dab97ed855c2d071752b0",
          "blockNumber": "0x84b0964",
          "transactionHash": "0xecf28577c84525ca29743bd5c91b15f78c9db4f3e1dddc3698b4b5d4bd72c30c",
          "transactionIndex": "0x28",
          "logIndex": "0xa6",
          "removed": false
        }
      ],
      "logsBloom": "0x00000000000000000000000000000000000000000000000000000000000000000000000000000000000000000000000000000000000000000000000000008000000000000000000000000000000000000040000000000000000000000000000000040000000000000000000000000000000000000000000000000000000000000000000000000000001000000000000000000000000000000000000000000000000000000000000000000000000000000000000000000000000000000000001000100000000000000000004000000000000000000000000020000000000000000000000000000000000000000000000000000000010000000000000000000000",
      "type": "0x2",
      "transactionHash": "0xecf28577c84525ca29743bd5c91b15f78c9db4f3e1dddc3698b4b5d4bd72c30c",
      "transactionIndex": "0x28",
      "blockHash": "0xb90c4246bcbe87bb4bdb76edaad0532033810323c50dab97ed855c2d071752b0",
      "blockNumber": "0x84b0964",
      "gasUsed": "0x37660",
      "effectiveGasPrice": "0x18866",
      "from": "0x8835669696fb92839ab198cd80ce9f0d35f45ad5",
      "to": "0x03e2c563cf77e3cdc0b7663cee117da14ea60848",
      "contractAddress": null,
      "l1BaseFeeScalar": "0x146b",
      "l1BlobBaseFee": "0x1",
      "l1BlobBaseFeeScalar": "0xf79c5",
      "l1Fee": "0x6a9498cb0",
      "l1GasPrice": "0x881bd649",
      "l1GasUsed": "0x95c",
      "operatorFeeConstant": "0x0",
      "operatorFeeScalar": "0x0"
    }
  ],
  "libraries": [],
  "pending": [],
  "returns": {},
  "timestamp": 1753869441,
  "chain": 10,
  "commit": "aa500bc"
}