{
  "transactions": [
    {
      "hash": "0x91d8a8795132cd442e10d0d5e60a76c3e580bd2ec6e3e10234ba7b5e5cdf8fb7",
      "transactionType": "CALL",
      "contractName": null,
      "contractAddress": "0x03e2c563cf77e3cdc0b7663cee117da14ea60848",
      "function": "updateBadgeMetadata(uint256,string)",
      "arguments": [
        "1",
        "ipfs/QmTRaFqzn5DxhV8ezd9Nv3DfoiM9jdUhnH1ho648XDm5CH/00000000000000000000000000000000000000000000000000000000000000010000000000000000000000000000000000000000000000000000000000000000.json"
      ],
      "transaction": {
        "from": "0x8835669696fb92839ab198cd80ce9f0d35f45ad5",
        "to": "0x03e2c563cf77e3cdc0b7663cee117da14ea60848",
        "gas": "0x15652",
        "value": "0x0",
        "input": "0x47461b400000000000000000000000000000000000000000000000000000000000000001000000000000000000000000000000000000000000000000000000000000004000000000000000000000000000000000000000000000000000000000000000b9697066732f516d54526146717a6e354478685638657a64394e763344666f694d396a6455686e4831686f36343858446d3543482f30303030303030303030303030303030303030303030303030303030303030303030303030303030303030303030303030303030303030303030303030303031303030303030303030303030303030303030303030303030303030303030303030303030303030303030303030303030303030303030303030303030303030302e6a736f6e00000000000000",
        "nonce": "0x39bba",
        "chainId": "0xa"
      },
      "additionalContracts": [],
      "isFixedGasLimit": false
    },
    {
      "hash": "0xf2147e6f37b37b497ab3fd8bc71a12a5c1b94123fc6e6aac01bd07aaf2925c7e",
      "transactionType": "CALL",
      "contractName": null,
      "contractAddress": "0x03e2c563cf77e3cdc0b7663cee117da14ea60848",
      "function": "updateBadgeMetadata(uint256,string)",
      "arguments": [
        "8",
        "ipfs/QmTRaFqzn5DxhV8ezd9Nv3DfoiM9jdUhnH1ho648XDm5CH/00000000000000000000000000000000000000000000000000000000000000080000000000000000000000000000000000000000000000000000000000000000.json"
      ],
      "transaction": {
        "from": "0x8835669696fb92839ab198cd80ce9f0d35f45ad5",
        "to": "0x03e2c563cf77e3cdc0b7663cee117da14ea60848",
        "gas": "0x15652",
        "value": "0x0",
        "input": "0x47461b400000000000000000000000000000000000000000000000000000000000000008000000000000000000000000000000000000000000000000000000000000004000000000000000000000000000000000000000000000000000000000000000b9697066732f516d54526146717a6e354478685638657a64394e763344666f694d396a6455686e4831686f36343858446d3543482f30303030303030303030303030303030303030303030303030303030303030303030303030303030303030303030303030303030303030303030303030303038303030303030303030303030303030303030303030303030303030303030303030303030303030303030303030303030303030303030303030303030303030302e6a736f6e00000000000000",
        "nonce": "0x39bbb",
        "chainId": "0xa"
      },
      "additionalContracts": [],
      "isFixedGasLimit": false
    },
    {
      "hash": "0x287b806bad57f6141b6fba5e1eec90fd0977fac0c48e2787a23987b767d7b7d0",
      "transactionType": "CALL",
      "contractName": null,
      "contractAddress": "0x03e2c563cf77e3cdc0b7663cee117da14ea60848",
      "function": "updateBadgeTierMetadata(uint256,uint256,string)",
      "arguments": [
        "1",
        "1",
        "ipfs/QmTRaFqzn5DxhV8ezd9Nv3DfoiM9jdUhnH1ho648XDm5CH/00000000000000000000000000000000000000000000000000000000000000010000000000000000000000000000000000000000000000000000000000000001.json"
      ],
      "transaction": {
        "from": "0x8835669696fb92839ab198cd80ce9f0d35f45ad5",
        "to": "0x03e2c563cf77e3cdc0b7663cee117da14ea60848",
        "gas": "0x154b6",
        "value": "0x0",
        "input": "0xc43e4f4c00000000000000000000000000000000000000000000000000000000000000010000000000000000000000000000000000000000000000000000000000000001000000000000000000000000000000000000000000000000000000000000006000000000000000000000000000000000000000000000000000000000000000b9697066732f516d54526146717a6e354478685638657a64394e763344666f694d396a6455686e4831686f36343858446d3543482f30303030303030303030303030303030303030303030303030303030303030303030303030303030303030303030303030303030303030303030303030303031303030303030303030303030303030303030303030303030303030303030303030303030303030303030303030303030303030303030303030303030303030312e6a736f6e00000000000000",
        "nonce": "0x39bbc",
        "chainId": "0xa"
      },
      "additionalContracts": [],
      "isFixedGasLimit": false
    },
    {
      "hash": "0xdf781de45555a1c013d9f34461abfe8d1ae9ac90d59739d1664b326ae6c63968",
      "transactionType": "CALL",
      "contractName": null,
      "contractAddress": "0x03e2c563cf77e3cdc0b7663cee117da14ea60848",
      "function": "updateBadgeTierMetadata(uint256,uint256,string)",
      "arguments": [
        "1",
        "2",
        "ipfs/QmTRaFqzn5DxhV8ezd9Nv3DfoiM9jdUhnH1ho648XDm5CH/00000000000000000000000000000000000000000000000000000000000000010000000000000000000000000000000000000000000000000000000000000002.json"
      ],
      "transaction": {
        "from": "0x8835669696fb92839ab198cd80ce9f0d35f45ad5",
        "to": "0x03e2c563cf77e3cdc0b7663cee117da14ea60848",
        "gas": "0x154b6",
        "value": "0x0",
        "input": "0xc43e4f4c00000000000000000000000000000000000000000000000000000000000000010000000000000000000000000000000000000000000000000000000000000002000000000000000000000000000000000000000000000000000000000000006000000000000000000000000000000000000000000000000000000000000000b9697066732f516d54526146717a6e354478685638657a64394e763344666f694d396a6455686e4831686f36343858446d3543482f30303030303030303030303030303030303030303030303030303030303030303030303030303030303030303030303030303030303030303030303030303031303030303030303030303030303030303030303030303030303030303030303030303030303030303030303030303030303030303030303030303030303030322e6a736f6e00000000000000",
        "nonce": "0x39bbd",
        "chainId": "0xa"
      },
      "additionalContracts": [],
      "isFixedGasLimit": false
    },
    {
      "hash": "0x2484101bd051c09d69811ec4807f53886bea18c34463ee1a5d24a6d9d11e2511",
      "transactionType": "CALL",
      "contractName": null,
      "contractAddress": "0x03e2c563cf77e3cdc0b7663cee117da14ea60848",
      "function": "updateBadgeTierMetadata(uint256,uint256,string)",
      "arguments": [
        "1",
        "3",
        "ipfs/QmTRaFqzn5DxhV8ezd9Nv3DfoiM9jdUhnH1ho648XDm5CH/00000000000000000000000000000000000000000000000000000000000000010000000000000000000000000000000000000000000000000000000000000003.json"
      ],
      "transaction": {
        "from": "0x8835669696fb92839ab198cd80ce9f0d35f45ad5",
        "to": "0x03e2c563cf77e3cdc0b7663cee117da14ea60848",
        "gas": "0x154b6",
        "value": "0x0",
        "input": "0xc43e4f4c00000000000000000000000000000000000000000000000000000000000000010000000000000000000000000000000000000000000000000000000000000003000000000000000000000000000000000000000000000000000000000000006000000000000000000000000000000000000000000000000000000000000000b9697066732f516d54526146717a6e354478685638657a64394e763344666f694d396a6455686e4831686f36343858446d3543482f30303030303030303030303030303030303030303030303030303030303030303030303030303030303030303030303030303030303030303030303030303031303030303030303030303030303030303030303030303030303030303030303030303030303030303030303030303030303030303030303030303030303030332e6a736f6e00000000000000",
        "nonce": "0x39bbe",
        "chainId": "0xa"
      },
      "additionalContracts": [],
      "isFixedGasLimit": false
    },
    {
      "hash": "0xdf10806736773b9cbf97f8fa99f674f6c7fcdd59f852373e14bb8c6b5230c9d1",
      "transactionType": "CALL",
      "contractName": null,
      "contractAddress": "0x03e2c563cf77e3cdc0b7663cee117da14ea60848",
      "function": "updateBadgeTierMetadata(uint256,uint256,string)",
      "arguments": [
        "1",
        "4",
        "ipfs/QmTRaFqzn5DxhV8ezd9Nv3DfoiM9jdUhnH1ho648XDm5CH/00000000000000000000000000000000000000000000000000000000000000010000000000000000000000000000000000000000000000000000000000000004.json"
      ],
      "transaction": {
        "from": "0x8835669696fb92839ab198cd80ce9f0d35f45ad5",
        "to": "0x03e2c563cf77e3cdc0b7663cee117da14ea60848",
        "gas": "0x154b6",
        "value": "0x0",
        "input": "0xc43e4f4c00000000000000000000000000000000000000000000000000000000000000010000000000000000000000000000000000000000000000000000000000000004000000000000000000000000000000000000000000000000000000000000006000000000000000000000000000000000000000000000000000000000000000b9697066732f516d54526146717a6e354478685638657a64394e763344666f694d396a6455686e4831686f36343858446d3543482f30303030303030303030303030303030303030303030303030303030303030303030303030303030303030303030303030303030303030303030303030303031303030303030303030303030303030303030303030303030303030303030303030303030303030303030303030303030303030303030303030303030303030342e6a736f6e00000000000000",
        "nonce": "0x39bbf",
        "chainId": "0xa"
      },
      "additionalContracts": [],
      "isFixedGasLimit": false
    },
    {
      "hash": "0x324c807a8bf11ba9ca1f5fcca00cbacfb0567e985ac65c92bc372b098e9d3743",
      "transactionType": "CALL",
      "contractName": null,
      "contractAddress": "0x03e2c563cf77e3cdc0b7663cee117da14ea60848",
      "function": "updateBadgeTierMetadata(uint256,uint256,string)",
      "arguments": [
        "1",
        "5",
        "ipfs/QmTRaFqzn5DxhV8ezd9Nv3DfoiM9jdUhnH1ho648XDm5CH/00000000000000000000000000000000000000000000000000000000000000010000000000000000000000000000000000000000000000000000000000000005.json"
      ],
      "transaction": {
        "from": "0x8835669696fb92839ab198cd80ce9f0d35f45ad5",
        "to": "0x03e2c563cf77e3cdc0b7663cee117da14ea60848",
        "gas": "0x154b6",
        "value": "0x0",
        "input": "0xc43e4f4c00000000000000000000000000000000000000000000000000000000000000010000000000000000000000000000000000000000000000000000000000000005000000000000000000000000000000000000000000000000000000000000006000000000000000000000000000000000000000000000000000000000000000b9697066732f516d54526146717a6e354478685638657a64394e763344666f694d396a6455686e4831686f36343858446d3543482f30303030303030303030303030303030303030303030303030303030303030303030303030303030303030303030303030303030303030303030303030303031303030303030303030303030303030303030303030303030303030303030303030303030303030303030303030303030303030303030303030303030303030352e6a736f6e00000000000000",
        "nonce": "0x39bc0",
        "chainId": "0xa"
      },
      "additionalContracts": [],
      "isFixedGasLimit": false
    },
    {
      "hash": "0x92f7c1a0e65fea06aaf4e8cbade6f07cac2c9b1190301e860a1d3841c2c6ca95",
      "transactionType": "CALL",
      "contractName": null,
      "contractAddress": "0x03e2c563cf77e3cdc0b7663cee117da14ea60848",
      "function": "updateBadgeTierMetadata(uint256,uint256,string)",
      "arguments": [
        "8",
        "1",
        "ipfs/QmTRaFqzn5DxhV8ezd9Nv3DfoiM9jdUhnH1ho648XDm5CH/00000000000000000000000000000000000000000000000000000000000000080000000000000000000000000000000000000000000000000000000000000001.json"
      ],
      "transaction": {
        "from": "0x8835669696fb92839ab198cd80ce9f0d35f45ad5",
        "to": "0x03e2c563cf77e3cdc0b7663cee117da14ea60848",
        "gas": "0x154b6",
        "value": "0x0",
        "input": "0xc43e4f4c00000000000000000000000000000000000000000000000000000000000000080000000000000000000000000000000000000000000000000000000000000001000000000000000000000000000000000000000000000000000000000000006000000000000000000000000000000000000000000000000000000000000000b9697066732f516d54526146717a6e354478685638657a64394e763344666f694d396a6455686e4831686f36343858446d3543482f30303030303030303030303030303030303030303030303030303030303030303030303030303030303030303030303030303030303030303030303030303038303030303030303030303030303030303030303030303030303030303030303030303030303030303030303030303030303030303030303030303030303030312e6a736f6e00000000000000",
        "nonce": "0x39bc1",
        "chainId": "0xa"
      },
      "additionalContracts": [],
      "isFixedGasLimit": false
    }
  ],
  "receipts": [
    {
      "status": "0x1",
      "cumulativeGasUsed": "0xc8bdb6",
      "logs": [
        {
          "address": "0x03e2c563cf77e3cdc0b7663cee117da14ea60848",
          "topics": [
            "0xb810609e93b7325976c078b96d9c92d3160d0d165073b8c9a8a6a4d257fd0477",
            "0x0000000000000000000000000000000000000000000000000000000000000001"
          ],
          "data": "0x000000000000000000000000000000000000000000000000000000000000002000000000000000000000000000000000000000000000000000000000000000b9697066732f516d54526146717a6e354478685638657a64394e763344666f694d396a6455686e4831686f36343858446d3543482f30303030303030303030303030303030303030303030303030303030303030303030303030303030303030303030303030303030303030303030303030303031303030303030303030303030303030303030303030303030303030303030303030303030303030303030303030303030303030303030303030303030303030302e6a736f6e00000000000000",
          "blockHash": "0x5c1ca2d1f9c51b89924bb95057e731e3ce2c6344fa37d50b84a6abb3f9121aba",
          "blockNumber": "0x82e747f",
          "blockTimestamp": "0x6850c2b7",
          "transactionHash": "0x91d8a8795132cd442e10d0d5e60a76c3e580bd2ec6e3e10234ba7b5e5cdf8fb7",
          "transactionIndex": "0x1f",
          "logIndex": "0x379",
          "removed": false
        }
      ],
      "logsBloom": "0x00000000000000000000000000000000000000000000000000000000000000040000000000000000000000000000000000000000000000000000000000048000000000000000000000000000000000000000000000040000000000400000000000000000000000000000000000000000000000000000000000000000000000000000000000000000001000000000000000000000000000000000000000000000000000000000000000000000000000000000000000000000000000000000001000000000000000000000000000000000000000000000000000000020000040000000000000000000000000000000000000000000000000000000000000000000",
      "type": "0x2",
      "transactionHash": "0x91d8a8795132cd442e10d0d5e60a76c3e580bd2ec6e3e10234ba7b5e5cdf8fb7",
      "transactionIndex": "0x1f",
      "blockHash": "0x5c1ca2d1f9c51b89924bb95057e731e3ce2c6344fa37d50b84a6abb3f9121aba",
      "blockNumber": "0x82e747f",
      "gasUsed": "0xea11",
      "effectiveGasPrice": "0x14609",
      "from": "0x8835669696fb92839ab198cd80ce9f0d35f45ad5",
      "to": "0x03e2c563cf77e3cdc0b7663cee117da14ea60848",
      "contractAddress": null,
      "l1BaseFeeScalar": "0x146b",
      "l1BlobBaseFee": "0x1",
      "l1BlobBaseFeeScalar": "0xf79c5",
      "l1Fee": "0x1b57fbc39",
      "l1GasPrice": "0x26d234bf",
      "l1GasUsed": "0x86c"
    },
    {
      "status": "0x1",
      "cumulativeGasUsed": "0xc9a7c7",
      "logs": [
        {
          "address": "0x03e2c563cf77e3cdc0b7663cee117da14ea60848",
          "topics": [
            "0xb810609e93b7325976c078b96d9c92d3160d0d165073b8c9a8a6a4d257fd0477",
            "0x0000000000000000000000000000000000000000000000000000000000000008"
          ],
          "data": "0x000000000000000000000000000000000000000000000000000000000000002000000000000000000000000000000000000000000000000000000000000000b9697066732f516d54526146717a6e354478685638657a64394e763344666f694d396a6455686e4831686f36343858446d3543482f30303030303030303030303030303030303030303030303030303030303030303030303030303030303030303030303030303030303030303030303030303038303030303030303030303030303030303030303030303030303030303030303030303030303030303030303030303030303030303030303030303030303030302e6a736f6e00000000000000",
          "blockHash": "0x5c1ca2d1f9c51b89924bb95057e731e3ce2c6344fa37d50b84a6abb3f9121aba",
          "blockNumber": "0x82e747f",
          "blockTimestamp": "0x6850c2b7",
          "transactionHash": "0xf2147e6f37b37b497ab3fd8bc71a12a5c1b94123fc6e6aac01bd07aaf2925c7e",
          "transactionIndex": "0x20",
          "logIndex": "0x37a",
          "removed": false
        }
      ],
      "logsBloom": "0x00000000000000000000000000000000000000000000000000000000000000040000000000000000000000000000000000000000000080000000000000008000000000000000000000000000000000000000000000000000000000400000000000000000000000000000000000000000000000000000000000000000000000000080000000000000001000000000000000000000000000000000000000000000000000000000000000000000000000000000000000000000000000000000001040000000000000000000000000000000000000000000000000000020000000000000000000000000000000000000000000000000000000000000000000000000",
      "type": "0x2",
      "transactionHash": "0xf2147e6f37b37b497ab3fd8bc71a12a5c1b94123fc6e6aac01bd07aaf2925c7e",
      "transactionIndex": "0x20",
      "blockHash": "0x5c1ca2d1f9c51b89924bb95057e731e3ce2c6344fa37d50b84a6abb3f9121aba",
      "blockNumber": "0x82e747f",
      "gasUsed": "0xea11",
      "effectiveGasPrice": "0x14609",
      "from": "0x8835669696fb92839ab198cd80ce9f0d35f45ad5",
      "to": "0x03e2c563cf77e3cdc0b7663cee117da14ea60848",
      "contractAddress": null,
      "l1BaseFeeScalar": "0x146b",
      "l1BlobBaseFee": "0x1",
      "l1BlobBaseFeeScalar": "0xf79c5",
      "l1Fee": "0x1b57fbc39",
      "l1GasPrice": "0x26d234bf",
      "l1GasUsed": "0x86c"
    },
    {
      "status": "0x1",
      "cumulativeGasUsed": "0xca9e73",
      "logs": [
        {
          "address": "0x03e2c563cf77e3cdc0b7663cee117da14ea60848",
          "topics": [
            "0x3e442b5d5a6ecd8c0a86017cabd5ee0efbf32debbee58f9cea68f1b8489e4193",
            "0x0000000000000000000000000000000000000000000000000000000000000001"
          ],
          "data": "0x0000000000000000000000000000000000000000000000000000000000000001000000000000000000000000000000000000000000000000000000000000004000000000000000000000000000000000000000000000000000000000000000b9697066732f516d54526146717a6e354478685638657a64394e763344666f694d396a6455686e4831686f36343858446d3543482f30303030303030303030303030303030303030303030303030303030303030303030303030303030303030303030303030303030303030303030303030303031303030303030303030303030303030303030303030303030303030303030303030303030303030303030303030303030303030303030303030303030303030312e6a736f6e00000000000000",
          "blockHash": "0x5c1ca2d1f9c51b89924bb95057e731e3ce2c6344fa37d50b84a6abb3f9121aba",
          "blockNumber": "0x82e747f",
          "blockTimestamp": "0x6850c2b7",
          "transactionHash": "0x287b806bad57f6141b6fba5e1eec90fd0977fac0c48e2787a23987b767d7b7d0",
          "transactionIndex": "0x21",
          "logIndex": "0x37b",
          "removed": false
        }
      ],
      "logsBloom": "0x00000000000000000000000000000000000000000000000000000000000000000000000000000000000000000000000000000000000000000000000000048000000000000000000000000000000000000000000000040000000000000000000000000010000000000000000000000000000000000000000000000000000000000000000000000000001000000000000000000000000000000000000000000000000000200000000000000000000000000000000000000000000000000000001000000000000000000000000000000000000000000000000200000000000040000000000000000000000000000000000000000000000000000000000000000000",
      "type": "0x2",
      "transactionHash": "0x287b806bad57f6141b6fba5e1eec90fd0977fac0c48e2787a23987b767d7b7d0",
      "transactionIndex": "0x21",
      "blockHash": "0x5c1ca2d1f9c51b89924bb95057e731e3ce2c6344fa37d50b84a6abb3f9121aba",
      "blockNumber": "0x82e747f",
      "gasUsed": "0xf6ac",
      "effectiveGasPrice": "0x14609",
      "from": "0x8835669696fb92839ab198cd80ce9f0d35f45ad5",
      "to": "0x03e2c563cf77e3cdc0b7663cee117da14ea60848",
      "contractAddress": null,
      "l1BaseFeeScalar": "0x146b",
      "l1BlobBaseFee": "0x1",
      "l1BlobBaseFeeScalar": "0xf79c5",
      "l1Fee": "0x1bda582e7",
      "l1GasPrice": "0x26d234bf",
      "l1GasUsed": "0x894"
    },
    {
      "status": "0x1",
      "cumulativeGasUsed": "0xcb951f",
      "logs": [
        {
          "address": "0x03e2c563cf77e3cdc0b7663cee117da14ea60848",
          "topics": [
            "0x3e442b5d5a6ecd8c0a86017cabd5ee0efbf32debbee58f9cea68f1b8489e4193",
            "0x0000000000000000000000000000000000000000000000000000000000000001"
          ],
          "data": "0x0000000000000000000000000000000000000000000000000000000000000002000000000000000000000000000000000000000000000000000000000000004000000000000000000000000000000000000000000000000000000000000000b9697066732f516d54526146717a6e354478685638657a64394e763344666f694d396a6455686e4831686f36343858446d3543482f30303030303030303030303030303030303030303030303030303030303030303030303030303030303030303030303030303030303030303030303030303031303030303030303030303030303030303030303030303030303030303030303030303030303030303030303030303030303030303030303030303030303030322e6a736f6e00000000000000",
          "blockHash": "0x5c1ca2d1f9c51b89924bb95057e731e3ce2c6344fa37d50b84a6abb3f9121aba",
          "blockNumber": "0x82e747f",
          "blockTimestamp": "0x6850c2b7",
          "transactionHash": "0xdf781de45555a1c013d9f34461abfe8d1ae9ac90d59739d1664b326ae6c63968",
          "transactionIndex": "0x22",
          "logIndex": "0x37c",
          "removed": false
        }
      ],
      "logsBloom": "0x00000000000000000000000000000000000000000000000000000000000000000000000000000000000000000000000000000000000000000000000000048000000000000000000000000000000000000000000000040000000000000000000000000010000000000000000000000000000000000000000000000000000000000000000000000000001000000000000000000000000000000000000000000000000000200000000000000000000000000000000000000000000000000000001000000000000000000000000000000000000000000000000200000000000040000000000000000000000000000000000000000000000000000000000000000000",
      "type": "0x2",
      "transactionHash": "0xdf781de45555a1c013d9f34461abfe8d1ae9ac90d59739d1664b326ae6c63968",
      "transactionIndex": "0x22",
      "blockHash": "0x5c1ca2d1f9c51b89924bb95057e731e3ce2c6344fa37d50b84a6abb3f9121aba",
      "blockNumber": "0x82e747f",
      "gasUsed": "0xf6ac",
      "effectiveGasPrice": "0x14609",
      "from": "0x8835669696fb92839ab198cd80ce9f0d35f45ad5",
      "to": "0x03e2c563cf77e3cdc0b7663cee117da14ea60848",
      "contractAddress": null,
      "l1BaseFeeScalar": "0x146b",
      "l1BlobBaseFee": "0x1",
      "l1BlobBaseFeeScalar": "0xf79c5",
      "l1Fee": "0x1d0a8527f",
      "l1GasPrice": "0x26d234bf",
      "l1GasUsed": "0x8f1"
    },
    {
      "status": "0x1",
      "cumulativeGasUsed": "0xcc8bcb",
      "logs": [
        {
          "address": "0x03e2c563cf77e3cdc0b7663cee117da14ea60848",
          "topics": [
            "0x3e442b5d5a6ecd8c0a86017cabd5ee0efbf32debbee58f9cea68f1b8489e4193",
            "0x0000000000000000000000000000000000000000000000000000000000000001"
          ],
          "data": "0x0000000000000000000000000000000000000000000000000000000000000003000000000000000000000000000000000000000000000000000000000000004000000000000000000000000000000000000000000000000000000000000000b9697066732f516d54526146717a6e354478685638657a64394e763344666f694d396a6455686e4831686f36343858446d3543482f30303030303030303030303030303030303030303030303030303030303030303030303030303030303030303030303030303030303030303030303030303031303030303030303030303030303030303030303030303030303030303030303030303030303030303030303030303030303030303030303030303030303030332e6a736f6e00000000000000",
          "blockHash": "0x5c1ca2d1f9c51b89924bb95057e731e3ce2c6344fa37d50b84a6abb3f9121aba",
          "blockNumber": "0x82e747f",
          "blockTimestamp": "0x6850c2b7",
          "transactionHash": "0x2484101bd051c09d69811ec4807f53886bea18c34463ee1a5d24a6d9d11e2511",
          "transactionIndex": "0x23",
          "logIndex": "0x37d",
          "removed": false
        }
      ],
      "logsBloom": "0x00000000000000000000000000000000000000000000000000000000000000000000000000000000000000000000000000000000000000000000000000048000000000000000000000000000000000000000000000040000000000000000000000000010000000000000000000000000000000000000000000000000000000000000000000000000001000000000000000000000000000000000000000000000000000200000000000000000000000000000000000000000000000000000001000000000000000000000000000000000000000000000000200000000000040000000000000000000000000000000000000000000000000000000000000000000",
      "type": "0x2",
      "transactionHash": "0x2484101bd051c09d69811ec4807f53886bea18c34463ee1a5d24a6d9d11e2511",
      "transactionIndex": "0x23",
      "blockHash": "0x5c1ca2d1f9c51b89924bb95057e731e3ce2c6344fa37d50b84a6abb3f9121aba",
      "blockNumber": "0x82e747f",
      "gasUsed": "0xf6ac",
      "effectiveGasPrice": "0x14609",
      "from": "0x8835669696fb92839ab198cd80ce9f0d35f45ad5",
      "to": "0x03e2c563cf77e3cdc0b7663cee117da14ea60848",
      "contractAddress": null,
      "l1BaseFeeScalar": "0x146b",
      "l1BlobBaseFee": "0x1",
      "l1BlobBaseFeeScalar": "0xf79c5",
      "l1Fee": "0x1d0a8527f",
      "l1GasPrice": "0x26d234bf",
      "l1GasUsed": "0x8f1"
    },
    {
      "status": "0x1",
      "cumulativeGasUsed": "0xcd8277",
      "logs": [
        {
          "address": "0x03e2c563cf77e3cdc0b7663cee117da14ea60848",
          "topics": [
            "0x3e442b5d5a6ecd8c0a86017cabd5ee0efbf32debbee58f9cea68f1b8489e4193",
            "0x0000000000000000000000000000000000000000000000000000000000000001"
          ],
          "data": "0x0000000000000000000000000000000000000000000000000000000000000004000000000000000000000000000000000000000000000000000000000000004000000000000000000000000000000000000000000000000000000000000000b9697066732f516d54526146717a6e354478685638657a64394e763344666f694d396a6455686e4831686f36343858446d3543482f30303030303030303030303030303030303030303030303030303030303030303030303030303030303030303030303030303030303030303030303030303031303030303030303030303030303030303030303030303030303030303030303030303030303030303030303030303030303030303030303030303030303030342e6a736f6e00000000000000",
          "blockHash": "0x5c1ca2d1f9c51b89924bb95057e731e3ce2c6344fa37d50b84a6abb3f9121aba",
          "blockNumber": "0x82e747f",
          "blockTimestamp": "0x6850c2b7",
          "transactionHash": "0xdf10806736773b9cbf97f8fa99f674f6c7fcdd59f852373e14bb8c6b5230c9d1",
          "transactionIndex": "0x24",
          "logIndex": "0x37e",
          "removed": false
        }
      ],
      "logsBloom": "0x00000000000000000000000000000000000000000000000000000000000000000000000000000000000000000000000000000000000000000000000000048000000000000000000000000000000000000000000000040000000000000000000000000010000000000000000000000000000000000000000000000000000000000000000000000000001000000000000000000000000000000000000000000000000000200000000000000000000000000000000000000000000000000000001000000000000000000000000000000000000000000000000200000000000040000000000000000000000000000000000000000000000000000000000000000000",
      "type": "0x2",
      "transactionHash": "0xdf10806736773b9cbf97f8fa99f674f6c7fcdd59f852373e14bb8c6b5230c9d1",
      "transactionIndex": "0x24",
      "blockHash": "0x5c1ca2d1f9c51b89924bb95057e731e3ce2c6344fa37d50b84a6abb3f9121aba",
      "blockNumber": "0x82e747f",
      "gasUsed": "0xf6ac",
      "effectiveGasPrice": "0x14609",
      "from": "0x8835669696fb92839ab198cd80ce9f0d35f45ad5",
      "to": "0x03e2c563cf77e3cdc0b7663cee117da14ea60848",
      "contractAddress": null,
      "l1BaseFeeScalar": "0x146b",
      "l1BlobBaseFee": "0x1",
      "l1BlobBaseFeeScalar": "0xf79c5",
      "l1Fee": "0x1d0a8527f",
      "l1GasPrice": "0x26d234bf",
      "l1GasUsed": "0x8f1"
    },
    {
      "status": "0x1",
      "cumulativeGasUsed": "0xce7923",
      "logs": [
        {
          "address": "0x03e2c563cf77e3cdc0b7663cee117da14ea60848",
          "topics": [
            "0x3e442b5d5a6ecd8c0a86017cabd5ee0efbf32debbee58f9cea68f1b8489e4193",
            "0x0000000000000000000000000000000000000000000000000000000000000001"
          ],
          "data": "0x0000000000000000000000000000000000000000000000000000000000000005000000000000000000000000000000000000000000000000000000000000004000000000000000000000000000000000000000000000000000000000000000b9697066732f516d54526146717a6e354478685638657a64394e763344666f694d396a6455686e4831686f36343858446d3543482f30303030303030303030303030303030303030303030303030303030303030303030303030303030303030303030303030303030303030303030303030303031303030303030303030303030303030303030303030303030303030303030303030303030303030303030303030303030303030303030303030303030303030352e6a736f6e00000000000000",
          "blockHash": "0x5c1ca2d1f9c51b89924bb95057e731e3ce2c6344fa37d50b84a6abb3f9121aba",
          "blockNumber": "0x82e747f",
          "blockTimestamp": "0x6850c2b7",
          "transactionHash": "0x324c807a8bf11ba9ca1f5fcca00cbacfb0567e985ac65c92bc372b098e9d3743",
          "transactionIndex": "0x25",
          "logIndex": "0x37f",
          "removed": false
        }
      ],
      "logsBloom": "0x00000000000000000000000000000000000000000000000000000000000000000000000000000000000000000000000000000000000000000000000000048000000000000000000000000000000000000000000000040000000000000000000000000010000000000000000000000000000000000000000000000000000000000000000000000000001000000000000000000000000000000000000000000000000000200000000000000000000000000000000000000000000000000000001000000000000000000000000000000000000000000000000200000000000040000000000000000000000000000000000000000000000000000000000000000000",
      "type": "0x2",
      "transactionHash": "0x324c807a8bf11ba9ca1f5fcca00cbacfb0567e985ac65c92bc372b098e9d3743",
      "transactionIndex": "0x25",
      "blockHash": "0x5c1ca2d1f9c51b89924bb95057e731e3ce2c6344fa37d50b84a6abb3f9121aba",
      "blockNumber": "0x82e747f",
      "gasUsed": "0xf6ac",
      "effectiveGasPrice": "0x14609",
      "from": "0x8835669696fb92839ab198cd80ce9f0d35f45ad5",
      "to": "0x03e2c563cf77e3cdc0b7663cee117da14ea60848",
      "contractAddress": null,
      "l1BaseFeeScalar": "0x146b",
      "l1BlobBaseFee": "0x1",
      "l1BlobBaseFeeScalar": "0xf79c5",
      "l1Fee": "0x1d0a8527f",
      "l1GasPrice": "0x26d234bf",
      "l1GasUsed": "0x8f1"
    },
    {
      "status": "0x1",
      "cumulativeGasUsed": "0xcf6fcf",
      "logs": [
        {
          "address": "0x03e2c563cf77e3cdc0b7663cee117da14ea60848",
          "topics": [
            "0x3e442b5d5a6ecd8c0a86017cabd5ee0efbf32debbee58f9cea68f1b8489e4193",
            "0x0000000000000000000000000000000000000000000000000000000000000008"
          ],
          "data": "0x0000000000000000000000000000000000000000000000000000000000000001000000000000000000000000000000000000000000000000000000000000004000000000000000000000000000000000000000000000000000000000000000b9697066732f516d54526146717a6e354478685638657a64394e763344666f694d396a6455686e4831686f36343858446d3543482f30303030303030303030303030303030303030303030303030303030303030303030303030303030303030303030303030303030303030303030303030303038303030303030303030303030303030303030303030303030303030303030303030303030303030303030303030303030303030303030303030303030303030312e6a736f6e00000000000000",
          "blockHash": "0x5c1ca2d1f9c51b89924bb95057e731e3ce2c6344fa37d50b84a6abb3f9121aba",
          "blockNumber": "0x82e747f",
          "blockTimestamp": "0x6850c2b7",
          "transactionHash": "0x92f7c1a0e65fea06aaf4e8cbade6f07cac2c9b1190301e860a1d3841c2c6ca95",
          "transactionIndex": "0x26",
          "logIndex": "0x380",
          "removed": false
        }
      ],
      "logsBloom": "0x00000000000000000000000000000000000000000000000000000000000000000000000000000000000000000000000000000000000080000000000000008000000000000000000000000000000000000000000000000000000000000000000000000010000000000000000000000000000000000000000000000000000000000080000000000000001000000000000000000000000000000000000000000000000000200000000000000000000000000000000000000000000000000000001040000000000000000000000000000000000000000000000200000000000000000000000000000000000000000000000000000000000000000000000000000000",
      "type": "0x2",
      "transactionHash": "0x92f7c1a0e65fea06aaf4e8cbade6f07cac2c9b1190301e860a1d3841c2c6ca95",
      "transactionIndex": "0x26",
      "blockHash": "0x5c1ca2d1f9c51b89924bb95057e731e3ce2c6344fa37d50b84a6abb3f9121aba",
      "blockNumber": "0x82e747f",
      "gasUsed": "0xf6ac",
      "effectiveGasPrice": "0x14609",
      "from": "0x8835669696fb92839ab198cd80ce9f0d35f45ad5",
      "to": "0x03e2c563cf77e3cdc0b7663cee117da14ea60848",
      "contractAddress": null,
      "l1BaseFeeScalar": "0x146b",
      "l1BlobBaseFee": "0x1",
      "l1BlobBaseFeeScalar": "0xf79c5",
      "l1Fee": "0x1d0a8527f",
      "l1GasPrice": "0x26d234bf",
      "l1GasUsed": "0x8f1"
    }
  ],
  "libraries": [],
  "pending": [],
  "returns": {},
  "timestamp": 1750123191,
  "chain": 10,
  "commit": "9521aa9"
}