{
  "transactions": [
    {
      "hash": "0xfec6dbd114383a91cbbcdc9ae371123f2cc4682503596901b37a3430d20a7a7a",
      "transactionType": "CALL",
      "contractName": null,
      "contractAddress": "0x03e2c563cf77e3cdc0b7663cee117da14ea60848",
      "function": "updateBadgeMetadata(uint256,string)",
      "arguments": [
        "13",
        "ipfs/QmbvXGCWqYwbewMXPGSj7ePXCLMaqJVJ5nduUmeh2Yc4q9/00000000000000000000000000000000000000000000000000000000000000130000000000000000000000000000000000000000000000000000000000000000.json"
      ],
      "transaction": {
        "from": "0x8835669696fb92839ab198cd80ce9f0d35f45ad5",
        "to": "0x03e2c563cf77e3cdc0b7663cee117da14ea60848",
        "gas": "0x15652",
        "value": "0x0",
        "input": "0x47461b40000000000000000000000000000000000000000000000000000000000000000d000000000000000000000000000000000000000000000000000000000000004000000000000000000000000000000000000000000000000000000000000000b9697066732f516d6276584743577159776265774d585047536a37655058434c4d61714a564a356e6475556d65683259633471392f30303030303030303030303030303030303030303030303030303030303030303030303030303030303030303030303030303030303030303030303030303133303030303030303030303030303030303030303030303030303030303030303030303030303030303030303030303030303030303030303030303030303030302e6a736f6e00000000000000",
        "nonce": "0x2d8ff",
        "chainId": "0xa"
      },
      "additionalContracts": [],
      "isFixedGasLimit": false
    },
    {
      "hash": "0x729123565a4f3df17c9f01592c959a06586e17b611479940f6b631d66051c4a9",
      "transactionType": "CALL",
      "contractName": null,
      "contractAddress": "0x03e2c563cf77e3cdc0b7663cee117da14ea60848",
      "function": "updateBadgeMetadata(uint256,string)",
      "arguments": [
        "19",
        "ipfs/QmbvXGCWqYwbewMXPGSj7ePXCLMaqJVJ5nduUmeh2Yc4q9/00000000000000000000000000000000000000000000000000000000000000190000000000000000000000000000000000000000000000000000000000000000.json"
      ],
      "transaction": {
        "from": "0x8835669696fb92839ab198cd80ce9f0d35f45ad5",
        "to": "0x03e2c563cf77e3cdc0b7663cee117da14ea60848",
        "gas": "0x15652",
        "value": "0x0",
        "input": "0x47461b400000000000000000000000000000000000000000000000000000000000000013000000000000000000000000000000000000000000000000000000000000004000000000000000000000000000000000000000000000000000000000000000b9697066732f516d6276584743577159776265774d585047536a37655058434c4d61714a564a356e6475556d65683259633471392f30303030303030303030303030303030303030303030303030303030303030303030303030303030303030303030303030303030303030303030303030303139303030303030303030303030303030303030303030303030303030303030303030303030303030303030303030303030303030303030303030303030303030302e6a736f6e00000000000000",
        "nonce": "0x2d900",
        "chainId": "0xa"
      },
      "additionalContracts": [],
      "isFixedGasLimit": false
    },
    {
      "hash": "0x3f167107ea0d0b691b15032024e7144b3127ba693afd420850e466be963f0113",
      "transactionType": "CALL",
      "contractName": null,
      "contractAddress": "0x03e2c563cf77e3cdc0b7663cee117da14ea60848",
      "function": "updateBadgeTierMetadata(uint256,uint256,string)",
      "arguments": [
        "13",
        "1",
        "ipfs/QmbvXGCWqYwbewMXPGSj7ePXCLMaqJVJ5nduUmeh2Yc4q9/00000000000000000000000000000000000000000000000000000000000000130000000000000000000000000000000000000000000000000000000000000001.json"
      ],
      "transaction": {
        "from": "0x8835669696fb92839ab198cd80ce9f0d35f45ad5",
        "to": "0x03e2c563cf77e3cdc0b7663cee117da14ea60848",
        "gas": "0x154b6",
        "value": "0x0",
        "input": "0xc43e4f4c000000000000000000000000000000000000000000000000000000000000000d0000000000000000000000000000000000000000000000000000000000000001000000000000000000000000000000000000000000000000000000000000006000000000000000000000000000000000000000000000000000000000000000b9697066732f516d6276584743577159776265774d585047536a37655058434c4d61714a564a356e6475556d65683259633471392f30303030303030303030303030303030303030303030303030303030303030303030303030303030303030303030303030303030303030303030303030303133303030303030303030303030303030303030303030303030303030303030303030303030303030303030303030303030303030303030303030303030303030312e6a736f6e00000000000000",
        "nonce": "0x2d901",
        "chainId": "0xa"
      },
      "additionalContracts": [],
      "isFixedGasLimit": false
    },
    {
      "hash": "0x399b9f48470b5bdd5bef15758f3bfaa63d05e6f668936fb851b817605b8b74c6",
      "transactionType": "CALL",
      "contractName": null,
      "contractAddress": "0x03e2c563cf77e3cdc0b7663cee117da14ea60848",
      "function": "updateBadgeTierMetadata(uint256,uint256,string)",
      "arguments": [
        "19",
        "1",
        "ipfs/QmbvXGCWqYwbewMXPGSj7ePXCLMaqJVJ5nduUmeh2Yc4q9/00000000000000000000000000000000000000000000000000000000000000190000000000000000000000000000000000000000000000000000000000000001.json"
      ],
      "transaction": {
        "from": "0x8835669696fb92839ab198cd80ce9f0d35f45ad5",
        "to": "0x03e2c563cf77e3cdc0b7663cee117da14ea60848",
        "gas": "0x154b6",
        "value": "0x0",
        "input": "0xc43e4f4c00000000000000000000000000000000000000000000000000000000000000130000000000000000000000000000000000000000000000000000000000000001000000000000000000000000000000000000000000000000000000000000006000000000000000000000000000000000000000000000000000000000000000b9697066732f516d6276584743577159776265774d585047536a37655058434c4d61714a564a356e6475556d65683259633471392f30303030303030303030303030303030303030303030303030303030303030303030303030303030303030303030303030303030303030303030303030303139303030303030303030303030303030303030303030303030303030303030303030303030303030303030303030303030303030303030303030303030303030312e6a736f6e00000000000000",
        "nonce": "0x2d902",
        "chainId": "0xa"
      },
      "additionalContracts": [],
      "isFixedGasLimit": false
    },
    {
      "hash": "0x40c13d33bcbd591ba3b8ca3eb171394586ed9785b93135df9be7b352bb252a8c",
      "transactionType": "CALL",
      "contractName": null,
      "contractAddress": "0x03e2c563cf77e3cdc0b7663cee117da14ea60848",
      "function": "updateBadgeTierMetadata(uint256,uint256,string)",
      "arguments": [
        "19",
        "2",
        "ipfs/QmbvXGCWqYwbewMXPGSj7ePXCLMaqJVJ5nduUmeh2Yc4q9/00000000000000000000000000000000000000000000000000000000000000190000000000000000000000000000000000000000000000000000000000000002.json"
      ],
      "transaction": {
        "from": "0x8835669696fb92839ab198cd80ce9f0d35f45ad5",
        "to": "0x03e2c563cf77e3cdc0b7663cee117da14ea60848",
        "gas": "0x154b6",
        "value": "0x0",
        "input": "0xc43e4f4c00000000000000000000000000000000000000000000000000000000000000130000000000000000000000000000000000000000000000000000000000000002000000000000000000000000000000000000000000000000000000000000006000000000000000000000000000000000000000000000000000000000000000b9697066732f516d6276584743577159776265774d585047536a37655058434c4d61714a564a356e6475556d65683259633471392f30303030303030303030303030303030303030303030303030303030303030303030303030303030303030303030303030303030303030303030303030303139303030303030303030303030303030303030303030303030303030303030303030303030303030303030303030303030303030303030303030303030303030322e6a736f6e00000000000000",
        "nonce": "0x2d903",
        "chainId": "0xa"
      },
      "additionalContracts": [],
      "isFixedGasLimit": false
    },
    {
      "hash": "0x826821cdbb62582ec1293bf398de4b7c849f1f609b24d75c313a054be5994c72",
      "transactionType": "CALL",
      "contractName": null,
      "contractAddress": "0x03e2c563cf77e3cdc0b7663cee117da14ea60848",
      "function": "updateBadgeTierMetadata(uint256,uint256,string)",
      "arguments": [
        "19",
        "3",
        "ipfs/QmbvXGCWqYwbewMXPGSj7ePXCLMaqJVJ5nduUmeh2Yc4q9/00000000000000000000000000000000000000000000000000000000000000190000000000000000000000000000000000000000000000000000000000000003.json"
      ],
      "transaction": {
        "from": "0x8835669696fb92839ab198cd80ce9f0d35f45ad5",
        "to": "0x03e2c563cf77e3cdc0b7663cee117da14ea60848",
        "gas": "0x154b6",
        "value": "0x0",
        "input": "0xc43e4f4c00000000000000000000000000000000000000000000000000000000000000130000000000000000000000000000000000000000000000000000000000000003000000000000000000000000000000000000000000000000000000000000006000000000000000000000000000000000000000000000000000000000000000b9697066732f516d6276584743577159776265774d585047536a37655058434c4d61714a564a356e6475556d65683259633471392f30303030303030303030303030303030303030303030303030303030303030303030303030303030303030303030303030303030303030303030303030303139303030303030303030303030303030303030303030303030303030303030303030303030303030303030303030303030303030303030303030303030303030332e6a736f6e00000000000000",
        "nonce": "0x2d904",
        "chainId": "0xa"
      },
      "additionalContracts": [],
      "isFixedGasLimit": false
    },
    {
      "hash": "0xc9e0496d1e4d3e87c16f3bb974f153762e1a671f0ba44ebfddcaf6db0775b657",
      "transactionType": "CALL",
      "contractName": null,
      "contractAddress": "0x03e2c563cf77e3cdc0b7663cee117da14ea60848",
      "function": "updateBadgeTierMetadata(uint256,uint256,string)",
      "arguments": [
        "19",
        "4",
        "ipfs/QmbvXGCWqYwbewMXPGSj7ePXCLMaqJVJ5nduUmeh2Yc4q9/00000000000000000000000000000000000000000000000000000000000000190000000000000000000000000000000000000000000000000000000000000004.json"
      ],
      "transaction": {
        "from": "0x8835669696fb92839ab198cd80ce9f0d35f45ad5",
        "to": "0x03e2c563cf77e3cdc0b7663cee117da14ea60848",
        "gas": "0x154b6",
        "value": "0x0",
        "input": "0xc43e4f4c00000000000000000000000000000000000000000000000000000000000000130000000000000000000000000000000000000000000000000000000000000004000000000000000000000000000000000000000000000000000000000000006000000000000000000000000000000000000000000000000000000000000000b9697066732f516d6276584743577159776265774d585047536a37655058434c4d61714a564a356e6475556d65683259633471392f30303030303030303030303030303030303030303030303030303030303030303030303030303030303030303030303030303030303030303030303030303139303030303030303030303030303030303030303030303030303030303030303030303030303030303030303030303030303030303030303030303030303030342e6a736f6e00000000000000",
        "nonce": "0x2d905",
        "chainId": "0xa"
      },
      "additionalContracts": [],
      "isFixedGasLimit": false
    },
    {
      "hash": "0xc6a6c56381d1a0749e22319ea3ae30c0c5c6f7e92c86f6e1d71f153dadaa92a4",
      "transactionType": "CALL",
      "contractName": null,
      "contractAddress": "0x03e2c563cf77e3cdc0b7663cee117da14ea60848",
      "function": "updateBadgeTierMetadata(uint256,uint256,string)",
      "arguments": [
        "19",
        "5",
        "ipfs/QmbvXGCWqYwbewMXPGSj7ePXCLMaqJVJ5nduUmeh2Yc4q9/00000000000000000000000000000000000000000000000000000000000000190000000000000000000000000000000000000000000000000000000000000005.json"
      ],
      "transaction": {
        "from": "0x8835669696fb92839ab198cd80ce9f0d35f45ad5",
        "to": "0x03e2c563cf77e3cdc0b7663cee117da14ea60848",
        "gas": "0x154b6",
        "value": "0x0",
        "input": "0xc43e4f4c00000000000000000000000000000000000000000000000000000000000000130000000000000000000000000000000000000000000000000000000000000005000000000000000000000000000000000000000000000000000000000000006000000000000000000000000000000000000000000000000000000000000000b9697066732f516d6276584743577159776265774d585047536a37655058434c4d61714a564a356e6475556d65683259633471392f30303030303030303030303030303030303030303030303030303030303030303030303030303030303030303030303030303030303030303030303030303139303030303030303030303030303030303030303030303030303030303030303030303030303030303030303030303030303030303030303030303030303030352e6a736f6e00000000000000",
        "nonce": "0x2d906",
        "chainId": "0xa"
      },
      "additionalContracts": [],
      "isFixedGasLimit": false
    }
  ],
  "receipts": [
    {
      "status": "0x1",
      "cumulativeGasUsed": "0x65c5ce",
      "logs": [
        {
          "address": "0x03e2c563cf77e3cdc0b7663cee117da14ea60848",
          "topics": [
            "0xb810609e93b7325976c078b96d9c92d3160d0d165073b8c9a8a6a4d257fd0477",
            "0x000000000000000000000000000000000000000000000000000000000000000d"
          ],
          "data": "0x000000000000000000000000000000000000000000000000000000000000002000000000000000000000000000000000000000000000000000000000000000b9697066732f516d6276584743577159776265774d585047536a37655058434c4d61714a564a356e6475556d65683259633471392f30303030303030303030303030303030303030303030303030303030303030303030303030303030303030303030303030303030303030303030303030303133303030303030303030303030303030303030303030303030303030303030303030303030303030303030303030303030303030303030303030303030303030302e6a736f6e00000000000000",
          "blockHash": "0x2803498e9b5ecac1c16e6cfd1139d6a52bc7b2ca2ebf12ca59158d328feb9bf7",
          "blockNumber": "0x81d5af7",
          "blockTimestamp": "0x682e8fa7",
          "transactionHash": "0xfec6dbd114383a91cbbcdc9ae371123f2cc4682503596901b37a3430d20a7a7a",
          "transactionIndex": "0xf",
          "logIndex": "0x8f",
          "removed": false
        }
      ],
      "logsBloom": "0x00000000000000000040000000000000000000000000000000000000000000040000000000000000000000000000000000000000000000000000000000008000000000000000000000000000000000000002000000000000000000400000000000000000000000000000000000000000000000000000000000000000000000000000000000000000001000000000000000000000000000000000000000000000000000000000000000000000000000000000000000000000000000000000001000000000000000000000000000000000000000000000000000000020000000020000000000000000000000000000000000000000000000000000000000000000",
      "type": "0x2",
      "transactionHash": "0xfec6dbd114383a91cbbcdc9ae371123f2cc4682503596901b37a3430d20a7a7a",
      "transactionIndex": "0xf",
      "blockHash": "0x2803498e9b5ecac1c16e6cfd1139d6a52bc7b2ca2ebf12ca59158d328feb9bf7",
      "blockNumber": "0x81d5af7",
      "gasUsed": "0xea11",
      "effectiveGasPrice": "0x52b7d",
      "from": "0x8835669696fb92839ab198cd80ce9f0d35f45ad5",
      "to": "0x03e2c563cf77e3cdc0b7663cee117da14ea60848",
      "contractAddress": null,
      "l1BaseFeeScalar": "0x146b",
      "l1BlobBaseFee": "0x1",
      "l1BlobBaseFeeScalar": "0xf79c5",
      "l1Fee": "0x2b12b4c24",
      "l1GasPrice": "0x3cc68d22",
      "l1GasUsed": "0x879"
    },
    {
      "status": "0x1",
      "cumulativeGasUsed": "0x66afdf",
      "logs": [
        {
          "address": "0x03e2c563cf77e3cdc0b7663cee117da14ea60848",
          "topics": [
            "0xb810609e93b7325976c078b96d9c92d3160d0d165073b8c9a8a6a4d257fd0477",
            "0x0000000000000000000000000000000000000000000000000000000000000013"
          ],
          "data": "0x000000000000000000000000000000000000000000000000000000000000002000000000000000000000000000000000000000000000000000000000000000b9697066732f516d6276584743577159776265774d585047536a37655058434c4d61714a564a356e6475556d65683259633471392f30303030303030303030303030303030303030303030303030303030303030303030303030303030303030303030303030303030303030303030303030303139303030303030303030303030303030303030303030303030303030303030303030303030303030303030303030303030303030303030303030303030303030302e6a736f6e00000000000000",
          "blockHash": "0x2803498e9b5ecac1c16e6cfd1139d6a52bc7b2ca2ebf12ca59158d328feb9bf7",
          "blockNumber": "0x81d5af7",
          "blockTimestamp": "0x682e8fa7",
          "transactionHash": "0x729123565a4f3df17c9f01592c959a06586e17b611479940f6b631d66051c4a9",
          "transactionIndex": "0x10",
          "logIndex": "0x90",
          "removed": false
        }
      ],
      "logsBloom": "0x20000000000000000000000000800000000000000000000000000000000000040000000040000000000000000000000000000000000000000000000000008000000000000000000000000000000000000000000000000000000000400000000000000000000000000000000000000000000000000000000000000000000000000000000000000000001000000000000000000000000000000000000000000000000000000000000000000000000000000000000000000000000000000000001000000000000000000000000000000000000000000000000000000020000000000000000000000000000000000000000000000000000000000000000000000000",
      "type": "0x2",
      "transactionHash": "0x729123565a4f3df17c9f01592c959a06586e17b611479940f6b631d66051c4a9",
      "transactionIndex": "0x10",
      "blockHash": "0x2803498e9b5ecac1c16e6cfd1139d6a52bc7b2ca2ebf12ca59158d328feb9bf7",
      "blockNumber": "0x81d5af7",
      "gasUsed": "0xea11",
      "effectiveGasPrice": "0x52b7d",
      "from": "0x8835669696fb92839ab198cd80ce9f0d35f45ad5",
      "to": "0x03e2c563cf77e3cdc0b7663cee117da14ea60848",
      "contractAddress": null,
      "l1BaseFeeScalar": "0x146b",
      "l1BlobBaseFee": "0x1",
      "l1BlobBaseFeeScalar": "0xf79c5",
      "l1Fee": "0x2b12b4c24",
      "l1GasPrice": "0x3cc68d22",
      "l1GasUsed": "0x879"
    },
    {
      "status": "0x1",
      "cumulativeGasUsed": "0x67a68b",
      "logs": [
        {
          "address": "0x03e2c563cf77e3cdc0b7663cee117da14ea60848",
          "topics": [
            "0x3e442b5d5a6ecd8c0a86017cabd5ee0efbf32debbee58f9cea68f1b8489e4193",
            "0x000000000000000000000000000000000000000000000000000000000000000d"
          ],
          "data": "0x0000000000000000000000000000000000000000000000000000000000000001000000000000000000000000000000000000000000000000000000000000004000000000000000000000000000000000000000000000000000000000000000b9697066732f516d6276584743577159776265774d585047536a37655058434c4d61714a564a356e6475556d65683259633471392f30303030303030303030303030303030303030303030303030303030303030303030303030303030303030303030303030303030303030303030303030303133303030303030303030303030303030303030303030303030303030303030303030303030303030303030303030303030303030303030303030303030303030312e6a736f6e00000000000000",
          "blockHash": "0x2803498e9b5ecac1c16e6cfd1139d6a52bc7b2ca2ebf12ca59158d328feb9bf7",
          "blockNumber": "0x81d5af7",
          "blockTimestamp": "0x682e8fa7",
          "transactionHash": "0x3f167107ea0d0b691b15032024e7144b3127ba693afd420850e466be963f0113",
          "transactionIndex": "0x11",
          "logIndex": "0x91",
          "removed": false
        }
      ],
      "logsBloom": "0x00000000000000000040000000000000000000000000000000000000000000000000000000000000000000000000000000000000000000000000000000008000000000000000000000000000000000000002000000000000000000000000000000000010000000000000000000000000000000000000000000000000000000000000000000000000001000000000000000000000000000000000000000000000000000200000000000000000000000000000000000000000000000000000001000000000000000000000000000000000000000000000000200000000000000020000000000000000000000000000000000000000000000000000000000000000",
      "type": "0x2",
      "transactionHash": "0x3f167107ea0d0b691b15032024e7144b3127ba693afd420850e466be963f0113",
      "transactionIndex": "0x11",
      "blockHash": "0x2803498e9b5ecac1c16e6cfd1139d6a52bc7b2ca2ebf12ca59158d328feb9bf7",
      "blockNumber": "0x81d5af7",
      "gasUsed": "0xf6ac",
      "effectiveGasPrice": "0x52b7d",
      "from": "0x8835669696fb92839ab198cd80ce9f0d35f45ad5",
      "to": "0x03e2c563cf77e3cdc0b7663cee117da14ea60848",
      "contractAddress": null,
      "l1BaseFeeScalar": "0x146b",
      "l1BlobBaseFee": "0x1",
      "l1BlobBaseFeeScalar": "0xf79c5",
      "l1Fee": "0x2dbafc667",
      "l1GasPrice": "0x3cc68d22",
      "l1GasUsed": "0x8ff"
    },
    {
      "status": "0x1",
      "cumulativeGasUsed": "0x689d37",
      "logs": [
        {
          "address": "0x03e2c563cf77e3cdc0b7663cee117da14ea60848",
          "topics": [
            "0x3e442b5d5a6ecd8c0a86017cabd5ee0efbf32debbee58f9cea68f1b8489e4193",
            "0x0000000000000000000000000000000000000000000000000000000000000013"
          ],
          "data": "0x0000000000000000000000000000000000000000000000000000000000000001000000000000000000000000000000000000000000000000000000000000004000000000000000000000000000000000000000000000000000000000000000b9697066732f516d6276584743577159776265774d585047536a37655058434c4d61714a564a356e6475556d65683259633471392f30303030303030303030303030303030303030303030303030303030303030303030303030303030303030303030303030303030303030303030303030303139303030303030303030303030303030303030303030303030303030303030303030303030303030303030303030303030303030303030303030303030303030312e6a736f6e00000000000000",
          "blockHash": "0x2803498e9b5ecac1c16e6cfd1139d6a52bc7b2ca2ebf12ca59158d328feb9bf7",
          "blockNumber": "0x81d5af7",
          "blockTimestamp": "0x682e8fa7",
          "transactionHash": "0x399b9f48470b5bdd5bef15758f3bfaa63d05e6f668936fb851b817605b8b74c6",
          "transactionIndex": "0x12",
          "logIndex": "0x92",
          "removed": false
        }
      ],
      "logsBloom": "0x20000000000000000000000000800000000000000000000000000000000000000000000040000000000000000000000000000000000000000000000000008000000000000000000000000000000000000000000000000000000000000000000000000010000000000000000000000000000000000000000000000000000000000000000000000000001000000000000000000000000000000000000000000000000000200000000000000000000000000000000000000000000000000000001000000000000000000000000000000000000000000000000200000000000000000000000000000000000000000000000000000000000000000000000000000000",
      "type": "0x2",
      "transactionHash": "0x399b9f48470b5bdd5bef15758f3bfaa63d05e6f668936fb851b817605b8b74c6",
      "transactionIndex": "0x12",
      "blockHash": "0x2803498e9b5ecac1c16e6cfd1139d6a52bc7b2ca2ebf12ca59158d328feb9bf7",
      "blockNumber": "0x81d5af7",
      "gasUsed": "0xf6ac",
      "effectiveGasPrice": "0x52b7d",
      "from": "0x8835669696fb92839ab198cd80ce9f0d35f45ad5",
      "to": "0x03e2c563cf77e3cdc0b7663cee117da14ea60848",
      "contractAddress": null,
      "l1BaseFeeScalar": "0x146b",
      "l1BlobBaseFee": "0x1",
      "l1BlobBaseFeeScalar": "0xf79c5",
      "l1Fee": "0x2dbafc667",
      "l1GasPrice": "0x3cc68d22",
      "l1GasUsed": "0x8ff"
    },
    {
      "status": "0x1",
      "cumulativeGasUsed": "0x6993e3",
      "logs": [
        {
          "address": "0x03e2c563cf77e3cdc0b7663cee117da14ea60848",
          "topics": [
            "0x3e442b5d5a6ecd8c0a86017cabd5ee0efbf32debbee58f9cea68f1b8489e4193",
            "0x0000000000000000000000000000000000000000000000000000000000000013"
          ],
          "data": "0x0000000000000000000000000000000000000000000000000000000000000002000000000000000000000000000000000000000000000000000000000000004000000000000000000000000000000000000000000000000000000000000000b9697066732f516d6276584743577159776265774d585047536a37655058434c4d61714a564a356e6475556d65683259633471392f30303030303030303030303030303030303030303030303030303030303030303030303030303030303030303030303030303030303030303030303030303139303030303030303030303030303030303030303030303030303030303030303030303030303030303030303030303030303030303030303030303030303030322e6a736f6e00000000000000",
          "blockHash": "0x2803498e9b5ecac1c16e6cfd1139d6a52bc7b2ca2ebf12ca59158d328feb9bf7",
          "blockNumber": "0x81d5af7",
          "blockTimestamp": "0x682e8fa7",
          "transactionHash": "0x40c13d33bcbd591ba3b8ca3eb171394586ed9785b93135df9be7b352bb252a8c",
          "transactionIndex": "0x13",
          "logIndex": "0x93",
          "removed": false
        }
      ],
      "logsBloom": "0x20000000000000000000000000800000000000000000000000000000000000000000000040000000000000000000000000000000000000000000000000008000000000000000000000000000000000000000000000000000000000000000000000000010000000000000000000000000000000000000000000000000000000000000000000000000001000000000000000000000000000000000000000000000000000200000000000000000000000000000000000000000000000000000001000000000000000000000000000000000000000000000000200000000000000000000000000000000000000000000000000000000000000000000000000000000",
      "type": "0x2",
      "transactionHash": "0x40c13d33bcbd591ba3b8ca3eb171394586ed9785b93135df9be7b352bb252a8c",
      "transactionIndex": "0x13",
      "blockHash": "0x2803498e9b5ecac1c16e6cfd1139d6a52bc7b2ca2ebf12ca59158d328feb9bf7",
      "blockNumber": "0x81d5af7",
      "gasUsed": "0xf6ac",
      "effectiveGasPrice": "0x52b7d",
      "from": "0x8835669696fb92839ab198cd80ce9f0d35f45ad5",
      "to": "0x03e2c563cf77e3cdc0b7663cee117da14ea60848",
      "contractAddress": null,
      "l1BaseFeeScalar": "0x146b",
      "l1BlobBaseFee": "0x1",
      "l1BlobBaseFeeScalar": "0xf79c5",
      "l1Fee": "0x2dff03907",
      "l1GasPrice": "0x3cc68d22",
      "l1GasUsed": "0x90c"
    },
    {
      "status": "0x1",
      "cumulativeGasUsed": "0x6a8a8f",
      "logs": [
        {
          "address": "0x03e2c563cf77e3cdc0b7663cee117da14ea60848",
          "topics": [
            "0x3e442b5d5a6ecd8c0a86017cabd5ee0efbf32debbee58f9cea68f1b8489e4193",
            "0x0000000000000000000000000000000000000000000000000000000000000013"
          ],
          "data": "0x0000000000000000000000000000000000000000000000000000000000000003000000000000000000000000000000000000000000000000000000000000004000000000000000000000000000000000000000000000000000000000000000b9697066732f516d6276584743577159776265774d585047536a37655058434c4d61714a564a356e6475556d65683259633471392f30303030303030303030303030303030303030303030303030303030303030303030303030303030303030303030303030303030303030303030303030303139303030303030303030303030303030303030303030303030303030303030303030303030303030303030303030303030303030303030303030303030303030332e6a736f6e00000000000000",
          "blockHash": "0x2803498e9b5ecac1c16e6cfd1139d6a52bc7b2ca2ebf12ca59158d328feb9bf7",
          "blockNumber": "0x81d5af7",
          "blockTimestamp": "0x682e8fa7",
          "transactionHash": "0x826821cdbb62582ec1293bf398de4b7c849f1f609b24d75c313a054be5994c72",
          "transactionIndex": "0x14",
          "logIndex": "0x94",
          "removed": false
        }
      ],
      "logsBloom": "0x20000000000000000000000000800000000000000000000000000000000000000000000040000000000000000000000000000000000000000000000000008000000000000000000000000000000000000000000000000000000000000000000000000010000000000000000000000000000000000000000000000000000000000000000000000000001000000000000000000000000000000000000000000000000000200000000000000000000000000000000000000000000000000000001000000000000000000000000000000000000000000000000200000000000000000000000000000000000000000000000000000000000000000000000000000000",
      "type": "0x2",
      "transactionHash": "0x826821cdbb62582ec1293bf398de4b7c849f1f609b24d75c313a054be5994c72",
      "transactionIndex": "0x14",
      "blockHash": "0x2803498e9b5ecac1c16e6cfd1139d6a52bc7b2ca2ebf12ca59158d328feb9bf7",
      "blockNumber": "0x81d5af7",
      "gasUsed": "0xf6ac",
      "effectiveGasPrice": "0x52b7d",
      "from": "0x8835669696fb92839ab198cd80ce9f0d35f45ad5",
      "to": "0x03e2c563cf77e3cdc0b7663cee117da14ea60848",
      "contractAddress": null,
      "l1BaseFeeScalar": "0x146b",
      "l1BlobBaseFee": "0x1",
      "l1BlobBaseFeeScalar": "0xf79c5",
      "l1Fee": "0x2dff03907",
      "l1GasPrice": "0x3cc68d22",
      "l1GasUsed": "0x90c"
    },
    {
      "status": "0x1",
      "cumulativeGasUsed": "0x6b813b",
      "logs": [
        {
          "address": "0x03e2c563cf77e3cdc0b7663cee117da14ea60848",
          "topics": [
            "0x3e442b5d5a6ecd8c0a86017cabd5ee0efbf32debbee58f9cea68f1b8489e4193",
            "0x0000000000000000000000000000000000000000000000000000000000000013"
          ],
          "data": "0x0000000000000000000000000000000000000000000000000000000000000004000000000000000000000000000000000000000000000000000000000000004000000000000000000000000000000000000000000000000000000000000000b9697066732f516d6276584743577159776265774d585047536a37655058434c4d61714a564a356e6475556d65683259633471392f30303030303030303030303030303030303030303030303030303030303030303030303030303030303030303030303030303030303030303030303030303139303030303030303030303030303030303030303030303030303030303030303030303030303030303030303030303030303030303030303030303030303030342e6a736f6e00000000000000",
          "blockHash": "0x2803498e9b5ecac1c16e6cfd1139d6a52bc7b2ca2ebf12ca59158d328feb9bf7",
          "blockNumber": "0x81d5af7",
          "blockTimestamp": "0x682e8fa7",
          "transactionHash": "0xc9e0496d1e4d3e87c16f3bb974f153762e1a671f0ba44ebfddcaf6db0775b657",
          "transactionIndex": "0x15",
          "logIndex": "0x95",
          "removed": false
        }
      ],
      "logsBloom": "0x20000000000000000000000000800000000000000000000000000000000000000000000040000000000000000000000000000000000000000000000000008000000000000000000000000000000000000000000000000000000000000000000000000010000000000000000000000000000000000000000000000000000000000000000000000000001000000000000000000000000000000000000000000000000000200000000000000000000000000000000000000000000000000000001000000000000000000000000000000000000000000000000200000000000000000000000000000000000000000000000000000000000000000000000000000000",
      "type": "0x2",
      "transactionHash": "0xc9e0496d1e4d3e87c16f3bb974f153762e1a671f0ba44ebfddcaf6db0775b657",
      "transactionIndex": "0x15",
      "blockHash": "0x2803498e9b5ecac1c16e6cfd1139d6a52bc7b2ca2ebf12ca59158d328feb9bf7",
      "blockNumber": "0x81d5af7",
      "gasUsed": "0xf6ac",
      "effectiveGasPrice": "0x52b7d",
      "from": "0x8835669696fb92839ab198cd80ce9f0d35f45ad5",
      "to": "0x03e2c563cf77e3cdc0b7663cee117da14ea60848",
      "contractAddress": null,
      "l1BaseFeeScalar": "0x146b",
      "l1BlobBaseFee": "0x1",
      "l1BlobBaseFeeScalar": "0xf79c5",
      "l1Fee": "0x2dff03907",
      "l1GasPrice": "0x3cc68d22",
      "l1GasUsed": "0x90c"
    },
    {
      "status": "0x1",
      "cumulativeGasUsed": "0x6c77e7",
      "logs": [
        {
          "address": "0x03e2c563cf77e3cdc0b7663cee117da14ea60848",
          "topics": [
            "0x3e442b5d5a6ecd8c0a86017cabd5ee0efbf32debbee58f9cea68f1b8489e4193",
            "0x0000000000000000000000000000000000000000000000000000000000000013"
          ],
          "data": "0x0000000000000000000000000000000000000000000000000000000000000005000000000000000000000000000000000000000000000000000000000000004000000000000000000000000000000000000000000000000000000000000000b9697066732f516d6276584743577159776265774d585047536a37655058434c4d61714a564a356e6475556d65683259633471392f30303030303030303030303030303030303030303030303030303030303030303030303030303030303030303030303030303030303030303030303030303139303030303030303030303030303030303030303030303030303030303030303030303030303030303030303030303030303030303030303030303030303030352e6a736f6e00000000000000",
          "blockHash": "0x2803498e9b5ecac1c16e6cfd1139d6a52bc7b2ca2ebf12ca59158d328feb9bf7",
          "blockNumber": "0x81d5af7",
          "blockTimestamp": "0x682e8fa7",
          "transactionHash": "0xc6a6c56381d1a0749e22319ea3ae30c0c5c6f7e92c86f6e1d71f153dadaa92a4",
          "transactionIndex": "0x16",
          "logIndex": "0x96",
          "removed": false
        }
      ],
      "logsBloom": "0x20000000000000000000000000800000000000000000000000000000000000000000000040000000000000000000000000000000000000000000000000008000000000000000000000000000000000000000000000000000000000000000000000000010000000000000000000000000000000000000000000000000000000000000000000000000001000000000000000000000000000000000000000000000000000200000000000000000000000000000000000000000000000000000001000000000000000000000000000000000000000000000000200000000000000000000000000000000000000000000000000000000000000000000000000000000",
      "type": "0x2",
      "transactionHash": "0xc6a6c56381d1a0749e22319ea3ae30c0c5c6f7e92c86f6e1d71f153dadaa92a4",
      "transactionIndex": "0x16",
      "blockHash": "0x2803498e9b5ecac1c16e6cfd1139d6a52bc7b2ca2ebf12ca59158d328feb9bf7",
      "blockNumber": "0x81d5af7",
      "gasUsed": "0xf6ac",
      "effectiveGasPrice": "0x52b7d",
      "from": "0x8835669696fb92839ab198cd80ce9f0d35f45ad5",
      "to": "0x03e2c563cf77e3cdc0b7663cee117da14ea60848",
      "contractAddress": null,
      "l1BaseFeeScalar": "0x146b",
      "l1BlobBaseFee": "0x1",
      "l1BlobBaseFeeScalar": "0xf79c5",
      "l1Fee": "0x2dff03907",
      "l1GasPrice": "0x3cc68d22",
      "l1GasUsed": "0x90c"
    }
  ],
  "libraries": [],
  "pending": [],
  "returns": {},
  "timestamp": 1747881894,
  "chain": 10,
  "commit": "29eb473"
}