{
  "transactions": [
    {
      "hash": "0x28fb60d8db64440aa500a0520184369379530727aff172d5b06c9bf01ad69700",
      "transactionType": "CALL",
      "contractName": null,
      "contractAddress": "0xbc24012488bfcfe44875a139299595879c43c2cd",
      "function": "setBadgeMetadata(uint256,string)",
      "arguments": [
        "20",
        "ipfs/QmSc2G6ozeiotUVtpzDeXUF6FrK5R31R5kESHLVfn5B9o8/00000000000000000000000000000000000000000000000000000000000000200000000000000000000000000000000000000000000000000000000000000000.json"
      ],
      "transaction": {
        "from": "0x8835669696fb92839ab198cd80ce9f0d35f45ad5",
        "to": "0xbc24012488bfcfe44875a139299595879c43c2cd",
        "gas": "0x41338",
        "value": "0x0",
        "input": "0xce64b45f0000000000000000000000000000000000000000000000000000000000000014000000000000000000000000000000000000000000000000000000000000004000000000000000000000000000000000000000000000000000000000000000b9697066732f516d53633247366f7a65696f74555674707a44655855463646724b3552333152356b4553484c56666e3542396f382f30303030303030303030303030303030303030303030303030303030303030303030303030303030303030303030303030303030303030303030303030303230303030303030303030303030303030303030303030303030303030303030303030303030303030303030303030303030303030303030303030303030303030302e6a736f6e00000000000000",
        "nonce": "0x36380",
        "chainId": "0xa"
      },
      "additionalContracts": [],
      "isFixedGasLimit": false
    },
    {
      "hash": "0xf2e4019d004e82bd971a53e3e7c21b07880104d26462142cc2ca48e24c6ee434",
      "transactionType": "CALL",
      "contractName": null,
      "contractAddress": "0xbc24012488bfcfe44875a139299595879c43c2cd",
      "function": "setBadgeMetadata(uint256,string)",
      "arguments": [
        "21",
        "ipfs/QmSc2G6ozeiotUVtpzDeXUF6FrK5R31R5kESHLVfn5B9o8/00000000000000000000000000000000000000000000000000000000000000210000000000000000000000000000000000000000000000000000000000000000.json"
      ],
      "transaction": {
        "from": "0x8835669696fb92839ab198cd80ce9f0d35f45ad5",
        "to": "0xbc24012488bfcfe44875a139299595879c43c2cd",
        "gas": "0x41338",
        "value": "0x0",
        "input": "0xce64b45f0000000000000000000000000000000000000000000000000000000000000015000000000000000000000000000000000000000000000000000000000000004000000000000000000000000000000000000000000000000000000000000000b9697066732f516d53633247366f7a65696f74555674707a44655855463646724b3552333152356b4553484c56666e3542396f382f30303030303030303030303030303030303030303030303030303030303030303030303030303030303030303030303030303030303030303030303030303231303030303030303030303030303030303030303030303030303030303030303030303030303030303030303030303030303030303030303030303030303030302e6a736f6e00000000000000",
        "nonce": "0x36381",
        "chainId": "0xa"
      },
      "additionalContracts": [],
      "isFixedGasLimit": false
    },
    {
      "hash": "0x7b3c011e26cb196da9bc23ccde9c9139f585a225544641d9e5ca0da73dc595bc",
      "transactionType": "CALL",
      "contractName": null,
      "contractAddress": "0xbc24012488bfcfe44875a139299595879c43c2cd",
      "function": "setBadgeTier(uint256,uint256,string,uint256)",
      "arguments": [
        "20",
        "1",
        "ipfs/QmSc2G6ozeiotUVtpzDeXUF6FrK5R31R5kESHLVfn5B9o8/00000000000000000000000000000000000000000000000000000000000000200000000000000000000000000000000000000000000000000000000000000001.json",
        "10"
      ],
      "transaction": {
        "from": "0x8835669696fb92839ab198cd80ce9f0d35f45ad5",
        "to": "0xbc24012488bfcfe44875a139299595879c43c2cd",
        "gas": "0x51905",
        "value": "0x0",
        "input": "0xcf132d1c000000000000000000000000000000000000000000000000000000000000001400000000000000000000000000000000000000000000000000000000000000010000000000000000000000000000000000000000000000000000000000000080000000000000000000000000000000000000000000000000000000000000000a00000000000000000000000000000000000000000000000000000000000000b9697066732f516d53633247366f7a65696f74555674707a44655855463646724b3552333152356b4553484c56666e3542396f382f30303030303030303030303030303030303030303030303030303030303030303030303030303030303030303030303030303030303030303030303030303230303030303030303030303030303030303030303030303030303030303030303030303030303030303030303030303030303030303030303030303030303030312e6a736f6e00000000000000",
        "nonce": "0x36382",
        "chainId": "0xa"
      },
      "additionalContracts": [],
      "isFixedGasLimit": false
    },
    {
      "hash": "0x164d1b9891d099e8e272ebf669c56781a944b5b04db95c9480955da50de3aecf",
      "transactionType": "CALL",
      "contractName": null,
      "contractAddress": "0xbc24012488bfcfe44875a139299595879c43c2cd",
      "function": "setBadgeTier(uint256,uint256,string,uint256)",
      "arguments": [
        "20",
        "2",
        "ipfs/QmSc2G6ozeiotUVtpzDeXUF6FrK5R31R5kESHLVfn5B9o8/00000000000000000000000000000000000000000000000000000000000000200000000000000000000000000000000000000000000000000000000000000002.json",
        "20"
      ],
      "transaction": {
        "from": "0x8835669696fb92839ab198cd80ce9f0d35f45ad5",
        "to": "0xbc24012488bfcfe44875a139299595879c43c2cd",
        "gas": "0x51240",
        "value": "0x0",
        "input": "0xcf132d1c000000000000000000000000000000000000000000000000000000000000001400000000000000000000000000000000000000000000000000000000000000020000000000000000000000000000000000000000000000000000000000000080000000000000000000000000000000000000000000000000000000000000001400000000000000000000000000000000000000000000000000000000000000b9697066732f516d53633247366f7a65696f74555674707a44655855463646724b3552333152356b4553484c56666e3542396f382f30303030303030303030303030303030303030303030303030303030303030303030303030303030303030303030303030303030303030303030303030303230303030303030303030303030303030303030303030303030303030303030303030303030303030303030303030303030303030303030303030303030303030322e6a736f6e00000000000000",
        "nonce": "0x36383",
        "chainId": "0xa"
      },
      "additionalContracts": [],
      "isFixedGasLimit": false
    },
    {
      "hash": "0xefc9bf3885e10286915ca47f616c6ddf6f8822baed63debd049578dc83ba92f4",
      "transactionType": "CALL",
      "contractName": null,
      "contractAddress": "0xbc24012488bfcfe44875a139299595879c43c2cd",
      "function": "setBadgeTier(uint256,uint256,string,uint256)",
      "arguments": [
        "20",
        "3",
        "ipfs/QmSc2G6ozeiotUVtpzDeXUF6FrK5R31R5kESHLVfn5B9o8/00000000000000000000000000000000000000000000000000000000000000200000000000000000000000000000000000000000000000000000000000000003.json",
        "30"
      ],
      "transaction": {
        "from": "0x8835669696fb92839ab198cd80ce9f0d35f45ad5",
        "to": "0xbc24012488bfcfe44875a139299595879c43c2cd",
        "gas": "0x51240",
        "value": "0x0",
        "input": "0xcf132d1c000000000000000000000000000000000000000000000000000000000000001400000000000000000000000000000000000000000000000000000000000000030000000000000000000000000000000000000000000000000000000000000080000000000000000000000000000000000000000000000000000000000000001e00000000000000000000000000000000000000000000000000000000000000b9697066732f516d53633247366f7a65696f74555674707a44655855463646724b3552333152356b4553484c56666e3542396f382f30303030303030303030303030303030303030303030303030303030303030303030303030303030303030303030303030303030303030303030303030303230303030303030303030303030303030303030303030303030303030303030303030303030303030303030303030303030303030303030303030303030303030332e6a736f6e00000000000000",
        "nonce": "0x36384",
        "chainId": "0xa"
      },
      "additionalContracts": [],
      "isFixedGasLimit": false
    },
    {
      "hash": "0x6b03312d355c8c1009bfb90fc22f80e97cc6e87a97708ddc6b2af3bd6856270f",
      "transactionType": "CALL",
      "contractName": null,
      "contractAddress": "0xbc24012488bfcfe44875a139299595879c43c2cd",
      "function": "setBadgeTier(uint256,uint256,string,uint256)",
      "arguments": [
        "21",
        "1",
        "ipfs/QmSc2G6ozeiotUVtpzDeXUF6FrK5R31R5kESHLVfn5B9o8/00000000000000000000000000000000000000000000000000000000000000210000000000000000000000000000000000000000000000000000000000000001.json",
        "10"
      ],
      "transaction": {
        "from": "0x8835669696fb92839ab198cd80ce9f0d35f45ad5",
        "to": "0xbc24012488bfcfe44875a139299595879c43c2cd",
        "gas": "0x51905",
        "value": "0x0",
        "input": "0xcf132d1c000000000000000000000000000000000000000000000000000000000000001500000000000000000000000000000000000000000000000000000000000000010000000000000000000000000000000000000000000000000000000000000080000000000000000000000000000000000000000000000000000000000000000a00000000000000000000000000000000000000000000000000000000000000b9697066732f516d53633247366f7a65696f74555674707a44655855463646724b3552333152356b4553484c56666e3542396f382f30303030303030303030303030303030303030303030303030303030303030303030303030303030303030303030303030303030303030303030303030303231303030303030303030303030303030303030303030303030303030303030303030303030303030303030303030303030303030303030303030303030303030312e6a736f6e00000000000000",
        "nonce": "0x36385",
        "chainId": "0xa"
      },
      "additionalContracts": [],
      "isFixedGasLimit": false
    },
    {
      "hash": "0x4d8f75bd41ceb7c15530cc3f4f78187389eef0f7c1de8ff2aeb0bf5f725a1d02",
      "transactionType": "CALL",
      "contractName": null,
      "contractAddress": "0xbc24012488bfcfe44875a139299595879c43c2cd",
      "function": "setBadgeTier(uint256,uint256,string,uint256)",
      "arguments": [
        "21",
        "2",
        "ipfs/QmSc2G6ozeiotUVtpzDeXUF6FrK5R31R5kESHLVfn5B9o8/00000000000000000000000000000000000000000000000000000000000000210000000000000000000000000000000000000000000000000000000000000002.json",
        "20"
      ],
      "transaction": {
        "from": "0x8835669696fb92839ab198cd80ce9f0d35f45ad5",
        "to": "0xbc24012488bfcfe44875a139299595879c43c2cd",
        "gas": "0x51240",
        "value": "0x0",
        "input": "0xcf132d1c000000000000000000000000000000000000000000000000000000000000001500000000000000000000000000000000000000000000000000000000000000020000000000000000000000000000000000000000000000000000000000000080000000000000000000000000000000000000000000000000000000000000001400000000000000000000000000000000000000000000000000000000000000b9697066732f516d53633247366f7a65696f74555674707a44655855463646724b3552333152356b4553484c56666e3542396f382f30303030303030303030303030303030303030303030303030303030303030303030303030303030303030303030303030303030303030303030303030303231303030303030303030303030303030303030303030303030303030303030303030303030303030303030303030303030303030303030303030303030303030322e6a736f6e00000000000000",
        "nonce": "0x36386",
        "chainId": "0xa"
      },
      "additionalContracts": [],
      "isFixedGasLimit": false
    },
    {
      "hash": "0x5aa29e3c15f940e4ae0ad12e0fdb40a4fd98332f6e229e3c83853b8c6b922ef5",
      "transactionType": "CALL",
      "contractName": null,
      "contractAddress": "0xbc24012488bfcfe44875a139299595879c43c2cd",
      "function": "setBadgeTier(uint256,uint256,string,uint256)",
      "arguments": [
        "21",
        "3",
        "ipfs/QmSc2G6ozeiotUVtpzDeXUF6FrK5R31R5kESHLVfn5B9o8/00000000000000000000000000000000000000000000000000000000000000210000000000000000000000000000000000000000000000000000000000000003.json",
        "30"
      ],
      "transaction": {
        "from": "0x8835669696fb92839ab198cd80ce9f0d35f45ad5",
        "to": "0xbc24012488bfcfe44875a139299595879c43c2cd",
        "gas": "0x51240",
        "value": "0x0",
        "input": "0xcf132d1c000000000000000000000000000000000000000000000000000000000000001500000000000000000000000000000000000000000000000000000000000000030000000000000000000000000000000000000000000000000000000000000080000000000000000000000000000000000000000000000000000000000000001e00000000000000000000000000000000000000000000000000000000000000b9697066732f516d53633247366f7a65696f74555674707a44655855463646724b3552333152356b4553484c56666e3542396f382f30303030303030303030303030303030303030303030303030303030303030303030303030303030303030303030303030303030303030303030303030303231303030303030303030303030303030303030303030303030303030303030303030303030303030303030303030303030303030303030303030303030303030332e6a736f6e00000000000000",
        "nonce": "0x36387",
        "chainId": "0xa"
      },
      "additionalContracts": [],
      "isFixedGasLimit": false
    }
  ],
  "receipts": [
    {
      "status": "0x1",
      "cumulativeGasUsed": "0x7f9381",
      "logs": [
        {
          "address": "0xbc24012488bfcfe44875a139299595879c43c2cd",
          "topics": [
            "0x2e5977e12fac9a91696e22ba811f2893e11ad62f8aa53e99a628b031d18a379f",
            "0x0000000000000000000000000000000000000000000000000000000000000014"
          ],
          "data": "0x000000000000000000000000000000000000000000000000000000000000002000000000000000000000000000000000000000000000000000000000000000b9697066732f516d53633247366f7a65696f74555674707a44655855463646724b3552333152356b4553484c56666e3542396f382f30303030303030303030303030303030303030303030303030303030303030303030303030303030303030303030303030303030303030303030303030303230303030303030303030303030303030303030303030303030303030303030303030303030303030303030303030303030303030303030303030303030303030302e6a736f6e00000000000000",
          "blockHash": "0xebc6ebb53c6d0bb3ed02b41cb785c60d1fad1a37ceda4469c5afe68a688fdd3e",
          "blockNumber": "0x829ddda",
          "blockTimestamp": "0x6847956d",
          "transactionHash": "0x28fb60d8db64440aa500a0520184369379530727aff172d5b06c9bf01ad69700",
          "transactionIndex": "0x16",
          "logIndex": "0x1d1",
          "removed": false
        }
      ],
      "logsBloom": "0x00000000040000000200000000000000000000000000000000000000000000000000000000000000000000000000000000002000000000000000000000000000000000000000000000000000000000000000000000000000000000000000000000000000000000000000000000000000000000000000000000000000000004000000000000000000000000000000000000000000000400000000000000000000000000000000000020000000000000000000000000000100000000000000000000000000000000000000000000000000000000000000000000004000400000000000000000000000000000000000000000000000000000000000000000000000",
      "type": "0x2",
      "transactionHash": "0x28fb60d8db64440aa500a0520184369379530727aff172d5b06c9bf01ad69700",
      "transactionIndex": "0x16",
      "blockHash": "0xebc6ebb53c6d0bb3ed02b41cb785c60d1fad1a37ceda4469c5afe68a688fdd3e",
      "blockNumber": "0x829ddda",
      "gasUsed": "0x2f346",
      "effectiveGasPrice": "0x2cd",
      "from": "0x8835669696fb92839ab198cd80ce9f0d35f45ad5",
      "to": "0xbc24012488bfcfe44875a139299595879c43c2cd",
      "contractAddress": null,
      "l1BaseFeeScalar": "0x146b",
      "l1BlobBaseFee": "0x1",
      "l1BlobBaseFeeScalar": "0xf79c5",
      "l1Fee": "0x69f519648",
      "l1GasPrice": "0x9852eab7",
      "l1GasUsed": "0x851"
    },
    {
      "status": "0x1",
      "cumulativeGasUsed": "0x8286c7",
      "logs": [
        {
          "address": "0xbc24012488bfcfe44875a139299595879c43c2cd",
          "topics": [
            "0x2e5977e12fac9a91696e22ba811f2893e11ad62f8aa53e99a628b031d18a379f",
            "0x0000000000000000000000000000000000000000000000000000000000000015"
          ],
          "data": "0x000000000000000000000000000000000000000000000000000000000000002000000000000000000000000000000000000000000000000000000000000000b9697066732f516d53633247366f7a65696f74555674707a44655855463646724b3552333152356b4553484c56666e3542396f382f30303030303030303030303030303030303030303030303030303030303030303030303030303030303030303030303030303030303030303030303030303231303030303030303030303030303030303030303030303030303030303030303030303030303030303030303030303030303030303030303030303030303030302e6a736f6e00000000000000",
          "blockHash": "0xebc6ebb53c6d0bb3ed02b41cb785c60d1fad1a37ceda4469c5afe68a688fdd3e",
          "blockNumber": "0x829ddda",
          "blockTimestamp": "0x6847956d",
          "transactionHash": "0xf2e4019d004e82bd971a53e3e7c21b07880104d26462142cc2ca48e24c6ee434",
          "transactionIndex": "0x17",
          "logIndex": "0x1d2",
          "removed": false
        }
      ],
      "logsBloom": "0x00000000040000000200000000000000000000000000000000000000000000000000000000000000000000000000000000000000000000000000000000000000001000000000000000000000000000000000000000000000000000000000000000000000000000000000000000000000000000000000000000000000000004000000000000000000000000000000000000000000000000000000000000000000000000000000000000000000010000000000000000000100000000000000000000000000000000000000000000000000000000000000000000004000400000002000000000000000000000000000000000000000000000000000000000000000",
      "type": "0x2",
      "transactionHash": "0xf2e4019d004e82bd971a53e3e7c21b07880104d26462142cc2ca48e24c6ee434",
      "transactionIndex": "0x17",
      "blockHash": "0xebc6ebb53c6d0bb3ed02b41cb785c60d1fad1a37ceda4469c5afe68a688fdd3e",
      "blockNumber": "0x829ddda",
      "gasUsed": "0x2f346",
      "effectiveGasPrice": "0x2cd",
      "from": "0x8835669696fb92839ab198cd80ce9f0d35f45ad5",
      "to": "0xbc24012488bfcfe44875a139299595879c43c2cd",
      "contractAddress": null,
      "l1BaseFeeScalar": "0x146b",
      "l1BlobBaseFee": "0x1",
      "l1BlobBaseFeeScalar": "0xf79c5",
      "l1Fee": "0x6a9f99999",
      "l1GasPrice": "0x9852eab7",
      "l1GasUsed": "0x85e"
    },
    {
      "status": "0x1",
      "cumulativeGasUsed": "0x863797",
      "logs": [
        {
          "address": "0xbc24012488bfcfe44875a139299595879c43c2cd",
          "topics": [
            "0x5625f15df4cbadf2e6e3f80e2406aec5d99a432335ef0e9a1fba9e48b0558303",
            "0x0000000000000000000000000000000000000000000000000000000000000014"
          ],
          "data": "0x00000000000000000000000000000000000000000000000000000000000000010000000000000000000000000000000000000000000000000000000000000060000000000000000000000000000000000000000000000000000000000000000a00000000000000000000000000000000000000000000000000000000000000b9697066732f516d53633247366f7a65696f74555674707a44655855463646724b3552333152356b4553484c56666e3542396f382f30303030303030303030303030303030303030303030303030303030303030303030303030303030303030303030303030303030303030303030303030303230303030303030303030303030303030303030303030303030303030303030303030303030303030303030303030303030303030303030303030303030303030312e6a736f6e00000000000000",
          "blockHash": "0xebc6ebb53c6d0bb3ed02b41cb785c60d1fad1a37ceda4469c5afe68a688fdd3e",
          "blockNumber": "0x829ddda",
          "blockTimestamp": "0x6847956d",
          "transactionHash": "0x7b3c011e26cb196da9bc23ccde9c9139f585a225544641d9e5ca0da73dc595bc",
          "transactionIndex": "0x18",
          "logIndex": "0x1d3",
          "removed": false
        }
      ],
      "logsBloom": "0x00000000040000000200000000000000000000000000000000000000000000000000000000000000000000000000000000002000000000000000000000000000000000000000000000000000000000000000000000000000000000000000000000040000000000000000000000000000000000000000000000000000000000000000000000000000000000000000000000000000000400000000000000000000000000000000000020000000000000000000000000000000000000000000000000000000000000000000004000000000000000000000000000004000000000000000000000000000000000000000000000000000010000000000000000000000",
      "type": "0x2",
      "transactionHash": "0x7b3c011e26cb196da9bc23ccde9c9139f585a225544641d9e5ca0da73dc595bc",
      "transactionIndex": "0x18",
      "blockHash": "0xebc6ebb53c6d0bb3ed02b41cb785c60d1fad1a37ceda4469c5afe68a688fdd3e",
      "blockNumber": "0x829ddda",
      "gasUsed": "0x3b0d0",
      "effectiveGasPrice": "0x2cd",
      "from": "0x8835669696fb92839ab198cd80ce9f0d35f45ad5",
      "to": "0xbc24012488bfcfe44875a139299595879c43c2cd",
      "contractAddress": null,
      "l1BaseFeeScalar": "0x146b",
      "l1BlobBaseFee": "0x1",
      "l1BlobBaseFeeScalar": "0xf79c5",
      "l1Fee": "0x73f29c80a",
      "l1GasPrice": "0x9852eab7",
      "l1GasUsed": "0x91a"
    },
    {
      "status": "0x1",
      "cumulativeGasUsed": "0x89af49",
      "logs": [
        {
          "address": "0xbc24012488bfcfe44875a139299595879c43c2cd",
          "topics": [
            "0x5625f15df4cbadf2e6e3f80e2406aec5d99a432335ef0e9a1fba9e48b0558303",
            "0x0000000000000000000000000000000000000000000000000000000000000014"
          ],
          "data": "0x00000000000000000000000000000000000000000000000000000000000000020000000000000000000000000000000000000000000000000000000000000060000000000000000000000000000000000000000000000000000000000000001400000000000000000000000000000000000000000000000000000000000000b9697066732f516d53633247366f7a65696f74555674707a44655855463646724b3552333152356b4553484c56666e3542396f382f30303030303030303030303030303030303030303030303030303030303030303030303030303030303030303030303030303030303030303030303030303230303030303030303030303030303030303030303030303030303030303030303030303030303030303030303030303030303030303030303030303030303030322e6a736f6e00000000000000",
          "blockHash": "0xebc6ebb53c6d0bb3ed02b41cb785c60d1fad1a37ceda4469c5afe68a688fdd3e",
          "blockNumber": "0x829ddda",
          "blockTimestamp": "0x6847956d",
          "transactionHash": "0x164d1b9891d099e8e272ebf669c56781a944b5b04db95c9480955da50de3aecf",
          "transactionIndex": "0x19",
          "logIndex": "0x1d4",
          "removed": false
        }
      ],
      "logsBloom": "0x00000000040000000200000000000000000000000000000000000000000000000000000000000000000000000000000000002000000000000000000000000000000000000000000000000000000000000000000000000000000000000000000000040000000000000000000000000000000000000000000000000000000000000000000000000000000000000000000000000000000400000000000000000000000000000000000020000000000000000000000000000000000000000000000000000000000000000000004000000000000000000000000000004000000000000000000000000000000000000000000000000000010000000000000000000000",
      "type": "0x2",
      "transactionHash": "0x164d1b9891d099e8e272ebf669c56781a944b5b04db95c9480955da50de3aecf",
      "transactionIndex": "0x19",
      "blockHash": "0xebc6ebb53c6d0bb3ed02b41cb785c60d1fad1a37ceda4469c5afe68a688fdd3e",
      "blockNumber": "0x829ddda",
      "gasUsed": "0x377b2",
      "effectiveGasPrice": "0x2cd",
      "from": "0x8835669696fb92839ab198cd80ce9f0d35f45ad5",
      "to": "0xbc24012488bfcfe44875a139299595879c43c2cd",
      "contractAddress": null,
      "l1BaseFeeScalar": "0x146b",
      "l1BlobBaseFee": "0x1",
      "l1BlobBaseFeeScalar": "0xf79c5",
      "l1Fee": "0x729d9c168",
      "l1GasPrice": "0x9852eab7",
      "l1GasUsed": "0x8ff"
    },
    {
      "status": "0x1",
      "cumulativeGasUsed": "0x8d26fb",
      "logs": [
        {
          "address": "0xbc24012488bfcfe44875a139299595879c43c2cd",
          "topics": [
            "0x5625f15df4cbadf2e6e3f80e2406aec5d99a432335ef0e9a1fba9e48b0558303",
            "0x0000000000000000000000000000000000000000000000000000000000000014"
          ],
          "data": "0x00000000000000000000000000000000000000000000000000000000000000030000000000000000000000000000000000000000000000000000000000000060000000000000000000000000000000000000000000000000000000000000001e00000000000000000000000000000000000000000000000000000000000000b9697066732f516d53633247366f7a65696f74555674707a44655855463646724b3552333152356b4553484c56666e3542396f382f30303030303030303030303030303030303030303030303030303030303030303030303030303030303030303030303030303030303030303030303030303230303030303030303030303030303030303030303030303030303030303030303030303030303030303030303030303030303030303030303030303030303030332e6a736f6e00000000000000",
          "blockHash": "0xebc6ebb53c6d0bb3ed02b41cb785c60d1fad1a37ceda4469c5afe68a688fdd3e",
          "blockNumber": "0x829ddda",
          "blockTimestamp": "0x6847956d",
          "transactionHash": "0xefc9bf3885e10286915ca47f616c6ddf6f8822baed63debd049578dc83ba92f4",
          "transactionIndex": "0x1a",
          "logIndex": "0x1d5",
          "removed": false
        }
      ],
      "logsBloom": "0x00000000040000000200000000000000000000000000000000000000000000000000000000000000000000000000000000002000000000000000000000000000000000000000000000000000000000000000000000000000000000000000000000040000000000000000000000000000000000000000000000000000000000000000000000000000000000000000000000000000000400000000000000000000000000000000000020000000000000000000000000000000000000000000000000000000000000000000004000000000000000000000000000004000000000000000000000000000000000000000000000000000010000000000000000000000",
      "type": "0x2",
      "transactionHash": "0xefc9bf3885e10286915ca47f616c6ddf6f8822baed63debd049578dc83ba92f4",
      "transactionIndex": "0x1a",
      "blockHash": "0xebc6ebb53c6d0bb3ed02b41cb785c60d1fad1a37ceda4469c5afe68a688fdd3e",
      "blockNumber": "0x829ddda",
      "gasUsed": "0x377b2",
      "effectiveGasPrice": "0x2cd",
      "from": "0x8835669696fb92839ab198cd80ce9f0d35f45ad5",
      "to": "0xbc24012488bfcfe44875a139299595879c43c2cd",
      "contractAddress": null,
      "l1BaseFeeScalar": "0x146b",
      "l1BlobBaseFee": "0x1",
      "l1BlobBaseFeeScalar": "0xf79c5",
      "l1Fee": "0x73f29c80a",
      "l1GasPrice": "0x9852eab7",
      "l1GasUsed": "0x91a"
    },
    {
      "status": "0x1",
      "cumulativeGasUsed": "0x90d7cb",
      "logs": [
        {
          "address": "0xbc24012488bfcfe44875a139299595879c43c2cd",
          "topics": [
            "0x5625f15df4cbadf2e6e3f80e2406aec5d99a432335ef0e9a1fba9e48b0558303",
            "0x0000000000000000000000000000000000000000000000000000000000000015"
          ],
          "data": "0x00000000000000000000000000000000000000000000000000000000000000010000000000000000000000000000000000000000000000000000000000000060000000000000000000000000000000000000000000000000000000000000000a00000000000000000000000000000000000000000000000000000000000000b9697066732f516d53633247366f7a65696f74555674707a44655855463646724b3552333152356b4553484c56666e3542396f382f30303030303030303030303030303030303030303030303030303030303030303030303030303030303030303030303030303030303030303030303030303231303030303030303030303030303030303030303030303030303030303030303030303030303030303030303030303030303030303030303030303030303030312e6a736f6e00000000000000",
          "blockHash": "0xebc6ebb53c6d0bb3ed02b41cb785c60d1fad1a37ceda4469c5afe68a688fdd3e",
          "blockNumber": "0x829ddda",
          "blockTimestamp": "0x6847956d",
          "transactionHash": "0x6b03312d355c8c1009bfb90fc22f80e97cc6e87a97708ddc6b2af3bd6856270f",
          "transactionIndex": "0x1b",
          "logIndex": "0x1d6",
          "removed": false
        }
      ],
      "logsBloom": "0x00000000040000000200000000000000000000000000000000000000000000000000000000000000000000000000000000000000000000000000000000000000001000000000000000000000000000000000000000000000000000000000000000040000000000000000000000000000000000000000000000000000000000000000000000000000000000000000000000000000000000000000000000000000000000000000000000000000010000000000000000000000000000000000000000000000000000000000004000000000000000000000000000004000000000002000000000000000000000000000000000000000010000000000000000000000",
      "type": "0x2",
      "transactionHash": "0x6b03312d355c8c1009bfb90fc22f80e97cc6e87a97708ddc6b2af3bd6856270f",
      "transactionIndex": "0x1b",
      "blockHash": "0xebc6ebb53c6d0bb3ed02b41cb785c60d1fad1a37ceda4469c5afe68a688fdd3e",
      "blockNumber": "0x829ddda",
      "gasUsed": "0x3b0d0",
      "effectiveGasPrice": "0x2cd",
      "from": "0x8835669696fb92839ab198cd80ce9f0d35f45ad5",
      "to": "0xbc24012488bfcfe44875a139299595879c43c2cd",
      "contractAddress": null,
      "l1BaseFeeScalar": "0x146b",
      "l1BlobBaseFee": "0x1",
      "l1BlobBaseFeeScalar": "0xf79c5",
      "l1Fee": "0x749d1cb5b",
      "l1GasPrice": "0x9852eab7",
      "l1GasUsed": "0x927"
    },
    {
      "status": "0x1",
      "cumulativeGasUsed": "0x944f7d",
      "logs": [
        {
          "address": "0xbc24012488bfcfe44875a139299595879c43c2cd",
          "topics": [
            "0x5625f15df4cbadf2e6e3f80e2406aec5d99a432335ef0e9a1fba9e48b0558303",
            "0x0000000000000000000000000000000000000000000000000000000000000015"
          ],
          "data": "0x00000000000000000000000000000000000000000000000000000000000000020000000000000000000000000000000000000000000000000000000000000060000000000000000000000000000000000000000000000000000000000000001400000000000000000000000000000000000000000000000000000000000000b9697066732f516d53633247366f7a65696f74555674707a44655855463646724b3552333152356b4553484c56666e3542396f382f30303030303030303030303030303030303030303030303030303030303030303030303030303030303030303030303030303030303030303030303030303231303030303030303030303030303030303030303030303030303030303030303030303030303030303030303030303030303030303030303030303030303030322e6a736f6e00000000000000",
          "blockHash": "0xebc6ebb53c6d0bb3ed02b41cb785c60d1fad1a37ceda4469c5afe68a688fdd3e",
          "blockNumber": "0x829ddda",
          "blockTimestamp": "0x6847956d",
          "transactionHash": "0x4d8f75bd41ceb7c15530cc3f4f78187389eef0f7c1de8ff2aeb0bf5f725a1d02",
          "transactionIndex": "0x1c",
          "logIndex": "0x1d7",
          "removed": false
        }
      ],
      "logsBloom": "0x00000000040000000200000000000000000000000000000000000000000000000000000000000000000000000000000000000000000000000000000000000000001000000000000000000000000000000000000000000000000000000000000000040000000000000000000000000000000000000000000000000000000000000000000000000000000000000000000000000000000000000000000000000000000000000000000000000000010000000000000000000000000000000000000000000000000000000000004000000000000000000000000000004000000000002000000000000000000000000000000000000000010000000000000000000000",
      "type": "0x2",
      "transactionHash": "0x4d8f75bd41ceb7c15530cc3f4f78187389eef0f7c1de8ff2aeb0bf5f725a1d02",
      "transactionIndex": "0x1c",
      "blockHash": "0xebc6ebb53c6d0bb3ed02b41cb785c60d1fad1a37ceda4469c5afe68a688fdd3e",
      "blockNumber": "0x829ddda",
      "gasUsed": "0x377b2",
      "effectiveGasPrice": "0x2cd",
      "from": "0x8835669696fb92839ab198cd80ce9f0d35f45ad5",
      "to": "0xbc24012488bfcfe44875a139299595879c43c2cd",
      "contractAddress": null,
      "l1BaseFeeScalar": "0x146b",
      "l1BlobBaseFee": "0x1",
      "l1BlobBaseFeeScalar": "0xf79c5",
      "l1Fee": "0x73f29c80a",
      "l1GasPrice": "0x9852eab7",
      "l1GasUsed": "0x91a"
    },
    {
      "status": "0x1",
      "cumulativeGasUsed": "0x97c72f",
      "logs": [
        {
          "address": "0xbc24012488bfcfe44875a139299595879c43c2cd",
          "topics": [
            "0x5625f15df4cbadf2e6e3f80e2406aec5d99a432335ef0e9a1fba9e48b0558303",
            "0x0000000000000000000000000000000000000000000000000000000000000015"
          ],
          "data": "0x00000000000000000000000000000000000000000000000000000000000000030000000000000000000000000000000000000000000000000000000000000060000000000000000000000000000000000000000000000000000000000000001e00000000000000000000000000000000000000000000000000000000000000b9697066732f516d53633247366f7a65696f74555674707a44655855463646724b3552333152356b4553484c56666e3542396f382f30303030303030303030303030303030303030303030303030303030303030303030303030303030303030303030303030303030303030303030303030303231303030303030303030303030303030303030303030303030303030303030303030303030303030303030303030303030303030303030303030303030303030332e6a736f6e00000000000000",
          "blockHash": "0xebc6ebb53c6d0bb3ed02b41cb785c60d1fad1a37ceda4469c5afe68a688fdd3e",
          "blockNumber": "0x829ddda",
          "blockTimestamp": "0x6847956d",
          "transactionHash": "0x5aa29e3c15f940e4ae0ad12e0fdb40a4fd98332f6e229e3c83853b8c6b922ef5",
          "transactionIndex": "0x1d",
          "logIndex": "0x1d8",
          "removed": false
        }
      ],
      "logsBloom": "0x00000000040000000200000000000000000000000000000000000000000000000000000000000000000000000000000000000000000000000000000000000000001000000000000000000000000000000000000000000000000000000000000000040000000000000000000000000000000000000000000000000000000000000000000000000000000000000000000000000000000000000000000000000000000000000000000000000000010000000000000000000000000000000000000000000000000000000000004000000000000000000000000000004000000000002000000000000000000000000000000000000000010000000000000000000000",
      "type": "0x2",
      "transactionHash": "0x5aa29e3c15f940e4ae0ad12e0fdb40a4fd98332f6e229e3c83853b8c6b922ef5",
      "transactionIndex": "0x1d",
      "blockHash": "0xebc6ebb53c6d0bb3ed02b41cb785c60d1fad1a37ceda4469c5afe68a688fdd3e",
      "blockNumber": "0x829ddda",
      "gasUsed": "0x377b2",
      "effectiveGasPrice": "0x2cd",
      "from": "0x8835669696fb92839ab198cd80ce9f0d35f45ad5",
      "to": "0xbc24012488bfcfe44875a139299595879c43c2cd",
      "contractAddress": null,
      "l1BaseFeeScalar": "0x146b",
      "l1BlobBaseFee": "0x1",
      "l1BlobBaseFeeScalar": "0xf79c5",
      "l1Fee": "0x749d1cb5b",
      "l1GasPrice": "0x9852eab7",
      "l1GasUsed": "0x927"
    }
  ],
  "libraries": [],
  "pending": [],
  "returns": {},
  "timestamp": 1749521772,
  "chain": 10,
  "commit": "50ba9c2"
}