{
  "transactions": [
    {
      "hash": "0x3d707cab26453f683fe5188b3db54cdc483cc5dab42d18c7ef82810088b043e9",
      "transactionType": "CALL",
      "contractName": null,
      "contractAddress": "0xbc24012488bfcfe44875a139299595879c43c2cd",
      "function": "setBadgeMetadata(uint256,string)",
      "arguments": [
        "23",
        "ipfs/QmUHF22H32Fz91DCVrwtVGgV5PzhdgCK5thRxC4fqLREWH/00000000000000000000000000000000000000000000000000000000000000230000000000000000000000000000000000000000000000000000000000000000.json"
      ],
      "transaction": {
        "from": "0x8835669696fb92839ab198cd80ce9f0d35f45ad5",
        "to": "0xbc24012488bfcfe44875a139299595879c43c2cd",
        "gas": "0x41338",
        "value": "0x0",
        "input": "0xce64b45f0000000000000000000000000000000000000000000000000000000000000017000000000000000000000000000000000000000000000000000000000000004000000000000000000000000000000000000000000000000000000000000000b9697066732f516d5548463232483332467a39314443567277745647675635507a686467434b3574685278433466714c524557482f30303030303030303030303030303030303030303030303030303030303030303030303030303030303030303030303030303030303030303030303030303233303030303030303030303030303030303030303030303030303030303030303030303030303030303030303030303030303030303030303030303030303030302e6a736f6e00000000000000",
        "nonce": "0x394d8",
        "chainId": "0xa"
      },
      "additionalContracts": [],
      "isFixedGasLimit": false
    },
    {
      "hash": "0x17f4a4eda03f9f4a1cb05fc97720c38ba26c50d7bb8cb86c4ed7c52ba2ec9edc",
      "transactionType": "CALL",
      "contractName": null,
      "contractAddress": "0xbc24012488bfcfe44875a139299595879c43c2cd",
      "function": "setBadgeTier(uint256,uint256,string,uint256)",
      "arguments": [
        "23",
        "1",
        "ipfs/QmUHF22H32Fz91DCVrwtVGgV5PzhdgCK5thRxC4fqLREWH/00000000000000000000000000000000000000000000000000000000000000230000000000000000000000000000000000000000000000000000000000000001.json",
        "10"
      ],
      "transaction": {
        "from": "0x8835669696fb92839ab198cd80ce9f0d35f45ad5",
        "to": "0xbc24012488bfcfe44875a139299595879c43c2cd",
        "gas": "0x51905",
        "value": "0x0",
        "input": "0xcf132d1c000000000000000000000000000000000000000000000000000000000000001700000000000000000000000000000000000000000000000000000000000000010000000000000000000000000000000000000000000000000000000000000080000000000000000000000000000000000000000000000000000000000000000a00000000000000000000000000000000000000000000000000000000000000b9697066732f516d5548463232483332467a39314443567277745647675635507a686467434b3574685278433466714c524557482f30303030303030303030303030303030303030303030303030303030303030303030303030303030303030303030303030303030303030303030303030303233303030303030303030303030303030303030303030303030303030303030303030303030303030303030303030303030303030303030303030303030303030312e6a736f6e00000000000000",
        "nonce": "0x394d9",
        "chainId": "0xa"
      },
      "additionalContracts": [],
      "isFixedGasLimit": false
    },
    {
      "hash": "0xe764a3f75c7de3d6b595d4b5ef8171161ca9472c0978f1164c09c9c9758ea081",
      "transactionType": "CALL",
      "contractName": null,
      "contractAddress": "0xbc24012488bfcfe44875a139299595879c43c2cd",
      "function": "setBadgeTier(uint256,uint256,string,uint256)",
      "arguments": [
        "23",
        "2",
        "ipfs/QmUHF22H32Fz91DCVrwtVGgV5PzhdgCK5thRxC4fqLREWH/00000000000000000000000000000000000000000000000000000000000000230000000000000000000000000000000000000000000000000000000000000002.json",
        "20"
      ],
      "transaction": {
        "from": "0x8835669696fb92839ab198cd80ce9f0d35f45ad5",
        "to": "0xbc24012488bfcfe44875a139299595879c43c2cd",
        "gas": "0x51240",
        "value": "0x0",
        "input": "0xcf132d1c000000000000000000000000000000000000000000000000000000000000001700000000000000000000000000000000000000000000000000000000000000020000000000000000000000000000000000000000000000000000000000000080000000000000000000000000000000000000000000000000000000000000001400000000000000000000000000000000000000000000000000000000000000b9697066732f516d5548463232483332467a39314443567277745647675635507a686467434b3574685278433466714c524557482f30303030303030303030303030303030303030303030303030303030303030303030303030303030303030303030303030303030303030303030303030303233303030303030303030303030303030303030303030303030303030303030303030303030303030303030303030303030303030303030303030303030303030322e6a736f6e00000000000000",
        "nonce": "0x394da",
        "chainId": "0xa"
      },
      "additionalContracts": [],
      "isFixedGasLimit": false
    },
    {
      "hash": "0xf6d9e27af7d812e3ce29a2a34f94d9d5621e609e1390d0062f049b543d063fb2",
      "transactionType": "CALL",
      "contractName": null,
      "contractAddress": "0xbc24012488bfcfe44875a139299595879c43c2cd",
      "function": "setBadgeTier(uint256,uint256,string,uint256)",
      "arguments": [
        "23",
        "3",
        "ipfs/QmUHF22H32Fz91DCVrwtVGgV5PzhdgCK5thRxC4fqLREWH/00000000000000000000000000000000000000000000000000000000000000230000000000000000000000000000000000000000000000000000000000000003.json",
        "30"
      ],
      "transaction": {
        "from": "0x8835669696fb92839ab198cd80ce9f0d35f45ad5",
        "to": "0xbc24012488bfcfe44875a139299595879c43c2cd",
        "gas": "0x51240",
        "value": "0x0",
        "input": "0xcf132d1c000000000000000000000000000000000000000000000000000000000000001700000000000000000000000000000000000000000000000000000000000000030000000000000000000000000000000000000000000000000000000000000080000000000000000000000000000000000000000000000000000000000000001e00000000000000000000000000000000000000000000000000000000000000b9697066732f516d5548463232483332467a39314443567277745647675635507a686467434b3574685278433466714c524557482f30303030303030303030303030303030303030303030303030303030303030303030303030303030303030303030303030303030303030303030303030303233303030303030303030303030303030303030303030303030303030303030303030303030303030303030303030303030303030303030303030303030303030332e6a736f6e00000000000000",
        "nonce": "0x394db",
        "chainId": "0xa"
      },
      "additionalContracts": [],
      "isFixedGasLimit": false
    },
    {
      "hash": "0x4b0767306b40990c6095f46fbd2f3c0ab302399a118f56b08881a426693049c8",
      "transactionType": "CALL",
      "contractName": null,
      "contractAddress": "0xbc24012488bfcfe44875a139299595879c43c2cd",
      "function": "setBadgeTier(uint256,uint256,string,uint256)",
      "arguments": [
        "23",
        "4",
        "ipfs/QmUHF22H32Fz91DCVrwtVGgV5PzhdgCK5thRxC4fqLREWH/00000000000000000000000000000000000000000000000000000000000000230000000000000000000000000000000000000000000000000000000000000004.json",
        "40"
      ],
      "transaction": {
        "from": "0x8835669696fb92839ab198cd80ce9f0d35f45ad5",
        "to": "0xbc24012488bfcfe44875a139299595879c43c2cd",
        "gas": "0x51240",
        "value": "0x0",
        "input": "0xcf132d1c000000000000000000000000000000000000000000000000000000000000001700000000000000000000000000000000000000000000000000000000000000040000000000000000000000000000000000000000000000000000000000000080000000000000000000000000000000000000000000000000000000000000002800000000000000000000000000000000000000000000000000000000000000b9697066732f516d5548463232483332467a39314443567277745647675635507a686467434b3574685278433466714c524557482f30303030303030303030303030303030303030303030303030303030303030303030303030303030303030303030303030303030303030303030303030303233303030303030303030303030303030303030303030303030303030303030303030303030303030303030303030303030303030303030303030303030303030342e6a736f6e00000000000000",
        "nonce": "0x394dc",
        "chainId": "0xa"
      },
      "additionalContracts": [],
      "isFixedGasLimit": false
    },
    {
      "hash": "0x665d98c89a46d66bb9b5cf1d09df9a920e8ca8e4f12263ae1939ca299a46b3ca",
      "transactionType": "CALL",
      "contractName": null,
      "contractAddress": "0xbc24012488bfcfe44875a139299595879c43c2cd",
      "function": "setBadgeTier(uint256,uint256,string,uint256)",
      "arguments": [
        "23",
        "5",
        "ipfs/QmUHF22H32Fz91DCVrwtVGgV5PzhdgCK5thRxC4fqLREWH/00000000000000000000000000000000000000000000000000000000000000230000000000000000000000000000000000000000000000000000000000000005.json",
        "50"
      ],
      "transaction": {
        "from": "0x8835669696fb92839ab198cd80ce9f0d35f45ad5",
        "to": "0xbc24012488bfcfe44875a139299595879c43c2cd",
        "gas": "0x51240",
        "value": "0x0",
        "input": "0xcf132d1c000000000000000000000000000000000000000000000000000000000000001700000000000000000000000000000000000000000000000000000000000000050000000000000000000000000000000000000000000000000000000000000080000000000000000000000000000000000000000000000000000000000000003200000000000000000000000000000000000000000000000000000000000000b9697066732f516d5548463232483332467a39314443567277745647675635507a686467434b3574685278433466714c524557482f30303030303030303030303030303030303030303030303030303030303030303030303030303030303030303030303030303030303030303030303030303233303030303030303030303030303030303030303030303030303030303030303030303030303030303030303030303030303030303030303030303030303030352e6a736f6e00000000000000",
        "nonce": "0x394dd",
        "chainId": "0xa"
      },
      "additionalContracts": [],
      "isFixedGasLimit": false
    }
  ],
  "receipts": [
    {
      "status": "0x1",
      "cumulativeGasUsed": "0x17783d7",
      "logs": [
        {
          "address": "0xbc24012488bfcfe44875a139299595879c43c2cd",
          "topics": [
            "0x2e5977e12fac9a91696e22ba811f2893e11ad62f8aa53e99a628b031d18a379f",
            "0x0000000000000000000000000000000000000000000000000000000000000017"
          ],
          "data": "0x000000000000000000000000000000000000000000000000000000000000002000000000000000000000000000000000000000000000000000000000000000b9697066732f516d5548463232483332467a39314443567277745647675635507a686467434b3574685278433466714c524557482f30303030303030303030303030303030303030303030303030303030303030303030303030303030303030303030303030303030303030303030303030303233303030303030303030303030303030303030303030303030303030303030303030303030303030303030303030303030303030303030303030303030303030302e6a736f6e00000000000000",
          "blockHash": "0x83293d33f77151b97369bc3a578663c2b89eb4e8513e624faf548c7123850c93",
          "blockNumber": "0x82df02f",
          "blockTimestamp": "0x684fba17",
          "transactionHash": "0x3d707cab26453f683fe5188b3db54cdc483cc5dab42d18c7ef82810088b043e9",
          "transactionIndex": "0x23",
          "logIndex": "0x10f",
          "removed": false
        }
      ],
      "logsBloom": "0x00000000040000000200000000000000000000000000000000000000000000000000000000000000000000000000000000001000000000000000001000000000000000000000000000000000000000000000000000000000000000000000000000000000000000000000000000000000000000000000000000000000000004000000000000000000000000000000000000000000000000000000000000000000000000000000000000000000000000000000000000000100000000000000000000000000000000000000000000000000000000000000000000004000400000000000000000000000000000000000000000000000000000000000000000080000",
      "type": "0x2",
      "transactionHash": "0x3d707cab26453f683fe5188b3db54cdc483cc5dab42d18c7ef82810088b043e9",
      "transactionIndex": "0x23",
      "blockHash": "0x83293d33f77151b97369bc3a578663c2b89eb4e8513e624faf548c7123850c93",
      "blockNumber": "0x82df02f",
      "gasUsed": "0x2f346",
      "effectiveGasPrice": "0x348b",
      "from": "0x8835669696fb92839ab198cd80ce9f0d35f45ad5",
      "to": "0xbc24012488bfcfe44875a139299595879c43c2cd",
      "contractAddress": null,
      "l1BaseFeeScalar": "0x146b",
      "l1BlobBaseFee": "0x1",
      "l1BlobBaseFeeScalar": "0xf79c5",
      "l1Fee": "0x11430b56a",
      "l1GasPrice": "0x185b3809",
      "l1GasUsed": "0x879"
    },
    {
      "status": "0x1",
      "cumulativeGasUsed": "0x17b34a7",
      "logs": [
        {
          "address": "0xbc24012488bfcfe44875a139299595879c43c2cd",
          "topics": [
            "0x5625f15df4cbadf2e6e3f80e2406aec5d99a432335ef0e9a1fba9e48b0558303",
            "0x0000000000000000000000000000000000000000000000000000000000000017"
          ],
          "data": "0x00000000000000000000000000000000000000000000000000000000000000010000000000000000000000000000000000000000000000000000000000000060000000000000000000000000000000000000000000000000000000000000000a00000000000000000000000000000000000000000000000000000000000000b9697066732f516d5548463232483332467a39314443567277745647675635507a686467434b3574685278433466714c524557482f30303030303030303030303030303030303030303030303030303030303030303030303030303030303030303030303030303030303030303030303030303233303030303030303030303030303030303030303030303030303030303030303030303030303030303030303030303030303030303030303030303030303030312e6a736f6e00000000000000",
          "blockHash": "0x83293d33f77151b97369bc3a578663c2b89eb4e8513e624faf548c7123850c93",
          "blockNumber": "0x82df02f",
          "blockTimestamp": "0x684fba17",
          "transactionHash": "0x17f4a4eda03f9f4a1cb05fc97720c38ba26c50d7bb8cb86c4ed7c52ba2ec9edc",
          "transactionIndex": "0x24",
          "logIndex": "0x110",
          "removed": false
        }
      ],
      "logsBloom": "0x00000000040000000200000000000000000000000000000000000000000000000000000000000000000000000000000000001000000000000000001000000000000000000000000000000000000000000000000000000000000000000000000000040000000000000000000000000000000000000000000000000000000000000000000000000000000000000000000000000000000000000000000000000000000000000000000000000000000000000000000000000000000000000000000000000000000000000000004000000000000000000000000000004000000000000000000000000000000000000000000000000000010000000000000000080000",
      "type": "0x2",
      "transactionHash": "0x17f4a4eda03f9f4a1cb05fc97720c38ba26c50d7bb8cb86c4ed7c52ba2ec9edc",
      "transactionIndex": "0x24",
      "blockHash": "0x83293d33f77151b97369bc3a578663c2b89eb4e8513e624faf548c7123850c93",
      "blockNumber": "0x82df02f",
      "gasUsed": "0x3b0d0",
      "effectiveGasPrice": "0x348b",
      "from": "0x8835669696fb92839ab198cd80ce9f0d35f45ad5",
      "to": "0xbc24012488bfcfe44875a139299595879c43c2cd",
      "contractAddress": null,
      "l1BaseFeeScalar": "0x146b",
      "l1BlobBaseFee": "0x1",
      "l1BlobBaseFeeScalar": "0xf79c5",
      "l1Fee": "0x12dbfc6b5",
      "l1GasPrice": "0x185b3809",
      "l1GasUsed": "0x942"
    },
    {
      "status": "0x1",
      "cumulativeGasUsed": "0x17eac59",
      "logs": [
        {
          "address": "0xbc24012488bfcfe44875a139299595879c43c2cd",
          "topics": [
            "0x5625f15df4cbadf2e6e3f80e2406aec5d99a432335ef0e9a1fba9e48b0558303",
            "0x0000000000000000000000000000000000000000000000000000000000000017"
          ],
          "data": "0x00000000000000000000000000000000000000000000000000000000000000020000000000000000000000000000000000000000000000000000000000000060000000000000000000000000000000000000000000000000000000000000001400000000000000000000000000000000000000000000000000000000000000b9697066732f516d5548463232483332467a39314443567277745647675635507a686467434b3574685278433466714c524557482f30303030303030303030303030303030303030303030303030303030303030303030303030303030303030303030303030303030303030303030303030303233303030303030303030303030303030303030303030303030303030303030303030303030303030303030303030303030303030303030303030303030303030322e6a736f6e00000000000000",
          "blockHash": "0x83293d33f77151b97369bc3a578663c2b89eb4e8513e624faf548c7123850c93",
          "blockNumber": "0x82df02f",
          "blockTimestamp": "0x684fba17",
          "transactionHash": "0xe764a3f75c7de3d6b595d4b5ef8171161ca9472c0978f1164c09c9c9758ea081",
          "transactionIndex": "0x25",
          "logIndex": "0x111",
          "removed": false
        }
      ],
      "logsBloom": "0x00000000040000000200000000000000000000000000000000000000000000000000000000000000000000000000000000001000000000000000001000000000000000000000000000000000000000000000000000000000000000000000000000040000000000000000000000000000000000000000000000000000000000000000000000000000000000000000000000000000000000000000000000000000000000000000000000000000000000000000000000000000000000000000000000000000000000000000004000000000000000000000000000004000000000000000000000000000000000000000000000000000010000000000000000080000",
      "type": "0x2",
      "transactionHash": "0xe764a3f75c7de3d6b595d4b5ef8171161ca9472c0978f1164c09c9c9758ea081",
      "transactionIndex": "0x25",
      "blockHash": "0x83293d33f77151b97369bc3a578663c2b89eb4e8513e624faf548c7123850c93",
      "blockNumber": "0x82df02f",
      "gasUsed": "0x377b2",
      "effectiveGasPrice": "0x348b",
      "from": "0x8835669696fb92839ab198cd80ce9f0d35f45ad5",
      "to": "0xbc24012488bfcfe44875a139299595879c43c2cd",
      "contractAddress": null,
      "l1BaseFeeScalar": "0x146b",
      "l1BlobBaseFee": "0x1",
      "l1BlobBaseFeeScalar": "0xf79c5",
      "l1Fee": "0x12c0b925a",
      "l1GasPrice": "0x185b3809",
      "l1GasUsed": "0x934"
    },
    {
      "status": "0x1",
      "cumulativeGasUsed": "0x182240b",
      "logs": [
        {
          "address": "0xbc24012488bfcfe44875a139299595879c43c2cd",
          "topics": [
            "0x5625f15df4cbadf2e6e3f80e2406aec5d99a432335ef0e9a1fba9e48b0558303",
            "0x0000000000000000000000000000000000000000000000000000000000000017"
          ],
          "data": "0x00000000000000000000000000000000000000000000000000000000000000030000000000000000000000000000000000000000000000000000000000000060000000000000000000000000000000000000000000000000000000000000001e00000000000000000000000000000000000000000000000000000000000000b9697066732f516d5548463232483332467a39314443567277745647675635507a686467434b3574685278433466714c524557482f30303030303030303030303030303030303030303030303030303030303030303030303030303030303030303030303030303030303030303030303030303233303030303030303030303030303030303030303030303030303030303030303030303030303030303030303030303030303030303030303030303030303030332e6a736f6e00000000000000",
          "blockHash": "0x83293d33f77151b97369bc3a578663c2b89eb4e8513e624faf548c7123850c93",
          "blockNumber": "0x82df02f",
          "blockTimestamp": "0x684fba17",
          "transactionHash": "0xf6d9e27af7d812e3ce29a2a34f94d9d5621e609e1390d0062f049b543d063fb2",
          "transactionIndex": "0x26",
          "logIndex": "0x112",
          "removed": false
        }
      ],
      "logsBloom": "0x00000000040000000200000000000000000000000000000000000000000000000000000000000000000000000000000000001000000000000000001000000000000000000000000000000000000000000000000000000000000000000000000000040000000000000000000000000000000000000000000000000000000000000000000000000000000000000000000000000000000000000000000000000000000000000000000000000000000000000000000000000000000000000000000000000000000000000000004000000000000000000000000000004000000000000000000000000000000000000000000000000000010000000000000000080000",
      "type": "0x2",
      "transactionHash": "0xf6d9e27af7d812e3ce29a2a34f94d9d5621e609e1390d0062f049b543d063fb2",
      "transactionIndex": "0x26",
      "blockHash": "0x83293d33f77151b97369bc3a578663c2b89eb4e8513e624faf548c7123850c93",
      "blockNumber": "0x82df02f",
      "gasUsed": "0x377b2",
      "effectiveGasPrice": "0x348b",
      "from": "0x8835669696fb92839ab198cd80ce9f0d35f45ad5",
      "to": "0xbc24012488bfcfe44875a139299595879c43c2cd",
      "contractAddress": null,
      "l1BaseFeeScalar": "0x146b",
      "l1BlobBaseFee": "0x1",
      "l1BlobBaseFeeScalar": "0xf79c5",
      "l1Fee": "0x12c0b925a",
      "l1GasPrice": "0x185b3809",
      "l1GasUsed": "0x934"
    },
    {
      "status": "0x1",
      "cumulativeGasUsed": "0x1859bbd",
      "logs": [
        {
          "address": "0xbc24012488bfcfe44875a139299595879c43c2cd",
          "topics": [
            "0x5625f15df4cbadf2e6e3f80e2406aec5d99a432335ef0e9a1fba9e48b0558303",
            "0x0000000000000000000000000000000000000000000000000000000000000017"
          ],
          "data": "0x00000000000000000000000000000000000000000000000000000000000000040000000000000000000000000000000000000000000000000000000000000060000000000000000000000000000000000000000000000000000000000000002800000000000000000000000000000000000000000000000000000000000000b9697066732f516d5548463232483332467a39314443567277745647675635507a686467434b3574685278433466714c524557482f30303030303030303030303030303030303030303030303030303030303030303030303030303030303030303030303030303030303030303030303030303233303030303030303030303030303030303030303030303030303030303030303030303030303030303030303030303030303030303030303030303030303030342e6a736f6e00000000000000",
          "blockHash": "0x83293d33f77151b97369bc3a578663c2b89eb4e8513e624faf548c7123850c93",
          "blockNumber": "0x82df02f",
          "blockTimestamp": "0x684fba17",
          "transactionHash": "0x4b0767306b40990c6095f46fbd2f3c0ab302399a118f56b08881a426693049c8",
          "transactionIndex": "0x27",
          "logIndex": "0x113",
          "removed": false
        }
      ],
      "logsBloom": "0x00000000040000000200000000000000000000000000000000000000000000000000000000000000000000000000000000001000000000000000001000000000000000000000000000000000000000000000000000000000000000000000000000040000000000000000000000000000000000000000000000000000000000000000000000000000000000000000000000000000000000000000000000000000000000000000000000000000000000000000000000000000000000000000000000000000000000000000004000000000000000000000000000004000000000000000000000000000000000000000000000000000010000000000000000080000",
      "type": "0x2",
      "transactionHash": "0x4b0767306b40990c6095f46fbd2f3c0ab302399a118f56b08881a426693049c8",
      "transactionIndex": "0x27",
      "blockHash": "0x83293d33f77151b97369bc3a578663c2b89eb4e8513e624faf548c7123850c93",
      "blockNumber": "0x82df02f",
      "gasUsed": "0x377b2",
      "effectiveGasPrice": "0x348b",
      "from": "0x8835669696fb92839ab198cd80ce9f0d35f45ad5",
      "to": "0xbc24012488bfcfe44875a139299595879c43c2cd",
      "contractAddress": null,
      "l1BaseFeeScalar": "0x146b",
      "l1BlobBaseFee": "0x1",
      "l1BlobBaseFeeScalar": "0xf79c5",
      "l1Fee": "0x12dbfc6b5",
      "l1GasPrice": "0x185b3809",
      "l1GasUsed": "0x942"
    },
    {
      "status": "0x1",
      "cumulativeGasUsed": "0x189136f",
      "logs": [
        {
          "address": "0xbc24012488bfcfe44875a139299595879c43c2cd",
          "topics": [
            "0x5625f15df4cbadf2e6e3f80e2406aec5d99a432335ef0e9a1fba9e48b0558303",
            "0x0000000000000000000000000000000000000000000000000000000000000017"
          ],
          "data": "0x00000000000000000000000000000000000000000000000000000000000000050000000000000000000000000000000000000000000000000000000000000060000000000000000000000000000000000000000000000000000000000000003200000000000000000000000000000000000000000000000000000000000000b9697066732f516d5548463232483332467a39314443567277745647675635507a686467434b3574685278433466714c524557482f30303030303030303030303030303030303030303030303030303030303030303030303030303030303030303030303030303030303030303030303030303233303030303030303030303030303030303030303030303030303030303030303030303030303030303030303030303030303030303030303030303030303030352e6a736f6e00000000000000",
          "blockHash": "0x83293d33f77151b97369bc3a578663c2b89eb4e8513e624faf548c7123850c93",
          "blockNumber": "0x82df02f",
          "blockTimestamp": "0x684fba17",
          "transactionHash": "0x665d98c89a46d66bb9b5cf1d09df9a920e8ca8e4f12263ae1939ca299a46b3ca",
          "transactionIndex": "0x28",
          "logIndex": "0x114",
          "removed": false
        }
      ],
      "logsBloom": "0x00000000040000000200000000000000000000000000000000000000000000000000000000000000000000000000000000001000000000000000001000000000000000000000000000000000000000000000000000000000000000000000000000040000000000000000000000000000000000000000000000000000000000000000000000000000000000000000000000000000000000000000000000000000000000000000000000000000000000000000000000000000000000000000000000000000000000000000004000000000000000000000000000004000000000000000000000000000000000000000000000000000010000000000000000080000",
      "type": "0x2",
      "transactionHash": "0x665d98c89a46d66bb9b5cf1d09df9a920e8ca8e4f12263ae1939ca299a46b3ca",
      "transactionIndex": "0x28",
      "blockHash": "0x83293d33f77151b97369bc3a578663c2b89eb4e8513e624faf548c7123850c93",
      "blockNumber": "0x82df02f",
      "gasUsed": "0x377b2",
      "effectiveGasPrice": "0x348b",
      "from": "0x8835669696fb92839ab198cd80ce9f0d35f45ad5",
      "to": "0xbc24012488bfcfe44875a139299595879c43c2cd",
      "contractAddress": null,
      "l1BaseFeeScalar": "0x146b",
      "l1BlobBaseFee": "0x1",
      "l1BlobBaseFeeScalar": "0xf79c5",
      "l1Fee": "0x12dbfc6b5",
      "l1GasPrice": "0x185b3809",
      "l1GasUsed": "0x942"
    }
  ],
  "libraries": [],
  "pending": [],
  "returns": {},
  "timestamp": 1750055447,
  "chain": 10,
  "commit": "3dbd1f2"
}