{
  "transactions": [
    {
      "hash": "0x95716da3c245a016d62423a7dcfb29953aa93596355fde5f98b7c26dadfff3dc",
      "transactionType": "CALL",
      "contractName": null,
      "contractAddress": "0xbc24012488bfcfe44875a139299595879c43c2cd",
      "function": "setBadgeMetadata(uint256,string)",
      "arguments": [
        "25",
        "ipfs/QmPpb3ZXJevYn3yrFgpPF2UoTKVregxCxjbLPie49Zoa8n/00000000000000000000000000000000000000000000000000000000000000250000000000000000000000000000000000000000000000000000000000000000.json"
      ],
      "transaction": {
        "from": "0x8835669696fb92839ab198cd80ce9f0d35f45ad5",
        "to": "0xbc24012488bfcfe44875a139299595879c43c2cd",
        "gas": "0x41338",
        "value": "0x0",
        "input": "0xce64b45f0000000000000000000000000000000000000000000000000000000000000019000000000000000000000000000000000000000000000000000000000000004000000000000000000000000000000000000000000000000000000000000000b9697066732f516d507062335a584a6576596e337972466770504632556f544b567265677843786a624c50696534395a6f61386e2f30303030303030303030303030303030303030303030303030303030303030303030303030303030303030303030303030303030303030303030303030303235303030303030303030303030303030303030303030303030303030303030303030303030303030303030303030303030303030303030303030303030303030302e6a736f6e00000000000000",
        "nonce": "0x504f2",
        "chainId": "0xa"
      },
      "additionalContracts": [],
      "isFixedGasLimit": false
    },
    {
      "hash": "0x1514dd8f86661efa57025a6366a8b34c7cc7e5a7ae33c010b76589072f57ab85",
      "transactionType": "CALL",
      "contractName": null,
      "contractAddress": "0xbc24012488bfcfe44875a139299595879c43c2cd",
      "function": "setBadgeTier(uint256,uint256,string,uint256)",
      "arguments": [
        "25",
        "1",
        "ipfs/QmPpb3ZXJevYn3yrFgpPF2UoTKVregxCxjbLPie49Zoa8n/00000000000000000000000000000000000000000000000000000000000000250000000000000000000000000000000000000000000000000000000000000001.json",
        "10"
      ],
      "transaction": {
        "from": "0x8835669696fb92839ab198cd80ce9f0d35f45ad5",
        "to": "0xbc24012488bfcfe44875a139299595879c43c2cd",
        "gas": "0x51905",
        "value": "0x0",
        "input": "0xcf132d1c000000000000000000000000000000000000000000000000000000000000001900000000000000000000000000000000000000000000000000000000000000010000000000000000000000000000000000000000000000000000000000000080000000000000000000000000000000000000000000000000000000000000000a00000000000000000000000000000000000000000000000000000000000000b9697066732f516d507062335a584a6576596e337972466770504632556f544b567265677843786a624c50696534395a6f61386e2f30303030303030303030303030303030303030303030303030303030303030303030303030303030303030303030303030303030303030303030303030303235303030303030303030303030303030303030303030303030303030303030303030303030303030303030303030303030303030303030303030303030303030312e6a736f6e00000000000000",
        "nonce": "0x504f3",
        "chainId": "0xa"
      },
      "additionalContracts": [],
      "isFixedGasLimit": false
    },
    {
      "hash": "0x1369c70c6ce81b74eddba30771e2ed9457132c01aa02ca5b374d73634b7fdd90",
      "transactionType": "CALL",
      "contractName": null,
      "contractAddress": "0xbc24012488bfcfe44875a139299595879c43c2cd",
      "function": "setBadgeTier(uint256,uint256,string,uint256)",
      "arguments": [
        "25",
        "2",
        "ipfs/QmPpb3ZXJevYn3yrFgpPF2UoTKVregxCxjbLPie49Zoa8n/00000000000000000000000000000000000000000000000000000000000000250000000000000000000000000000000000000000000000000000000000000002.json",
        "40"
      ],
      "transaction": {
        "from": "0x8835669696fb92839ab198cd80ce9f0d35f45ad5",
        "to": "0xbc24012488bfcfe44875a139299595879c43c2cd",
        "gas": "0x51240",
        "value": "0x0",
        "input": "0xcf132d1c000000000000000000000000000000000000000000000000000000000000001900000000000000000000000000000000000000000000000000000000000000020000000000000000000000000000000000000000000000000000000000000080000000000000000000000000000000000000000000000000000000000000002800000000000000000000000000000000000000000000000000000000000000b9697066732f516d507062335a584a6576596e337972466770504632556f544b567265677843786a624c50696534395a6f61386e2f30303030303030303030303030303030303030303030303030303030303030303030303030303030303030303030303030303030303030303030303030303235303030303030303030303030303030303030303030303030303030303030303030303030303030303030303030303030303030303030303030303030303030322e6a736f6e00000000000000",
        "nonce": "0x504f4",
        "chainId": "0xa"
      },
      "additionalContracts": [],
      "isFixedGasLimit": false
    },
    {
      "hash": "0x833b0379dc2e72bc704bb3ec111ece0e1907e7172be27ecdd750bd8356d1d9e3",
      "transactionType": "CALL",
      "contractName": null,
      "contractAddress": "0xbc24012488bfcfe44875a139299595879c43c2cd",
      "function": "setBadgeTier(uint256,uint256,string,uint256)",
      "arguments": [
        "25",
        "3",
        "ipfs/QmPpb3ZXJevYn3yrFgpPF2UoTKVregxCxjbLPie49Zoa8n/00000000000000000000000000000000000000000000000000000000000000250000000000000000000000000000000000000000000000000000000000000003.json",
        "80"
      ],
      "transaction": {
        "from": "0x8835669696fb92839ab198cd80ce9f0d35f45ad5",
        "to": "0xbc24012488bfcfe44875a139299595879c43c2cd",
        "gas": "0x51240",
        "value": "0x0",
        "input": "0xcf132d1c000000000000000000000000000000000000000000000000000000000000001900000000000000000000000000000000000000000000000000000000000000030000000000000000000000000000000000000000000000000000000000000080000000000000000000000000000000000000000000000000000000000000005000000000000000000000000000000000000000000000000000000000000000b9697066732f516d507062335a584a6576596e337972466770504632556f544b567265677843786a624c50696534395a6f61386e2f30303030303030303030303030303030303030303030303030303030303030303030303030303030303030303030303030303030303030303030303030303235303030303030303030303030303030303030303030303030303030303030303030303030303030303030303030303030303030303030303030303030303030332e6a736f6e00000000000000",
        "nonce": "0x504f5",
        "chainId": "0xa"
      },
      "additionalContracts": [],
      "isFixedGasLimit": false
    },
    {
      "hash": "0xb424e93b7f15e4abc447a6cfc2d51eb1b05a86fae176d7aa9c5ffc735d3f1cab",
      "transactionType": "CALL",
      "contractName": null,
      "contractAddress": "0xbc24012488bfcfe44875a139299595879c43c2cd",
      "function": "setBadgeTier(uint256,uint256,string,uint256)",
      "arguments": [
        "25",
        "4",
        "ipfs/QmPpb3ZXJevYn3yrFgpPF2UoTKVregxCxjbLPie49Zoa8n/00000000000000000000000000000000000000000000000000000000000000250000000000000000000000000000000000000000000000000000000000000004.json",
        "120"
      ],
      "transaction": {
        "from": "0x8835669696fb92839ab198cd80ce9f0d35f45ad5",
        "to": "0xbc24012488bfcfe44875a139299595879c43c2cd",
        "gas": "0x51240",
        "value": "0x0",
        "input": "0xcf132d1c000000000000000000000000000000000000000000000000000000000000001900000000000000000000000000000000000000000000000000000000000000040000000000000000000000000000000000000000000000000000000000000080000000000000000000000000000000000000000000000000000000000000007800000000000000000000000000000000000000000000000000000000000000b9697066732f516d507062335a584a6576596e337972466770504632556f544b567265677843786a624c50696534395a6f61386e2f30303030303030303030303030303030303030303030303030303030303030303030303030303030303030303030303030303030303030303030303030303235303030303030303030303030303030303030303030303030303030303030303030303030303030303030303030303030303030303030303030303030303030342e6a736f6e00000000000000",
        "nonce": "0x504f6",
        "chainId": "0xa"
      },
      "additionalContracts": [],
      "isFixedGasLimit": false
    }
  ],
  "receipts": [
    {
      "status": "0x1",
      "cumulativeGasUsed": "0xe1602c",
      "logs": [
        {
          "address": "0xbc24012488bfcfe44875a139299595879c43c2cd",
          "topics": [
            "0x2e5977e12fac9a91696e22ba811f2893e11ad62f8aa53e99a628b031d18a379f",
            "0x0000000000000000000000000000000000000000000000000000000000000019"
          ],
          "data": "0x000000000000000000000000000000000000000000000000000000000000002000000000000000000000000000000000000000000000000000000000000000b9697066732f516d507062335a584a6576596e337972466770504632556f544b567265677843786a624c50696534395a6f61386e2f30303030303030303030303030303030303030303030303030303030303030303030303030303030303030303030303030303030303030303030303030303235303030303030303030303030303030303030303030303030303030303030303030303030303030303030303030303030303030303030303030303030303030302e6a736f6e00000000000000",
          "blockHash": "0xca1000e58aab9be34c9d918bd07319e0e59809053a33411cd96ac04ffde14afb",
          "blockNumber": "0x855ecac",
          "transactionHash": "0x95716da3c245a016d62423a7dcfb29953aa93596355fde5f98b7c26dadfff3dc",
          "transactionIndex": "0x1a",
          "logIndex": "0x210",
          "removed": false
        }
      ],
      "logsBloom": "0x00000000040000000200000000000000000000000000000000000000000000000000000000000000000000000000000000000000000000800000000000000000000000000000000000000000000000000000000000000000000000000000000000000000000000000000000000000000000000000000020000000000000004000000000000000000000000000000000000000000000000000000000000000000000000000000000000000000000000000000000000000100000000000000000000000000000000000000000000000000000000000000000000004000400000000000000000000000000000000000000000000000000000000000008000000000",
      "type": "0x2",
      "transactionHash": "0x95716da3c245a016d62423a7dcfb29953aa93596355fde5f98b7c26dadfff3dc",
      "transactionIndex": "0x1a",
      "blockHash": "0xca1000e58aab9be34c9d918bd07319e0e59809053a33411cd96ac04ffde14afb",
      "blockNumber": "0x855ecac",
      "gasUsed": "0x2f346",
      "effectiveGasPrice": "0x19a40",
      "from": "0x8835669696fb92839ab198cd80ce9f0d35f45ad5",
      "to": "0xbc24012488bfcfe44875a139299595879c43c2cd",
      "contractAddress": null,
      "l1BaseFeeScalar": "0x146b",
      "l1BlobBaseFee": "0x1",
      "l1BlobBaseFeeScalar": "0xf79c5",
      "l1Fee": "0x13575dff1",
      "l1GasPrice": "0x1af52b12",
      "l1GasUsed": "0x894",
      "operatorFeeConstant": "0x0",
      "operatorFeeScalar": "0x0"
    },
    {
      "status": "0x1",
      "cumulativeGasUsed": "0xe510fc",
      "logs": [
        {
          "address": "0xbc24012488bfcfe44875a139299595879c43c2cd",
          "topics": [
            "0x5625f15df4cbadf2e6e3f80e2406aec5d99a432335ef0e9a1fba9e48b0558303",
            "0x0000000000000000000000000000000000000000000000000000000000000019"
          ],
          "data": "0x00000000000000000000000000000000000000000000000000000000000000010000000000000000000000000000000000000000000000000000000000000060000000000000000000000000000000000000000000000000000000000000000a00000000000000000000000000000000000000000000000000000000000000b9697066732f516d507062335a584a6576596e337972466770504632556f544b567265677843786a624c50696534395a6f61386e2f30303030303030303030303030303030303030303030303030303030303030303030303030303030303030303030303030303030303030303030303030303235303030303030303030303030303030303030303030303030303030303030303030303030303030303030303030303030303030303030303030303030303030312e6a736f6e00000000000000",
          "blockHash": "0xca1000e58aab9be34c9d918bd07319e0e59809053a33411cd96ac04ffde14afb",
          "blockNumber": "0x855ecac",
          "transactionHash": "0x1514dd8f86661efa57025a6366a8b34c7cc7e5a7ae33c010b76589072f57ab85",
          "transactionIndex": "0x1b",
          "logIndex": "0x211",
          "removed": false
        }
      ],
      "logsBloom": "0x00000000040000000200000000000000000000000000000000000000000000000000000000000000000000000000000000000000000000800000000000000000000000000000000000000000000000000000000000000000000000000000000000040000000000000000000000000000000000000000020000000000000000000000000000000000000000000000000000000000000000000000000000000000000000000000000000000000000000000000000000000000000000000000000000000000000000000000004000000000000000000000000000004000000000000000000000000000000000000000000000000000010000000000008000000000",
      "type": "0x2",
      "transactionHash": "0x1514dd8f86661efa57025a6366a8b34c7cc7e5a7ae33c010b76589072f57ab85",
      "transactionIndex": "0x1b",
      "blockHash": "0xca1000e58aab9be34c9d918bd07319e0e59809053a33411cd96ac04ffde14afb",
      "blockNumber": "0x855ecac",
      "gasUsed": "0x3b0d0",
      "effectiveGasPrice": "0x19a40",
      "from": "0x8835669696fb92839ab198cd80ce9f0d35f45ad5",
      "to": "0xbc24012488bfcfe44875a139299595879c43c2cd",
      "contractAddress": null,
      "l1BaseFeeScalar": "0x146b",
      "l1BlobBaseFee": "0x1",
      "l1BlobBaseFeeScalar": "0xf79c5",
      "l1Fee": "0x151bfc573",
      "l1GasPrice": "0x1af52b12",
      "l1GasUsed": "0x95c",
      "operatorFeeConstant": "0x0",
      "operatorFeeScalar": "0x0"
    },
    {
      "status": "0x1",
      "cumulativeGasUsed": "0xe888ae",
      "logs": [
        {
          "address": "0xbc24012488bfcfe44875a139299595879c43c2cd",
          "topics": [
            "0x5625f15df4cbadf2e6e3f80e2406aec5d99a432335ef0e9a1fba9e48b0558303",
            "0x0000000000000000000000000000000000000000000000000000000000000019"
          ],
          "data": "0x00000000000000000000000000000000000000000000000000000000000000020000000000000000000000000000000000000000000000000000000000000060000000000000000000000000000000000000000000000000000000000000002800000000000000000000000000000000000000000000000000000000000000b9697066732f516d507062335a584a6576596e337972466770504632556f544b567265677843786a624c50696534395a6f61386e2f30303030303030303030303030303030303030303030303030303030303030303030303030303030303030303030303030303030303030303030303030303235303030303030303030303030303030303030303030303030303030303030303030303030303030303030303030303030303030303030303030303030303030322e6a736f6e00000000000000",
          "blockHash": "0xca1000e58aab9be34c9d918bd07319e0e59809053a33411cd96ac04ffde14afb",
          "blockNumber": "0x855ecac",
          "transactionHash": "0x1369c70c6ce81b74eddba30771e2ed9457132c01aa02ca5b374d73634b7fdd90",
          "transactionIndex": "0x1c",
          "logIndex": "0x212",
          "removed": false
        }
      ],
      "logsBloom": "0x00000000040000000200000000000000000000000000000000000000000000000000000000000000000000000000000000000000000000800000000000000000000000000000000000000000000000000000000000000000000000000000000000040000000000000000000000000000000000000000020000000000000000000000000000000000000000000000000000000000000000000000000000000000000000000000000000000000000000000000000000000000000000000000000000000000000000000000004000000000000000000000000000004000000000000000000000000000000000000000000000000000010000000000008000000000",
      "type": "0x2",
      "transactionHash": "0x1369c70c6ce81b74eddba30771e2ed9457132c01aa02ca5b374d73634b7fdd90",
      "transactionIndex": "0x1c",
      "blockHash": "0xca1000e58aab9be34c9d918bd07319e0e59809053a33411cd96ac04ffde14afb",
      "blockNumber": "0x855ecac",
      "gasUsed": "0x377b2",
      "effectiveGasPrice": "0x19a40",
      "from": "0x8835669696fb92839ab198cd80ce9f0d35f45ad5",
      "to": "0xbc24012488bfcfe44875a139299595879c43c2cd",
      "contractAddress": null,
      "l1BaseFeeScalar": "0x146b",
      "l1BlobBaseFee": "0x1",
      "l1BlobBaseFeeScalar": "0xf79c5",
      "l1Fee": "0x14fdcfa6a",
      "l1GasPrice": "0x1af52b12",
      "l1GasUsed": "0x94f",
      "operatorFeeConstant": "0x0",
      "operatorFeeScalar": "0x0"
    },
    {
      "status": "0x1",
      "cumulativeGasUsed": "0xec0060",
      "logs": [
        {
          "address": "0xbc24012488bfcfe44875a139299595879c43c2cd",
          "topics": [
            "0x5625f15df4cbadf2e6e3f80e2406aec5d99a432335ef0e9a1fba9e48b0558303",
            "0x0000000000000000000000000000000000000000000000000000000000000019"
          ],
          "data": "0x00000000000000000000000000000000000000000000000000000000000000030000000000000000000000000000000000000000000000000000000000000060000000000000000000000000000000000000000000000000000000000000005000000000000000000000000000000000000000000000000000000000000000b9697066732f516d507062335a584a6576596e337972466770504632556f544b567265677843786a624c50696534395a6f61386e2f30303030303030303030303030303030303030303030303030303030303030303030303030303030303030303030303030303030303030303030303030303235303030303030303030303030303030303030303030303030303030303030303030303030303030303030303030303030303030303030303030303030303030332e6a736f6e00000000000000",
          "blockHash": "0xca1000e58aab9be34c9d918bd07319e0e59809053a33411cd96ac04ffde14afb",
          "blockNumber": "0x855ecac",
          "transactionHash": "0x833b0379dc2e72bc704bb3ec111ece0e1907e7172be27ecdd750bd8356d1d9e3",
          "transactionIndex": "0x1d",
          "logIndex": "0x213",
          "removed": false
        }
      ],
      "logsBloom": "0x00000000040000000200000000000000000000000000000000000000000000000000000000000000000000000000000000000000000000800000000000000000000000000000000000000000000000000000000000000000000000000000000000040000000000000000000000000000000000000000020000000000000000000000000000000000000000000000000000000000000000000000000000000000000000000000000000000000000000000000000000000000000000000000000000000000000000000000004000000000000000000000000000004000000000000000000000000000000000000000000000000000010000000000008000000000",
      "type": "0x2",
      "transactionHash": "0x833b0379dc2e72bc704bb3ec111ece0e1907e7172be27ecdd750bd8356d1d9e3",
      "transactionIndex": "0x1d",
      "blockHash": "0xca1000e58aab9be34c9d918bd07319e0e59809053a33411cd96ac04ffde14afb",
      "blockNumber": "0x855ecac",
      "gasUsed": "0x377b2",
      "effectiveGasPrice": "0x19a40",
      "from": "0x8835669696fb92839ab198cd80ce9f0d35f45ad5",
      "to": "0xbc24012488bfcfe44875a139299595879c43c2cd",
      "contractAddress": null,
      "l1BaseFeeScalar": "0x146b",
      "l1BlobBaseFee": "0x1",
      "l1BlobBaseFeeScalar": "0xf79c5",
      "l1Fee": "0x151bfc573",
      "l1GasPrice": "0x1af52b12",
      "l1GasUsed": "0x95c",
      "operatorFeeConstant": "0x0",
      "operatorFeeScalar": "0x0"
    },
    {
      "status": "0x1",
      "cumulativeGasUsed": "0xef7812",
      "logs": [
        {
          "address": "0xbc24012488bfcfe44875a139299595879c43c2cd",
          "topics": [
            "0x5625f15df4cbadf2e6e3f80e2406aec5d99a432335ef0e9a1fba9e48b0558303",
            "0x0000000000000000000000000000000000000000000000000000000000000019"
          ],
          "data": "0x00000000000000000000000000000000000000000000000000000000000000040000000000000000000000000000000000000000000000000000000000000060000000000000000000000000000000000000000000000000000000000000007800000000000000000000000000000000000000000000000000000000000000b9697066732f516d507062335a584a6576596e337972466770504632556f544b567265677843786a624c50696534395a6f61386e2f30303030303030303030303030303030303030303030303030303030303030303030303030303030303030303030303030303030303030303030303030303235303030303030303030303030303030303030303030303030303030303030303030303030303030303030303030303030303030303030303030303030303030342e6a736f6e00000000000000",
          "blockHash": "0xca1000e58aab9be34c9d918bd07319e0e59809053a33411cd96ac04ffde14afb",
          "blockNumber": "0x855ecac",
          "transactionHash": "0xb424e93b7f15e4abc447a6cfc2d51eb1b05a86fae176d7aa9c5ffc735d3f1cab",
          "transactionIndex": "0x1e",
          "logIndex": "0x214",
          "removed": false
        }
      ],
      "logsBloom": "0x00000000040000000200000000000000000000000000000000000000000000000000000000000000000000000000000000000000000000800000000000000000000000000000000000000000000000000000000000000000000000000000000000040000000000000000000000000000000000000000020000000000000000000000000000000000000000000000000000000000000000000000000000000000000000000000000000000000000000000000000000000000000000000000000000000000000000000000004000000000000000000000000000004000000000000000000000000000000000000000000000000000010000000000008000000000",
      "type": "0x2",
      "transactionHash": "0xb424e93b7f15e4abc447a6cfc2d51eb1b05a86fae176d7aa9c5ffc735d3f1cab",
      "transactionIndex": "0x1e",
      "blockHash": "0xca1000e58aab9be34c9d918bd07319e0e59809053a33411cd96ac04ffde14afb",
      "blockNumber": "0x855ecac",
      "gasUsed": "0x377b2",
      "effectiveGasPrice": "0x19a40",
      "from": "0x8835669696fb92839ab198cd80ce9f0d35f45ad5",
      "to": "0xbc24012488bfcfe44875a139299595879c43c2cd",
      "contractAddress": null,
      "l1BaseFeeScalar": "0x146b",
      "l1BlobBaseFee": "0x1",
      "l1BlobBaseFeeScalar": "0xf79c5",
      "l1Fee": "0x151bfc573",
      "l1GasPrice": "0x1af52b12",
      "l1GasUsed": "0x95c",
      "operatorFeeConstant": "0x0",
      "operatorFeeScalar": "0x0"
    }
  ],
  "libraries": [],
  "pending": [],
  "returns": {},
  "timestamp": 1755296530,
  "chain": 10,
  "commit": "aa500bc"
}