{
  "transactions": [
    {
      "hash": "0x3a631d45e7d9fc25f03f2fde0a25557ec0d7637270a6144a98d0519f9ebde73c",
      "transactionType": "CALL",
      "contractName": null,
      "contractAddress": "0x03e2c563cf77e3cdc0b7663cee117da14ea60848",
      "function": "updateBadgeMetadata(uint256,string)",
      "arguments": [
        "27",
        "ipfs/QmUiYmtQguj6DT7B3DDussYHxYw2ShW1cuAvfwrPtKA9Wm/00000000000000000000000000000000000000000000000000000000000000270000000000000000000000000000000000000000000000000000000000000000.json"
      ],
      "transaction": {
        "from": "0x8835669696fb92839ab198cd80ce9f0d35f45ad5",
        "to": "0x03e2c563cf77e3cdc0b7663cee117da14ea60848",
        "gas": "0x15652",
        "value": "0x0",
        "input": "0x47461b40000000000000000000000000000000000000000000000000000000000000001b000000000000000000000000000000000000000000000000000000000000004000000000000000000000000000000000000000000000000000000000000000b9697066732f516d5569596d745167756a3644543742334444757373594878597732536857316375417666777250744b4139576d2f30303030303030303030303030303030303030303030303030303030303030303030303030303030303030303030303030303030303030303030303030303237303030303030303030303030303030303030303030303030303030303030303030303030303030303030303030303030303030303030303030303030303030302e6a736f6e00000000000000",
        "nonce": "0x5af25",
        "chainId": "0xa"
      },
      "additionalContracts": [],
      "isFixedGasLimit": false
    },
    {
      "hash": "0xa0beff72c91da6aa162fa0dc1b7dd4fe97fc71553ee90084e8de5acbe42e8fbd",
      "transactionType": "CALL",
      "contractName": null,
      "contractAddress": "0x03e2c563cf77e3cdc0b7663cee117da14ea60848",
      "function": "updateBadgeTierMetadata(uint256,uint256,string)",
      "arguments": [
        "27",
        "1",
        "ipfs/QmUiYmtQguj6DT7B3DDussYHxYw2ShW1cuAvfwrPtKA9Wm/00000000000000000000000000000000000000000000000000000000000000270000000000000000000000000000000000000000000000000000000000000001.json"
      ],
      "transaction": {
        "from": "0x8835669696fb92839ab198cd80ce9f0d35f45ad5",
        "to": "0x03e2c563cf77e3cdc0b7663cee117da14ea60848",
        "gas": "0x154b6",
        "value": "0x0",
        "input": "0xc43e4f4c000000000000000000000000000000000000000000000000000000000000001b0000000000000000000000000000000000000000000000000000000000000001000000000000000000000000000000000000000000000000000000000000006000000000000000000000000000000000000000000000000000000000000000b9697066732f516d5569596d745167756a3644543742334444757373594878597732536857316375417666777250744b4139576d2f30303030303030303030303030303030303030303030303030303030303030303030303030303030303030303030303030303030303030303030303030303237303030303030303030303030303030303030303030303030303030303030303030303030303030303030303030303030303030303030303030303030303030312e6a736f6e00000000000000",
        "nonce": "0x5af26",
        "chainId": "0xa"
      },
      "additionalContracts": [],
      "isFixedGasLimit": false
    }
  ],
  "receipts": [
    {
      "status": "0x1",
      "cumulativeGasUsed": "0x750b55",
      "logs": [
        {
          "address": "0x03e2c563cf77e3cdc0b7663cee117da14ea60848",
          "topics": [
            "0xb810609e93b7325976c078b96d9c92d3160d0d165073b8c9a8a6a4d257fd0477",
            "0x000000000000000000000000000000000000000000000000000000000000001b"
          ],
          "data": "0x000000000000000000000000000000000000000000000000000000000000002000000000000000000000000000000000000000000000000000000000000000b9697066732f516d5569596d745167756a3644543742334444757373594878597732536857316375417666777250744b4139576d2f30303030303030303030303030303030303030303030303030303030303030303030303030303030303030303030303030303030303030303030303030303237303030303030303030303030303030303030303030303030303030303030303030303030303030303030303030303030303030303030303030303030303030302e6a736f6e00000000000000",
          "blockHash": "0x113f2a3b1ee514caccb88dd625f8d7a8082848f008b4c6d01740e9549128dfaa",
          "blockNumber": "0x88f3072",
          "blockTimestamp": "0x69123a9d",
          "transactionHash": "0x3a631d45e7d9fc25f03f2fde0a25557ec0d7637270a6144a98d0519f9ebde73c",
          "transactionIndex": "0x1b",
          "logIndex": "0x55",
          "removed": false
        }
      ],
      "logsBloom": "0x00000000000000000000000000000000000000000010000000000000000000040000000000000000000000000000000000000000000000000000000000008000000000000000000000000000000000000000000000000000000000400000000000000000000000000000000000000000000000000000000000000000000000000000000000000000001000000000000000000000000000000000000000000000000000000100000000000000000000000000000000008000000000000000001000000000000000000000000000000000000000000000000000000020000000000000000000000000000000000000000000000000000000000000000000000000",
      "type": "0x2",
      "transactionHash": "0x3a631d45e7d9fc25f03f2fde0a25557ec0d7637270a6144a98d0519f9ebde73c",
      "transactionIndex": "0x1b",
      "blockHash": "0x113f2a3b1ee514caccb88dd625f8d7a8082848f008b4c6d01740e9549128dfaa",
      "blockNumber": "0x88f3072",
      "gasUsed": "0xea11",
      "effectiveGasPrice": "0x1dd",
      "from": "0x8835669696fb92839ab198cd80ce9f0d35f45ad5",
      "to": "0x03e2c563cf77e3cdc0b7663cee117da14ea60848",
      "contractAddress": null,
      "l1BaseFeeScalar": "0x146b",
      "l1BlobBaseFee": "0x1",
      "l1BlobBaseFeeScalar": "0xf79c5",
      "l1Fee": "0x21a120cbc",
      "l1GasPrice": "0xb75fede",
      "l1GasUsed": "0x851"
    },
    {
      "status": "0x1",
      "cumulativeGasUsed": "0x760201",
      "logs": [
        {
          "address": "0x03e2c563cf77e3cdc0b7663cee117da14ea60848",
          "topics": [
            "0x3e442b5d5a6ecd8c0a86017cabd5ee0efbf32debbee58f9cea68f1b8489e4193",
            "0x000000000000000000000000000000000000000000000000000000000000001b"
          ],
          "data": "0x0000000000000000000000000000000000000000000000000000000000000001000000000000000000000000000000000000000000000000000000000000004000000000000000000000000000000000000000000000000000000000000000b9697066732f516d5569596d745167756a3644543742334444757373594878597732536857316375417666777250744b4139576d2f30303030303030303030303030303030303030303030303030303030303030303030303030303030303030303030303030303030303030303030303030303237303030303030303030303030303030303030303030303030303030303030303030303030303030303030303030303030303030303030303030303030303030312e6a736f6e00000000000000",
          "blockHash": "0x113f2a3b1ee514caccb88dd625f8d7a8082848f008b4c6d01740e9549128dfaa",
          "blockNumber": "0x88f3072",
          "blockTimestamp": "0x69123a9d",
          "transactionHash": "0xa0beff72c91da6aa162fa0dc1b7dd4fe97fc71553ee90084e8de5acbe42e8fbd",
          "transactionIndex": "0x1c",
          "logIndex": "0x56",
          "removed": false
        }
      ],
      "logsBloom": "0x00000000000000000000000000000000000000000010000000000000000000000000000000000000000000000000000000000000000000000000000000008000000000000000000000000000000000000000000000000000000000000000000000000010000000000000000000000000000000000000000000000000000000000000000000000000001000000000000000000000000000000000000000000000000000200100000000000000000000000000000000008000000000000000001000000000000000000000000000000000000000000000000200000000000000000000000000000000000000000000000000000000000000000000000000000000",
      "type": "0x2",
      "transactionHash": "0xa0beff72c91da6aa162fa0dc1b7dd4fe97fc71553ee90084e8de5acbe42e8fbd",
      "transactionIndex": "0x1c",
      "blockHash": "0x113f2a3b1ee514caccb88dd625f8d7a8082848f008b4c6d01740e9549128dfaa",
      "blockNumber": "0x88f3072",
      "gasUsed": "0xf6ac",
      "effectiveGasPrice": "0x1dd",
      "from": "0x8835669696fb92839ab198cd80ce9f0d35f45ad5",
      "to": "0x03e2c563cf77e3cdc0b7663cee117da14ea60848",
      "contractAddress": null,
      "l1BaseFeeScalar": "0x146b",
      "l1BlobBaseFee": "0x1",
      "l1BlobBaseFeeScalar": "0xf79c5",
      "l1Fee": "0x21a120cbc",
      "l1GasPrice": "0xb75fede",
      "l1GasUsed": "0x8e4"
    }
  ],
  "libraries": [],
  "pending": [],
  "returns": {},
  "timestamp": 1762802331171,
  "chain": 10,
  "commit": "66dcad1"
}