{
  "transactions": [
    {
      "hash": "0xffcf14ffff69adc7a93049c32f9a4f8fe4b2d7bf9eddec86397e521975b0b46b",
      "transactionType": "CALL",
      "contractName": null,
      "contractAddress": "0x03e2c563cf77e3cdc0b7663cee117da14ea60848",
      "function": "setBadgeMetadata(uint256,string)",
      "arguments": [
        "20",
        "ipfs/QmSc2G6ozeiotUVtpzDeXUF6FrK5R31R5kESHLVfn5B9o8/00000000000000000000000000000000000000000000000000000000000000200000000000000000000000000000000000000000000000000000000000000000.json"
      ],
      "transaction": {
        "from": "0x8835669696fb92839ab198cd80ce9f0d35f45ad5",
        "to": "0x03e2c563cf77e3cdc0b7663cee117da14ea60848",
        "gas": "0x41165",
        "value": "0x0",
        "input": "0xce64b45f0000000000000000000000000000000000000000000000000000000000000014000000000000000000000000000000000000000000000000000000000000004000000000000000000000000000000000000000000000000000000000000000b9697066732f516d53633247366f7a65696f74555674707a44655855463646724b3552333152356b4553484c56666e3542396f382f30303030303030303030303030303030303030303030303030303030303030303030303030303030303030303030303030303030303030303030303030303230303030303030303030303030303030303030303030303030303030303030303030303030303030303030303030303030303030303030303030303030303030302e6a736f6e00000000000000",
        "nonce": "0x368fa",
        "chainId": "0xa"
      },
      "additionalContracts": [],
      "isFixedGasLimit": false
    },
    {
      "hash": "0x71c8024bb9e01f136fd167f338eaa6c592f62321149a07452849edec537b13bc",
      "transactionType": "CALL",
      "contractName": null,
      "contractAddress": "0x03e2c563cf77e3cdc0b7663cee117da14ea60848",
      "function": "updateBadgeMetadata(uint256,string)",
      "arguments": [
        "21",
        "ipfs/QmSc2G6ozeiotUVtpzDeXUF6FrK5R31R5kESHLVfn5B9o8/00000000000000000000000000000000000000000000000000000000000000210000000000000000000000000000000000000000000000000000000000000000.json"
      ],
      "transaction": {
        "from": "0x8835669696fb92839ab198cd80ce9f0d35f45ad5",
        "to": "0x03e2c563cf77e3cdc0b7663cee117da14ea60848",
        "gas": "0x13654",
        "value": "0x0",
        "input": "0x47461b400000000000000000000000000000000000000000000000000000000000000015000000000000000000000000000000000000000000000000000000000000004000000000000000000000000000000000000000000000000000000000000000b9697066732f516d53633247366f7a65696f74555674707a44655855463646724b3552333152356b4553484c56666e3542396f382f30303030303030303030303030303030303030303030303030303030303030303030303030303030303030303030303030303030303030303030303030303231303030303030303030303030303030303030303030303030303030303030303030303030303030303030303030303030303030303030303030303030303030302e6a736f6e00000000000000",
        "nonce": "0x368fb",
        "chainId": "0xa"
      },
      "additionalContracts": [],
      "isFixedGasLimit": false
    },
    {
      "hash": "0x356bbc1a7a204f00409fdcb2daa0654441e1ea80b6ca03e1834f8c49be1fe56a",
      "transactionType": "CALL",
      "contractName": null,
      "contractAddress": "0x03e2c563cf77e3cdc0b7663cee117da14ea60848",
      "function": "setBadgeTier(uint256,uint256,string,uint256)",
      "arguments": [
        "20",
        "1",
        "ipfs/QmSc2G6ozeiotUVtpzDeXUF6FrK5R31R5kESHLVfn5B9o8/00000000000000000000000000000000000000000000000000000000000000200000000000000000000000000000000000000000000000000000000000000001.json",
        "10"
      ],
      "transaction": {
        "from": "0x8835669696fb92839ab198cd80ce9f0d35f45ad5",
        "to": "0x03e2c563cf77e3cdc0b7663cee117da14ea60848",
        "gas": "0x51731",
        "value": "0x0",
        "input": "0xcf132d1c000000000000000000000000000000000000000000000000000000000000001400000000000000000000000000000000000000000000000000000000000000010000000000000000000000000000000000000000000000000000000000000080000000000000000000000000000000000000000000000000000000000000000a00000000000000000000000000000000000000000000000000000000000000b9697066732f516d53633247366f7a65696f74555674707a44655855463646724b3552333152356b4553484c56666e3542396f382f30303030303030303030303030303030303030303030303030303030303030303030303030303030303030303030303030303030303030303030303030303230303030303030303030303030303030303030303030303030303030303030303030303030303030303030303030303030303030303030303030303030303030312e6a736f6e00000000000000",
        "nonce": "0x368fc",
        "chainId": "0xa"
      },
      "additionalContracts": [],
      "isFixedGasLimit": false
    },
    {
      "hash": "0x81a30cdfa52b1f600998de0412f6d4462f1d644ce04f3b5591ad31f433412a57",
      "transactionType": "CALL",
      "contractName": null,
      "contractAddress": "0x03e2c563cf77e3cdc0b7663cee117da14ea60848",
      "function": "setBadgeTier(uint256,uint256,string,uint256)",
      "arguments": [
        "20",
        "2",
        "ipfs/QmSc2G6ozeiotUVtpzDeXUF6FrK5R31R5kESHLVfn5B9o8/00000000000000000000000000000000000000000000000000000000000000200000000000000000000000000000000000000000000000000000000000000002.json",
        "20"
      ],
      "transaction": {
        "from": "0x8835669696fb92839ab198cd80ce9f0d35f45ad5",
        "to": "0x03e2c563cf77e3cdc0b7663cee117da14ea60848",
        "gas": "0x4c84e",
        "value": "0x0",
        "input": "0xcf132d1c000000000000000000000000000000000000000000000000000000000000001400000000000000000000000000000000000000000000000000000000000000020000000000000000000000000000000000000000000000000000000000000080000000000000000000000000000000000000000000000000000000000000001400000000000000000000000000000000000000000000000000000000000000b9697066732f516d53633247366f7a65696f74555674707a44655855463646724b3552333152356b4553484c56666e3542396f382f30303030303030303030303030303030303030303030303030303030303030303030303030303030303030303030303030303030303030303030303030303230303030303030303030303030303030303030303030303030303030303030303030303030303030303030303030303030303030303030303030303030303030322e6a736f6e00000000000000",
        "nonce": "0x368fd",
        "chainId": "0xa"
      },
      "additionalContracts": [],
      "isFixedGasLimit": false
    },
    {
      "hash": "0x6e0b22acaa4384e892ef1f679ec3e4a38cca7c1f573ed05aae187fdaca0f5346",
      "transactionType": "CALL",
      "contractName": null,
      "contractAddress": "0x03e2c563cf77e3cdc0b7663cee117da14ea60848",
      "function": "setBadgeTier(uint256,uint256,string,uint256)",
      "arguments": [
        "20",
        "3",
        "ipfs/QmSc2G6ozeiotUVtpzDeXUF6FrK5R31R5kESHLVfn5B9o8/00000000000000000000000000000000000000000000000000000000000000200000000000000000000000000000000000000000000000000000000000000003.json",
        "30"
      ],
      "transaction": {
        "from": "0x8835669696fb92839ab198cd80ce9f0d35f45ad5",
        "to": "0x03e2c563cf77e3cdc0b7663cee117da14ea60848",
        "gas": "0x4c84e",
        "value": "0x0",
        "input": "0xcf132d1c000000000000000000000000000000000000000000000000000000000000001400000000000000000000000000000000000000000000000000000000000000030000000000000000000000000000000000000000000000000000000000000080000000000000000000000000000000000000000000000000000000000000001e00000000000000000000000000000000000000000000000000000000000000b9697066732f516d53633247366f7a65696f74555674707a44655855463646724b3552333152356b4553484c56666e3542396f382f30303030303030303030303030303030303030303030303030303030303030303030303030303030303030303030303030303030303030303030303030303230303030303030303030303030303030303030303030303030303030303030303030303030303030303030303030303030303030303030303030303030303030332e6a736f6e00000000000000",
        "nonce": "0x368fe",
        "chainId": "0xa"
      },
      "additionalContracts": [],
      "isFixedGasLimit": false
    },
    {
      "hash": "0x3165c8cd4a9cfc50a747f486d99ad89bb73bdb84803f11740d411bb74d1e4c12",
      "transactionType": "CALL",
      "contractName": null,
      "contractAddress": "0x03e2c563cf77e3cdc0b7663cee117da14ea60848",
      "function": "updateBadgeTierMetadata(uint256,uint256,string)",
      "arguments": [
        "21",
        "1",
        "ipfs/QmSc2G6ozeiotUVtpzDeXUF6FrK5R31R5kESHLVfn5B9o8/00000000000000000000000000000000000000000000000000000000000000210000000000000000000000000000000000000000000000000000000000000001.json"
      ],
      "transaction": {
        "from": "0x8835669696fb92839ab198cd80ce9f0d35f45ad5",
        "to": "0x03e2c563cf77e3cdc0b7663cee117da14ea60848",
        "gas": "0x1367f",
        "value": "0x0",
        "input": "0xc43e4f4c00000000000000000000000000000000000000000000000000000000000000150000000000000000000000000000000000000000000000000000000000000001000000000000000000000000000000000000000000000000000000000000006000000000000000000000000000000000000000000000000000000000000000b9697066732f516d53633247366f7a65696f74555674707a44655855463646724b3552333152356b4553484c56666e3542396f382f30303030303030303030303030303030303030303030303030303030303030303030303030303030303030303030303030303030303030303030303030303231303030303030303030303030303030303030303030303030303030303030303030303030303030303030303030303030303030303030303030303030303030312e6a736f6e00000000000000",
        "nonce": "0x368ff",
        "chainId": "0xa"
      },
      "additionalContracts": [],
      "isFixedGasLimit": false
    },
    {
      "hash": "0x20be4cde7817509508e7bd75f1f3e2a9b250bdeff897b2435075b93668218d62",
      "transactionType": "CALL",
      "contractName": null,
      "contractAddress": "0x03e2c563cf77e3cdc0b7663cee117da14ea60848",
      "function": "updateBadgeTierMetadata(uint256,uint256,string)",
      "arguments": [
        "21",
        "2",
        "ipfs/QmSc2G6ozeiotUVtpzDeXUF6FrK5R31R5kESHLVfn5B9o8/00000000000000000000000000000000000000000000000000000000000000210000000000000000000000000000000000000000000000000000000000000002.json"
      ],
      "transaction": {
        "from": "0x8835669696fb92839ab198cd80ce9f0d35f45ad5",
        "to": "0x03e2c563cf77e3cdc0b7663cee117da14ea60848",
        "gas": "0x1367f",
        "value": "0x0",
        "input": "0xc43e4f4c00000000000000000000000000000000000000000000000000000000000000150000000000000000000000000000000000000000000000000000000000000002000000000000000000000000000000000000000000000000000000000000006000000000000000000000000000000000000000000000000000000000000000b9697066732f516d53633247366f7a65696f74555674707a44655855463646724b3552333152356b4553484c56666e3542396f382f30303030303030303030303030303030303030303030303030303030303030303030303030303030303030303030303030303030303030303030303030303231303030303030303030303030303030303030303030303030303030303030303030303030303030303030303030303030303030303030303030303030303030322e6a736f6e00000000000000",
        "nonce": "0x36900",
        "chainId": "0xa"
      },
      "additionalContracts": [],
      "isFixedGasLimit": false
    },
    {
      "hash": "0x3cc10e3f4c7589e481893d5ff56774ea0cfaf225b99242a9725c9bd1e9c8aab1",
      "transactionType": "CALL",
      "contractName": null,
      "contractAddress": "0x03e2c563cf77e3cdc0b7663cee117da14ea60848",
      "function": "setBadgeTier(uint256,uint256,string,uint256)",
      "arguments": [
        "21",
        "3",
        "ipfs/QmSc2G6ozeiotUVtpzDeXUF6FrK5R31R5kESHLVfn5B9o8/00000000000000000000000000000000000000000000000000000000000000210000000000000000000000000000000000000000000000000000000000000003.json",
        "30"
      ],
      "transaction": {
        "from": "0x8835669696fb92839ab198cd80ce9f0d35f45ad5",
        "to": "0x03e2c563cf77e3cdc0b7663cee117da14ea60848",
        "gas": "0x4c84e",
        "value": "0x0",
        "input": "0xcf132d1c000000000000000000000000000000000000000000000000000000000000001500000000000000000000000000000000000000000000000000000000000000030000000000000000000000000000000000000000000000000000000000000080000000000000000000000000000000000000000000000000000000000000001e00000000000000000000000000000000000000000000000000000000000000b9697066732f516d53633247366f7a65696f74555674707a44655855463646724b3552333152356b4553484c56666e3542396f382f30303030303030303030303030303030303030303030303030303030303030303030303030303030303030303030303030303030303030303030303030303231303030303030303030303030303030303030303030303030303030303030303030303030303030303030303030303030303030303030303030303030303030332e6a736f6e00000000000000",
        "nonce": "0x36901",
        "chainId": "0xa"
      },
      "additionalContracts": [],
      "isFixedGasLimit": false
    }
  ],
  "receipts": [
    {
      "status": "0x1",
      "cumulativeGasUsed": "0xc6b1b6",
      "logs": [
        {
          "address": "0x03e2c563cf77e3cdc0b7663cee117da14ea60848",
          "topics": [
            "0x2e5977e12fac9a91696e22ba811f2893e11ad62f8aa53e99a628b031d18a379f",
            "0x0000000000000000000000000000000000000000000000000000000000000014"
          ],
          "data": "0x000000000000000000000000000000000000000000000000000000000000002000000000000000000000000000000000000000000000000000000000000000b9697066732f516d53633247366f7a65696f74555674707a44655855463646724b3552333152356b4553484c56666e3542396f382f30303030303030303030303030303030303030303030303030303030303030303030303030303030303030303030303030303030303030303030303030303230303030303030303030303030303030303030303030303030303030303030303030303030303030303030303030303030303030303030303030303030303030302e6a736f6e00000000000000",
          "blockHash": "0x7bb35fe66f148d719ba715b3e224fee6f67eb7e966b0529e56fe7f19dabea065",
          "blockNumber": "0x82a3ee3",
          "blockTimestamp": "0x6848577f",
          "transactionHash": "0xffcf14ffff69adc7a93049c32f9a4f8fe4b2d7bf9eddec86397e521975b0b46b",
          "transactionIndex": "0x16",
          "logIndex": "0x14f",
          "removed": false
        }
      ],
      "logsBloom": "0x00000000000000000000000000000000000000000000000000000000000000000000000000000000000000000000000000002000000000000000000000008000000000000000000000000000000000000000000000000000000000000000000000000000000000000000000000000000000000000000000000000000000004000000000000000000001000000000000000000000000400000000000000000000000000000000000020000000000000000000000000000100000000000000001000000000000000000000000000000000000000000000000000000000400000000000000000000000000000000000000000000000000000000000000000000000",
      "type": "0x2",
      "transactionHash": "0xffcf14ffff69adc7a93049c32f9a4f8fe4b2d7bf9eddec86397e521975b0b46b",
      "transactionIndex": "0x16",
      "blockHash": "0x7bb35fe66f148d719ba715b3e224fee6f67eb7e966b0529e56fe7f19dabea065",
      "blockNumber": "0x82a3ee3",
      "gasUsed": "0x2f1f4",
      "effectiveGasPrice": "0x10a6",
      "from": "0x8835669696fb92839ab198cd80ce9f0d35f45ad5",
      "to": "0x03e2c563cf77e3cdc0b7663cee117da14ea60848",
      "contractAddress": null,
      "l1BaseFeeScalar": "0x146b",
      "l1BlobBaseFee": "0x1",
      "l1BlobBaseFeeScalar": "0xf79c5",
      "l1Fee": "0x10c0eb172a",
      "l1GasPrice": "0x17c92de9d",
      "l1GasUsed": "0x86c"
    },
    {
      "status": "0x1",
      "cumulativeGasUsed": "0xc785e7",
      "logs": [
        {
          "address": "0x03e2c563cf77e3cdc0b7663cee117da14ea60848",
          "topics": [
            "0xb810609e93b7325976c078b96d9c92d3160d0d165073b8c9a8a6a4d257fd0477",
            "0x0000000000000000000000000000000000000000000000000000000000000015"
          ],
          "data": "0x000000000000000000000000000000000000000000000000000000000000002000000000000000000000000000000000000000000000000000000000000000b9697066732f516d53633247366f7a65696f74555674707a44655855463646724b3552333152356b4553484c56666e3542396f382f30303030303030303030303030303030303030303030303030303030303030303030303030303030303030303030303030303030303030303030303030303231303030303030303030303030303030303030303030303030303030303030303030303030303030303030303030303030303030303030303030303030303030302e6a736f6e00000000000000",
          "blockHash": "0x7bb35fe66f148d719ba715b3e224fee6f67eb7e966b0529e56fe7f19dabea065",
          "blockNumber": "0x82a3ee3",
          "blockTimestamp": "0x6848577f",
          "transactionHash": "0x71c8024bb9e01f136fd167f338eaa6c592f62321149a07452849edec537b13bc",
          "transactionIndex": "0x17",
          "logIndex": "0x150",
          "removed": false
        }
      ],
      "logsBloom": "0x00000000000000000000000000000000000000000000000000000000000000040000000000000000000000000000000000000000000000000000000000008000001000000000000000000000000000000000000000000000000000400000000000000000000000000000000000000000000000000000000000000000000000000000000000000000001000000000000000000000000000000000000000000000000000000000000000000000010000000000000000000000000000000000001000000000000000000000000000000000000000000000000000000020000000002000000000000000000000000000000000000000000000000000000000000000",
      "type": "0x2",
      "transactionHash": "0x71c8024bb9e01f136fd167f338eaa6c592f62321149a07452849edec537b13bc",
      "transactionIndex": "0x17",
      "blockHash": "0x7bb35fe66f148d719ba715b3e224fee6f67eb7e966b0529e56fe7f19dabea065",
      "blockNumber": "0x82a3ee3",
      "gasUsed": "0xd431",
      "effectiveGasPrice": "0x10a6",
      "from": "0x8835669696fb92839ab198cd80ce9f0d35f45ad5",
      "to": "0x03e2c563cf77e3cdc0b7663cee117da14ea60848",
      "contractAddress": null,
      "l1BaseFeeScalar": "0x146b",
      "l1BlobBaseFee": "0x1",
      "l1BlobBaseFeeScalar": "0xf79c5",
      "l1Fee": "0x10c0eb172a",
      "l1GasPrice": "0x17c92de9d",
      "l1GasUsed": "0x86c"
    },
    {
      "status": "0x1",
      "cumulativeGasUsed": "0xcb3565",
      "logs": [
        {
          "address": "0x03e2c563cf77e3cdc0b7663cee117da14ea60848",
          "topics": [
            "0x5625f15df4cbadf2e6e3f80e2406aec5d99a432335ef0e9a1fba9e48b0558303",
            "0x0000000000000000000000000000000000000000000000000000000000000014"
          ],
          "data": "0x00000000000000000000000000000000000000000000000000000000000000010000000000000000000000000000000000000000000000000000000000000060000000000000000000000000000000000000000000000000000000000000000a00000000000000000000000000000000000000000000000000000000000000b9697066732f516d53633247366f7a65696f74555674707a44655855463646724b3552333152356b4553484c56666e3542396f382f30303030303030303030303030303030303030303030303030303030303030303030303030303030303030303030303030303030303030303030303030303230303030303030303030303030303030303030303030303030303030303030303030303030303030303030303030303030303030303030303030303030303030312e6a736f6e00000000000000",
          "blockHash": "0x7bb35fe66f148d719ba715b3e224fee6f67eb7e966b0529e56fe7f19dabea065",
          "blockNumber": "0x82a3ee3",
          "blockTimestamp": "0x6848577f",
          "transactionHash": "0x356bbc1a7a204f00409fdcb2daa0654441e1ea80b6ca03e1834f8c49be1fe56a",
          "transactionIndex": "0x18",
          "logIndex": "0x151",
          "removed": false
        }
      ],
      "logsBloom": "0x00000000000000000000000000000000000000000000000000000000000000000000000000000000000000000000000000002000000000000000000000008000000000000000000000000000000000000000000000000000000000000000000000040000000000000000000000000000000000000000000000000000000000000000000000000000001000000000000000000000000400000000000000000000000000000000000020000000000000000000000000000000000000000000001000000000000000000000004000000000000000000000000000000000000000000000000000000000000000000000000000000000010000000000000000000000",
      "type": "0x2",
      "transactionHash": "0x356bbc1a7a204f00409fdcb2daa0654441e1ea80b6ca03e1834f8c49be1fe56a",
      "transactionIndex": "0x18",
      "blockHash": "0x7bb35fe66f148d719ba715b3e224fee6f67eb7e966b0529e56fe7f19dabea065",
      "blockNumber": "0x82a3ee3",
      "gasUsed": "0x3af7e",
      "effectiveGasPrice": "0x10a6",
      "from": "0x8835669696fb92839ab198cd80ce9f0d35f45ad5",
      "to": "0x03e2c563cf77e3cdc0b7663cee117da14ea60848",
      "contractAddress": null,
      "l1BaseFeeScalar": "0x146b",
      "l1BlobBaseFee": "0x1",
      "l1BlobBaseFeeScalar": "0xf79c5",
      "l1Fee": "0x1250482b9b",
      "l1GasPrice": "0x17c92de9d",
      "l1GasUsed": "0x934"
    },
    {
      "status": "0x1",
      "cumulativeGasUsed": "0xceabc5",
      "logs": [
        {
          "address": "0x03e2c563cf77e3cdc0b7663cee117da14ea60848",
          "topics": [
            "0x5625f15df4cbadf2e6e3f80e2406aec5d99a432335ef0e9a1fba9e48b0558303",
            "0x0000000000000000000000000000000000000000000000000000000000000014"
          ],
          "data": "0x00000000000000000000000000000000000000000000000000000000000000020000000000000000000000000000000000000000000000000000000000000060000000000000000000000000000000000000000000000000000000000000001400000000000000000000000000000000000000000000000000000000000000b9697066732f516d53633247366f7a65696f74555674707a44655855463646724b3552333152356b4553484c56666e3542396f382f30303030303030303030303030303030303030303030303030303030303030303030303030303030303030303030303030303030303030303030303030303230303030303030303030303030303030303030303030303030303030303030303030303030303030303030303030303030303030303030303030303030303030322e6a736f6e00000000000000",
          "blockHash": "0x7bb35fe66f148d719ba715b3e224fee6f67eb7e966b0529e56fe7f19dabea065",
          "blockNumber": "0x82a3ee3",
          "blockTimestamp": "0x6848577f",
          "transactionHash": "0x81a30cdfa52b1f600998de0412f6d4462f1d644ce04f3b5591ad31f433412a57",
          "transactionIndex": "0x19",
          "logIndex": "0x152",
          "removed": false
        }
      ],
      "logsBloom": "0x00000000000000000000000000000000000000000000000000000000000000000000000000000000000000000000000000002000000000000000000000008000000000000000000000000000000000000000000000000000000000000000000000040000000000000000000000000000000000000000000000000000000000000000000000000000001000000000000000000000000400000000000000000000000000000000000020000000000000000000000000000000000000000000001000000000000000000000004000000000000000000000000000000000000000000000000000000000000000000000000000000000010000000000000000000000",
      "type": "0x2",
      "transactionHash": "0x81a30cdfa52b1f600998de0412f6d4462f1d644ce04f3b5591ad31f433412a57",
      "transactionIndex": "0x19",
      "blockHash": "0x7bb35fe66f148d719ba715b3e224fee6f67eb7e966b0529e56fe7f19dabea065",
      "blockNumber": "0x82a3ee3",
      "gasUsed": "0x37660",
      "effectiveGasPrice": "0x10a6",
      "from": "0x8835669696fb92839ab198cd80ce9f0d35f45ad5",
      "to": "0x03e2c563cf77e3cdc0b7663cee117da14ea60848",
      "contractAddress": null,
      "l1BaseFeeScalar": "0x146b",
      "l1BlobBaseFee": "0x1",
      "l1BlobBaseFeeScalar": "0xf79c5",
      "l1Fee": "0x121b088f48",
      "l1GasPrice": "0x17c92de9d",
      "l1GasUsed": "0x91a"
    },
    {
      "status": "0x1",
      "cumulativeGasUsed": "0xd22225",
      "logs": [
        {
          "address": "0x03e2c563cf77e3cdc0b7663cee117da14ea60848",
          "topics": [
            "0x5625f15df4cbadf2e6e3f80e2406aec5d99a432335ef0e9a1fba9e48b0558303",
            "0x0000000000000000000000000000000000000000000000000000000000000014"
          ],
          "data": "0x00000000000000000000000000000000000000000000000000000000000000030000000000000000000000000000000000000000000000000000000000000060000000000000000000000000000000000000000000000000000000000000001e00000000000000000000000000000000000000000000000000000000000000b9697066732f516d53633247366f7a65696f74555674707a44655855463646724b3552333152356b4553484c56666e3542396f382f30303030303030303030303030303030303030303030303030303030303030303030303030303030303030303030303030303030303030303030303030303230303030303030303030303030303030303030303030303030303030303030303030303030303030303030303030303030303030303030303030303030303030332e6a736f6e00000000000000",
          "blockHash": "0x7bb35fe66f148d719ba715b3e224fee6f67eb7e966b0529e56fe7f19dabea065",
          "blockNumber": "0x82a3ee3",
          "blockTimestamp": "0x6848577f",
          "transactionHash": "0x6e0b22acaa4384e892ef1f679ec3e4a38cca7c1f573ed05aae187fdaca0f5346",
          "transactionIndex": "0x1a",
          "logIndex": "0x153",
          "removed": false
        }
      ],
      "logsBloom": "0x00000000000000000000000000000000000000000000000000000000000000000000000000000000000000000000000000002000000000000000000000008000000000000000000000000000000000000000000000000000000000000000000000040000000000000000000000000000000000000000000000000000000000000000000000000000001000000000000000000000000400000000000000000000000000000000000020000000000000000000000000000000000000000000001000000000000000000000004000000000000000000000000000000000000000000000000000000000000000000000000000000000010000000000000000000000",
      "type": "0x2",
      "transactionHash": "0x6e0b22acaa4384e892ef1f679ec3e4a38cca7c1f573ed05aae187fdaca0f5346",
      "transactionIndex": "0x1a",
      "blockHash": "0x7bb35fe66f148d719ba715b3e224fee6f67eb7e966b0529e56fe7f19dabea065",
      "blockNumber": "0x82a3ee3",
      "gasUsed": "0x37660",
      "effectiveGasPrice": "0x10a6",
      "from": "0x8835669696fb92839ab198cd80ce9f0d35f45ad5",
      "to": "0x03e2c563cf77e3cdc0b7663cee117da14ea60848",
      "contractAddress": null,
      "l1BaseFeeScalar": "0x146b",
      "l1BlobBaseFee": "0x1",
      "l1BlobBaseFeeScalar": "0xf79c5",
      "l1Fee": "0x1250482b9b",
      "l1GasPrice": "0x17c92de9d",
      "l1GasUsed": "0x934"
    },
    {
      "status": "0x1",
      "cumulativeGasUsed": "0xd302f1",
      "logs": [
        {
          "address": "0x03e2c563cf77e3cdc0b7663cee117da14ea60848",
          "topics": [
            "0x3e442b5d5a6ecd8c0a86017cabd5ee0efbf32debbee58f9cea68f1b8489e4193",
            "0x0000000000000000000000000000000000000000000000000000000000000015"
          ],
          "data": "0x0000000000000000000000000000000000000000000000000000000000000001000000000000000000000000000000000000000000000000000000000000004000000000000000000000000000000000000000000000000000000000000000b9697066732f516d53633247366f7a65696f74555674707a44655855463646724b3552333152356b4553484c56666e3542396f382f30303030303030303030303030303030303030303030303030303030303030303030303030303030303030303030303030303030303030303030303030303231303030303030303030303030303030303030303030303030303030303030303030303030303030303030303030303030303030303030303030303030303030312e6a736f6e00000000000000",
          "blockHash": "0x7bb35fe66f148d719ba715b3e224fee6f67eb7e966b0529e56fe7f19dabea065",
          "blockNumber": "0x82a3ee3",
          "blockTimestamp": "0x6848577f",
          "transactionHash": "0x3165c8cd4a9cfc50a747f486d99ad89bb73bdb84803f11740d411bb74d1e4c12",
          "transactionIndex": "0x1b",
          "logIndex": "0x154",
          "removed": false
        }
      ],
      "logsBloom": "0x00000000000000000000000000000000000000000000000000000000000000000000000000000000000000000000000000000000000000000000000000008000001000000000000000000000000000000000000000000000000000000000000000000010000000000000000000000000000000000000000000000000000000000000000000000000001000000000000000000000000000000000000000000000000000200000000000000000010000000000000000000000000000000000001000000000000000000000000000000000000000000000000200000000000000002000000000000000000000000000000000000000000000000000000000000000",
      "type": "0x2",
      "transactionHash": "0x3165c8cd4a9cfc50a747f486d99ad89bb73bdb84803f11740d411bb74d1e4c12",
      "transactionIndex": "0x1b",
      "blockHash": "0x7bb35fe66f148d719ba715b3e224fee6f67eb7e966b0529e56fe7f19dabea065",
      "blockNumber": "0x82a3ee3",
      "gasUsed": "0xe0cc",
      "effectiveGasPrice": "0x10a6",
      "from": "0x8835669696fb92839ab198cd80ce9f0d35f45ad5",
      "to": "0x03e2c563cf77e3cdc0b7663cee117da14ea60848",
      "contractAddress": null,
      "l1BaseFeeScalar": "0x146b",
      "l1BlobBaseFee": "0x1",
      "l1BlobBaseFeeScalar": "0xf79c5",
      "l1Fee": "0x11e5c8f2f4",
      "l1GasPrice": "0x17c92de9d",
      "l1GasUsed": "0x8ff"
    },
    {
      "status": "0x1",
      "cumulativeGasUsed": "0xd3e3bd",
      "logs": [
        {
          "address": "0x03e2c563cf77e3cdc0b7663cee117da14ea60848",
          "topics": [
            "0x3e442b5d5a6ecd8c0a86017cabd5ee0efbf32debbee58f9cea68f1b8489e4193",
            "0x0000000000000000000000000000000000000000000000000000000000000015"
          ],
          "data": "0x0000000000000000000000000000000000000000000000000000000000000002000000000000000000000000000000000000000000000000000000000000004000000000000000000000000000000000000000000000000000000000000000b9697066732f516d53633247366f7a65696f74555674707a44655855463646724b3552333152356b4553484c56666e3542396f382f30303030303030303030303030303030303030303030303030303030303030303030303030303030303030303030303030303030303030303030303030303231303030303030303030303030303030303030303030303030303030303030303030303030303030303030303030303030303030303030303030303030303030322e6a736f6e00000000000000",
          "blockHash": "0x7bb35fe66f148d719ba715b3e224fee6f67eb7e966b0529e56fe7f19dabea065",
          "blockNumber": "0x82a3ee3",
          "blockTimestamp": "0x6848577f",
          "transactionHash": "0x20be4cde7817509508e7bd75f1f3e2a9b250bdeff897b2435075b93668218d62",
          "transactionIndex": "0x1c",
          "logIndex": "0x155",
          "removed": false
        }
      ],
      "logsBloom": "0x00000000000000000000000000000000000000000000000000000000000000000000000000000000000000000000000000000000000000000000000000008000001000000000000000000000000000000000000000000000000000000000000000000010000000000000000000000000000000000000000000000000000000000000000000000000001000000000000000000000000000000000000000000000000000200000000000000000010000000000000000000000000000000000001000000000000000000000000000000000000000000000000200000000000000002000000000000000000000000000000000000000000000000000000000000000",
      "type": "0x2",
      "transactionHash": "0x20be4cde7817509508e7bd75f1f3e2a9b250bdeff897b2435075b93668218d62",
      "transactionIndex": "0x1c",
      "blockHash": "0x7bb35fe66f148d719ba715b3e224fee6f67eb7e966b0529e56fe7f19dabea065",
      "blockNumber": "0x82a3ee3",
      "gasUsed": "0xe0cc",
      "effectiveGasPrice": "0x10a6",
      "from": "0x8835669696fb92839ab198cd80ce9f0d35f45ad5",
      "to": "0x03e2c563cf77e3cdc0b7663cee117da14ea60848",
      "contractAddress": null,
      "l1BaseFeeScalar": "0x146b",
      "l1BlobBaseFee": "0x1",
      "l1BlobBaseFeeScalar": "0xf79c5",
      "l1Fee": "0x11b08956a1",
      "l1GasPrice": "0x17c92de9d",
      "l1GasUsed": "0x8e4"
    },
    {
      "status": "0x1",
      "cumulativeGasUsed": "0x10699c9",
      "logs": [
        {
          "address": "0x03e2c563cf77e3cdc0b7663cee117da14ea60848",
          "topics": [
            "0x5625f15df4cbadf2e6e3f80e2406aec5d99a432335ef0e9a1fba9e48b0558303",
            "0x0000000000000000000000000000000000000000000000000000000000000015"
          ],
          "data": "0x00000000000000000000000000000000000000000000000000000000000000030000000000000000000000000000000000000000000000000000000000000060000000000000000000000000000000000000000000000000000000000000001e00000000000000000000000000000000000000000000000000000000000000b9697066732f516d53633247366f7a65696f74555674707a44655855463646724b3552333152356b4553484c56666e3542396f382f30303030303030303030303030303030303030303030303030303030303030303030303030303030303030303030303030303030303030303030303030303231303030303030303030303030303030303030303030303030303030303030303030303030303030303030303030303030303030303030303030303030303030332e6a736f6e00000000000000",
          "blockHash": "0xcc5da81d00ddea03e34a347faaeb0cd057f2afe54ede78a7685680cd53d38102",
          "blockNumber": "0x82a3ee4",
          "blockTimestamp": "0x68485781",
          "transactionHash": "0x3cc10e3f4c7589e481893d5ff56774ea0cfaf225b99242a9725c9bd1e9c8aab1",
          "transactionIndex": "0x1b",
          "logIndex": "0x246",
          "removed": false
        }
      ],
      "logsBloom": "0x00000000000000000000000000000000000000000000000000000000000000000000000000000000000000000000000000000000000000000000000000008000001000000000000000000000000000000000000000000000000000000000000000040000000000000000000000000000000000000000000000000000000000000000000000000000001000000000000000000000000000000000000000000000000000000000000000000000010000000000000000000000000000000000001000000000000000000000004000000000000000000000000000000000000000002000000000000000000000000000000000000000010000000000000000000000",
      "type": "0x2",
      "transactionHash": "0x3cc10e3f4c7589e481893d5ff56774ea0cfaf225b99242a9725c9bd1e9c8aab1",
      "transactionIndex": "0x1b",
      "blockHash": "0xcc5da81d00ddea03e34a347faaeb0cd057f2afe54ede78a7685680cd53d38102",
      "blockNumber": "0x82a3ee4",
      "gasUsed": "0x37660",
      "effectiveGasPrice": "0x10a7",
      "from": "0x8835669696fb92839ab198cd80ce9f0d35f45ad5",
      "to": "0x03e2c563cf77e3cdc0b7663cee117da14ea60848",
      "contractAddress": null,
      "l1BaseFeeScalar": "0x146b",
      "l1BlobBaseFee": "0x1",
      "l1BlobBaseFeeScalar": "0xf79c5",
      "l1Fee": "0x126ae7f9c5",
      "l1GasPrice": "0x17c92de9d",
      "l1GasUsed": "0x942"
    }
  ],
  "libraries": [],
  "pending": [],
  "returns": {},
  "timestamp": 1749571457,
  "chain": 10,
  "commit": "ecd9900"
}