{
  "transactions": [
    {
      "hash": "0x4e316e1401c75b8c94cbfce05bfb8935c4dc71890798ce3585e2b2a009e9ba74",
      "transactionType": "CALL",
      "contractName": null,
      "contractAddress": "0x03e2c563cf77e3cdc0b7663cee117da14ea60848",
      "function": "updateBadgeMetadata(uint256,string)",
      "arguments": [
        "24",
        "ipfs/QmWHVtatP34ApoKRnzjQeQpDnPW3fmRkwhSknaYwczLZJr/00000000000000000000000000000000000000000000000000000000000000240000000000000000000000000000000000000000000000000000000000000000.json"
      ],
      "transaction": {
        "from": "0x8835669696fb92839ab198cd80ce9f0d35f45ad5",
        "to": "0x03e2c563cf77e3cdc0b7663cee117da14ea60848",
        "gas": "0x15652",
        "value": "0x0",
        "input": "0x47461b400000000000000000000000000000000000000000000000000000000000000018000000000000000000000000000000000000000000000000000000000000004000000000000000000000000000000000000000000000000000000000000000b9697066732f516d57485674617450333441706f4b526e7a6a51655170446e505733666d526b7768536b6e615977637a4c5a4a722f30303030303030303030303030303030303030303030303030303030303030303030303030303030303030303030303030303030303030303030303030303234303030303030303030303030303030303030303030303030303030303030303030303030303030303030303030303030303030303030303030303030303030302e6a736f6e00000000000000",
        "nonce": "0x5dec8",
        "chainId": "0xa"
      },
      "additionalContracts": [],
      "isFixedGasLimit": false
    },
    {
      "hash": "0x218b15a72953c3694047d87eeb8caed4295d7be92375b94af413b6ce930830e0",
      "transactionType": "CALL",
      "contractName": null,
      "contractAddress": "0x03e2c563cf77e3cdc0b7663cee117da14ea60848",
      "function": "updateBadgeTierMetadata(uint256,uint256,string)",
      "arguments": [
        "24",
        "1",
        "ipfs/QmWHVtatP34ApoKRnzjQeQpDnPW3fmRkwhSknaYwczLZJr/00000000000000000000000000000000000000000000000000000000000000240000000000000000000000000000000000000000000000000000000000000001.json"
      ],
      "transaction": {
        "from": "0x8835669696fb92839ab198cd80ce9f0d35f45ad5",
        "to": "0x03e2c563cf77e3cdc0b7663cee117da14ea60848",
        "gas": "0x154b6",
        "value": "0x0",
        "input": "0xc43e4f4c00000000000000000000000000000000000000000000000000000000000000180000000000000000000000000000000000000000000000000000000000000001000000000000000000000000000000000000000000000000000000000000006000000000000000000000000000000000000000000000000000000000000000b9697066732f516d57485674617450333441706f4b526e7a6a51655170446e505733666d526b7768536b6e615977637a4c5a4a722f30303030303030303030303030303030303030303030303030303030303030303030303030303030303030303030303030303030303030303030303030303234303030303030303030303030303030303030303030303030303030303030303030303030303030303030303030303030303030303030303030303030303030312e6a736f6e00000000000000",
        "nonce": "0x5dec9",
        "chainId": "0xa"
      },
      "additionalContracts": [],
      "isFixedGasLimit": false
    },
    {
      "hash": "0x8072707811af9ae2a5aac593b1c9cdaf57a109e4c19e15cd6850a05813912abf",
      "transactionType": "CALL",
      "contractName": null,
      "contractAddress": "0x03e2c563cf77e3cdc0b7663cee117da14ea60848",
      "function": "updateBadgeTierMetadata(uint256,uint256,string)",
      "arguments": [
        "24",
        "2",
        "ipfs/QmWHVtatP34ApoKRnzjQeQpDnPW3fmRkwhSknaYwczLZJr/00000000000000000000000000000000000000000000000000000000000000240000000000000000000000000000000000000000000000000000000000000002.json"
      ],
      "transaction": {
        "from": "0x8835669696fb92839ab198cd80ce9f0d35f45ad5",
        "to": "0x03e2c563cf77e3cdc0b7663cee117da14ea60848",
        "gas": "0x154b6",
        "value": "0x0",
        "input": "0xc43e4f4c00000000000000000000000000000000000000000000000000000000000000180000000000000000000000000000000000000000000000000000000000000002000000000000000000000000000000000000000000000000000000000000006000000000000000000000000000000000000000000000000000000000000000b9697066732f516d57485674617450333441706f4b526e7a6a51655170446e505733666d526b7768536b6e615977637a4c5a4a722f30303030303030303030303030303030303030303030303030303030303030303030303030303030303030303030303030303030303030303030303030303234303030303030303030303030303030303030303030303030303030303030303030303030303030303030303030303030303030303030303030303030303030322e6a736f6e00000000000000",
        "nonce": "0x5deca",
        "chainId": "0xa"
      },
      "additionalContracts": [],
      "isFixedGasLimit": false
    },
    {
      "hash": "0x916f8e958031e4460375d24bc80f01d195c198b6191ac47381edec78086abea1",
      "transactionType": "CALL",
      "contractName": null,
      "contractAddress": "0x03e2c563cf77e3cdc0b7663cee117da14ea60848",
      "function": "updateBadgeTierMetadata(uint256,uint256,string)",
      "arguments": [
        "24",
        "3",
        "ipfs/QmWHVtatP34ApoKRnzjQeQpDnPW3fmRkwhSknaYwczLZJr/00000000000000000000000000000000000000000000000000000000000000240000000000000000000000000000000000000000000000000000000000000003.json"
      ],
      "transaction": {
        "from": "0x8835669696fb92839ab198cd80ce9f0d35f45ad5",
        "to": "0x03e2c563cf77e3cdc0b7663cee117da14ea60848",
        "gas": "0x154b6",
        "value": "0x0",
        "input": "0xc43e4f4c00000000000000000000000000000000000000000000000000000000000000180000000000000000000000000000000000000000000000000000000000000003000000000000000000000000000000000000000000000000000000000000006000000000000000000000000000000000000000000000000000000000000000b9697066732f516d57485674617450333441706f4b526e7a6a51655170446e505733666d526b7768536b6e615977637a4c5a4a722f30303030303030303030303030303030303030303030303030303030303030303030303030303030303030303030303030303030303030303030303030303234303030303030303030303030303030303030303030303030303030303030303030303030303030303030303030303030303030303030303030303030303030332e6a736f6e00000000000000",
        "nonce": "0x5decb",
        "chainId": "0xa"
      },
      "additionalContracts": [],
      "isFixedGasLimit": false
    },
    {
      "hash": "0x3ed63c48e4591c65564b08592a6ff1a599f0509882c99bfb92a247f3f91800e3",
      "transactionType": "CALL",
      "contractName": null,
      "contractAddress": "0x03e2c563cf77e3cdc0b7663cee117da14ea60848",
      "function": "updateBadgeTierMetadata(uint256,uint256,string)",
      "arguments": [
        "24",
        "4",
        "ipfs/QmWHVtatP34ApoKRnzjQeQpDnPW3fmRkwhSknaYwczLZJr/00000000000000000000000000000000000000000000000000000000000000240000000000000000000000000000000000000000000000000000000000000004.json"
      ],
      "transaction": {
        "from": "0x8835669696fb92839ab198cd80ce9f0d35f45ad5",
        "to": "0x03e2c563cf77e3cdc0b7663cee117da14ea60848",
        "gas": "0x154b6",
        "value": "0x0",
        "input": "0xc43e4f4c00000000000000000000000000000000000000000000000000000000000000180000000000000000000000000000000000000000000000000000000000000004000000000000000000000000000000000000000000000000000000000000006000000000000000000000000000000000000000000000000000000000000000b9697066732f516d57485674617450333441706f4b526e7a6a51655170446e505733666d526b7768536b6e615977637a4c5a4a722f30303030303030303030303030303030303030303030303030303030303030303030303030303030303030303030303030303030303030303030303030303234303030303030303030303030303030303030303030303030303030303030303030303030303030303030303030303030303030303030303030303030303030342e6a736f6e00000000000000",
        "nonce": "0x5decc",
        "chainId": "0xa"
      },
      "additionalContracts": [],
      "isFixedGasLimit": false
    },
    {
      "hash": "0x88444d4c7fb0dbb27550f8db178f5a63f3df133620b6c44fbc868cf5233d453f",
      "transactionType": "CALL",
      "contractName": null,
      "contractAddress": "0x03e2c563cf77e3cdc0b7663cee117da14ea60848",
      "function": "updateBadgeTierMetadata(uint256,uint256,string)",
      "arguments": [
        "24",
        "5",
        "ipfs/QmWHVtatP34ApoKRnzjQeQpDnPW3fmRkwhSknaYwczLZJr/00000000000000000000000000000000000000000000000000000000000000240000000000000000000000000000000000000000000000000000000000000005.json"
      ],
      "transaction": {
        "from": "0x8835669696fb92839ab198cd80ce9f0d35f45ad5",
        "to": "0x03e2c563cf77e3cdc0b7663cee117da14ea60848",
        "gas": "0x154b6",
        "value": "0x0",
        "input": "0xc43e4f4c00000000000000000000000000000000000000000000000000000000000000180000000000000000000000000000000000000000000000000000000000000005000000000000000000000000000000000000000000000000000000000000006000000000000000000000000000000000000000000000000000000000000000b9697066732f516d57485674617450333441706f4b526e7a6a51655170446e505733666d526b7768536b6e615977637a4c5a4a722f30303030303030303030303030303030303030303030303030303030303030303030303030303030303030303030303030303030303030303030303030303234303030303030303030303030303030303030303030303030303030303030303030303030303030303030303030303030303030303030303030303030303030352e6a736f6e00000000000000",
        "nonce": "0x5decd",
        "chainId": "0xa"
      },
      "additionalContracts": [],
      "isFixedGasLimit": false
    }
  ],
  "receipts": [
    {
      "status": "0x1",
      "cumulativeGasUsed": "0x10eaad4",
      "logs": [
        {
          "address": "0x03e2c563cf77e3cdc0b7663cee117da14ea60848",
          "topics": [
            "0xb810609e93b7325976c078b96d9c92d3160d0d165073b8c9a8a6a4d257fd0477",
            "0x0000000000000000000000000000000000000000000000000000000000000018"
          ],
          "data": "0x000000000000000000000000000000000000000000000000000000000000002000000000000000000000000000000000000000000000000000000000000000b9697066732f516d57485674617450333441706f4b526e7a6a51655170446e505733666d526b7768536b6e615977637a4c5a4a722f30303030303030303030303030303030303030303030303030303030303030303030303030303030303030303030303030303030303030303030303030303234303030303030303030303030303030303030303030303030303030303030303030303030303030303030303030303030303030303030303030303030303030302e6a736f6e00000000000000",
          "blockHash": "0x0610296fb2ba96022c96e47f79cea9001b02e7c4725e3526046a2bbecb8e5bbf",
          "blockNumber": "0x89e3f5f",
          "blockTimestamp": "0x69305877",
          "transactionHash": "0x4e316e1401c75b8c94cbfce05bfb8935c4dc71890798ce3585e2b2a009e9ba74",
          "transactionIndex": "0x2e",
          "logIndex": "0xda",
          "removed": false
        }
      ],
      "logsBloom": "0x00000000000000000000000000000000000000000000000000000000000000040000000000000000000000000000000000000000000000000000000000008000000000000000000000000000000000000040000000000000000000400000000000000000000000000000000000000000000000000000000000000000000000000000000000000000001000000000000000000000000000000000000000000000000000000000000000000000000000000000000000000000000000000000001000100000000000000000000000000000000000000000000020000020000000000000000000000000000000000000000000000000000000000000000000000000",
      "type": "0x2",
      "transactionHash": "0x4e316e1401c75b8c94cbfce05bfb8935c4dc71890798ce3585e2b2a009e9ba74",
      "transactionIndex": "0x2e",
      "blockHash": "0x0610296fb2ba96022c96e47f79cea9001b02e7c4725e3526046a2bbecb8e5bbf",
      "blockNumber": "0x89e3f5f",
      "gasUsed": "0xea11",
      "effectiveGasPrice": "0x305",
      "blobGasUsed": "0xcfd0",
      "from": "0x8835669696fb92839ab198cd80ce9f0d35f45ad5",
      "to": "0x03e2c563cf77e3cdc0b7663cee117da14ea60848",
      "contractAddress": null,
      "daFootprintGasScalar": "0x190",
      "l1BaseFeeScalar": "0x146b",
      "l1BlobBaseFee": "0x39",
      "l1BlobBaseFeeScalar": "0xf79c5",
      "l1Fee": "0x393b040a",
      "l1GasPrice": "0x5246105",
      "l1GasUsed": "0x851"
    },
    {
      "status": "0x1",
      "cumulativeGasUsed": "0x10fa180",
      "logs": [
        {
          "address": "0x03e2c563cf77e3cdc0b7663cee117da14ea60848",
          "topics": [
            "0x3e442b5d5a6ecd8c0a86017cabd5ee0efbf32debbee58f9cea68f1b8489e4193",
            "0x0000000000000000000000000000000000000000000000000000000000000018"
          ],
          "data": "0x0000000000000000000000000000000000000000000000000000000000000001000000000000000000000000000000000000000000000000000000000000004000000000000000000000000000000000000000000000000000000000000000b9697066732f516d57485674617450333441706f4b526e7a6a51655170446e505733666d526b7768536b6e615977637a4c5a4a722f30303030303030303030303030303030303030303030303030303030303030303030303030303030303030303030303030303030303030303030303030303234303030303030303030303030303030303030303030303030303030303030303030303030303030303030303030303030303030303030303030303030303030312e6a736f6e00000000000000",
          "blockHash": "0xc953c6d51708672d133c2349f10592fd24c9a23ca694ac23d02b156a11c38a7a",
          "blockNumber": "0x89e3f5f",
          "blockTimestamp": "0x69305877",
          "transactionHash": "0x218b15a72953c3694047d87eeb8caed4295d7be92375b94af413b6ce930830e0",
          "transactionIndex": "0x2f",
          "logIndex": "0xdb",
          "removed": false
        }
      ],
      "logsBloom": "0x00000000000000000000000000000000000000000000000000000000000000000000000000000000000000000000000000000000000000000000000000008000000000000000000000000000000000000040000000000000000000000000000000000010000000000000000000000000000000000000000000000000000000000000000000000000001000000000000000000000000000000000000000000000000000200000000000000000000000000000000000000000000000000000001000100000000000000000000000000000000000000000000220000000000000000000000000000000000000000000000000000000000000000000000000000000",
      "type": "0x2",
      "transactionHash": "0x218b15a72953c3694047d87eeb8caed4295d7be92375b94af413b6ce930830e0",
      "transactionIndex": "0x2f",
      "blockHash": "0xc953c6d51708672d133c2349f10592fd24c9a23ca694ac23d02b156a11c38a7a",
      "blockNumber": "0x89e3f5f",
      "gasUsed": "0xf6ac",
      "effectiveGasPrice": "0x305",
      "blobGasUsed": "0xdde0",
      "from": "0x8835669696fb92839ab198cd80ce9f0d35f45ad5",
      "to": "0x03e2c563cf77e3cdc0b7663cee117da14ea60848",
      "contractAddress": null,
      "daFootprintGasScalar": "0x190",
      "l1BaseFeeScalar": "0x146b",
      "l1BlobBaseFee": "0x39",
      "l1BlobBaseFeeScalar": "0xf79c5",
      "l1Fee": "0x1e71d31d5",
      "l1GasPrice": "0x5246105",
      "l1GasUsed": "0x8e4"
    },
    {
      "status": "0x1",
      "cumulativeGasUsed": "0x110982c",
      "logs": [
        {
          "address": "0x03e2c563cf77e3cdc0b7663cee117da14ea60848",
          "topics": [
            "0x3e442b5d5a6ecd8c0a86017cabd5ee0efbf32debbee58f9cea68f1b8489e4193",
            "0x0000000000000000000000000000000000000000000000000000000000000018"
          ],
          "data": "0x0000000000000000000000000000000000000000000000000000000000000002000000000000000000000000000000000000000000000000000000000000004000000000000000000000000000000000000000000000000000000000000000b9697066732f516d57485674617450333441706f4b526e7a6a51655170446e505733666d526b7768536b6e615977637a4c5a4a722f30303030303030303030303030303030303030303030303030303030303030303030303030303030303030303030303030303030303030303030303030303234303030303030303030303030303030303030303030303030303030303030303030303030303030303030303030303030303030303030303030303030303030322e6a736f6e00000000000000",
          "blockHash": "0x0610296fb2ba96022c96e47f79cea9001b02e7c4725e3526046a2bbecb8e5bbf",
          "blockNumber": "0x89e3f5f",
          "blockTimestamp": "0x69305877",
          "transactionHash": "0x8072707811af9ae2a5aac593b1c9cdaf57a109e4c19e15cd6850a05813912abf",
          "transactionIndex": "0x30",
          "logIndex": "0xdc",
          "removed": false
        }
      ],
      "logsBloom": "0x00000000000000000000000000000000000000000000000000000000000000000000000000000000000000000000000000000000000000000000000000008000000000000000000000000000000000000040000000000000000000000000000000000010000000000000000000000000000000000000000000000000000000000000000000000000001000000000000000000000000000000000000000000000000000200000000000000000000000000000000000000000000000000000001000100000000000000000000000000000000000000000000220000000000000000000000000000000000000000000000000000000000000000000000000000000",
      "type": "0x2",
      "transactionHash": "0x8072707811af9ae2a5aac593b1c9cdaf57a109e4c19e15cd6850a05813912abf",
      "transactionIndex": "0x30",
      "blockHash": "0x0610296fb2ba96022c96e47f79cea9001b02e7c4725e3526046a2bbecb8e5bbf",
      "blockNumber": "0x89e3f5f",
      "gasUsed": "0xf6ac",
      "effectiveGasPrice": "0x305",
      "blobGasUsed": "0xdc50",
      "from": "0x8835669696fb92839ab198cd80ce9f0d35f45ad5",
      "to": "0x03e2c563cf77e3cdc0b7663cee117da14ea60848",
      "contractAddress": null,
      "daFootprintGasScalar": "0x190",
      "l1BaseFeeScalar": "0x146b",
      "l1BlobBaseFee": "0x39",
      "l1BlobBaseFeeScalar": "0xf79c5",
      "l1Fee": "0x3cd3f012",
      "l1GasPrice": "0x5246105",
      "l1GasUsed": "0x8d7"
    },
    {
      "status": "0x1",
      "cumulativeGasUsed": "0x1118ed8",
      "logs": [
        {
          "address": "0x03e2c563cf77e3cdc0b7663cee117da14ea60848",
          "topics": [
            "0x3e442b5d5a6ecd8c0a86017cabd5ee0efbf32debbee58f9cea68f1b8489e4193",
            "0x0000000000000000000000000000000000000000000000000000000000000018"
          ],
          "data": "0x0000000000000000000000000000000000000000000000000000000000000003000000000000000000000000000000000000000000000000000000000000004000000000000000000000000000000000000000000000000000000000000000b9697066732f516d57485674617450333441706f4b526e7a6a51655170446e505733666d526b7768536b6e615977637a4c5a4a722f30303030303030303030303030303030303030303030303030303030303030303030303030303030303030303030303030303030303030303030303030303234303030303030303030303030303030303030303030303030303030303030303030303030303030303030303030303030303030303030303030303030303030332e6a736f6e00000000000000",
          "blockHash": "0x0610296fb2ba96022c96e47f79cea9001b02e7c4725e3526046a2bbecb8e5bbf",
          "blockNumber": "0x89e3f5f",
          "blockTimestamp": "0x69305877",
          "transactionHash": "0x916f8e958031e4460375d24bc80f01d195c198b6191ac47381edec78086abea1",
          "transactionIndex": "0x31",
          "logIndex": "0xdd",
          "removed": false
        }
      ],
      "logsBloom": "0x00000000000000000000000000000000000000000000000000000000000000000000000000000000000000000000000000000000000000000000000000008000000000000000000000000000000000000040000000000000000000000000000000000010000000000000000000000000000000000000000000000000000000000000000000000000001000000000000000000000000000000000000000000000000000200000000000000000000000000000000000000000000000000000001000100000000000000000000000000000000000000000000220000000000000000000000000000000000000000000000000000000000000000000000000000000",
      "type": "0x2",
      "transactionHash": "0x916f8e958031e4460375d24bc80f01d195c198b6191ac47381edec78086abea1",
      "transactionIndex": "0x31",
      "blockHash": "0x0610296fb2ba96022c96e47f79cea9001b02e7c4725e3526046a2bbecb8e5bbf",
      "blockNumber": "0x89e3f5f",
      "gasUsed": "0xf6ac",
      "effectiveGasPrice": "0x305",
      "blobGasUsed": "0xdde0",
      "from": "0x8835669696fb92839ab198cd80ce9f0d35f45ad5",
      "to": "0x03e2c563cf77e3cdc0b7663cee117da14ea60848",
      "contractAddress": null,
      "daFootprintGasScalar": "0x190",
      "l1BaseFeeScalar": "0x146b",
      "l1BlobBaseFee": "0x39",
      "l1BlobBaseFeeScalar": "0xf79c5",
      "l1Fee": "0x3d3007ad",
      "l1GasPrice": "0x5246105",
      "l1GasUsed": "0x8e4"
    },
    {
      "status": "0x1",
      "cumulativeGasUsed": "0x1128584",
      "logs": [
        {
          "address": "0x03e2c563cf77e3cdc0b7663cee117da14ea60848",
          "topics": [
            "0x3e442b5d5a6ecd8c0a86017cabd5ee0efbf32debbee58f9cea68f1b8489e4193",
            "0x0000000000000000000000000000000000000000000000000000000000000018"
          ],
          "data": "0x0000000000000000000000000000000000000000000000000000000000000004000000000000000000000000000000000000000000000000000000000000004000000000000000000000000000000000000000000000000000000000000000b9697066732f516d57485674617450333441706f4b526e7a6a51655170446e505733666d526b7768536b6e615977637a4c5a4a722f30303030303030303030303030303030303030303030303030303030303030303030303030303030303030303030303030303030303030303030303030303234303030303030303030303030303030303030303030303030303030303030303030303030303030303030303030303030303030303030303030303030303030342e6a736f6e00000000000000",
          "blockHash": "0x0610296fb2ba96022c96e47f79cea9001b02e7c4725e3526046a2bbecb8e5bbf",
          "blockNumber": "0x89e3f5f",
          "blockTimestamp": "0x69305877",
          "transactionHash": "0x3ed63c48e4591c65564b08592a6ff1a599f0509882c99bfb92a247f3f91800e3",
          "transactionIndex": "0x32",
          "logIndex": "0xde",
          "removed": false
        }
      ],
      "logsBloom": "0x00000000000000000000000000000000000000000000000000000000000000000000000000000000000000000000000000000000000000000000000000008000000000000000000000000000000000000040000000000000000000000000000000000010000000000000000000000000000000000000000000000000000000000000000000000000001000000000000000000000000000000000000000000000000000200000000000000000000000000000000000000000000000000000001000100000000000000000000000000000000000000000000220000000000000000000000000000000000000000000000000000000000000000000000000000000",
      "type": "0x2",
      "transactionHash": "0x3ed63c48e4591c65564b08592a6ff1a599f0509882c99bfb92a247f3f91800e3",
      "transactionIndex": "0x32",
      "blockHash": "0x0610296fb2ba96022c96e47f79cea9001b02e7c4725e3526046a2bbecb8e5bbf",
      "blockNumber": "0x89e3f5f",
      "gasUsed": "0xf6ac",
      "effectiveGasPrice": "0x305",
      "blobGasUsed": "0xdde0",
      "from": "0x8835669696fb92839ab198cd80ce9f0d35f45ad5",
      "to": "0x03e2c563cf77e3cdc0b7663cee117da14ea60848",
      "contractAddress": null,
      "daFootprintGasScalar": "0x190",
      "l1BaseFeeScalar": "0x146b",
      "l1BlobBaseFee": "0x39",
      "l1BlobBaseFeeScalar": "0xf79c5",
      "l1Fee": "0x3d3007ad",
      "l1GasPrice": "0x5246105",
      "l1GasUsed": "0x8e4"
    },
    {
      "status": "0x1",
      "cumulativeGasUsed": "0x1137c30",
      "logs": [
        {
          "address": "0x03e2c563cf77e3cdc0b7663cee117da14ea60848",
          "topics": [
            "0x3e442b5d5a6ecd8c0a86017cabd5ee0efbf32debbee58f9cea68f1b8489e4193",
            "0x0000000000000000000000000000000000000000000000000000000000000018"
          ],
          "data": "0x0000000000000000000000000000000000000000000000000000000000000005000000000000000000000000000000000000000000000000000000000000004000000000000000000000000000000000000000000000000000000000000000b9697066732f516d57485674617450333441706f4b526e7a6a51655170446e505733666d526b7768536b6e615977637a4c5a4a722f30303030303030303030303030303030303030303030303030303030303030303030303030303030303030303030303030303030303030303030303030303234303030303030303030303030303030303030303030303030303030303030303030303030303030303030303030303030303030303030303030303030303030352e6a736f6e00000000000000",
          "blockHash": "0x0610296fb2ba96022c96e47f79cea9001b02e7c4725e3526046a2bbecb8e5bbf",
          "blockNumber": "0x89e3f5f",
          "blockTimestamp": "0x69305877",
          "transactionHash": "0x88444d4c7fb0dbb27550f8db178f5a63f3df133620b6c44fbc868cf5233d453f",
          "transactionIndex": "0x33",
          "logIndex": "0xdf",
          "removed": false
        }
      ],
      "logsBloom": "0x00000000000000000000000000000000000000000000000000000000000000000000000000000000000000000000000000000000000000000000000000008000000000000000000000000000000000000040000000000000000000000000000000000010000000000000000000000000000000000000000000000000000000000000000000000000001000000000000000000000000000000000000000000000000000200000000000000000000000000000000000000000000000000000001000100000000000000000000000000000000000000000000220000000000000000000000000000000000000000000000000000000000000000000000000000000",
      "type": "0x2",
      "transactionHash": "0x88444d4c7fb0dbb27550f8db178f5a63f3df133620b6c44fbc868cf5233d453f",
      "transactionIndex": "0x33",
      "blockHash": "0x0610296fb2ba96022c96e47f79cea9001b02e7c4725e3526046a2bbecb8e5bbf",
      "blockNumber": "0x89e3f5f",
      "gasUsed": "0xf6ac",
      "effectiveGasPrice": "0x305",
      "blobGasUsed": "0xdde0",
      "from": "0x8835669696fb92839ab198cd80ce9f0d35f45ad5",
      "to": "0x03e2c563cf77e3cdc0b7663cee117da14ea60848",
      "contractAddress": null,
      "daFootprintGasScalar": "0x190",
      "l1BaseFeeScalar": "0x146b",
      "l1BlobBaseFee": "0x39",
      "l1BlobBaseFeeScalar": "0xf79c5",
      "l1Fee": "0x3d3007ad",
      "l1GasPrice": "0x5246105",
      "l1GasUsed": "0x8e4"
    }
  ],
  "libraries": [],
  "pending": [],
  "returns": {},
  "timestamp": 1764776055643,
  "chain": 10,
  "commit": "2ff833e"
}