{
  "transactions": [
    {
      "hash": "0x3612c337656aa976b68970f4cb2f9ec5f69cec48eb0f0edbf46aa9a26a8dff60",
      "transactionType": "CALL",
      "contractName": null,
      "contractAddress": "0x03e2c563cf77e3cdc0b7663cee117da14ea60848",
      "function": "updateBadgeMetadata(uint256,string)",
      "arguments": [
        "8",
        "ipfs/QmUHF22H32Fz91DCVrwtVGgV5PzhdgCK5thRxC4fqLREWH/00000000000000000000000000000000000000000000000000000000000000080000000000000000000000000000000000000000000000000000000000000000.json"
      ],
      "transaction": {
        "from": "0x8835669696fb92839ab198cd80ce9f0d35f45ad5",
        "to": "0x03e2c563cf77e3cdc0b7663cee117da14ea60848",
        "value": "0x0",
        "input": "0x47461b400000000000000000000000000000000000000000000000000000000000000008000000000000000000000000000000000000000000000000000000000000004000000000000000000000000000000000000000000000000000000000000000b9697066732f516d5548463232483332467a39314443567277745647675635507a686467434b3574685278433466714c524557482f30303030303030303030303030303030303030303030303030303030303030303030303030303030303030303030303030303030303030303030303030303038303030303030303030303030303030303030303030303030303030303030303030303030303030303030303030303030303030303030303030303030303030302e6a736f6e00000000000000",
        "nonce": "0x3986d",
        "chainId": "0xa"
      },
      "additionalContracts": [],
      "isFixedGasLimit": false
    },
    {
      "hash": "0x7014f08f0fc11688486e3e8a66bad117ef95f2fb3d6bf9d660f52daf71afddfd",
      "transactionType": "CALL",
      "contractName": null,
      "contractAddress": "0x03e2c563cf77e3cdc0b7663cee117da14ea60848",
      "function": "updateBadgeMetadata(uint256,string)",
      "arguments": [
        "23",
        "ipfs/QmUHF22H32Fz91DCVrwtVGgV5PzhdgCK5thRxC4fqLREWH/00000000000000000000000000000000000000000000000000000000000000230000000000000000000000000000000000000000000000000000000000000000.json"
      ],
      "transaction": {
        "from": "0x8835669696fb92839ab198cd80ce9f0d35f45ad5",
        "to": "0x03e2c563cf77e3cdc0b7663cee117da14ea60848",
        "value": "0x0",
        "input": "0x47461b400000000000000000000000000000000000000000000000000000000000000017000000000000000000000000000000000000000000000000000000000000004000000000000000000000000000000000000000000000000000000000000000b9697066732f516d5548463232483332467a39314443567277745647675635507a686467434b3574685278433466714c524557482f30303030303030303030303030303030303030303030303030303030303030303030303030303030303030303030303030303030303030303030303030303233303030303030303030303030303030303030303030303030303030303030303030303030303030303030303030303030303030303030303030303030303030302e6a736f6e00000000000000",
        "nonce": "0x3986e",
        "chainId": "0xa"
      },
      "additionalContracts": [],
      "isFixedGasLimit": false
    },
    {
      "hash": "0x201cf67889a23a84242a4dc10a624be0946b359498e307daca7889c3e2112dd5",
      "transactionType": "CALL",
      "contractName": null,
      "contractAddress": "0x03e2c563cf77e3cdc0b7663cee117da14ea60848",
      "function": "updateBadgeTierMetadata(uint256,uint256,string)",
      "arguments": [
        "8",
        "1",
        "ipfs/QmUHF22H32Fz91DCVrwtVGgV5PzhdgCK5thRxC4fqLREWH/00000000000000000000000000000000000000000000000000000000000000080000000000000000000000000000000000000000000000000000000000000001.json"
      ],
      "transaction": {
        "from": "0x8835669696fb92839ab198cd80ce9f0d35f45ad5",
        "to": "0x03e2c563cf77e3cdc0b7663cee117da14ea60848",
        "value": "0x0",
        "input": "0xc43e4f4c00000000000000000000000000000000000000000000000000000000000000080000000000000000000000000000000000000000000000000000000000000001000000000000000000000000000000000000000000000000000000000000006000000000000000000000000000000000000000000000000000000000000000b9697066732f516d5548463232483332467a39314443567277745647675635507a686467434b3574685278433466714c524557482f30303030303030303030303030303030303030303030303030303030303030303030303030303030303030303030303030303030303030303030303030303038303030303030303030303030303030303030303030303030303030303030303030303030303030303030303030303030303030303030303030303030303030312e6a736f6e00000000000000",
        "nonce": "0x3986f",
        "chainId": "0xa"
      },
      "additionalContracts": [],
      "isFixedGasLimit": false
    },
    {
      "hash": null,
      "transactionType": "CALL",
      "contractName": null,
      "contractAddress": "0x03e2c563cf77e3cdc0b7663cee117da14ea60848",
      "function": "updateBadgeTierMetadata(uint256,uint256,string)",
      "arguments": [
        "23",
        "1",
        "ipfs/QmUHF22H32Fz91DCVrwtVGgV5PzhdgCK5thRxC4fqLREWH/00000000000000000000000000000000000000000000000000000000000000230000000000000000000000000000000000000000000000000000000000000001.json"
      ],
      "transaction": {
        "from": "0x8835669696fb92839ab198cd80ce9f0d35f45ad5",
        "to": "0x03e2c563cf77e3cdc0b7663cee117da14ea60848",
        "value": "0x0",
        "input": "0xc43e4f4c00000000000000000000000000000000000000000000000000000000000000170000000000000000000000000000000000000000000000000000000000000001000000000000000000000000000000000000000000000000000000000000006000000000000000000000000000000000000000000000000000000000000000b9697066732f516d5548463232483332467a39314443567277745647675635507a686467434b3574685278433466714c524557482f30303030303030303030303030303030303030303030303030303030303030303030303030303030303030303030303030303030303030303030303030303233303030303030303030303030303030303030303030303030303030303030303030303030303030303030303030303030303030303030303030303030303030312e6a736f6e00000000000000",
        "nonce": "0x39870",
        "chainId": "0xa"
      },
      "additionalContracts": [],
      "isFixedGasLimit": false
    },
    {
      "hash": null,
      "transactionType": "CALL",
      "contractName": null,
      "contractAddress": "0x03e2c563cf77e3cdc0b7663cee117da14ea60848",
      "function": "updateBadgeTierMetadata(uint256,uint256,string)",
      "arguments": [
        "23",
        "2",
        "ipfs/QmUHF22H32Fz91DCVrwtVGgV5PzhdgCK5thRxC4fqLREWH/00000000000000000000000000000000000000000000000000000000000000230000000000000000000000000000000000000000000000000000000000000002.json"
      ],
      "transaction": {
        "from": "0x8835669696fb92839ab198cd80ce9f0d35f45ad5",
        "to": "0x03e2c563cf77e3cdc0b7663cee117da14ea60848",
        "value": "0x0",
        "input": "0xc43e4f4c00000000000000000000000000000000000000000000000000000000000000170000000000000000000000000000000000000000000000000000000000000002000000000000000000000000000000000000000000000000000000000000006000000000000000000000000000000000000000000000000000000000000000b9697066732f516d5548463232483332467a39314443567277745647675635507a686467434b3574685278433466714c524557482f30303030303030303030303030303030303030303030303030303030303030303030303030303030303030303030303030303030303030303030303030303233303030303030303030303030303030303030303030303030303030303030303030303030303030303030303030303030303030303030303030303030303030322e6a736f6e00000000000000",
        "nonce": "0x39871",
        "chainId": "0xa"
      },
      "additionalContracts": [],
      "isFixedGasLimit": false
    },
    {
      "hash": null,
      "transactionType": "CALL",
      "contractName": null,
      "contractAddress": "0x03e2c563cf77e3cdc0b7663cee117da14ea60848",
      "function": "updateBadgeTierMetadata(uint256,uint256,string)",
      "arguments": [
        "23",
        "3",
        "ipfs/QmUHF22H32Fz91DCVrwtVGgV5PzhdgCK5thRxC4fqLREWH/00000000000000000000000000000000000000000000000000000000000000230000000000000000000000000000000000000000000000000000000000000003.json"
      ],
      "transaction": {
        "from": "0x8835669696fb92839ab198cd80ce9f0d35f45ad5",
        "to": "0x03e2c563cf77e3cdc0b7663cee117da14ea60848",
        "value": "0x0",
        "input": "0xc43e4f4c00000000000000000000000000000000000000000000000000000000000000170000000000000000000000000000000000000000000000000000000000000003000000000000000000000000000000000000000000000000000000000000006000000000000000000000000000000000000000000000000000000000000000b9697066732f516d5548463232483332467a39314443567277745647675635507a686467434b3574685278433466714c524557482f30303030303030303030303030303030303030303030303030303030303030303030303030303030303030303030303030303030303030303030303030303233303030303030303030303030303030303030303030303030303030303030303030303030303030303030303030303030303030303030303030303030303030332e6a736f6e00000000000000",
        "nonce": "0x39872",
        "chainId": "0xa"
      },
      "additionalContracts": [],
      "isFixedGasLimit": false
    },
    {
      "hash": null,
      "transactionType": "CALL",
      "contractName": null,
      "contractAddress": "0x03e2c563cf77e3cdc0b7663cee117da14ea60848",
      "function": "updateBadgeTierMetadata(uint256,uint256,string)",
      "arguments": [
        "23",
        "4",
        "ipfs/QmUHF22H32Fz91DCVrwtVGgV5PzhdgCK5thRxC4fqLREWH/00000000000000000000000000000000000000000000000000000000000000230000000000000000000000000000000000000000000000000000000000000004.json"
      ],
      "transaction": {
        "from": "0x8835669696fb92839ab198cd80ce9f0d35f45ad5",
        "to": "0x03e2c563cf77e3cdc0b7663cee117da14ea60848",
        "value": "0x0",
        "input": "0xc43e4f4c00000000000000000000000000000000000000000000000000000000000000170000000000000000000000000000000000000000000000000000000000000004000000000000000000000000000000000000000000000000000000000000006000000000000000000000000000000000000000000000000000000000000000b9697066732f516d5548463232483332467a39314443567277745647675635507a686467434b3574685278433466714c524557482f30303030303030303030303030303030303030303030303030303030303030303030303030303030303030303030303030303030303030303030303030303233303030303030303030303030303030303030303030303030303030303030303030303030303030303030303030303030303030303030303030303030303030342e6a736f6e00000000000000",
        "nonce": "0x39873",
        "chainId": "0xa"
      },
      "additionalContracts": [],
      "isFixedGasLimit": false
    },
    {
      "hash": null,
      "transactionType": "CALL",
      "contractName": null,
      "contractAddress": "0x03e2c563cf77e3cdc0b7663cee117da14ea60848",
      "function": "setBadgeTier(uint256,uint256,string,uint256)",
      "arguments": [
        "23",
        "5",
        "ipfs/QmUHF22H32Fz91DCVrwtVGgV5PzhdgCK5thRxC4fqLREWH/00000000000000000000000000000000000000000000000000000000000000230000000000000000000000000000000000000000000000000000000000000005.json",
        "50"
      ],
      "transaction": {
        "from": "0x8835669696fb92839ab198cd80ce9f0d35f45ad5",
        "to": "0x03e2c563cf77e3cdc0b7663cee117da14ea60848",
        "value": "0x0",
        "input": "0xcf132d1c000000000000000000000000000000000000000000000000000000000000001700000000000000000000000000000000000000000000000000000000000000050000000000000000000000000000000000000000000000000000000000000080000000000000000000000000000000000000000000000000000000000000003200000000000000000000000000000000000000000000000000000000000000b9697066732f516d5548463232483332467a39314443567277745647675635507a686467434b3574685278433466714c524557482f30303030303030303030303030303030303030303030303030303030303030303030303030303030303030303030303030303030303030303030303030303233303030303030303030303030303030303030303030303030303030303030303030303030303030303030303030303030303030303030303030303030303030352e6a736f6e00000000000000",
        "nonce": "0x39874",
        "chainId": "0xa"
      },
      "additionalContracts": [],
      "isFixedGasLimit": false
    }
  ],
  "receipts": [
    {
      "status": "0x1",
      "cumulativeGasUsed": "0x9b69d5",
      "logs": [
        {
          "address": "0x03e2c563cf77e3cdc0b7663cee117da14ea60848",
          "topics": [
            "0xb810609e93b7325976c078b96d9c92d3160d0d165073b8c9a8a6a4d257fd0477",
            "0x0000000000000000000000000000000000000000000000000000000000000008"
          ],
          "data": "0x000000000000000000000000000000000000000000000000000000000000002000000000000000000000000000000000000000000000000000000000000000b9697066732f516d5548463232483332467a39314443567277745647675635507a686467434b3574685278433466714c524557482f30303030303030303030303030303030303030303030303030303030303030303030303030303030303030303030303030303030303030303030303030303038303030303030303030303030303030303030303030303030303030303030303030303030303030303030303030303030303030303030303030303030303030302e6a736f6e00000000000000",
          "blockHash": "0x6e400ae18d19a8067729b86dc03d6f77d0912c96ac31b6dee2cf391f1c361828",
          "blockNumber": "0x82e4216",
          "blockTimestamp": "0x68505de5",
          "transactionHash": "0x3612c337656aa976b68970f4cb2f9ec5f69cec48eb0f0edbf46aa9a26a8dff60",
          "transactionIndex": "0x1c",
          "logIndex": "0x16",
          "removed": false
        }
      ],
      "logsBloom": "0x00000000000000000000000000000000000000000000000000000000000000040000000000000000000000000000000000000000000080000000000000008000000000000000000000000000000000000000000000000000000000400000000000000000000000000000000000000000000000000000000000000000000000000080000000000000001000000000000000000000000000000000000000000000000000000000000000000000000000000000000000000000000000000000001040000000000000000000000000000000000000000000000000000020000000000000000000000000000000000000000000000000000000000000000000000000",
      "type": "0x2",
      "transactionHash": "0x3612c337656aa976b68970f4cb2f9ec5f69cec48eb0f0edbf46aa9a26a8dff60",
      "transactionIndex": "0x1c",
      "blockHash": "0x6e400ae18d19a8067729b86dc03d6f77d0912c96ac31b6dee2cf391f1c361828",
      "blockNumber": "0x82e4216",
      "gasUsed": "0xd431",
      "effectiveGasPrice": "0x19b72",
      "from": "0x8835669696fb92839ab198cd80ce9f0d35f45ad5",
      "to": "0x03e2c563cf77e3cdc0b7663cee117da14ea60848",
      "contractAddress": null,
      "l1BaseFeeScalar": "0x146b",
      "l1BlobBaseFee": "0x1",
      "l1BlobBaseFeeScalar": "0xf79c5",
      "l1Fee": "0x6b3bb070a",
      "l1GasPrice": "0x983e74bf",
      "l1GasUsed": "0x86c"
    },
    {
      "status": "0x1",
      "cumulativeGasUsed": "0xa4e959",
      "logs": [
        {
          "address": "0x03e2c563cf77e3cdc0b7663cee117da14ea60848",
          "topics": [
            "0xb810609e93b7325976c078b96d9c92d3160d0d165073b8c9a8a6a4d257fd0477",
            "0x0000000000000000000000000000000000000000000000000000000000000017"
          ],
          "data": "0x000000000000000000000000000000000000000000000000000000000000002000000000000000000000000000000000000000000000000000000000000000b9697066732f516d5548463232483332467a39314443567277745647675635507a686467434b3574685278433466714c524557482f30303030303030303030303030303030303030303030303030303030303030303030303030303030303030303030303030303030303030303030303030303233303030303030303030303030303030303030303030303030303030303030303030303030303030303030303030303030303030303030303030303030303030302e6a736f6e00000000000000",
          "blockHash": "0xdf97f50b58c31bcf833293e618ebc79a4b26f100dfe7ff91cc7c65b9b1ada8db",
          "blockNumber": "0x82e4217",
          "transactionHash": "0x7014f08f0fc11688486e3e8a66bad117ef95f2fb3d6bf9d660f52daf71afddfd",
          "transactionIndex": "0x1b",
          "logIndex": "0x16",
          "removed": false
        }
      ],
      "logsBloom": "0x00000000000000000000000000000000000000000000000000000000000000040000000000000000000000000000000000001000000000000000001000008000000000000000000000000000000000000000000000000000000000400000000000000000000000000000000000000000000000000000000000000000000000000000000000000000001000000000000000000000000000000000000000000000000000000000000000000000000000000000000000000000000000000000001000000000000000000000000000000000000000000000000000000020000000000000000000000000000000000000000000000000000000000000000000080000",
      "type": "0x2",
      "transactionHash": "0x7014f08f0fc11688486e3e8a66bad117ef95f2fb3d6bf9d660f52daf71afddfd",
      "transactionIndex": "0x1b",
      "blockHash": "0xdf97f50b58c31bcf833293e618ebc79a4b26f100dfe7ff91cc7c65b9b1ada8db",
      "blockNumber": "0x82e4217",
      "gasUsed": "0xd431",
      "effectiveGasPrice": "0x19af9",
      "from": "0x8835669696fb92839ab198cd80ce9f0d35f45ad5",
      "to": "0x03e2c563cf77e3cdc0b7663cee117da14ea60848",
      "contractAddress": null,
      "l1BaseFeeScalar": "0x146b",
      "l1BlobBaseFee": "0x1",
      "l1BlobBaseFeeScalar": "0xf79c5",
      "l1Fee": "0x6be619bea",
      "l1GasPrice": "0x983e74bf",
      "l1GasUsed": "0x879"
    },
    {
      "status": "0x1",
      "cumulativeGasUsed": "0xa620cf",
      "logs": [
        {
          "address": "0x03e2c563cf77e3cdc0b7663cee117da14ea60848",
          "topics": [
            "0x3e442b5d5a6ecd8c0a86017cabd5ee0efbf32debbee58f9cea68f1b8489e4193",
            "0x0000000000000000000000000000000000000000000000000000000000000008"
          ],
          "data": "0x0000000000000000000000000000000000000000000000000000000000000001000000000000000000000000000000000000000000000000000000000000004000000000000000000000000000000000000000000000000000000000000000b9697066732f516d5548463232483332467a39314443567277745647675635507a686467434b3574685278433466714c524557482f30303030303030303030303030303030303030303030303030303030303030303030303030303030303030303030303030303030303030303030303030303038303030303030303030303030303030303030303030303030303030303030303030303030303030303030303030303030303030303030303030303030303030312e6a736f6e00000000000000",
          "blockHash": "0x8e07592848bfdd11e1de89e5aba714bce6fef1fa6af2a2c930ad77bb9e30ed99",
          "blockNumber": "0x82e4218",
          "blockTimestamp": "0x68505de9",
          "transactionHash": "0x201cf67889a23a84242a4dc10a624be0946b359498e307daca7889c3e2112dd5",
          "transactionIndex": "0x17",
          "logIndex": "0x11",
          "removed": false
        }
      ],
      "logsBloom": "0x00000000000000000000000000000000000000000000000000000000000000000000000000000000000000000000000000000000000080000000000000008000000000000000000000000000000000000000000000000000000000000000000000000010000000000000000000000000000000000000000000000000000000000080000000000000001000000000000000000000000000000000000000000000000000200000000000000000000000000000000000000000000000000000001040000000000000000000000000000000000000000000000200000000000000000000000000000000000000000000000000000000000000000000000000000000",
      "type": "0x2",
      "transactionHash": "0x201cf67889a23a84242a4dc10a624be0946b359498e307daca7889c3e2112dd5",
      "transactionIndex": "0x17",
      "blockHash": "0x8e07592848bfdd11e1de89e5aba714bce6fef1fa6af2a2c930ad77bb9e30ed99",
      "blockNumber": "0x82e4218",
      "gasUsed": "0xf6ac",
      "effectiveGasPrice": "0x19aa3",
      "from": "0x8835669696fb92839ab198cd80ce9f0d35f45ad5",
      "to": "0x03e2c563cf77e3cdc0b7663cee117da14ea60848",
      "contractAddress": null,
      "l1BaseFeeScalar": "0x146b",
      "l1BlobBaseFee": "0x1",
      "l1BlobBaseFeeScalar": "0xf79c5",
      "l1Fee": "0x71e3cd7d2",
      "l1GasPrice": "0x983e74bf",
      "l1GasUsed": "0x8f1"
    }
  ],
  "libraries": [],
  "pending": [],
  "returns": {},
  "timestamp": 1750097387469,
  "chain": 10,
  "commit": "9521aa9"
}