{
  "transactions": [
    {
      "hash": null,
      "transactionType": "CALL",
      "contractName": null,
      "contractAddress": "0x03e2c563cf77e3cdc0b7663cee117da14ea60848",
      "function": "setBadgeMetadata(uint256,string)",
      "arguments": [
        "18",
        "ipfs/QmWeTXLReNDAMnaZZWXgchhdYTTfRCo87Xrs8GStLg9bek/00000000000000000000000000000000000000000000000000000000000000180000000000000000000000000000000000000000000000000000000000000000.json"
      ],
      "transaction": {
        "from": "0x8835669696fb92839ab198cd80ce9f0d35f45ad5",
        "to": "0x03e2c563cf77e3cdc0b7663cee117da14ea60848",
        "gas": "0x41165",
        "value": "0x0",
        "input": "0xce64b45f0000000000000000000000000000000000000000000000000000000000000012000000000000000000000000000000000000000000000000000000000000004000000000000000000000000000000000000000000000000000000000000000b9697066732f516d576554584c52654e44414d6e615a5a575867636868645954546652436f3837587273384753744c673962656b2f30303030303030303030303030303030303030303030303030303030303030303030303030303030303030303030303030303030303030303030303030303138303030303030303030303030303030303030303030303030303030303030303030303030303030303030303030303030303030303030303030303030303030302e6a736f6e00000000000000",
        "nonce": "0x2763c",
        "chainId": "0xa"
      },
      "additionalContracts": [],
      "isFixedGasLimit": false
    },
    {
      "hash": null,
      "transactionType": "CALL",
      "contractName": null,
      "contractAddress": "0x03e2c563cf77e3cdc0b7663cee117da14ea60848",
      "function": "setBadgeTier(uint256,uint256,string,uint256)",
      "arguments": [
        "18",
        "1",
        "ipfs/QmWeTXLReNDAMnaZZWXgchhdYTTfRCo87Xrs8GStLg9bek/00000000000000000000000000000000000000000000000000000000000000180000000000000000000000000000000000000000000000000000000000000001.json",
        "20"
      ],
      "transaction": {
        "from": "0x8835669696fb92839ab198cd80ce9f0d35f45ad5",
        "to": "0x03e2c563cf77e3cdc0b7663cee117da14ea60848",
        "gas": "0x51731",
        "value": "0x0",
        "input": "0xcf132d1c000000000000000000000000000000000000000000000000000000000000001200000000000000000000000000000000000000000000000000000000000000010000000000000000000000000000000000000000000000000000000000000080000000000000000000000000000000000000000000000000000000000000001400000000000000000000000000000000000000000000000000000000000000b9697066732f516d576554584c52654e44414d6e615a5a575867636868645954546652436f3837587273384753744c673962656b2f30303030303030303030303030303030303030303030303030303030303030303030303030303030303030303030303030303030303030303030303030303138303030303030303030303030303030303030303030303030303030303030303030303030303030303030303030303030303030303030303030303030303030312e6a736f6e00000000000000",
        "nonce": "0x2763d",
        "chainId": "0xa"
      },
      "additionalContracts": [],
      "isFixedGasLimit": false
    },
    {
      "hash": null,
      "transactionType": "CALL",
      "contractName": null,
      "contractAddress": "0x03e2c563cf77e3cdc0b7663cee117da14ea60848",
      "function": "setBadgeTier(uint256,uint256,string,uint256)",
      "arguments": [
        "18",
        "2",
        "ipfs/QmWeTXLReNDAMnaZZWXgchhdYTTfRCo87Xrs8GStLg9bek/00000000000000000000000000000000000000000000000000000000000000180000000000000000000000000000000000000000000000000000000000000002.json",
        "40"
      ],
      "transaction": {
        "from": "0x8835669696fb92839ab198cd80ce9f0d35f45ad5",
        "to": "0x03e2c563cf77e3cdc0b7663cee117da14ea60848",
        "gas": "0x4c84e",
        "value": "0x0",
        "input": "0xcf132d1c000000000000000000000000000000000000000000000000000000000000001200000000000000000000000000000000000000000000000000000000000000020000000000000000000000000000000000000000000000000000000000000080000000000000000000000000000000000000000000000000000000000000002800000000000000000000000000000000000000000000000000000000000000b9697066732f516d576554584c52654e44414d6e615a5a575867636868645954546652436f3837587273384753744c673962656b2f30303030303030303030303030303030303030303030303030303030303030303030303030303030303030303030303030303030303030303030303030303138303030303030303030303030303030303030303030303030303030303030303030303030303030303030303030303030303030303030303030303030303030322e6a736f6e00000000000000",
        "nonce": "0x2763e",
        "chainId": "0xa"
      },
      "additionalContracts": [],
      "isFixedGasLimit": false
    },
    {
      "hash": null,
      "transactionType": "CALL",
      "contractName": null,
      "contractAddress": "0x03e2c563cf77e3cdc0b7663cee117da14ea60848",
      "function": "setBadgeTier(uint256,uint256,string,uint256)",
      "arguments": [
        "18",
        "3",
        "ipfs/QmWeTXLReNDAMnaZZWXgchhdYTTfRCo87Xrs8GStLg9bek/00000000000000000000000000000000000000000000000000000000000000180000000000000000000000000000000000000000000000000000000000000003.json",
        "60"
      ],
      "transaction": {
        "from": "0x8835669696fb92839ab198cd80ce9f0d35f45ad5",
        "to": "0x03e2c563cf77e3cdc0b7663cee117da14ea60848",
        "gas": "0x4c84e",
        "value": "0x0",
        "input": "0xcf132d1c000000000000000000000000000000000000000000000000000000000000001200000000000000000000000000000000000000000000000000000000000000030000000000000000000000000000000000000000000000000000000000000080000000000000000000000000000000000000000000000000000000000000003c00000000000000000000000000000000000000000000000000000000000000b9697066732f516d576554584c52654e44414d6e615a5a575867636868645954546652436f3837587273384753744c673962656b2f30303030303030303030303030303030303030303030303030303030303030303030303030303030303030303030303030303030303030303030303030303138303030303030303030303030303030303030303030303030303030303030303030303030303030303030303030303030303030303030303030303030303030332e6a736f6e00000000000000",
        "nonce": "0x2763f",
        "chainId": "0xa"
      },
      "additionalContracts": [],
      "isFixedGasLimit": false
    },
    {
      "hash": null,
      "transactionType": "CALL",
      "contractName": null,
      "contractAddress": "0x03e2c563cf77e3cdc0b7663cee117da14ea60848",
      "function": "setBadgeTier(uint256,uint256,string,uint256)",
      "arguments": [
        "18",
        "4",
        "ipfs/QmWeTXLReNDAMnaZZWXgchhdYTTfRCo87Xrs8GStLg9bek/00000000000000000000000000000000000000000000000000000000000000180000000000000000000000000000000000000000000000000000000000000004.json",
        "80"
      ],
      "transaction": {
        "from": "0x8835669696fb92839ab198cd80ce9f0d35f45ad5",
        "to": "0x03e2c563cf77e3cdc0b7663cee117da14ea60848",
        "gas": "0x4c84e",
        "value": "0x0",
        "input": "0xcf132d1c000000000000000000000000000000000000000000000000000000000000001200000000000000000000000000000000000000000000000000000000000000040000000000000000000000000000000000000000000000000000000000000080000000000000000000000000000000000000000000000000000000000000005000000000000000000000000000000000000000000000000000000000000000b9697066732f516d576554584c52654e44414d6e615a5a575867636868645954546652436f3837587273384753744c673962656b2f30303030303030303030303030303030303030303030303030303030303030303030303030303030303030303030303030303030303030303030303030303138303030303030303030303030303030303030303030303030303030303030303030303030303030303030303030303030303030303030303030303030303030342e6a736f6e00000000000000",
        "nonce": "0x27640",
        "chainId": "0xa"
      },
      "additionalContracts": [],
      "isFixedGasLimit": false
    },
    {
      "hash": null,
      "transactionType": "CALL",
      "contractName": null,
      "contractAddress": "0x03e2c563cf77e3cdc0b7663cee117da14ea60848",
      "function": "setBadgeTier(uint256,uint256,string,uint256)",
      "arguments": [
        "18",
        "5",
        "ipfs/QmWeTXLReNDAMnaZZWXgchhdYTTfRCo87Xrs8GStLg9bek/00000000000000000000000000000000000000000000000000000000000000180000000000000000000000000000000000000000000000000000000000000005.json",
        "100"
      ],
      "transaction": {
        "from": "0x8835669696fb92839ab198cd80ce9f0d35f45ad5",
        "to": "0x03e2c563cf77e3cdc0b7663cee117da14ea60848",
        "gas": "0x4c84e",
        "value": "0x0",
        "input": "0xcf132d1c000000000000000000000000000000000000000000000000000000000000001200000000000000000000000000000000000000000000000000000000000000050000000000000000000000000000000000000000000000000000000000000080000000000000000000000000000000000000000000000000000000000000006400000000000000000000000000000000000000000000000000000000000000b9697066732f516d576554584c52654e44414d6e615a5a575867636868645954546652436f3837587273384753744c673962656b2f30303030303030303030303030303030303030303030303030303030303030303030303030303030303030303030303030303030303030303030303030303138303030303030303030303030303030303030303030303030303030303030303030303030303030303030303030303030303030303030303030303030303030352e6a736f6e00000000000000",
        "nonce": "0x27641",
        "chainId": "0xa"
      },
      "additionalContracts": [],
      "isFixedGasLimit": false
    }
  ],
  "receipts": [],
  "libraries": [],
  "pending": [],
  "returns": {},
  "timestamp": 1747080516,
  "chain": 10,
  "commit": "96a3219"
}