{
  "transactions": [
    {
      "hash": "0xe94739d4816a3cd837167a2e9435f54ae7e719e9a8e6a28fa1fab6b1fd0e139e",
      "transactionType": "CALL",
      "contractName": null,
      "contractAddress": "0xbc24012488bfcfe44875a139299595879c43c2cd",
      "function": "updateBadgeMetadata(uint256,string)",
      "arguments": [
        "1",
        "ipfs/QmZfXPDLm3W44SYTtPjinTERGM3eMzQCwHtcWoWnevqdgH/00000000000000000000000000000000000000000000000000000000000000010000000000000000000000000000000000000000000000000000000000000000.json"
      ],
      "transaction": {
        "from": "0x8835669696fb92839ab198cd80ce9f0d35f45ad5",
        "to": "0xbc24012488bfcfe44875a139299595879c43c2cd",
        "gas": "0x15840",
        "value": "0x0",
        "input": "0x47461b400000000000000000000000000000000000000000000000000000000000000001000000000000000000000000000000000000000000000000000000000000004000000000000000000000000000000000000000000000000000000000000000b9697066732f516d5a665850444c6d3357343453595474506a696e544552474d33654d7a514377487463576f576e6576716467482f30303030303030303030303030303030303030303030303030303030303030303030303030303030303030303030303030303030303030303030303030303031303030303030303030303030303030303030303030303030303030303030303030303030303030303030303030303030303030303030303030303030303030302e6a736f6e00000000000000",
        "nonce": "0x3a6af",
        "chainId": "0xa"
      },
      "additionalContracts": [],
      "isFixedGasLimit": false
    },
    {
      "hash": "0x0def120815bab1bd9bdd7ef68e9439dc7a731f76407f70dd5b6ec337b3e7752b",
      "transactionType": "CALL",
      "contractName": null,
      "contractAddress": "0xbc24012488bfcfe44875a139299595879c43c2cd",
      "function": "updateBadgeMetadata(uint256,string)",
      "arguments": [
        "22",
        "ipfs/QmZfXPDLm3W44SYTtPjinTERGM3eMzQCwHtcWoWnevqdgH/00000000000000000000000000000000000000000000000000000000000000220000000000000000000000000000000000000000000000000000000000000000.json"
      ],
      "transaction": {
        "from": "0x8835669696fb92839ab198cd80ce9f0d35f45ad5",
        "to": "0xbc24012488bfcfe44875a139299595879c43c2cd",
        "gas": "0x15840",
        "value": "0x0",
        "input": "0x47461b400000000000000000000000000000000000000000000000000000000000000016000000000000000000000000000000000000000000000000000000000000004000000000000000000000000000000000000000000000000000000000000000b9697066732f516d5a665850444c6d3357343453595474506a696e544552474d33654d7a514377487463576f576e6576716467482f30303030303030303030303030303030303030303030303030303030303030303030303030303030303030303030303030303030303030303030303030303232303030303030303030303030303030303030303030303030303030303030303030303030303030303030303030303030303030303030303030303030303030302e6a736f6e00000000000000",
        "nonce": "0x3a6b0",
        "chainId": "0xa"
      },
      "additionalContracts": [],
      "isFixedGasLimit": false
    },
    {
      "hash": "0x3797b36dc96b05aad0dfedc6e9f6bcc154f794118b03f774aac356a55e39d90d",
      "transactionType": "CALL",
      "contractName": null,
      "contractAddress": "0xbc24012488bfcfe44875a139299595879c43c2cd",
      "function": "updateBadgeTierMetadata(uint256,uint256,string)",
      "arguments": [
        "1",
        "1",
        "ipfs/QmZfXPDLm3W44SYTtPjinTERGM3eMzQCwHtcWoWnevqdgH/00000000000000000000000000000000000000000000000000000000000000010000000000000000000000000000000000000000000000000000000000000001.json"
      ],
      "transaction": {
        "from": "0x8835669696fb92839ab198cd80ce9f0d35f45ad5",
        "to": "0xbc24012488bfcfe44875a139299595879c43c2cd",
        "gas": "0x15688",
        "value": "0x0",
        "input": "0xc43e4f4c00000000000000000000000000000000000000000000000000000000000000010000000000000000000000000000000000000000000000000000000000000001000000000000000000000000000000000000000000000000000000000000006000000000000000000000000000000000000000000000000000000000000000b9697066732f516d5a665850444c6d3357343453595474506a696e544552474d33654d7a514377487463576f576e6576716467482f30303030303030303030303030303030303030303030303030303030303030303030303030303030303030303030303030303030303030303030303030303031303030303030303030303030303030303030303030303030303030303030303030303030303030303030303030303030303030303030303030303030303030312e6a736f6e00000000000000",
        "nonce": "0x3a6b1",
        "chainId": "0xa"
      },
      "additionalContracts": [],
      "isFixedGasLimit": false
    },
    {
      "hash": "0x8b4c4838c3b22d98eeaa3c9ff79cf349e401d794cf3ad6897e1db7308003ca3f",
      "transactionType": "CALL",
      "contractName": null,
      "contractAddress": "0xbc24012488bfcfe44875a139299595879c43c2cd",
      "function": "updateBadgeTierMetadata(uint256,uint256,string)",
      "arguments": [
        "1",
        "2",
        "ipfs/QmZfXPDLm3W44SYTtPjinTERGM3eMzQCwHtcWoWnevqdgH/00000000000000000000000000000000000000000000000000000000000000010000000000000000000000000000000000000000000000000000000000000002.json"
      ],
      "transaction": {
        "from": "0x8835669696fb92839ab198cd80ce9f0d35f45ad5",
        "to": "0xbc24012488bfcfe44875a139299595879c43c2cd",
        "gas": "0x15688",
        "value": "0x0",
        "input": "0xc43e4f4c00000000000000000000000000000000000000000000000000000000000000010000000000000000000000000000000000000000000000000000000000000002000000000000000000000000000000000000000000000000000000000000006000000000000000000000000000000000000000000000000000000000000000b9697066732f516d5a665850444c6d3357343453595474506a696e544552474d33654d7a514377487463576f576e6576716467482f30303030303030303030303030303030303030303030303030303030303030303030303030303030303030303030303030303030303030303030303030303031303030303030303030303030303030303030303030303030303030303030303030303030303030303030303030303030303030303030303030303030303030322e6a736f6e00000000000000",
        "nonce": "0x3a6b2",
        "chainId": "0xa"
      },
      "additionalContracts": [],
      "isFixedGasLimit": false
    },
    {
      "hash": "0xf787f00f0114fed30c7dc2c9e070e65982cc6068bca41dce52a171a5d68d8a81",
      "transactionType": "CALL",
      "contractName": null,
      "contractAddress": "0xbc24012488bfcfe44875a139299595879c43c2cd",
      "function": "updateBadgeTierMetadata(uint256,uint256,string)",
      "arguments": [
        "1",
        "3",
        "ipfs/QmZfXPDLm3W44SYTtPjinTERGM3eMzQCwHtcWoWnevqdgH/00000000000000000000000000000000000000000000000000000000000000010000000000000000000000000000000000000000000000000000000000000003.json"
      ],
      "transaction": {
        "from": "0x8835669696fb92839ab198cd80ce9f0d35f45ad5",
        "to": "0xbc24012488bfcfe44875a139299595879c43c2cd",
        "gas": "0x15688",
        "value": "0x0",
        "input": "0xc43e4f4c00000000000000000000000000000000000000000000000000000000000000010000000000000000000000000000000000000000000000000000000000000003000000000000000000000000000000000000000000000000000000000000006000000000000000000000000000000000000000000000000000000000000000b9697066732f516d5a665850444c6d3357343453595474506a696e544552474d33654d7a514377487463576f576e6576716467482f30303030303030303030303030303030303030303030303030303030303030303030303030303030303030303030303030303030303030303030303030303031303030303030303030303030303030303030303030303030303030303030303030303030303030303030303030303030303030303030303030303030303030332e6a736f6e00000000000000",
        "nonce": "0x3a6b3",
        "chainId": "0xa"
      },
      "additionalContracts": [],
      "isFixedGasLimit": false
    },
    {
      "hash": "0x01c3c77bceb38b452a50dd1cda730ea8a2db0e05452f4743ee18573fac800376",
      "transactionType": "CALL",
      "contractName": null,
      "contractAddress": "0xbc24012488bfcfe44875a139299595879c43c2cd",
      "function": "updateBadgeTierMetadata(uint256,uint256,string)",
      "arguments": [
        "1",
        "4",
        "ipfs/QmZfXPDLm3W44SYTtPjinTERGM3eMzQCwHtcWoWnevqdgH/00000000000000000000000000000000000000000000000000000000000000010000000000000000000000000000000000000000000000000000000000000004.json"
      ],
      "transaction": {
        "from": "0x8835669696fb92839ab198cd80ce9f0d35f45ad5",
        "to": "0xbc24012488bfcfe44875a139299595879c43c2cd",
        "gas": "0x15688",
        "value": "0x0",
        "input": "0xc43e4f4c00000000000000000000000000000000000000000000000000000000000000010000000000000000000000000000000000000000000000000000000000000004000000000000000000000000000000000000000000000000000000000000006000000000000000000000000000000000000000000000000000000000000000b9697066732f516d5a665850444c6d3357343453595474506a696e544552474d33654d7a514377487463576f576e6576716467482f30303030303030303030303030303030303030303030303030303030303030303030303030303030303030303030303030303030303030303030303030303031303030303030303030303030303030303030303030303030303030303030303030303030303030303030303030303030303030303030303030303030303030342e6a736f6e00000000000000",
        "nonce": "0x3a6b4",
        "chainId": "0xa"
      },
      "additionalContracts": [],
      "isFixedGasLimit": false
    },
    {
      "hash": "0xcb2cc55106a478bb4ba89f9d016ce92f7999d06686d0ab82595b1f5ee65c0acd",
      "transactionType": "CALL",
      "contractName": null,
      "contractAddress": "0xbc24012488bfcfe44875a139299595879c43c2cd",
      "function": "updateBadgeTierMetadata(uint256,uint256,string)",
      "arguments": [
        "1",
        "5",
        "ipfs/QmZfXPDLm3W44SYTtPjinTERGM3eMzQCwHtcWoWnevqdgH/00000000000000000000000000000000000000000000000000000000000000010000000000000000000000000000000000000000000000000000000000000005.json"
      ],
      "transaction": {
        "from": "0x8835669696fb92839ab198cd80ce9f0d35f45ad5",
        "to": "0xbc24012488bfcfe44875a139299595879c43c2cd",
        "gas": "0x15688",
        "value": "0x0",
        "input": "0xc43e4f4c00000000000000000000000000000000000000000000000000000000000000010000000000000000000000000000000000000000000000000000000000000005000000000000000000000000000000000000000000000000000000000000006000000000000000000000000000000000000000000000000000000000000000b9697066732f516d5a665850444c6d3357343453595474506a696e544552474d33654d7a514377487463576f576e6576716467482f30303030303030303030303030303030303030303030303030303030303030303030303030303030303030303030303030303030303030303030303030303031303030303030303030303030303030303030303030303030303030303030303030303030303030303030303030303030303030303030303030303030303030352e6a736f6e00000000000000",
        "nonce": "0x3a6b5",
        "chainId": "0xa"
      },
      "additionalContracts": [],
      "isFixedGasLimit": false
    },
    {
      "hash": "0xc15ea7ec273baaef062eacff1f29abb0e22cc85388def8f22a04711c9ffcfd7d",
      "transactionType": "CALL",
      "contractName": null,
      "contractAddress": "0xbc24012488bfcfe44875a139299595879c43c2cd",
      "function": "updateBadgeTierMetadata(uint256,uint256,string)",
      "arguments": [
        "22",
        "1",
        "ipfs/QmZfXPDLm3W44SYTtPjinTERGM3eMzQCwHtcWoWnevqdgH/00000000000000000000000000000000000000000000000000000000000000220000000000000000000000000000000000000000000000000000000000000001.json"
      ],
      "transaction": {
        "from": "0x8835669696fb92839ab198cd80ce9f0d35f45ad5",
        "to": "0xbc24012488bfcfe44875a139299595879c43c2cd",
        "gas": "0x15688",
        "value": "0x0",
        "input": "0xc43e4f4c00000000000000000000000000000000000000000000000000000000000000160000000000000000000000000000000000000000000000000000000000000001000000000000000000000000000000000000000000000000000000000000006000000000000000000000000000000000000000000000000000000000000000b9697066732f516d5a665850444c6d3357343453595474506a696e544552474d33654d7a514377487463576f576e6576716467482f30303030303030303030303030303030303030303030303030303030303030303030303030303030303030303030303030303030303030303030303030303232303030303030303030303030303030303030303030303030303030303030303030303030303030303030303030303030303030303030303030303030303030312e6a736f6e00000000000000",
        "nonce": "0x3a6b6",
        "chainId": "0xa"
      },
      "additionalContracts": [],
      "isFixedGasLimit": false
    }
  ],
  "receipts": [
    {
      "status": "0x1",
      "cumulativeGasUsed": "0x113ea54",
      "logs": [
        {
          "address": "0xbc24012488bfcfe44875a139299595879c43c2cd",
          "topics": [
            "0xb810609e93b7325976c078b96d9c92d3160d0d165073b8c9a8a6a4d257fd0477",
            "0x0000000000000000000000000000000000000000000000000000000000000001"
          ],
          "data": "0x000000000000000000000000000000000000000000000000000000000000002000000000000000000000000000000000000000000000000000000000000000b9697066732f516d5a665850444c6d3357343453595474506a696e544552474d33654d7a514377487463576f576e6576716467482f30303030303030303030303030303030303030303030303030303030303030303030303030303030303030303030303030303030303030303030303030303031303030303030303030303030303030303030303030303030303030303030303030303030303030303030303030303030303030303030303030303030303030302e6a736f6e00000000000000",
          "blockHash": "0xb49efcb10e42fa4c56b7fe765789d870f946226731e222a4a4febe6835320c78",
          "blockNumber": "0x82f539a",
          "blockTimestamp": "0x685280ed",
          "transactionHash": "0xe94739d4816a3cd837167a2e9435f54ae7e719e9a8e6a28fa1fab6b1fd0e139e",
          "transactionIndex": "0x21",
          "logIndex": "0x154",
          "removed": false
        }
      ],
      "logsBloom": "0x00000000040000000200000000000000000000000000000000000000000000040000000000000000000000000000000000000000000000000000000000040000000000000000000000000000000000000000000000040000000000400000000000000000000000000000000000000000000000000000000000000000000000000000000000000000000000000000000000000000000000000000000000000000000000000000000000000000000000000000000000000000000000000000000000000000000000000000000000000000000000000000000000004020000040000000000000000000000000000000000000000000000000000000000000000000",
      "type": "0x2",
      "transactionHash": "0xe94739d4816a3cd837167a2e9435f54ae7e719e9a8e6a28fa1fab6b1fd0e139e",
      "transactionIndex": "0x21",
      "blockHash": "0xb49efcb10e42fa4c56b7fe765789d870f946226731e222a4a4febe6835320c78",
      "blockNumber": "0x82f539a",
      "gasUsed": "0xeb63",
      "effectiveGasPrice": "0x13fc",
      "from": "0x8835669696fb92839ab198cd80ce9f0d35f45ad5",
      "to": "0xbc24012488bfcfe44875a139299595879c43c2cd",
      "contractAddress": null,
      "l1BaseFeeScalar": "0x146b",
      "l1BlobBaseFee": "0x1",
      "l1BlobBaseFeeScalar": "0xf79c5",
      "l1Fee": "0x1be8d5b26",
      "l1GasPrice": "0x27df38b0",
      "l1GasUsed": "0x85e"
    },
    {
      "status": "0x1",
      "cumulativeGasUsed": "0x114d5b7",
      "logs": [
        {
          "address": "0xbc24012488bfcfe44875a139299595879c43c2cd",
          "topics": [
            "0xb810609e93b7325976c078b96d9c92d3160d0d165073b8c9a8a6a4d257fd0477",
            "0x0000000000000000000000000000000000000000000000000000000000000016"
          ],
          "data": "0x000000000000000000000000000000000000000000000000000000000000002000000000000000000000000000000000000000000000000000000000000000b9697066732f516d5a665850444c6d3357343453595474506a696e544552474d33654d7a514377487463576f576e6576716467482f30303030303030303030303030303030303030303030303030303030303030303030303030303030303030303030303030303030303030303030303030303232303030303030303030303030303030303030303030303030303030303030303030303030303030303030303030303030303030303030303030303030303030302e6a736f6e00000000000000",
          "blockHash": "0xb49efcb10e42fa4c56b7fe765789d870f946226731e222a4a4febe6835320c78",
          "blockNumber": "0x82f539a",
          "blockTimestamp": "0x685280ed",
          "transactionHash": "0x0def120815bab1bd9bdd7ef68e9439dc7a731f76407f70dd5b6ec337b3e7752b",
          "transactionIndex": "0x22",
          "logIndex": "0x155",
          "removed": false
        }
      ],
      "logsBloom": "0x00000000040000000200000000000000000000000000000000000000000000040000000000000000000000000000000000000000000000000000000000000000000000000000000800000000000000000000000000000000000000400000000000000000000000000000000000000000200000000000000000000000000000000000000000000000000000000000000000000000000000000000000000000000000000000000000000000000000000000000000000000000000000000000000000000000000000000000000000000000000000000000000000004020000000000000000000000000000000000000000000000000000000000008000000000000",
      "type": "0x2",
      "transactionHash": "0x0def120815bab1bd9bdd7ef68e9439dc7a731f76407f70dd5b6ec337b3e7752b",
      "transactionIndex": "0x22",
      "blockHash": "0xb49efcb10e42fa4c56b7fe765789d870f946226731e222a4a4febe6835320c78",
      "blockNumber": "0x82f539a",
      "gasUsed": "0xeb63",
      "effectiveGasPrice": "0x13fc",
      "from": "0x8835669696fb92839ab198cd80ce9f0d35f45ad5",
      "to": "0xbc24012488bfcfe44875a139299595879c43c2cd",
      "contractAddress": null,
      "l1BaseFeeScalar": "0x146b",
      "l1BlobBaseFee": "0x1",
      "l1BlobBaseFeeScalar": "0xf79c5",
      "l1Fee": "0x1c1576f40",
      "l1GasPrice": "0x27df38b0",
      "l1GasUsed": "0x86c"
    },
    {
      "status": "0x1",
      "cumulativeGasUsed": "0x115cdb5",
      "logs": [
        {
          "address": "0xbc24012488bfcfe44875a139299595879c43c2cd",
          "topics": [
            "0x3e442b5d5a6ecd8c0a86017cabd5ee0efbf32debbee58f9cea68f1b8489e4193",
            "0x0000000000000000000000000000000000000000000000000000000000000001"
          ],
          "data": "0x0000000000000000000000000000000000000000000000000000000000000001000000000000000000000000000000000000000000000000000000000000004000000000000000000000000000000000000000000000000000000000000000b9697066732f516d5a665850444c6d3357343453595474506a696e544552474d33654d7a514377487463576f576e6576716467482f30303030303030303030303030303030303030303030303030303030303030303030303030303030303030303030303030303030303030303030303030303031303030303030303030303030303030303030303030303030303030303030303030303030303030303030303030303030303030303030303030303030303030312e6a736f6e00000000000000",
          "blockHash": "0xb49efcb10e42fa4c56b7fe765789d870f946226731e222a4a4febe6835320c78",
          "blockNumber": "0x82f539a",
          "blockTimestamp": "0x685280ed",
          "transactionHash": "0x3797b36dc96b05aad0dfedc6e9f6bcc154f794118b03f774aac356a55e39d90d",
          "transactionIndex": "0x23",
          "logIndex": "0x156",
          "removed": false
        }
      ],
      "logsBloom": "0x00000000040000000200000000000000000000000000000000000000000000000000000000000000000000000000000000000000000000000000000000040000000000000000000000000000000000000000000000040000000000000000000000000010000000000000000000000000000000000000000000000000000000000000000000000000000000000000000000000000000000000000000000000000000000200000000000000000000000000000000000000000000000000000000000000000000000000000000000000000000000000000000200004000000040000000000000000000000000000000000000000000000000000000000000000000",
      "type": "0x2",
      "transactionHash": "0x3797b36dc96b05aad0dfedc6e9f6bcc154f794118b03f774aac356a55e39d90d",
      "transactionIndex": "0x23",
      "blockHash": "0xb49efcb10e42fa4c56b7fe765789d870f946226731e222a4a4febe6835320c78",
      "blockNumber": "0x82f539a",
      "gasUsed": "0xf7fe",
      "effectiveGasPrice": "0x13fc",
      "from": "0x8835669696fb92839ab198cd80ce9f0d35f45ad5",
      "to": "0xbc24012488bfcfe44875a139299595879c43c2cd",
      "contractAddress": null,
      "l1BaseFeeScalar": "0x146b",
      "l1BlobBaseFee": "0x1",
      "l1BlobBaseFeeScalar": "0xf79c5",
      "l1Fee": "0x1c6eb9774",
      "l1GasPrice": "0x27df38b0",
      "l1GasUsed": "0x886"
    },
    {
      "status": "0x1",
      "cumulativeGasUsed": "0x116c5b3",
      "logs": [
        {
          "address": "0xbc24012488bfcfe44875a139299595879c43c2cd",
          "topics": [
            "0x3e442b5d5a6ecd8c0a86017cabd5ee0efbf32debbee58f9cea68f1b8489e4193",
            "0x0000000000000000000000000000000000000000000000000000000000000001"
          ],
          "data": "0x0000000000000000000000000000000000000000000000000000000000000002000000000000000000000000000000000000000000000000000000000000004000000000000000000000000000000000000000000000000000000000000000b9697066732f516d5a665850444c6d3357343453595474506a696e544552474d33654d7a514377487463576f576e6576716467482f30303030303030303030303030303030303030303030303030303030303030303030303030303030303030303030303030303030303030303030303030303031303030303030303030303030303030303030303030303030303030303030303030303030303030303030303030303030303030303030303030303030303030322e6a736f6e00000000000000",
          "blockHash": "0xb49efcb10e42fa4c56b7fe765789d870f946226731e222a4a4febe6835320c78",
          "blockNumber": "0x82f539a",
          "blockTimestamp": "0x685280ed",
          "transactionHash": "0x8b4c4838c3b22d98eeaa3c9ff79cf349e401d794cf3ad6897e1db7308003ca3f",
          "transactionIndex": "0x24",
          "logIndex": "0x157",
          "removed": false
        }
      ],
      "logsBloom": "0x00000000040000000200000000000000000000000000000000000000000000000000000000000000000000000000000000000000000000000000000000040000000000000000000000000000000000000000000000040000000000000000000000000010000000000000000000000000000000000000000000000000000000000000000000000000000000000000000000000000000000000000000000000000000000200000000000000000000000000000000000000000000000000000000000000000000000000000000000000000000000000000000200004000000040000000000000000000000000000000000000000000000000000000000000000000",
      "type": "0x2",
      "transactionHash": "0x8b4c4838c3b22d98eeaa3c9ff79cf349e401d794cf3ad6897e1db7308003ca3f",
      "transactionIndex": "0x24",
      "blockHash": "0xb49efcb10e42fa4c56b7fe765789d870f946226731e222a4a4febe6835320c78",
      "blockNumber": "0x82f539a",
      "gasUsed": "0xf7fe",
      "effectiveGasPrice": "0x13fc",
      "from": "0x8835669696fb92839ab198cd80ce9f0d35f45ad5",
      "to": "0xbc24012488bfcfe44875a139299595879c43c2cd",
      "contractAddress": null,
      "l1BaseFeeScalar": "0x146b",
      "l1BlobBaseFee": "0x1",
      "l1BlobBaseFeeScalar": "0xf79c5",
      "l1Fee": "0x1da72242c",
      "l1GasPrice": "0x27df38b0",
      "l1GasUsed": "0x8e4"
    },
    {
      "status": "0x1",
      "cumulativeGasUsed": "0x117bdb1",
      "logs": [
        {
          "address": "0xbc24012488bfcfe44875a139299595879c43c2cd",
          "topics": [
            "0x3e442b5d5a6ecd8c0a86017cabd5ee0efbf32debbee58f9cea68f1b8489e4193",
            "0x0000000000000000000000000000000000000000000000000000000000000001"
          ],
          "data": "0x0000000000000000000000000000000000000000000000000000000000000003000000000000000000000000000000000000000000000000000000000000004000000000000000000000000000000000000000000000000000000000000000b9697066732f516d5a665850444c6d3357343453595474506a696e544552474d33654d7a514377487463576f576e6576716467482f30303030303030303030303030303030303030303030303030303030303030303030303030303030303030303030303030303030303030303030303030303031303030303030303030303030303030303030303030303030303030303030303030303030303030303030303030303030303030303030303030303030303030332e6a736f6e00000000000000",
          "blockHash": "0xb49efcb10e42fa4c56b7fe765789d870f946226731e222a4a4febe6835320c78",
          "blockNumber": "0x82f539a",
          "blockTimestamp": "0x685280ed",
          "transactionHash": "0xf787f00f0114fed30c7dc2c9e070e65982cc6068bca41dce52a171a5d68d8a81",
          "transactionIndex": "0x25",
          "logIndex": "0x158",
          "removed": false
        }
      ],
      "logsBloom": "0x00000000040000000200000000000000000000000000000000000000000000000000000000000000000000000000000000000000000000000000000000040000000000000000000000000000000000000000000000040000000000000000000000000010000000000000000000000000000000000000000000000000000000000000000000000000000000000000000000000000000000000000000000000000000000200000000000000000000000000000000000000000000000000000000000000000000000000000000000000000000000000000000200004000000040000000000000000000000000000000000000000000000000000000000000000000",
      "type": "0x2",
      "transactionHash": "0xf787f00f0114fed30c7dc2c9e070e65982cc6068bca41dce52a171a5d68d8a81",
      "transactionIndex": "0x25",
      "blockHash": "0xb49efcb10e42fa4c56b7fe765789d870f946226731e222a4a4febe6835320c78",
      "blockNumber": "0x82f539a",
      "gasUsed": "0xf7fe",
      "effectiveGasPrice": "0x13fc",
      "from": "0x8835669696fb92839ab198cd80ce9f0d35f45ad5",
      "to": "0xbc24012488bfcfe44875a139299595879c43c2cd",
      "contractAddress": null,
      "l1BaseFeeScalar": "0x146b",
      "l1BlobBaseFee": "0x1",
      "l1BlobBaseFeeScalar": "0xf79c5",
      "l1Fee": "0x1da72242c",
      "l1GasPrice": "0x27df38b0",
      "l1GasUsed": "0x8e4"
    },
    {
      "status": "0x1",
      "cumulativeGasUsed": "0x118b5af",
      "logs": [
        {
          "address": "0xbc24012488bfcfe44875a139299595879c43c2cd",
          "topics": [
            "0x3e442b5d5a6ecd8c0a86017cabd5ee0efbf32debbee58f9cea68f1b8489e4193",
            "0x0000000000000000000000000000000000000000000000000000000000000001"
          ],
          "data": "0x0000000000000000000000000000000000000000000000000000000000000004000000000000000000000000000000000000000000000000000000000000004000000000000000000000000000000000000000000000000000000000000000b9697066732f516d5a665850444c6d3357343453595474506a696e544552474d33654d7a514377487463576f576e6576716467482f30303030303030303030303030303030303030303030303030303030303030303030303030303030303030303030303030303030303030303030303030303031303030303030303030303030303030303030303030303030303030303030303030303030303030303030303030303030303030303030303030303030303030342e6a736f6e00000000000000",
          "blockHash": "0xb49efcb10e42fa4c56b7fe765789d870f946226731e222a4a4febe6835320c78",
          "blockNumber": "0x82f539a",
          "blockTimestamp": "0x685280ed",
          "transactionHash": "0x01c3c77bceb38b452a50dd1cda730ea8a2db0e05452f4743ee18573fac800376",
          "transactionIndex": "0x26",
          "logIndex": "0x159",
          "removed": false
        }
      ],
      "logsBloom": "0x00000000040000000200000000000000000000000000000000000000000000000000000000000000000000000000000000000000000000000000000000040000000000000000000000000000000000000000000000040000000000000000000000000010000000000000000000000000000000000000000000000000000000000000000000000000000000000000000000000000000000000000000000000000000000200000000000000000000000000000000000000000000000000000000000000000000000000000000000000000000000000000000200004000000040000000000000000000000000000000000000000000000000000000000000000000",
      "type": "0x2",
      "transactionHash": "0x01c3c77bceb38b452a50dd1cda730ea8a2db0e05452f4743ee18573fac800376",
      "transactionIndex": "0x26",
      "blockHash": "0xb49efcb10e42fa4c56b7fe765789d870f946226731e222a4a4febe6835320c78",
      "blockNumber": "0x82f539a",
      "gasUsed": "0xf7fe",
      "effectiveGasPrice": "0x13fc",
      "from": "0x8835669696fb92839ab198cd80ce9f0d35f45ad5",
      "to": "0xbc24012488bfcfe44875a139299595879c43c2cd",
      "contractAddress": null,
      "l1BaseFeeScalar": "0x146b",
      "l1BlobBaseFee": "0x1",
      "l1BlobBaseFeeScalar": "0xf79c5",
      "l1Fee": "0x1da72242c",
      "l1GasPrice": "0x27df38b0",
      "l1GasUsed": "0x8e4"
    },
    {
      "status": "0x1",
      "cumulativeGasUsed": "0x119adad",
      "logs": [
        {
          "address": "0xbc24012488bfcfe44875a139299595879c43c2cd",
          "topics": [
            "0x3e442b5d5a6ecd8c0a86017cabd5ee0efbf32debbee58f9cea68f1b8489e4193",
            "0x0000000000000000000000000000000000000000000000000000000000000001"
          ],
          "data": "0x0000000000000000000000000000000000000000000000000000000000000005000000000000000000000000000000000000000000000000000000000000004000000000000000000000000000000000000000000000000000000000000000b9697066732f516d5a665850444c6d3357343453595474506a696e544552474d33654d7a514377487463576f576e6576716467482f30303030303030303030303030303030303030303030303030303030303030303030303030303030303030303030303030303030303030303030303030303031303030303030303030303030303030303030303030303030303030303030303030303030303030303030303030303030303030303030303030303030303030352e6a736f6e00000000000000",
          "blockHash": "0xb49efcb10e42fa4c56b7fe765789d870f946226731e222a4a4febe6835320c78",
          "blockNumber": "0x82f539a",
          "blockTimestamp": "0x685280ed",
          "transactionHash": "0xcb2cc55106a478bb4ba89f9d016ce92f7999d06686d0ab82595b1f5ee65c0acd",
          "transactionIndex": "0x27",
          "logIndex": "0x15a",
          "removed": false
        }
      ],
      "logsBloom": "0x00000000040000000200000000000000000000000000000000000000000000000000000000000000000000000000000000000000000000000000000000040000000000000000000000000000000000000000000000040000000000000000000000000010000000000000000000000000000000000000000000000000000000000000000000000000000000000000000000000000000000000000000000000000000000200000000000000000000000000000000000000000000000000000000000000000000000000000000000000000000000000000000200004000000040000000000000000000000000000000000000000000000000000000000000000000",
      "type": "0x2",
      "transactionHash": "0xcb2cc55106a478bb4ba89f9d016ce92f7999d06686d0ab82595b1f5ee65c0acd",
      "transactionIndex": "0x27",
      "blockHash": "0xb49efcb10e42fa4c56b7fe765789d870f946226731e222a4a4febe6835320c78",
      "blockNumber": "0x82f539a",
      "gasUsed": "0xf7fe",
      "effectiveGasPrice": "0x13fc",
      "from": "0x8835669696fb92839ab198cd80ce9f0d35f45ad5",
      "to": "0xbc24012488bfcfe44875a139299595879c43c2cd",
      "contractAddress": null,
      "l1BaseFeeScalar": "0x146b",
      "l1BlobBaseFee": "0x1",
      "l1BlobBaseFeeScalar": "0xf79c5",
      "l1Fee": "0x1da72242c",
      "l1GasPrice": "0x27df38b0",
      "l1GasUsed": "0x8e4"
    },
    {
      "status": "0x1",
      "cumulativeGasUsed": "0x11aa5ab",
      "logs": [
        {
          "address": "0xbc24012488bfcfe44875a139299595879c43c2cd",
          "topics": [
            "0x3e442b5d5a6ecd8c0a86017cabd5ee0efbf32debbee58f9cea68f1b8489e4193",
            "0x0000000000000000000000000000000000000000000000000000000000000016"
          ],
          "data": "0x0000000000000000000000000000000000000000000000000000000000000001000000000000000000000000000000000000000000000000000000000000004000000000000000000000000000000000000000000000000000000000000000b9697066732f516d5a665850444c6d3357343453595474506a696e544552474d33654d7a514377487463576f576e6576716467482f30303030303030303030303030303030303030303030303030303030303030303030303030303030303030303030303030303030303030303030303030303232303030303030303030303030303030303030303030303030303030303030303030303030303030303030303030303030303030303030303030303030303030312e6a736f6e00000000000000",
          "blockHash": "0xb49efcb10e42fa4c56b7fe765789d870f946226731e222a4a4febe6835320c78",
          "blockNumber": "0x82f539a",
          "blockTimestamp": "0x685280ed",
          "transactionHash": "0xc15ea7ec273baaef062eacff1f29abb0e22cc85388def8f22a04711c9ffcfd7d",
          "transactionIndex": "0x28",
          "logIndex": "0x15b",
          "removed": false
        }
      ],
      "logsBloom": "0x00000000040000000200000000000000000000000000000000000000000000000000000000000000000000000000000000000000000000000000000000000000000000000000000800000000000000000000000000000000000000000000000000000010000000000000000000000000200000000000000000000000000000000000000000000000000000000000000000000000000000000000000000000000000000200000000000000000000000000000000000000000000000000000000000000000000000000000000000000000000000000000000200004000000000000000000000000000000000000000000000000000000000000008000000000000",
      "type": "0x2",
      "transactionHash": "0xc15ea7ec273baaef062eacff1f29abb0e22cc85388def8f22a04711c9ffcfd7d",
      "transactionIndex": "0x28",
      "blockHash": "0xb49efcb10e42fa4c56b7fe765789d870f946226731e222a4a4febe6835320c78",
      "blockNumber": "0x82f539a",
      "gasUsed": "0xf7fe",
      "effectiveGasPrice": "0x13fc",
      "from": "0x8835669696fb92839ab198cd80ce9f0d35f45ad5",
      "to": "0xbc24012488bfcfe44875a139299595879c43c2cd",
      "contractAddress": null,
      "l1BaseFeeScalar": "0x146b",
      "l1BlobBaseFee": "0x1",
      "l1BlobBaseFeeScalar": "0xf79c5",
      "l1Fee": "0x1e0064c60",
      "l1GasPrice": "0x27df38b0",
      "l1GasUsed": "0x8ff"
    }
  ],
  "libraries": [],
  "pending": [],
  "returns": {},
  "timestamp": 1750237420,
  "chain": 10,
  "commit": "9352bab"
}