{
  "transactions": [
    {
      "hash": "0x62e6746b9a664c956a87264b5b1b23b23217ab73e6fe0f983b6f6effb9caf4a1",
      "transactionType": "CALL",
      "contractName": null,
      "contractAddress": "0xbc24012488bfcfe44875a139299595879c43c2cd",
      "function": "updateBadgeMetadata(uint256,string)",
      "arguments": [
        "25",
        "ipfs/QmbsRtLJeRggb8KKDBjNcJZ2NAzWFfdGjPdPGA5sksSKQ7/00000000000000000000000000000000000000000000000000000000000000250000000000000000000000000000000000000000000000000000000000000000.json"
      ],
      "transaction": {
        "from": "0x8835669696fb92839ab198cd80ce9f0d35f45ad5",
        "to": "0xbc24012488bfcfe44875a139299595879c43c2cd",
        "gas": "0x15840",
        "value": "0x0",
        "input": "0x47461b400000000000000000000000000000000000000000000000000000000000000019000000000000000000000000000000000000000000000000000000000000004000000000000000000000000000000000000000000000000000000000000000b9697066732f516d627352744c4a6552676762384b4b44426a4e634a5a324e417a57466664476a506450474135736b73534b51372f30303030303030303030303030303030303030303030303030303030303030303030303030303030303030303030303030303030303030303030303030303235303030303030303030303030303030303030303030303030303030303030303030303030303030303030303030303030303030303030303030303030303030302e6a736f6e00000000000000",
        "nonce": "0x51238",
        "chainId": "0xa"
      },
      "additionalContracts": [],
      "isFixedGasLimit": false
    },
    {
      "hash": "0xdb46f3223ae37598d876201b730c2903360630f1081a4e2f866daa0c3a7a0e8e",
      "transactionType": "CALL",
      "contractName": null,
      "contractAddress": "0xbc24012488bfcfe44875a139299595879c43c2cd",
      "function": "updateBadgeTierMetadata(uint256,uint256,string)",
      "arguments": [
        "25",
        "1",
        "ipfs/QmbsRtLJeRggb8KKDBjNcJZ2NAzWFfdGjPdPGA5sksSKQ7/00000000000000000000000000000000000000000000000000000000000000250000000000000000000000000000000000000000000000000000000000000001.json"
      ],
      "transaction": {
        "from": "0x8835669696fb92839ab198cd80ce9f0d35f45ad5",
        "to": "0xbc24012488bfcfe44875a139299595879c43c2cd",
        "gas": "0x15688",
        "value": "0x0",
        "input": "0xc43e4f4c00000000000000000000000000000000000000000000000000000000000000190000000000000000000000000000000000000000000000000000000000000001000000000000000000000000000000000000000000000000000000000000006000000000000000000000000000000000000000000000000000000000000000b9697066732f516d627352744c4a6552676762384b4b44426a4e634a5a324e417a57466664476a506450474135736b73534b51372f30303030303030303030303030303030303030303030303030303030303030303030303030303030303030303030303030303030303030303030303030303235303030303030303030303030303030303030303030303030303030303030303030303030303030303030303030303030303030303030303030303030303030312e6a736f6e00000000000000",
        "nonce": "0x51239",
        "chainId": "0xa"
      },
      "additionalContracts": [],
      "isFixedGasLimit": false
    },
    {
      "hash": "0x81625f244ab6cdc91d041869747dc1d07919a58aa5f4145f342c7e9bdaa5abac",
      "transactionType": "CALL",
      "contractName": null,
      "contractAddress": "0xbc24012488bfcfe44875a139299595879c43c2cd",
      "function": "updateBadgeTierMetadata(uint256,uint256,string)",
      "arguments": [
        "25",
        "2",
        "ipfs/QmbsRtLJeRggb8KKDBjNcJZ2NAzWFfdGjPdPGA5sksSKQ7/00000000000000000000000000000000000000000000000000000000000000250000000000000000000000000000000000000000000000000000000000000002.json"
      ],
      "transaction": {
        "from": "0x8835669696fb92839ab198cd80ce9f0d35f45ad5",
        "to": "0xbc24012488bfcfe44875a139299595879c43c2cd",
        "gas": "0x15688",
        "value": "0x0",
        "input": "0xc43e4f4c00000000000000000000000000000000000000000000000000000000000000190000000000000000000000000000000000000000000000000000000000000002000000000000000000000000000000000000000000000000000000000000006000000000000000000000000000000000000000000000000000000000000000b9697066732f516d627352744c4a6552676762384b4b44426a4e634a5a324e417a57466664476a506450474135736b73534b51372f30303030303030303030303030303030303030303030303030303030303030303030303030303030303030303030303030303030303030303030303030303235303030303030303030303030303030303030303030303030303030303030303030303030303030303030303030303030303030303030303030303030303030322e6a736f6e00000000000000",
        "nonce": "0x5123a",
        "chainId": "0xa"
      },
      "additionalContracts": [],
      "isFixedGasLimit": false
    },
    {
      "hash": "0x62c3330e21800fddbefdc757ed676f5ec724cc8a038c3af5be5967f503dc771e",
      "transactionType": "CALL",
      "contractName": null,
      "contractAddress": "0xbc24012488bfcfe44875a139299595879c43c2cd",
      "function": "updateBadgeTierMetadata(uint256,uint256,string)",
      "arguments": [
        "25",
        "3",
        "ipfs/QmbsRtLJeRggb8KKDBjNcJZ2NAzWFfdGjPdPGA5sksSKQ7/00000000000000000000000000000000000000000000000000000000000000250000000000000000000000000000000000000000000000000000000000000003.json"
      ],
      "transaction": {
        "from": "0x8835669696fb92839ab198cd80ce9f0d35f45ad5",
        "to": "0xbc24012488bfcfe44875a139299595879c43c2cd",
        "gas": "0x15688",
        "value": "0x0",
        "input": "0xc43e4f4c00000000000000000000000000000000000000000000000000000000000000190000000000000000000000000000000000000000000000000000000000000003000000000000000000000000000000000000000000000000000000000000006000000000000000000000000000000000000000000000000000000000000000b9697066732f516d627352744c4a6552676762384b4b44426a4e634a5a324e417a57466664476a506450474135736b73534b51372f30303030303030303030303030303030303030303030303030303030303030303030303030303030303030303030303030303030303030303030303030303235303030303030303030303030303030303030303030303030303030303030303030303030303030303030303030303030303030303030303030303030303030332e6a736f6e00000000000000",
        "nonce": "0x5123b",
        "chainId": "0xa"
      },
      "additionalContracts": [],
      "isFixedGasLimit": false
    },
    {
      "hash": "0xfbaa07fee5c7f8e6344d94153b623eb129eb14f1e4eaff6aff862831f337df49",
      "transactionType": "CALL",
      "contractName": null,
      "contractAddress": "0xbc24012488bfcfe44875a139299595879c43c2cd",
      "function": "updateBadgeTierMetadata(uint256,uint256,string)",
      "arguments": [
        "25",
        "4",
        "ipfs/QmbsRtLJeRggb8KKDBjNcJZ2NAzWFfdGjPdPGA5sksSKQ7/00000000000000000000000000000000000000000000000000000000000000250000000000000000000000000000000000000000000000000000000000000004.json"
      ],
      "transaction": {
        "from": "0x8835669696fb92839ab198cd80ce9f0d35f45ad5",
        "to": "0xbc24012488bfcfe44875a139299595879c43c2cd",
        "gas": "0x15688",
        "value": "0x0",
        "input": "0xc43e4f4c00000000000000000000000000000000000000000000000000000000000000190000000000000000000000000000000000000000000000000000000000000004000000000000000000000000000000000000000000000000000000000000006000000000000000000000000000000000000000000000000000000000000000b9697066732f516d627352744c4a6552676762384b4b44426a4e634a5a324e417a57466664476a506450474135736b73534b51372f30303030303030303030303030303030303030303030303030303030303030303030303030303030303030303030303030303030303030303030303030303235303030303030303030303030303030303030303030303030303030303030303030303030303030303030303030303030303030303030303030303030303030342e6a736f6e00000000000000",
        "nonce": "0x5123c",
        "chainId": "0xa"
      },
      "additionalContracts": [],
      "isFixedGasLimit": false
    }
  ],
  "receipts": [
    {
      "status": "0x1",
      "cumulativeGasUsed": "0x863a32",
      "logs": [
        {
          "address": "0xbc24012488bfcfe44875a139299595879c43c2cd",
          "topics": [
            "0xb810609e93b7325976c078b96d9c92d3160d0d165073b8c9a8a6a4d257fd0477",
            "0x0000000000000000000000000000000000000000000000000000000000000019"
          ],
          "data": "0x000000000000000000000000000000000000000000000000000000000000002000000000000000000000000000000000000000000000000000000000000000b9697066732f516d627352744c4a6552676762384b4b44426a4e634a5a324e417a57466664476a506450474135736b73534b51372f30303030303030303030303030303030303030303030303030303030303030303030303030303030303030303030303030303030303030303030303030303235303030303030303030303030303030303030303030303030303030303030303030303030303030303030303030303030303030303030303030303030303030302e6a736f6e00000000000000",
          "blockHash": "0x118031934d9fc969659217f261f79b0efa74773b8c8effecc823297bf4a30009",
          "blockNumber": "0x858ae27",
          "blockTimestamp": "0x68a53607",
          "transactionHash": "0x62e6746b9a664c956a87264b5b1b23b23217ab73e6fe0f983b6f6effb9caf4a1",
          "transactionIndex": "0x14",
          "logIndex": "0x47",
          "removed": false
        }
      ],
      "logsBloom": "0x00000000040000000200000000000000000000000000000000000000000000040000000000000000000000000000000000000000000000800000000000000000000000000000000000000000000000000000000000000000000000400000000000000000000000000000000000000000000000000000020000000000000000000000000000000000000000000000000000000000000000000000000000000000000000000000000000000000000000000000000000000000000000000000000000000000000000000000000000000000000000000000000000004020000000000000000000000000000000000000000000000000000000000000008000000000",
      "type": "0x2",
      "transactionHash": "0x62e6746b9a664c956a87264b5b1b23b23217ab73e6fe0f983b6f6effb9caf4a1",
      "transactionIndex": "0x14",
      "blockHash": "0x118031934d9fc969659217f261f79b0efa74773b8c8effecc823297bf4a30009",
      "blockNumber": "0x858ae27",
      "gasUsed": "0xeb63",
      "effectiveGasPrice": "0x493",
      "from": "0x8835669696fb92839ab198cd80ce9f0d35f45ad5",
      "to": "0xbc24012488bfcfe44875a139299595879c43c2cd",
      "contractAddress": null,
      "l1BaseFeeScalar": "0x146b",
      "l1BlobBaseFee": "0x1",
      "l1BlobBaseFeeScalar": "0xf79c5",
      "l1Fee": "0x767b3d81",
      "l1GasPrice": "0xa836b00",
      "l1GasUsed": "0x86c"
    },
    {
      "status": "0x1",
      "cumulativeGasUsed": "0x873230",
      "logs": [
        {
          "address": "0xbc24012488bfcfe44875a139299595879c43c2cd",
          "topics": [
            "0x3e442b5d5a6ecd8c0a86017cabd5ee0efbf32debbee58f9cea68f1b8489e4193",
            "0x0000000000000000000000000000000000000000000000000000000000000019"
          ],
          "data": "0x0000000000000000000000000000000000000000000000000000000000000001000000000000000000000000000000000000000000000000000000000000004000000000000000000000000000000000000000000000000000000000000000b9697066732f516d627352744c4a6552676762384b4b44426a4e634a5a324e417a57466664476a506450474135736b73534b51372f30303030303030303030303030303030303030303030303030303030303030303030303030303030303030303030303030303030303030303030303030303235303030303030303030303030303030303030303030303030303030303030303030303030303030303030303030303030303030303030303030303030303030312e6a736f6e00000000000000",
          "blockHash": "0x118031934d9fc969659217f261f79b0efa74773b8c8effecc823297bf4a30009",
          "blockNumber": "0x858ae27",
          "blockTimestamp": "0x68a53607",
          "transactionHash": "0xdb46f3223ae37598d876201b730c2903360630f1081a4e2f866daa0c3a7a0e8e",
          "transactionIndex": "0x15",
          "logIndex": "0x48",
          "removed": false
        }
      ],
      "logsBloom": "0x00000000040000000200000000000000000000000000000000000000000000000000000000000000000000000000000000000000000000800000000000000000000000000000000000000000000000000000000000000000000000000000000000000010000000000000000000000000000000000000020000000000000000000000000000000000000000000000000000000000000000000000000000000000000000200000000000000000000000000000000000000000000000000000000000000000000000000000000000000000000000000000000200004000000000000000000000000000000000000000000000000000000000000000008000000000",
      "type": "0x2",
      "transactionHash": "0xdb46f3223ae37598d876201b730c2903360630f1081a4e2f866daa0c3a7a0e8e",
      "transactionIndex": "0x15",
      "blockHash": "0x118031934d9fc969659217f261f79b0efa74773b8c8effecc823297bf4a30009",
      "blockNumber": "0x858ae27",
      "gasUsed": "0xf7fe",
      "effectiveGasPrice": "0x493",
      "from": "0x8835669696fb92839ab198cd80ce9f0d35f45ad5",
      "to": "0xbc24012488bfcfe44875a139299595879c43c2cd",
      "contractAddress": null,
      "l1BaseFeeScalar": "0x146b",
      "l1BlobBaseFee": "0x1",
      "l1BlobBaseFeeScalar": "0xf79c5",
      "l1Fee": "0x7e9264ce",
      "l1GasPrice": "0xa836b00",
      "l1GasUsed": "0x8ff"
    },
    {
      "status": "0x1",
      "cumulativeGasUsed": "0x882a2e",
      "logs": [
        {
          "address": "0xbc24012488bfcfe44875a139299595879c43c2cd",
          "topics": [
            "0x3e442b5d5a6ecd8c0a86017cabd5ee0efbf32debbee58f9cea68f1b8489e4193",
            "0x0000000000000000000000000000000000000000000000000000000000000019"
          ],
          "data": "0x0000000000000000000000000000000000000000000000000000000000000002000000000000000000000000000000000000000000000000000000000000004000000000000000000000000000000000000000000000000000000000000000b9697066732f516d627352744c4a6552676762384b4b44426a4e634a5a324e417a57466664476a506450474135736b73534b51372f30303030303030303030303030303030303030303030303030303030303030303030303030303030303030303030303030303030303030303030303030303235303030303030303030303030303030303030303030303030303030303030303030303030303030303030303030303030303030303030303030303030303030322e6a736f6e00000000000000",
          "blockHash": "0x118031934d9fc969659217f261f79b0efa74773b8c8effecc823297bf4a30009",
          "blockNumber": "0x858ae27",
          "blockTimestamp": "0x68a53607",
          "transactionHash": "0x81625f244ab6cdc91d041869747dc1d07919a58aa5f4145f342c7e9bdaa5abac",
          "transactionIndex": "0x16",
          "logIndex": "0x49",
          "removed": false
        }
      ],
      "logsBloom": "0x00000000040000000200000000000000000000000000000000000000000000000000000000000000000000000000000000000000000000800000000000000000000000000000000000000000000000000000000000000000000000000000000000000010000000000000000000000000000000000000020000000000000000000000000000000000000000000000000000000000000000000000000000000000000000200000000000000000000000000000000000000000000000000000000000000000000000000000000000000000000000000000000200004000000000000000000000000000000000000000000000000000000000000000008000000000",
      "type": "0x2",
      "transactionHash": "0x81625f244ab6cdc91d041869747dc1d07919a58aa5f4145f342c7e9bdaa5abac",
      "transactionIndex": "0x16",
      "blockHash": "0x118031934d9fc969659217f261f79b0efa74773b8c8effecc823297bf4a30009",
      "blockNumber": "0x858ae27",
      "gasUsed": "0xf7fe",
      "effectiveGasPrice": "0x493",
      "from": "0x8835669696fb92839ab198cd80ce9f0d35f45ad5",
      "to": "0xbc24012488bfcfe44875a139299595879c43c2cd",
      "contractAddress": null,
      "l1BaseFeeScalar": "0x146b",
      "l1BlobBaseFee": "0x1",
      "l1BlobBaseFeeScalar": "0xf79c5",
      "l1Fee": "0x7dd61b69",
      "l1GasPrice": "0xa836b00",
      "l1GasUsed": "0x8f1"
    },
    {
      "status": "0x1",
      "cumulativeGasUsed": "0x89222c",
      "logs": [
        {
          "address": "0xbc24012488bfcfe44875a139299595879c43c2cd",
          "topics": [
            "0x3e442b5d5a6ecd8c0a86017cabd5ee0efbf32debbee58f9cea68f1b8489e4193",
            "0x0000000000000000000000000000000000000000000000000000000000000019"
          ],
          "data": "0x0000000000000000000000000000000000000000000000000000000000000003000000000000000000000000000000000000000000000000000000000000004000000000000000000000000000000000000000000000000000000000000000b9697066732f516d627352744c4a6552676762384b4b44426a4e634a5a324e417a57466664476a506450474135736b73534b51372f30303030303030303030303030303030303030303030303030303030303030303030303030303030303030303030303030303030303030303030303030303235303030303030303030303030303030303030303030303030303030303030303030303030303030303030303030303030303030303030303030303030303030332e6a736f6e00000000000000",
          "blockHash": "0x118031934d9fc969659217f261f79b0efa74773b8c8effecc823297bf4a30009",
          "blockNumber": "0x858ae27",
          "blockTimestamp": "0x68a53607",
          "transactionHash": "0x62c3330e21800fddbefdc757ed676f5ec724cc8a038c3af5be5967f503dc771e",
          "transactionIndex": "0x17",
          "logIndex": "0x4a",
          "removed": false
        }
      ],
      "logsBloom": "0x00000000040000000200000000000000000000000000000000000000000000000000000000000000000000000000000000000000000000800000000000000000000000000000000000000000000000000000000000000000000000000000000000000010000000000000000000000000000000000000020000000000000000000000000000000000000000000000000000000000000000000000000000000000000000200000000000000000000000000000000000000000000000000000000000000000000000000000000000000000000000000000000200004000000000000000000000000000000000000000000000000000000000000000008000000000",
      "type": "0x2",
      "transactionHash": "0x62c3330e21800fddbefdc757ed676f5ec724cc8a038c3af5be5967f503dc771e",
      "transactionIndex": "0x17",
      "blockHash": "0x118031934d9fc969659217f261f79b0efa74773b8c8effecc823297bf4a30009",
      "blockNumber": "0x858ae27",
      "gasUsed": "0xf7fe",
      "effectiveGasPrice": "0x493",
      "from": "0x8835669696fb92839ab198cd80ce9f0d35f45ad5",
      "to": "0xbc24012488bfcfe44875a139299595879c43c2cd",
      "contractAddress": null,
      "l1BaseFeeScalar": "0x146b",
      "l1BlobBaseFee": "0x1",
      "l1BlobBaseFeeScalar": "0xf79c5",
      "l1Fee": "0x7e9264ce",
      "l1GasPrice": "0xa836b00",
      "l1GasUsed": "0x8ff"
    },
    {
      "status": "0x1",
      "cumulativeGasUsed": "0x8a1a2a",
      "logs": [
        {
          "address": "0xbc24012488bfcfe44875a139299595879c43c2cd",
          "topics": [
            "0x3e442b5d5a6ecd8c0a86017cabd5ee0efbf32debbee58f9cea68f1b8489e4193",
            "0x0000000000000000000000000000000000000000000000000000000000000019"
          ],
          "data": "0x0000000000000000000000000000000000000000000000000000000000000004000000000000000000000000000000000000000000000000000000000000004000000000000000000000000000000000000000000000000000000000000000b9697066732f516d627352744c4a6552676762384b4b44426a4e634a5a324e417a57466664476a506450474135736b73534b51372f30303030303030303030303030303030303030303030303030303030303030303030303030303030303030303030303030303030303030303030303030303235303030303030303030303030303030303030303030303030303030303030303030303030303030303030303030303030303030303030303030303030303030342e6a736f6e00000000000000",
          "blockHash": "0x118031934d9fc969659217f261f79b0efa74773b8c8effecc823297bf4a30009",
          "blockNumber": "0x858ae27",
          "blockTimestamp": "0x68a53607",
          "transactionHash": "0xfbaa07fee5c7f8e6344d94153b623eb129eb14f1e4eaff6aff862831f337df49",
          "transactionIndex": "0x18",
          "logIndex": "0x4b",
          "removed": false
        }
      ],
      "logsBloom": "0x00000000040000000200000000000000000000000000000000000000000000000000000000000000000000000000000000000000000000800000000000000000000000000000000000000000000000000000000000000000000000000000000000000010000000000000000000000000000000000000020000000000000000000000000000000000000000000000000000000000000000000000000000000000000000200000000000000000000000000000000000000000000000000000000000000000000000000000000000000000000000000000000200004000000000000000000000000000000000000000000000000000000000000000008000000000",
      "type": "0x2",
      "transactionHash": "0xfbaa07fee5c7f8e6344d94153b623eb129eb14f1e4eaff6aff862831f337df49",
      "transactionIndex": "0x18",
      "blockHash": "0x118031934d9fc969659217f261f79b0efa74773b8c8effecc823297bf4a30009",
      "blockNumber": "0x858ae27",
      "gasUsed": "0xf7fe",
      "effectiveGasPrice": "0x493",
      "from": "0x8835669696fb92839ab198cd80ce9f0d35f45ad5",
      "to": "0xbc24012488bfcfe44875a139299595879c43c2cd",
      "contractAddress": null,
      "l1BaseFeeScalar": "0x146b",
      "l1BlobBaseFee": "0x1",
      "l1BlobBaseFeeScalar": "0xf79c5",
      "l1Fee": "0x7e9264ce",
      "l1GasPrice": "0xa836b00",
      "l1GasUsed": "0x8ff"
    }
  ],
  "libraries": [],
  "pending": [],
  "returns": {},
  "timestamp": 1755657734,
  "chain": 10,
  "commit": "dfe80d1"
}