{
  "transactions": [
    {
      "hash": "0x185438ab0051697981c77a319beda5f6a05ef1acb63db7fc123c50d9d998dc18",
      "transactionType": "CALL",
      "contractName": null,
      "contractAddress": "0xbc24012488bfcfe44875a139299595879c43c2cd",
      "function": "setBadgeMetadata(uint256,string)",
      "arguments": [
        "18",
        "ipfs/QmWeTXLReNDAMnaZZWXgchhdYTTfRCo87Xrs8GStLg9bek/00000000000000000000000000000000000000000000000000000000000000180000000000000000000000000000000000000000000000000000000000000000.json"
      ],
      "transaction": {
        "from": "0x8835669696fb92839ab198cd80ce9f0d35f45ad5",
        "to": "0xbc24012488bfcfe44875a139299595879c43c2cd",
        "value": "0x0",
        "input": "0xce64b45f0000000000000000000000000000000000000000000000000000000000000012000000000000000000000000000000000000000000000000000000000000004000000000000000000000000000000000000000000000000000000000000000b9697066732f516d576554584c52654e44414d6e615a5a575867636868645954546652436f3837587273384753744c673962656b2f30303030303030303030303030303030303030303030303030303030303030303030303030303030303030303030303030303030303030303030303030303138303030303030303030303030303030303030303030303030303030303030303030303030303030303030303030303030303030303030303030303030303030302e6a736f6e00000000000000",
        "nonce": "0x28513",
        "chainId": "0xa"
      },
      "additionalContracts": [],
      "isFixedGasLimit": false
    },
    {
      "hash": "0x4d5164ee639a5a52ecb2152bad831e000d0a6475b4fdc0df8cfe9672ce30a4da",
      "transactionType": "CALL",
      "contractName": null,
      "contractAddress": "0xbc24012488bfcfe44875a139299595879c43c2cd",
      "function": "setBadgeTier(uint256,uint256,string,uint256)",
      "arguments": [
        "18",
        "1",
        "ipfs/QmWeTXLReNDAMnaZZWXgchhdYTTfRCo87Xrs8GStLg9bek/00000000000000000000000000000000000000000000000000000000000000180000000000000000000000000000000000000000000000000000000000000001.json",
        "20"
      ],
      "transaction": {
        "from": "0x8835669696fb92839ab198cd80ce9f0d35f45ad5",
        "to": "0xbc24012488bfcfe44875a139299595879c43c2cd",
        "value": "0x0",
        "input": "0xcf132d1c000000000000000000000000000000000000000000000000000000000000001200000000000000000000000000000000000000000000000000000000000000010000000000000000000000000000000000000000000000000000000000000080000000000000000000000000000000000000000000000000000000000000001400000000000000000000000000000000000000000000000000000000000000b9697066732f516d576554584c52654e44414d6e615a5a575867636868645954546652436f3837587273384753744c673962656b2f30303030303030303030303030303030303030303030303030303030303030303030303030303030303030303030303030303030303030303030303030303138303030303030303030303030303030303030303030303030303030303030303030303030303030303030303030303030303030303030303030303030303030312e6a736f6e00000000000000",
        "nonce": "0x28514",
        "chainId": "0xa"
      },
      "additionalContracts": [],
      "isFixedGasLimit": false
    },
    {
      "hash": "0x432d787d439d42e0f6b536b31c39def02ca6fb6bd41434bd2815446c779f7034",
      "transactionType": "CALL",
      "contractName": null,
      "contractAddress": "0xbc24012488bfcfe44875a139299595879c43c2cd",
      "function": "setBadgeTier(uint256,uint256,string,uint256)",
      "arguments": [
        "18",
        "2",
        "ipfs/QmWeTXLReNDAMnaZZWXgchhdYTTfRCo87Xrs8GStLg9bek/00000000000000000000000000000000000000000000000000000000000000180000000000000000000000000000000000000000000000000000000000000002.json",
        "40"
      ],
      "transaction": {
        "from": "0x8835669696fb92839ab198cd80ce9f0d35f45ad5",
        "to": "0xbc24012488bfcfe44875a139299595879c43c2cd",
        "value": "0x0",
        "input": "0xcf132d1c000000000000000000000000000000000000000000000000000000000000001200000000000000000000000000000000000000000000000000000000000000020000000000000000000000000000000000000000000000000000000000000080000000000000000000000000000000000000000000000000000000000000002800000000000000000000000000000000000000000000000000000000000000b9697066732f516d576554584c52654e44414d6e615a5a575867636868645954546652436f3837587273384753744c673962656b2f30303030303030303030303030303030303030303030303030303030303030303030303030303030303030303030303030303030303030303030303030303138303030303030303030303030303030303030303030303030303030303030303030303030303030303030303030303030303030303030303030303030303030322e6a736f6e00000000000000",
        "nonce": "0x28515",
        "chainId": "0xa"
      },
      "additionalContracts": [],
      "isFixedGasLimit": false
    },
    {
      "hash": "0x94075515047f4f6a3f1c286b7f0bd64fb8e6bfe699f1974625b44a6f242ad936",
      "transactionType": "CALL",
      "contractName": null,
      "contractAddress": "0xbc24012488bfcfe44875a139299595879c43c2cd",
      "function": "setBadgeTier(uint256,uint256,string,uint256)",
      "arguments": [
        "18",
        "3",
        "ipfs/QmWeTXLReNDAMnaZZWXgchhdYTTfRCo87Xrs8GStLg9bek/00000000000000000000000000000000000000000000000000000000000000180000000000000000000000000000000000000000000000000000000000000003.json",
        "60"
      ],
      "transaction": {
        "from": "0x8835669696fb92839ab198cd80ce9f0d35f45ad5",
        "to": "0xbc24012488bfcfe44875a139299595879c43c2cd",
        "value": "0x0",
        "input": "0xcf132d1c000000000000000000000000000000000000000000000000000000000000001200000000000000000000000000000000000000000000000000000000000000030000000000000000000000000000000000000000000000000000000000000080000000000000000000000000000000000000000000000000000000000000003c00000000000000000000000000000000000000000000000000000000000000b9697066732f516d576554584c52654e44414d6e615a5a575867636868645954546652436f3837587273384753744c673962656b2f30303030303030303030303030303030303030303030303030303030303030303030303030303030303030303030303030303030303030303030303030303138303030303030303030303030303030303030303030303030303030303030303030303030303030303030303030303030303030303030303030303030303030332e6a736f6e00000000000000",
        "nonce": "0x28516",
        "chainId": "0xa"
      },
      "additionalContracts": [],
      "isFixedGasLimit": false
    },
    {
      "hash": "0x8fab58de1378dcacb0e76d54d7ff22b213670f0411d1bef2f68f49c8b5f5a0cd",
      "transactionType": "CALL",
      "contractName": null,
      "contractAddress": "0xbc24012488bfcfe44875a139299595879c43c2cd",
      "function": "setBadgeTier(uint256,uint256,string,uint256)",
      "arguments": [
        "18",
        "4",
        "ipfs/QmWeTXLReNDAMnaZZWXgchhdYTTfRCo87Xrs8GStLg9bek/00000000000000000000000000000000000000000000000000000000000000180000000000000000000000000000000000000000000000000000000000000004.json",
        "80"
      ],
      "transaction": {
        "from": "0x8835669696fb92839ab198cd80ce9f0d35f45ad5",
        "to": "0xbc24012488bfcfe44875a139299595879c43c2cd",
        "value": "0x0",
        "input": "0xcf132d1c000000000000000000000000000000000000000000000000000000000000001200000000000000000000000000000000000000000000000000000000000000040000000000000000000000000000000000000000000000000000000000000080000000000000000000000000000000000000000000000000000000000000005000000000000000000000000000000000000000000000000000000000000000b9697066732f516d576554584c52654e44414d6e615a5a575867636868645954546652436f3837587273384753744c673962656b2f30303030303030303030303030303030303030303030303030303030303030303030303030303030303030303030303030303030303030303030303030303138303030303030303030303030303030303030303030303030303030303030303030303030303030303030303030303030303030303030303030303030303030342e6a736f6e00000000000000",
        "nonce": "0x28517",
        "chainId": "0xa"
      },
      "additionalContracts": [],
      "isFixedGasLimit": false
    },
    {
      "hash": "0x40f7a10e1dc7c8765d03b3990fec15b964c71309a3310b42a6e03883858daa28",
      "transactionType": "CALL",
      "contractName": null,
      "contractAddress": "0xbc24012488bfcfe44875a139299595879c43c2cd",
      "function": "setBadgeTier(uint256,uint256,string,uint256)",
      "arguments": [
        "18",
        "5",
        "ipfs/QmWeTXLReNDAMnaZZWXgchhdYTTfRCo87Xrs8GStLg9bek/00000000000000000000000000000000000000000000000000000000000000180000000000000000000000000000000000000000000000000000000000000005.json",
        "100"
      ],
      "transaction": {
        "from": "0x8835669696fb92839ab198cd80ce9f0d35f45ad5",
        "to": "0xbc24012488bfcfe44875a139299595879c43c2cd",
        "value": "0x0",
        "input": "0xcf132d1c000000000000000000000000000000000000000000000000000000000000001200000000000000000000000000000000000000000000000000000000000000050000000000000000000000000000000000000000000000000000000000000080000000000000000000000000000000000000000000000000000000000000006400000000000000000000000000000000000000000000000000000000000000b9697066732f516d576554584c52654e44414d6e615a5a575867636868645954546652436f3837587273384753744c673962656b2f30303030303030303030303030303030303030303030303030303030303030303030303030303030303030303030303030303030303030303030303030303138303030303030303030303030303030303030303030303030303030303030303030303030303030303030303030303030303030303030303030303030303030352e6a736f6e00000000000000",
        "nonce": "0x28518",
        "chainId": "0xa"
      },
      "additionalContracts": [],
      "isFixedGasLimit": false
    }
  ],
  "receipts": [
    {
      "status": "0x1",
      "cumulativeGasUsed": "0xb8d3f3",
      "logs": [
        {
          "address": "0xbc24012488bfcfe44875a139299595879c43c2cd",
          "topics": [
            "0x2e5977e12fac9a91696e22ba811f2893e11ad62f8aa53e99a628b031d18a379f",
            "0x0000000000000000000000000000000000000000000000000000000000000012"
          ],
          "data": "0x000000000000000000000000000000000000000000000000000000000000002000000000000000000000000000000000000000000000000000000000000000b9697066732f516d576554584c52654e44414d6e615a5a575867636868645954546652436f3837587273384753744c673962656b2f30303030303030303030303030303030303030303030303030303030303030303030303030303030303030303030303030303030303030303030303030303138303030303030303030303030303030303030303030303030303030303030303030303030303030303030303030303030303030303030303030303030303030302e6a736f6e00000000000000",
          "blockHash": "0x29304f4b1804386491d6b36d18fc85562dbb055ef29e54f61fb532cb1a809d34",
          "blockNumber": "0x818194b",
          "transactionHash": "0x185438ab0051697981c77a319beda5f6a05ef1acb63db7fc123c50d9d998dc18",
          "transactionIndex": "0x1d",
          "logIndex": "0x339",
          "removed": false
        }
      ],
      "logsBloom": "0x00000000040000000200000000000000000000000000000000000000000000000000000000000000000000000000000000000000000000000000000000000000000000000000000000000000000000000000000000000000000000000000000000000000000000000000000000000000000000000000000000000000000004000000000000000000000000000000040000000000000000000000000000000000000000000000000000000000000000000000000000000140000000000000000000000000000000000400000000000000000000000000000000004000400000000000000000000000000000000000000000000000000000000000000000000000",
      "type": "0x2",
      "transactionHash": "0x185438ab0051697981c77a319beda5f6a05ef1acb63db7fc123c50d9d998dc18",
      "transactionIndex": "0x1d",
      "blockHash": "0x29304f4b1804386491d6b36d18fc85562dbb055ef29e54f61fb532cb1a809d34",
      "blockNumber": "0x818194b",
      "gasUsed": "0x2f346",
      "effectiveGasPrice": "0x7852",
      "from": "0x8835669696fb92839ab198cd80ce9f0d35f45ad5",
      "to": "0xbc24012488bfcfe44875a139299595879c43c2cd",
      "contractAddress": null,
      "l1BaseFeeScalar": "0x146b",
      "l1BlobBaseFee": "0x1",
      "l1BlobBaseFeeScalar": "0xf79c5",
      "l1Fee": "0x48b5635a0",
      "l1GasPrice": "0x66974505",
      "l1GasUsed": "0x879",
      "operatorFeeConstant": "0x0",
      "operatorFeeScalar": "0x0"
    },
    {
      "status": "0x1",
      "cumulativeGasUsed": "0x9e1192",
      "logs": [
        {
          "address": "0xbc24012488bfcfe44875a139299595879c43c2cd",
          "topics": [
            "0x5625f15df4cbadf2e6e3f80e2406aec5d99a432335ef0e9a1fba9e48b0558303",
            "0x0000000000000000000000000000000000000000000000000000000000000012"
          ],
          "data": "0x00000000000000000000000000000000000000000000000000000000000000010000000000000000000000000000000000000000000000000000000000000060000000000000000000000000000000000000000000000000000000000000001400000000000000000000000000000000000000000000000000000000000000b9697066732f516d576554584c52654e44414d6e615a5a575867636868645954546652436f3837587273384753744c673962656b2f30303030303030303030303030303030303030303030303030303030303030303030303030303030303030303030303030303030303030303030303030303138303030303030303030303030303030303030303030303030303030303030303030303030303030303030303030303030303030303030303030303030303030312e6a736f6e00000000000000",
          "blockHash": "0xc7e8dbae7b14552ec47575687d658523c97999d89cf28a312fc6b3b1bc312a59",
          "blockNumber": "0x818194d",
          "transactionHash": "0x4d5164ee639a5a52ecb2152bad831e000d0a6475b4fdc0df8cfe9672ce30a4da",
          "transactionIndex": "0x1e",
          "logIndex": "0x74",
          "removed": false
        }
      ],
      "logsBloom": "0x00000000040000000200000000000000000000000000000000000000000000000000000000000000000000000000000000000000000000000000000000000000000000000000000000000000000000000000000000000000000000000000000000040000000000000000000000000000000000000000000000000000000000000000000000000000000000000000040000000000000000000000000000000000000000000000000000000000000000000000000000000040000000000000000000000000000000000400004000000000000000000000000000004000000000000000000000000000000000000000000000000000010000000000000000000000",
      "type": "0x2",
      "transactionHash": "0x4d5164ee639a5a52ecb2152bad831e000d0a6475b4fdc0df8cfe9672ce30a4da",
      "transactionIndex": "0x1e",
      "blockHash": "0xc7e8dbae7b14552ec47575687d658523c97999d89cf28a312fc6b3b1bc312a59",
      "blockNumber": "0x818194d",
      "gasUsed": "0x3b0d0",
      "effectiveGasPrice": "0x7821",
      "from": "0x8835669696fb92839ab198cd80ce9f0d35f45ad5",
      "to": "0xbc24012488bfcfe44875a139299595879c43c2cd",
      "contractAddress": null,
      "l1BaseFeeScalar": "0x146b",
      "l1BlobBaseFee": "0x1",
      "l1BlobBaseFeeScalar": "0xf79c5",
      "l1Fee": "0x4ef227816",
      "l1GasPrice": "0x66891d94",
      "l1GasUsed": "0x934",
      "operatorFeeConstant": "0x0",
      "operatorFeeScalar": "0x0"
    },
    {
      "status": "0x1",
      "cumulativeGasUsed": "0xaef6df",
      "logs": [
        {
          "address": "0xbc24012488bfcfe44875a139299595879c43c2cd",
          "topics": [
            "0x5625f15df4cbadf2e6e3f80e2406aec5d99a432335ef0e9a1fba9e48b0558303",
            "0x0000000000000000000000000000000000000000000000000000000000000012"
          ],
          "data": "0x00000000000000000000000000000000000000000000000000000000000000020000000000000000000000000000000000000000000000000000000000000060000000000000000000000000000000000000000000000000000000000000002800000000000000000000000000000000000000000000000000000000000000b9697066732f516d576554584c52654e44414d6e615a5a575867636868645954546652436f3837587273384753744c673962656b2f30303030303030303030303030303030303030303030303030303030303030303030303030303030303030303030303030303030303030303030303030303138303030303030303030303030303030303030303030303030303030303030303030303030303030303030303030303030303030303030303030303030303030322e6a736f6e00000000000000",
          "blockHash": "0x6d4ec2ce1439a0c1a8b3ecd1434ccf58a30aa26a15612d01c94f24665ddb7e13",
          "blockNumber": "0x818194e",
          "transactionHash": "0x432d787d439d42e0f6b536b31c39def02ca6fb6bd41434bd2815446c779f7034",
          "transactionIndex": "0x16",
          "logIndex": "0xe2",
          "removed": false
        }
      ],
      "logsBloom": "0x00000000040000000200000000000000000000000000000000000000000000000000000000000000000000000000000000000000000000000000000000000000000000000000000000000000000000000000000000000000000000000000000000040000000000000000000000000000000000000000000000000000000000000000000000000000000000000000040000000000000000000000000000000000000000000000000000000000000000000000000000000040000000000000000000000000000000000400004000000000000000000000000000004000000000000000000000000000000000000000000000000000010000000000000000000000",
      "type": "0x2",
      "transactionHash": "0x432d787d439d42e0f6b536b31c39def02ca6fb6bd41434bd2815446c779f7034",
      "transactionIndex": "0x16",
      "blockHash": "0x6d4ec2ce1439a0c1a8b3ecd1434ccf58a30aa26a15612d01c94f24665ddb7e13",
      "blockNumber": "0x818194e",
      "gasUsed": "0x377b2",
      "effectiveGasPrice": "0x7803",
      "from": "0x8835669696fb92839ab198cd80ce9f0d35f45ad5",
      "to": "0xbc24012488bfcfe44875a139299595879c43c2cd",
      "contractAddress": null,
      "l1BaseFeeScalar": "0x146b",
      "l1BlobBaseFee": "0x1",
      "l1BlobBaseFeeScalar": "0xf79c5",
      "l1Fee": "0x4ef227816",
      "l1GasPrice": "0x66891d94",
      "l1GasUsed": "0x934",
      "operatorFeeConstant": "0x0",
      "operatorFeeScalar": "0x0"
    },
    {
      "status": "0x1",
      "cumulativeGasUsed": "0x1e14cbc",
      "logs": [
        {
          "address": "0xbc24012488bfcfe44875a139299595879c43c2cd",
          "topics": [
            "0x5625f15df4cbadf2e6e3f80e2406aec5d99a432335ef0e9a1fba9e48b0558303",
            "0x0000000000000000000000000000000000000000000000000000000000000012"
          ],
          "data": "0x00000000000000000000000000000000000000000000000000000000000000030000000000000000000000000000000000000000000000000000000000000060000000000000000000000000000000000000000000000000000000000000003c00000000000000000000000000000000000000000000000000000000000000b9697066732f516d576554584c52654e44414d6e615a5a575867636868645954546652436f3837587273384753744c673962656b2f30303030303030303030303030303030303030303030303030303030303030303030303030303030303030303030303030303030303030303030303030303138303030303030303030303030303030303030303030303030303030303030303030303030303030303030303030303030303030303030303030303030303030332e6a736f6e00000000000000",
          "blockHash": "0xdaa0ada5daaf7c6a776d5d2961b5f8d705d382c6985c71f0ceb674f1c8479c73",
          "blockNumber": "0x8181950",
          "transactionHash": "0x94075515047f4f6a3f1c286b7f0bd64fb8e6bfe699f1974625b44a6f242ad936",
          "transactionIndex": "0x7",
          "logIndex": "0xa2",
          "removed": false
        }
      ],
      "logsBloom": "0x00000000040000000200000000000000000000000000000000000000000000000000000000000000000000000000000000000000000000000000000000000000000000000000000000000000000000000000000000000000000000000000000000040000000000000000000000000000000000000000000000000000000000000000000000000000000000000000040000000000000000000000000000000000000000000000000000000000000000000000000000000040000000000000000000000000000000000400004000000000000000000000000000004000000000000000000000000000000000000000000000000000010000000000000000000000",
      "type": "0x2",
      "transactionHash": "0x94075515047f4f6a3f1c286b7f0bd64fb8e6bfe699f1974625b44a6f242ad936",
      "transactionIndex": "0x7",
      "blockHash": "0xdaa0ada5daaf7c6a776d5d2961b5f8d705d382c6985c71f0ceb674f1c8479c73",
      "blockNumber": "0x8181950",
      "gasUsed": "0x377b2",
      "effectiveGasPrice": "0x77f1",
      "from": "0x8835669696fb92839ab198cd80ce9f0d35f45ad5",
      "to": "0xbc24012488bfcfe44875a139299595879c43c2cd",
      "contractAddress": null,
      "l1BaseFeeScalar": "0x146b",
      "l1BlobBaseFee": "0x1",
      "l1BlobBaseFeeScalar": "0xf79c5",
      "l1Fee": "0x4f64ecf23",
      "l1GasPrice": "0x66891d94",
      "l1GasUsed": "0x942",
      "operatorFeeConstant": "0x0",
      "operatorFeeScalar": "0x0"
    },
    {
      "status": "0x1",
      "cumulativeGasUsed": "0xa7456c",
      "logs": [
        {
          "address": "0xbc24012488bfcfe44875a139299595879c43c2cd",
          "topics": [
            "0x5625f15df4cbadf2e6e3f80e2406aec5d99a432335ef0e9a1fba9e48b0558303",
            "0x0000000000000000000000000000000000000000000000000000000000000012"
          ],
          "data": "0x00000000000000000000000000000000000000000000000000000000000000040000000000000000000000000000000000000000000000000000000000000060000000000000000000000000000000000000000000000000000000000000005000000000000000000000000000000000000000000000000000000000000000b9697066732f516d576554584c52654e44414d6e615a5a575867636868645954546652436f3837587273384753744c673962656b2f30303030303030303030303030303030303030303030303030303030303030303030303030303030303030303030303030303030303030303030303030303138303030303030303030303030303030303030303030303030303030303030303030303030303030303030303030303030303030303030303030303030303030342e6a736f6e00000000000000",
          "blockHash": "0xd3aa8bf93c37d4b01b4a0342e24b3115e47865ba3682a140978303e22b3cdafd",
          "blockNumber": "0x8181952",
          "transactionHash": "0x8fab58de1378dcacb0e76d54d7ff22b213670f0411d1bef2f68f49c8b5f5a0cd",
          "transactionIndex": "0x24",
          "logIndex": "0xd1",
          "removed": false
        }
      ],
      "logsBloom": "0x00000000040000000200000000000000000000000000000000000000000000000000000000000000000000000000000000000000000000000000000000000000000000000000000000000000000000000000000000000000000000000000000000040000000000000000000000000000000000000000000000000000000000000000000000000000000000000000040000000000000000000000000000000000000000000000000000000000000000000000000000000040000000000000000000000000000000000400004000000000000000000000000000004000000000000000000000000000000000000000000000000000010000000000000000000000",
      "type": "0x2",
      "transactionHash": "0x8fab58de1378dcacb0e76d54d7ff22b213670f0411d1bef2f68f49c8b5f5a0cd",
      "transactionIndex": "0x24",
      "blockHash": "0xd3aa8bf93c37d4b01b4a0342e24b3115e47865ba3682a140978303e22b3cdafd",
      "blockNumber": "0x8181952",
      "gasUsed": "0x377b2",
      "effectiveGasPrice": "0x787e",
      "from": "0x8835669696fb92839ab198cd80ce9f0d35f45ad5",
      "to": "0xbc24012488bfcfe44875a139299595879c43c2cd",
      "contractAddress": null,
      "l1BaseFeeScalar": "0x146b",
      "l1BlobBaseFee": "0x1",
      "l1BlobBaseFeeScalar": "0xf79c5",
      "l1Fee": "0x4d515ae91",
      "l1GasPrice": "0x63da9b26",
      "l1GasUsed": "0x942",
      "operatorFeeConstant": "0x0",
      "operatorFeeScalar": "0x0"
    },
    {
      "status": "0x1",
      "cumulativeGasUsed": "0x707c78",
      "logs": [
        {
          "address": "0xbc24012488bfcfe44875a139299595879c43c2cd",
          "topics": [
            "0x5625f15df4cbadf2e6e3f80e2406aec5d99a432335ef0e9a1fba9e48b0558303",
            "0x0000000000000000000000000000000000000000000000000000000000000012"
          ],
          "data": "0x00000000000000000000000000000000000000000000000000000000000000050000000000000000000000000000000000000000000000000000000000000060000000000000000000000000000000000000000000000000000000000000006400000000000000000000000000000000000000000000000000000000000000b9697066732f516d576554584c52654e44414d6e615a5a575867636868645954546652436f3837587273384753744c673962656b2f30303030303030303030303030303030303030303030303030303030303030303030303030303030303030303030303030303030303030303030303030303138303030303030303030303030303030303030303030303030303030303030303030303030303030303030303030303030303030303030303030303030303030352e6a736f6e00000000000000",
          "blockHash": "0xebd204a7d45765b3106e77db267a797cfb6f6a4277f8016a3bbeb1d5d3294447",
          "blockNumber": "0x8181957",
          "transactionHash": "0x40f7a10e1dc7c8765d03b3990fec15b964c71309a3310b42a6e03883858daa28",
          "transactionIndex": "0x12",
          "logIndex": "0x58",
          "removed": false
        }
      ],
      "logsBloom": "0x00000000040000000200000000000000000000000000000000000000000000000000000000000000000000000000000000000000000000000000000000000000000000000000000000000000000000000000000000000000000000000000000000040000000000000000000000000000000000000000000000000000000000000000000000000000000000000000040000000000000000000000000000000000000000000000000000000000000000000000000000000040000000000000000000000000000000000400004000000000000000000000000000004000000000000000000000000000000000000000000000000000010000000000000000000000",
      "type": "0x2",
      "transactionHash": "0x40f7a10e1dc7c8765d03b3990fec15b964c71309a3310b42a6e03883858daa28",
      "transactionIndex": "0x12",
      "blockHash": "0xebd204a7d45765b3106e77db267a797cfb6f6a4277f8016a3bbeb1d5d3294447",
      "blockNumber": "0x8181957",
      "gasUsed": "0x377b2",
      "effectiveGasPrice": "0x795b",
      "from": "0x8835669696fb92839ab198cd80ce9f0d35f45ad5",
      "to": "0xbc24012488bfcfe44875a139299595879c43c2cd",
      "contractAddress": null,
      "l1BaseFeeScalar": "0x146b",
      "l1BlobBaseFee": "0x1",
      "l1BlobBaseFeeScalar": "0xf79c5",
      "l1Fee": "0x4d515ae91",
      "l1GasPrice": "0x63da9b26",
      "l1GasUsed": "0x942",
      "operatorFeeConstant": "0x0",
      "operatorFeeScalar": "0x0"
    }
  ],
  "libraries": [],
  "pending": [],
  "returns": {},
  "timestamp": 1747192936,
  "chain": 10,
  "commit": "36d6c5d"
}