{
  "transactions": [
    {
      "hash": "0x024a1a6b18d98e7df6836a967fdc990fdee63472d9573005772d902bb95a8ce3",
      "transactionType": "CALL",
      "contractName": null,
      "contractAddress": "0xbc24012488bfcfe44875a139299595879c43c2cd",
      "function": "setBadgeMetadata(uint256,string)",
      "arguments": [
        "19",
        "ipfs/QmSnTHCwLAv2D3eovvv2BBsvaTye1SB4ELVdPH3rjYg1uG/00000000000000000000000000000000000000000000000000000000000000190000000000000000000000000000000000000000000000000000000000000000.json"
      ],
      "transaction": {
        "from": "0x8835669696fb92839ab198cd80ce9f0d35f45ad5",
        "to": "0xbc24012488bfcfe44875a139299595879c43c2cd",
        "value": "0x0",
        "input": "0xce64b45f0000000000000000000000000000000000000000000000000000000000000013000000000000000000000000000000000000000000000000000000000000004000000000000000000000000000000000000000000000000000000000000000b9697066732f516d536e544843774c4176324433656f76767632424273766154796531534234454c5664504833726a59673175472f30303030303030303030303030303030303030303030303030303030303030303030303030303030303030303030303030303030303030303030303030303139303030303030303030303030303030303030303030303030303030303030303030303030303030303030303030303030303030303030303030303030303030302e6a736f6e00000000000000",
        "nonce": "0x28f71",
        "chainId": "0xa"
      },
      "additionalContracts": [],
      "isFixedGasLimit": false
    },
    {
      "hash": "0xf0e427f9fdd7ae819977324b8ddc636da08fc7ade3a74e3f852ef8db6e3e8a24",
      "transactionType": "CALL",
      "contractName": null,
      "contractAddress": "0xbc24012488bfcfe44875a139299595879c43c2cd",
      "function": "setBadgeTier(uint256,uint256,string,uint256)",
      "arguments": [
        "19",
        "1",
        "ipfs/QmSnTHCwLAv2D3eovvv2BBsvaTye1SB4ELVdPH3rjYg1uG/00000000000000000000000000000000000000000000000000000000000000190000000000000000000000000000000000000000000000000000000000000001.json",
        "20"
      ],
      "transaction": {
        "from": "0x8835669696fb92839ab198cd80ce9f0d35f45ad5",
        "to": "0xbc24012488bfcfe44875a139299595879c43c2cd",
        "value": "0x0",
        "input": "0xcf132d1c000000000000000000000000000000000000000000000000000000000000001300000000000000000000000000000000000000000000000000000000000000010000000000000000000000000000000000000000000000000000000000000080000000000000000000000000000000000000000000000000000000000000001400000000000000000000000000000000000000000000000000000000000000b9697066732f516d536e544843774c4176324433656f76767632424273766154796531534234454c5664504833726a59673175472f30303030303030303030303030303030303030303030303030303030303030303030303030303030303030303030303030303030303030303030303030303139303030303030303030303030303030303030303030303030303030303030303030303030303030303030303030303030303030303030303030303030303030312e6a736f6e00000000000000",
        "nonce": "0x28f72",
        "chainId": "0xa"
      },
      "additionalContracts": [],
      "isFixedGasLimit": false
    },
    {
      "hash": "0x76219c3ab2319a901ff0e4055f0542d8a9b24cb170cf762db1907a0742554fc3",
      "transactionType": "CALL",
      "contractName": null,
      "contractAddress": "0xbc24012488bfcfe44875a139299595879c43c2cd",
      "function": "setBadgeTier(uint256,uint256,string,uint256)",
      "arguments": [
        "19",
        "2",
        "ipfs/QmSnTHCwLAv2D3eovvv2BBsvaTye1SB4ELVdPH3rjYg1uG/00000000000000000000000000000000000000000000000000000000000000190000000000000000000000000000000000000000000000000000000000000002.json",
        "40"
      ],
      "transaction": {
        "from": "0x8835669696fb92839ab198cd80ce9f0d35f45ad5",
        "to": "0xbc24012488bfcfe44875a139299595879c43c2cd",
        "value": "0x0",
        "input": "0xcf132d1c000000000000000000000000000000000000000000000000000000000000001300000000000000000000000000000000000000000000000000000000000000020000000000000000000000000000000000000000000000000000000000000080000000000000000000000000000000000000000000000000000000000000002800000000000000000000000000000000000000000000000000000000000000b9697066732f516d536e544843774c4176324433656f76767632424273766154796531534234454c5664504833726a59673175472f30303030303030303030303030303030303030303030303030303030303030303030303030303030303030303030303030303030303030303030303030303139303030303030303030303030303030303030303030303030303030303030303030303030303030303030303030303030303030303030303030303030303030322e6a736f6e00000000000000",
        "nonce": "0x28f73",
        "chainId": "0xa"
      },
      "additionalContracts": [],
      "isFixedGasLimit": false
    },
    {
      "hash": "0x82fea5bc36199eb34dd164d1ef5bc91791ccac182bf4e289ffc3d160c623a6de",
      "transactionType": "CALL",
      "contractName": null,
      "contractAddress": "0xbc24012488bfcfe44875a139299595879c43c2cd",
      "function": "setBadgeTier(uint256,uint256,string,uint256)",
      "arguments": [
        "19",
        "3",
        "ipfs/QmSnTHCwLAv2D3eovvv2BBsvaTye1SB4ELVdPH3rjYg1uG/00000000000000000000000000000000000000000000000000000000000000190000000000000000000000000000000000000000000000000000000000000003.json",
        "60"
      ],
      "transaction": {
        "from": "0x8835669696fb92839ab198cd80ce9f0d35f45ad5",
        "to": "0xbc24012488bfcfe44875a139299595879c43c2cd",
        "value": "0x0",
        "input": "0xcf132d1c000000000000000000000000000000000000000000000000000000000000001300000000000000000000000000000000000000000000000000000000000000030000000000000000000000000000000000000000000000000000000000000080000000000000000000000000000000000000000000000000000000000000003c00000000000000000000000000000000000000000000000000000000000000b9697066732f516d536e544843774c4176324433656f76767632424273766154796531534234454c5664504833726a59673175472f30303030303030303030303030303030303030303030303030303030303030303030303030303030303030303030303030303030303030303030303030303139303030303030303030303030303030303030303030303030303030303030303030303030303030303030303030303030303030303030303030303030303030332e6a736f6e00000000000000",
        "nonce": "0x28f74",
        "chainId": "0xa"
      },
      "additionalContracts": [],
      "isFixedGasLimit": false
    },
    {
      "hash": "0xcf37a14fd2737b23f71d4fa0bbf0658b6ab4b35f95ae4237353899842efdacff",
      "transactionType": "CALL",
      "contractName": null,
      "contractAddress": "0xbc24012488bfcfe44875a139299595879c43c2cd",
      "function": "setBadgeTier(uint256,uint256,string,uint256)",
      "arguments": [
        "19",
        "4",
        "ipfs/QmSnTHCwLAv2D3eovvv2BBsvaTye1SB4ELVdPH3rjYg1uG/00000000000000000000000000000000000000000000000000000000000000190000000000000000000000000000000000000000000000000000000000000004.json",
        "80"
      ],
      "transaction": {
        "from": "0x8835669696fb92839ab198cd80ce9f0d35f45ad5",
        "to": "0xbc24012488bfcfe44875a139299595879c43c2cd",
        "value": "0x0",
        "input": "0xcf132d1c000000000000000000000000000000000000000000000000000000000000001300000000000000000000000000000000000000000000000000000000000000040000000000000000000000000000000000000000000000000000000000000080000000000000000000000000000000000000000000000000000000000000005000000000000000000000000000000000000000000000000000000000000000b9697066732f516d536e544843774c4176324433656f76767632424273766154796531534234454c5664504833726a59673175472f30303030303030303030303030303030303030303030303030303030303030303030303030303030303030303030303030303030303030303030303030303139303030303030303030303030303030303030303030303030303030303030303030303030303030303030303030303030303030303030303030303030303030342e6a736f6e00000000000000",
        "nonce": "0x28f75",
        "chainId": "0xa"
      },
      "additionalContracts": [],
      "isFixedGasLimit": false
    },
    {
      "hash": "0x9f10341c4ae2385d33c3cc97dc38f2cc2899f3ab226219d3af846fc1f28cb468",
      "transactionType": "CALL",
      "contractName": null,
      "contractAddress": "0xbc24012488bfcfe44875a139299595879c43c2cd",
      "function": "setBadgeTier(uint256,uint256,string,uint256)",
      "arguments": [
        "19",
        "5",
        "ipfs/QmSnTHCwLAv2D3eovvv2BBsvaTye1SB4ELVdPH3rjYg1uG/00000000000000000000000000000000000000000000000000000000000000190000000000000000000000000000000000000000000000000000000000000005.json",
        "100"
      ],
      "transaction": {
        "from": "0x8835669696fb92839ab198cd80ce9f0d35f45ad5",
        "to": "0xbc24012488bfcfe44875a139299595879c43c2cd",
        "value": "0x0",
        "input": "0xcf132d1c000000000000000000000000000000000000000000000000000000000000001300000000000000000000000000000000000000000000000000000000000000050000000000000000000000000000000000000000000000000000000000000080000000000000000000000000000000000000000000000000000000000000006400000000000000000000000000000000000000000000000000000000000000b9697066732f516d536e544843774c4176324433656f76767632424273766154796531534234454c5664504833726a59673175472f30303030303030303030303030303030303030303030303030303030303030303030303030303030303030303030303030303030303030303030303030303139303030303030303030303030303030303030303030303030303030303030303030303030303030303030303030303030303030303030303030303030303030352e6a736f6e00000000000000",
        "nonce": "0x28f76",
        "chainId": "0xa"
      },
      "additionalContracts": [],
      "isFixedGasLimit": false
    }
  ],
  "receipts": [
    {
      "status": "0x1",
      "cumulativeGasUsed": "0xbb2198",
      "logs": [
        {
          "address": "0xbc24012488bfcfe44875a139299595879c43c2cd",
          "topics": [
            "0x2e5977e12fac9a91696e22ba811f2893e11ad62f8aa53e99a628b031d18a379f",
            "0x0000000000000000000000000000000000000000000000000000000000000013"
          ],
          "data": "0x000000000000000000000000000000000000000000000000000000000000002000000000000000000000000000000000000000000000000000000000000000b9697066732f516d536e544843774c4176324433656f76767632424273766154796531534234454c5664504833726a59673175472f30303030303030303030303030303030303030303030303030303030303030303030303030303030303030303030303030303030303030303030303030303139303030303030303030303030303030303030303030303030303030303030303030303030303030303030303030303030303030303030303030303030303030302e6a736f6e00000000000000",
          "blockHash": "0x1460cf76def0c2e528b8d26396d540d168c33f4f87801cfdbcef2e5be2c7065d",
          "blockNumber": "0x818bd69",
          "transactionHash": "0x024a1a6b18d98e7df6836a967fdc990fdee63472d9573005772d902bb95a8ce3",
          "transactionIndex": "0x11",
          "logIndex": "0x5a",
          "removed": false
        }
      ],
      "logsBloom": "0x20000000040000000200000000800000000000000000000000000000000000000000000040000000000000000000000000000000000000000000000000000000000000000000000000000000000000000000000000000000000000000000000000000000000000000000000000000000000000000000000000000000000004000000000000000000000000000000000000000000000000000000000000000000000000000000000000000000000000000000000000000100000000000000000000000000000000000000000000000000000000000000000000004000400000000000000000000000000000000000000000000000000000000000000000000000",
      "type": "0x2",
      "transactionHash": "0x024a1a6b18d98e7df6836a967fdc990fdee63472d9573005772d902bb95a8ce3",
      "transactionIndex": "0x11",
      "blockHash": "0x1460cf76def0c2e528b8d26396d540d168c33f4f87801cfdbcef2e5be2c7065d",
      "blockNumber": "0x818bd69",
      "gasUsed": "0x2f346",
      "effectiveGasPrice": "0x9d1c",
      "from": "0x8835669696fb92839ab198cd80ce9f0d35f45ad5",
      "to": "0xbc24012488bfcfe44875a139299595879c43c2cd",
      "contractAddress": null,
      "l1BaseFeeScalar": "0x146b",
      "l1BlobBaseFee": "0x1",
      "l1BlobBaseFeeScalar": "0xf79c5",
      "l1Fee": "0x227b02691",
      "l1GasPrice": "0x305a7024",
      "l1GasUsed": "0x886",
      "operatorFeeConstant": "0x0",
      "operatorFeeScalar": "0x0"
    },
    {
      "status": "0x1",
      "cumulativeGasUsed": "0x8e90de",
      "logs": [
        {
          "address": "0xbc24012488bfcfe44875a139299595879c43c2cd",
          "topics": [
            "0x5625f15df4cbadf2e6e3f80e2406aec5d99a432335ef0e9a1fba9e48b0558303",
            "0x0000000000000000000000000000000000000000000000000000000000000013"
          ],
          "data": "0x00000000000000000000000000000000000000000000000000000000000000010000000000000000000000000000000000000000000000000000000000000060000000000000000000000000000000000000000000000000000000000000001400000000000000000000000000000000000000000000000000000000000000b9697066732f516d536e544843774c4176324433656f76767632424273766154796531534234454c5664504833726a59673175472f30303030303030303030303030303030303030303030303030303030303030303030303030303030303030303030303030303030303030303030303030303139303030303030303030303030303030303030303030303030303030303030303030303030303030303030303030303030303030303030303030303030303030312e6a736f6e00000000000000",
          "blockHash": "0x84ca42ef224eb64b3e17acf56a283da06e2f7b42e4b30e60910dec2889541571",
          "blockNumber": "0x818bd6a",
          "transactionHash": "0xf0e427f9fdd7ae819977324b8ddc636da08fc7ade3a74e3f852ef8db6e3e8a24",
          "transactionIndex": "0x14",
          "logIndex": "0x90",
          "removed": false
        }
      ],
      "logsBloom": "0x20000000040000000200000000800000000000000000000000000000000000000000000040000000000000000000000000000000000000000000000000000000000000000000000000000000000000000000000000000000000000000000000000040000000000000000000000000000000000000000000000000000000000000000000000000000000000000000000000000000000000000000000000000000000000000000000000000000000000000000000000000000000000000000000000000000000000000000004000000000000000000000000000004000000000000000000000000000000000000000000000000000010000000000000000000000",
      "type": "0x2",
      "transactionHash": "0xf0e427f9fdd7ae819977324b8ddc636da08fc7ade3a74e3f852ef8db6e3e8a24",
      "transactionIndex": "0x14",
      "blockHash": "0x84ca42ef224eb64b3e17acf56a283da06e2f7b42e4b30e60910dec2889541571",
      "blockNumber": "0x818bd6a",
      "gasUsed": "0x3b0d0",
      "effectiveGasPrice": "0x9d5f",
      "from": "0x8835669696fb92839ab198cd80ce9f0d35f45ad5",
      "to": "0xbc24012488bfcfe44875a139299595879c43c2cd",
      "contractAddress": null,
      "l1BaseFeeScalar": "0x146b",
      "l1BlobBaseFee": "0x1",
      "l1BlobBaseFeeScalar": "0xf79c5",
      "l1Fee": "0x2570bc54e",
      "l1GasPrice": "0x305a7024",
      "l1GasUsed": "0x942",
      "operatorFeeConstant": "0x0",
      "operatorFeeScalar": "0x0"
    },
    {
      "status": "0x1",
      "cumulativeGasUsed": "0x84c7a4",
      "logs": [
        {
          "address": "0xbc24012488bfcfe44875a139299595879c43c2cd",
          "topics": [
            "0x5625f15df4cbadf2e6e3f80e2406aec5d99a432335ef0e9a1fba9e48b0558303",
            "0x0000000000000000000000000000000000000000000000000000000000000013"
          ],
          "data": "0x00000000000000000000000000000000000000000000000000000000000000020000000000000000000000000000000000000000000000000000000000000060000000000000000000000000000000000000000000000000000000000000002800000000000000000000000000000000000000000000000000000000000000b9697066732f516d536e544843774c4176324433656f76767632424273766154796531534234454c5664504833726a59673175472f30303030303030303030303030303030303030303030303030303030303030303030303030303030303030303030303030303030303030303030303030303139303030303030303030303030303030303030303030303030303030303030303030303030303030303030303030303030303030303030303030303030303030322e6a736f6e00000000000000",
          "blockHash": "0xdf7890118dbb5e88015e8e00755fb0e3a82789c0759e64e34691b98ea7b52b4b",
          "blockNumber": "0x818bd6c",
          "transactionHash": "0x76219c3ab2319a901ff0e4055f0542d8a9b24cb170cf762db1907a0742554fc3",
          "transactionIndex": "0x15",
          "logIndex": "0x52",
          "removed": false
        }
      ],
      "logsBloom": "0x20000000040000000200000000800000000000000000000000000000000000000000000040000000000000000000000000000000000000000000000000000000000000000000000000000000000000000000000000000000000000000000000000040000000000000000000000000000000000000000000000000000000000000000000000000000000000000000000000000000000000000000000000000000000000000000000000000000000000000000000000000000000000000000000000000000000000000000004000000000000000000000000000004000000000000000000000000000000000000000000000000000010000000000000000000000",
      "type": "0x2",
      "transactionHash": "0x76219c3ab2319a901ff0e4055f0542d8a9b24cb170cf762db1907a0742554fc3",
      "transactionIndex": "0x15",
      "blockHash": "0xdf7890118dbb5e88015e8e00755fb0e3a82789c0759e64e34691b98ea7b52b4b",
      "blockNumber": "0x818bd6c",
      "gasUsed": "0x377b2",
      "effectiveGasPrice": "0x9d11",
      "from": "0x8835669696fb92839ab198cd80ce9f0d35f45ad5",
      "to": "0xbc24012488bfcfe44875a139299595879c43c2cd",
      "contractAddress": null,
      "l1BaseFeeScalar": "0x146b",
      "l1BlobBaseFee": "0x1",
      "l1BlobBaseFeeScalar": "0xf79c5",
      "l1Fee": "0x227d5d9c1",
      "l1GasPrice": "0x2c4ade5f",
      "l1GasUsed": "0x94f",
      "operatorFeeConstant": "0x0",
      "operatorFeeScalar": "0x0"
    },
    {
      "status": "0x1",
      "cumulativeGasUsed": "0x1930105",
      "logs": [
        {
          "address": "0xbc24012488bfcfe44875a139299595879c43c2cd",
          "topics": [
            "0x5625f15df4cbadf2e6e3f80e2406aec5d99a432335ef0e9a1fba9e48b0558303",
            "0x0000000000000000000000000000000000000000000000000000000000000013"
          ],
          "data": "0x00000000000000000000000000000000000000000000000000000000000000030000000000000000000000000000000000000000000000000000000000000060000000000000000000000000000000000000000000000000000000000000003c00000000000000000000000000000000000000000000000000000000000000b9697066732f516d536e544843774c4176324433656f76767632424273766154796531534234454c5664504833726a59673175472f30303030303030303030303030303030303030303030303030303030303030303030303030303030303030303030303030303030303030303030303030303139303030303030303030303030303030303030303030303030303030303030303030303030303030303030303030303030303030303030303030303030303030332e6a736f6e00000000000000",
          "blockHash": "0xc13225832900d2ed4d283b3ee9f7ff5e3af4299fe575ea7ae9808948cf431e29",
          "blockNumber": "0x818bd6e",
          "transactionHash": "0x82fea5bc36199eb34dd164d1ef5bc91791ccac182bf4e289ffc3d160c623a6de",
          "transactionIndex": "0x25",
          "logIndex": "0x82",
          "removed": false
        }
      ],
      "logsBloom": "0x20000000040000000200000000800000000000000000000000000000000000000000000040000000000000000000000000000000000000000000000000000000000000000000000000000000000000000000000000000000000000000000000000040000000000000000000000000000000000000000000000000000000000000000000000000000000000000000000000000000000000000000000000000000000000000000000000000000000000000000000000000000000000000000000000000000000000000000004000000000000000000000000000004000000000000000000000000000000000000000000000000000010000000000000000000000",
      "type": "0x2",
      "transactionHash": "0x82fea5bc36199eb34dd164d1ef5bc91791ccac182bf4e289ffc3d160c623a6de",
      "transactionIndex": "0x25",
      "blockHash": "0xc13225832900d2ed4d283b3ee9f7ff5e3af4299fe575ea7ae9808948cf431e29",
      "blockNumber": "0x818bd6e",
      "gasUsed": "0x377b2",
      "effectiveGasPrice": "0x9db4",
      "from": "0x8835669696fb92839ab198cd80ce9f0d35f45ad5",
      "to": "0xbc24012488bfcfe44875a139299595879c43c2cd",
      "contractAddress": null,
      "l1BaseFeeScalar": "0x146b",
      "l1BlobBaseFee": "0x1",
      "l1BlobBaseFeeScalar": "0xf79c5",
      "l1Fee": "0x227d5d9c1",
      "l1GasPrice": "0x2c4ade5f",
      "l1GasUsed": "0x94f",
      "operatorFeeConstant": "0x0",
      "operatorFeeScalar": "0x0"
    },
    {
      "status": "0x1",
      "cumulativeGasUsed": "0xc15014",
      "logs": [
        {
          "address": "0xbc24012488bfcfe44875a139299595879c43c2cd",
          "topics": [
            "0x5625f15df4cbadf2e6e3f80e2406aec5d99a432335ef0e9a1fba9e48b0558303",
            "0x0000000000000000000000000000000000000000000000000000000000000013"
          ],
          "data": "0x00000000000000000000000000000000000000000000000000000000000000040000000000000000000000000000000000000000000000000000000000000060000000000000000000000000000000000000000000000000000000000000005000000000000000000000000000000000000000000000000000000000000000b9697066732f516d536e544843774c4176324433656f76767632424273766154796531534234454c5664504833726a59673175472f30303030303030303030303030303030303030303030303030303030303030303030303030303030303030303030303030303030303030303030303030303139303030303030303030303030303030303030303030303030303030303030303030303030303030303030303030303030303030303030303030303030303030342e6a736f6e00000000000000",
          "blockHash": "0xb3123eefabd2782ebece960988bb18ac339d9c5ff47e7a2e4428e2a9baa9c43f",
          "blockNumber": "0x818bd70",
          "transactionHash": "0xcf37a14fd2737b23f71d4fa0bbf0658b6ab4b35f95ae4237353899842efdacff",
          "transactionIndex": "0x35",
          "logIndex": "0x8e",
          "removed": false
        }
      ],
      "logsBloom": "0x20000000040000000200000000800000000000000000000000000000000000000000000040000000000000000000000000000000000000000000000000000000000000000000000000000000000000000000000000000000000000000000000000040000000000000000000000000000000000000000000000000000000000000000000000000000000000000000000000000000000000000000000000000000000000000000000000000000000000000000000000000000000000000000000000000000000000000000004000000000000000000000000000004000000000000000000000000000000000000000000000000000010000000000000000000000",
      "type": "0x2",
      "transactionHash": "0xcf37a14fd2737b23f71d4fa0bbf0658b6ab4b35f95ae4237353899842efdacff",
      "transactionIndex": "0x35",
      "blockHash": "0xb3123eefabd2782ebece960988bb18ac339d9c5ff47e7a2e4428e2a9baa9c43f",
      "blockNumber": "0x818bd70",
      "gasUsed": "0x377b2",
      "effectiveGasPrice": "0x9e29",
      "from": "0x8835669696fb92839ab198cd80ce9f0d35f45ad5",
      "to": "0xbc24012488bfcfe44875a139299595879c43c2cd",
      "contractAddress": null,
      "l1BaseFeeScalar": "0x146b",
      "l1BlobBaseFee": "0x1",
      "l1BlobBaseFeeScalar": "0xf79c5",
      "l1Fee": "0x227d5d9c1",
      "l1GasPrice": "0x2c4ade5f",
      "l1GasUsed": "0x94f",
      "operatorFeeConstant": "0x0",
      "operatorFeeScalar": "0x0"
    },
    {
      "status": "0x1",
      "cumulativeGasUsed": "0xac0289",
      "logs": [
        {
          "address": "0xbc24012488bfcfe44875a139299595879c43c2cd",
          "topics": [
            "0x5625f15df4cbadf2e6e3f80e2406aec5d99a432335ef0e9a1fba9e48b0558303",
            "0x0000000000000000000000000000000000000000000000000000000000000013"
          ],
          "data": "0x00000000000000000000000000000000000000000000000000000000000000050000000000000000000000000000000000000000000000000000000000000060000000000000000000000000000000000000000000000000000000000000006400000000000000000000000000000000000000000000000000000000000000b9697066732f516d536e544843774c4176324433656f76767632424273766154796531534234454c5664504833726a59673175472f30303030303030303030303030303030303030303030303030303030303030303030303030303030303030303030303030303030303030303030303030303139303030303030303030303030303030303030303030303030303030303030303030303030303030303030303030303030303030303030303030303030303030352e6a736f6e00000000000000",
          "blockHash": "0x2838e7db9e4d470ec35a4ea4b03286a62f9c52e986b8b133f1588ebd44ec70b3",
          "blockNumber": "0x818bd72",
          "transactionHash": "0x9f10341c4ae2385d33c3cc97dc38f2cc2899f3ab226219d3af846fc1f28cb468",
          "transactionIndex": "0x16",
          "logIndex": "0xab",
          "removed": false
        }
      ],
      "logsBloom": "0x20000000040000000200000000800000000000000000000000000000000000000000000040000000000000000000000000000000000000000000000000000000000000000000000000000000000000000000000000000000000000000000000000040000000000000000000000000000000000000000000000000000000000000000000000000000000000000000000000000000000000000000000000000000000000000000000000000000000000000000000000000000000000000000000000000000000000000000004000000000000000000000000000004000000000000000000000000000000000000000000000000000010000000000000000000000",
      "type": "0x2",
      "transactionHash": "0x9f10341c4ae2385d33c3cc97dc38f2cc2899f3ab226219d3af846fc1f28cb468",
      "transactionIndex": "0x16",
      "blockHash": "0x2838e7db9e4d470ec35a4ea4b03286a62f9c52e986b8b133f1588ebd44ec70b3",
      "blockNumber": "0x818bd72",
      "gasUsed": "0x377b2",
      "effectiveGasPrice": "0x9e04",
      "from": "0x8835669696fb92839ab198cd80ce9f0d35f45ad5",
      "to": "0xbc24012488bfcfe44875a139299595879c43c2cd",
      "contractAddress": null,
      "l1BaseFeeScalar": "0x146b",
      "l1BlobBaseFee": "0x1",
      "l1BlobBaseFeeScalar": "0xf79c5",
      "l1Fee": "0x262a7d10a",
      "l1GasPrice": "0x31037acc",
      "l1GasUsed": "0x94f",
      "operatorFeeConstant": "0x0",
      "operatorFeeScalar": "0x0"
    }
  ],
  "libraries": [],
  "pending": [],
  "returns": {},
  "timestamp": 1747276959,
  "chain": 10,
  "commit": "36d6c5d"
}