{
  "transactions": [
    {
      "hash": "0x620df733cc873a99d7c2db7e5450de2e8395379d5a9c42e3fb46192ee69f05b3",
      "transactionType": "CALL",
      "contractName": null,
      "contractAddress": "0xbc24012488bfcfe44875a139299595879c43c2cd",
      "function": "updateBadgeMetadata(uint256,string)",
      "arguments": [
        "11",
        "ipfs/QmYSzCMrr8GWH29t6jPH5njB9YSd4tb8XLEqha8ynZgrPz/00000000000000000000000000000000000000000000000000000000000000110000000000000000000000000000000000000000000000000000000000000000.json"
      ],
      "transaction": {
        "from": "0x8835669696fb92839ab198cd80ce9f0d35f45ad5",
        "to": "0xbc24012488bfcfe44875a139299595879c43c2cd",
        "gas": "0x15840",
        "value": "0x0",
        "input": "0x47461b40000000000000000000000000000000000000000000000000000000000000000b000000000000000000000000000000000000000000000000000000000000004000000000000000000000000000000000000000000000000000000000000000b9697066732f516d59537a434d727238475748323974366a5048356e6a423959536434746238584c4571686138796e5a6772507a2f30303030303030303030303030303030303030303030303030303030303030303030303030303030303030303030303030303030303030303030303030303131303030303030303030303030303030303030303030303030303030303030303030303030303030303030303030303030303030303030303030303030303030302e6a736f6e00000000000000",
        "nonce": "0x57de0",
        "chainId": "0xa"
      },
      "additionalContracts": [],
      "isFixedGasLimit": false
    },
    {
      "hash": "0x3dbff81a464088ed259f9046111d41636724acef573bbbf2cc6463170aa066d2",
      "transactionType": "CALL",
      "contractName": null,
      "contractAddress": "0xbc24012488bfcfe44875a139299595879c43c2cd",
      "function": "setBadgeMetadata(uint256,string)",
      "arguments": [
        "26",
        "ipfs/QmYSzCMrr8GWH29t6jPH5njB9YSd4tb8XLEqha8ynZgrPz/00000000000000000000000000000000000000000000000000000000000000260000000000000000000000000000000000000000000000000000000000000000.json"
      ],
      "transaction": {
        "from": "0x8835669696fb92839ab198cd80ce9f0d35f45ad5",
        "to": "0xbc24012488bfcfe44875a139299595879c43c2cd",
        "gas": "0x41338",
        "value": "0x0",
        "input": "0xce64b45f000000000000000000000000000000000000000000000000000000000000001a000000000000000000000000000000000000000000000000000000000000004000000000000000000000000000000000000000000000000000000000000000b9697066732f516d59537a434d727238475748323974366a5048356e6a423959536434746238584c4571686138796e5a6772507a2f30303030303030303030303030303030303030303030303030303030303030303030303030303030303030303030303030303030303030303030303030303236303030303030303030303030303030303030303030303030303030303030303030303030303030303030303030303030303030303030303030303030303030302e6a736f6e00000000000000",
        "nonce": "0x57de1",
        "chainId": "0xa"
      },
      "additionalContracts": [],
      "isFixedGasLimit": false
    },
    {
      "hash": "0x309b8e191acc56940b49946067b8cd8fab14594065db1f3cb9d7715a75de421f",
      "transactionType": "CALL",
      "contractName": null,
      "contractAddress": "0xbc24012488bfcfe44875a139299595879c43c2cd",
      "function": "updateBadgeTierMetadata(uint256,uint256,string)",
      "arguments": [
        "11",
        "1",
        "ipfs/QmYSzCMrr8GWH29t6jPH5njB9YSd4tb8XLEqha8ynZgrPz/00000000000000000000000000000000000000000000000000000000000000110000000000000000000000000000000000000000000000000000000000000001.json"
      ],
      "transaction": {
        "from": "0x8835669696fb92839ab198cd80ce9f0d35f45ad5",
        "to": "0xbc24012488bfcfe44875a139299595879c43c2cd",
        "gas": "0x15688",
        "value": "0x0",
        "input": "0xc43e4f4c000000000000000000000000000000000000000000000000000000000000000b0000000000000000000000000000000000000000000000000000000000000001000000000000000000000000000000000000000000000000000000000000006000000000000000000000000000000000000000000000000000000000000000b9697066732f516d59537a434d727238475748323974366a5048356e6a423959536434746238584c4571686138796e5a6772507a2f30303030303030303030303030303030303030303030303030303030303030303030303030303030303030303030303030303030303030303030303030303131303030303030303030303030303030303030303030303030303030303030303030303030303030303030303030303030303030303030303030303030303030312e6a736f6e00000000000000",
        "nonce": "0x57de2",
        "chainId": "0xa"
      },
      "additionalContracts": [],
      "isFixedGasLimit": false
    },
    {
      "hash": "0x938c83f770bee8e9dae2b01f447836020f95beef05047525ec60f2f5cb234c25",
      "transactionType": "CALL",
      "contractName": null,
      "contractAddress": "0xbc24012488bfcfe44875a139299595879c43c2cd",
      "function": "setBadgeTier(uint256,uint256,string,uint256)",
      "arguments": [
        "26",
        "1",
        "ipfs/QmYSzCMrr8GWH29t6jPH5njB9YSd4tb8XLEqha8ynZgrPz/00000000000000000000000000000000000000000000000000000000000000260000000000000000000000000000000000000000000000000000000000000001.json",
        "20"
      ],
      "transaction": {
        "from": "0x8835669696fb92839ab198cd80ce9f0d35f45ad5",
        "to": "0xbc24012488bfcfe44875a139299595879c43c2cd",
        "gas": "0x51905",
        "value": "0x0",
        "input": "0xcf132d1c000000000000000000000000000000000000000000000000000000000000001a00000000000000000000000000000000000000000000000000000000000000010000000000000000000000000000000000000000000000000000000000000080000000000000000000000000000000000000000000000000000000000000001400000000000000000000000000000000000000000000000000000000000000b9697066732f516d59537a434d727238475748323974366a5048356e6a423959536434746238584c4571686138796e5a6772507a2f30303030303030303030303030303030303030303030303030303030303030303030303030303030303030303030303030303030303030303030303030303236303030303030303030303030303030303030303030303030303030303030303030303030303030303030303030303030303030303030303030303030303030312e6a736f6e00000000000000",
        "nonce": "0x57de3",
        "chainId": "0xa"
      },
      "additionalContracts": [],
      "isFixedGasLimit": false
    },
    {
      "hash": "0x3e58dd7059d73c31a9b41e83ebd22fa4848a9b4725fa8d25629129905e035b2c",
      "transactionType": "CALL",
      "contractName": null,
      "contractAddress": "0xbc24012488bfcfe44875a139299595879c43c2cd",
      "function": "setBadgeTier(uint256,uint256,string,uint256)",
      "arguments": [
        "26",
        "2",
        "ipfs/QmYSzCMrr8GWH29t6jPH5njB9YSd4tb8XLEqha8ynZgrPz/00000000000000000000000000000000000000000000000000000000000000260000000000000000000000000000000000000000000000000000000000000002.json",
        "40"
      ],
      "transaction": {
        "from": "0x8835669696fb92839ab198cd80ce9f0d35f45ad5",
        "to": "0xbc24012488bfcfe44875a139299595879c43c2cd",
        "gas": "0x51240",
        "value": "0x0",
        "input": "0xcf132d1c000000000000000000000000000000000000000000000000000000000000001a00000000000000000000000000000000000000000000000000000000000000020000000000000000000000000000000000000000000000000000000000000080000000000000000000000000000000000000000000000000000000000000002800000000000000000000000000000000000000000000000000000000000000b9697066732f516d59537a434d727238475748323974366a5048356e6a423959536434746238584c4571686138796e5a6772507a2f30303030303030303030303030303030303030303030303030303030303030303030303030303030303030303030303030303030303030303030303030303236303030303030303030303030303030303030303030303030303030303030303030303030303030303030303030303030303030303030303030303030303030322e6a736f6e00000000000000",
        "nonce": "0x57de4",
        "chainId": "0xa"
      },
      "additionalContracts": [],
      "isFixedGasLimit": false
    },
    {
      "hash": "0xd376dfd046c8d3087ef44b3056678cb94d4155d1f897061c2e489b38cef80857",
      "transactionType": "CALL",
      "contractName": null,
      "contractAddress": "0xbc24012488bfcfe44875a139299595879c43c2cd",
      "function": "setBadgeTier(uint256,uint256,string,uint256)",
      "arguments": [
        "26",
        "3",
        "ipfs/QmYSzCMrr8GWH29t6jPH5njB9YSd4tb8XLEqha8ynZgrPz/00000000000000000000000000000000000000000000000000000000000000260000000000000000000000000000000000000000000000000000000000000003.json",
        "60"
      ],
      "transaction": {
        "from": "0x8835669696fb92839ab198cd80ce9f0d35f45ad5",
        "to": "0xbc24012488bfcfe44875a139299595879c43c2cd",
        "gas": "0x51240",
        "value": "0x0",
        "input": "0xcf132d1c000000000000000000000000000000000000000000000000000000000000001a00000000000000000000000000000000000000000000000000000000000000030000000000000000000000000000000000000000000000000000000000000080000000000000000000000000000000000000000000000000000000000000003c00000000000000000000000000000000000000000000000000000000000000b9697066732f516d59537a434d727238475748323974366a5048356e6a423959536434746238584c4571686138796e5a6772507a2f30303030303030303030303030303030303030303030303030303030303030303030303030303030303030303030303030303030303030303030303030303236303030303030303030303030303030303030303030303030303030303030303030303030303030303030303030303030303030303030303030303030303030332e6a736f6e00000000000000",
        "nonce": "0x57de5",
        "chainId": "0xa"
      },
      "additionalContracts": [],
      "isFixedGasLimit": false
    },
    {
      "hash": "0xfa10f56375b0e692de8911ad6d279602bd2ef43cbcc88a560d57343144d4a860",
      "transactionType": "CALL",
      "contractName": null,
      "contractAddress": "0xbc24012488bfcfe44875a139299595879c43c2cd",
      "function": "setBadgeTier(uint256,uint256,string,uint256)",
      "arguments": [
        "26",
        "4",
        "ipfs/QmYSzCMrr8GWH29t6jPH5njB9YSd4tb8XLEqha8ynZgrPz/00000000000000000000000000000000000000000000000000000000000000260000000000000000000000000000000000000000000000000000000000000004.json",
        "80"
      ],
      "transaction": {
        "from": "0x8835669696fb92839ab198cd80ce9f0d35f45ad5",
        "to": "0xbc24012488bfcfe44875a139299595879c43c2cd",
        "gas": "0x51240",
        "value": "0x0",
        "input": "0xcf132d1c000000000000000000000000000000000000000000000000000000000000001a00000000000000000000000000000000000000000000000000000000000000040000000000000000000000000000000000000000000000000000000000000080000000000000000000000000000000000000000000000000000000000000005000000000000000000000000000000000000000000000000000000000000000b9697066732f516d59537a434d727238475748323974366a5048356e6a423959536434746238584c4571686138796e5a6772507a2f30303030303030303030303030303030303030303030303030303030303030303030303030303030303030303030303030303030303030303030303030303236303030303030303030303030303030303030303030303030303030303030303030303030303030303030303030303030303030303030303030303030303030342e6a736f6e00000000000000",
        "nonce": "0x57de6",
        "chainId": "0xa"
      },
      "additionalContracts": [],
      "isFixedGasLimit": false
    },
    {
      "hash": "0x8e64d18e9ad19a618425f20f5b937ae75334bbbec790655d21d5fe27b9237e06",
      "transactionType": "CALL",
      "contractName": null,
      "contractAddress": "0xbc24012488bfcfe44875a139299595879c43c2cd",
      "function": "setBadgeTier(uint256,uint256,string,uint256)",
      "arguments": [
        "26",
        "5",
        "ipfs/QmYSzCMrr8GWH29t6jPH5njB9YSd4tb8XLEqha8ynZgrPz/00000000000000000000000000000000000000000000000000000000000000260000000000000000000000000000000000000000000000000000000000000005.json",
        "100"
      ],
      "transaction": {
        "from": "0x8835669696fb92839ab198cd80ce9f0d35f45ad5",
        "to": "0xbc24012488bfcfe44875a139299595879c43c2cd",
        "gas": "0x51240",
        "value": "0x0",
        "input": "0xcf132d1c000000000000000000000000000000000000000000000000000000000000001a00000000000000000000000000000000000000000000000000000000000000050000000000000000000000000000000000000000000000000000000000000080000000000000000000000000000000000000000000000000000000000000006400000000000000000000000000000000000000000000000000000000000000b9697066732f516d59537a434d727238475748323974366a5048356e6a423959536434746238584c4571686138796e5a6772507a2f30303030303030303030303030303030303030303030303030303030303030303030303030303030303030303030303030303030303030303030303030303236303030303030303030303030303030303030303030303030303030303030303030303030303030303030303030303030303030303030303030303030303030352e6a736f6e00000000000000",
        "nonce": "0x57de7",
        "chainId": "0xa"
      },
      "additionalContracts": [],
      "isFixedGasLimit": false
    }
  ],
  "receipts": [
    {
      "status": "0x1",
      "cumulativeGasUsed": "0x346fba",
      "logs": [
        {
          "address": "0xbc24012488bfcfe44875a139299595879c43c2cd",
          "topics": [
            "0xb810609e93b7325976c078b96d9c92d3160d0d165073b8c9a8a6a4d257fd0477",
            "0x000000000000000000000000000000000000000000000000000000000000000b"
          ],
          "data": "0x000000000000000000000000000000000000000000000000000000000000002000000000000000000000000000000000000000000000000000000000000000b9697066732f516d59537a434d727238475748323974366a5048356e6a423959536434746238584c4571686138796e5a6772507a2f30303030303030303030303030303030303030303030303030303030303030303030303030303030303030303030303030303030303030303030303030303131303030303030303030303030303030303030303030303030303030303030303030303030303030303030303030303030303030303030303030303030303030302e6a736f6e00000000000000",
          "blockHash": "0x8cee2151d68416f6e799ba6938b51a825fd05b593e12147900c1a90ec55bcdf9",
          "blockNumber": "0x879be20",
          "blockTimestamp": "0x68e755f9",
          "transactionHash": "0x620df733cc873a99d7c2db7e5450de2e8395379d5a9c42e3fb46192ee69f05b3",
          "transactionIndex": "0x21",
          "logIndex": "0x1f",
          "removed": false
        }
      ],
      "logsBloom": "0x00000000040000000200004000000000000000000000000000000000000000040000000000000000000000000000000000000000000000000000000000000000000000000000000000000000000000000000000000000000000000400000000000000000000000000000000000000000000000000000000000000000000000000000000000000000000000000000000000000000000000000000000000000000000000000000000000000000000000000000000000000000000000000000000000000000000000000000000000000000002000000000000000004020000000000000000000000000000000000000000000000000000000040000000000000000",
      "type": "0x2",
      "transactionHash": "0x620df733cc873a99d7c2db7e5450de2e8395379d5a9c42e3fb46192ee69f05b3",
      "transactionIndex": "0x21",
      "blockHash": "0x8cee2151d68416f6e799ba6938b51a825fd05b593e12147900c1a90ec55bcdf9",
      "blockNumber": "0x879be20",
      "gasUsed": "0xeb63",
      "effectiveGasPrice": "0x1cd",
      "from": "0x8835669696fb92839ab198cd80ce9f0d35f45ad5",
      "to": "0xbc24012488bfcfe44875a139299595879c43c2cd",
      "contractAddress": null,
      "l1BaseFeeScalar": "0x146b",
      "l1BlobBaseFee": "0x32e5",
      "l1BlobBaseFeeScalar": "0xf79c5",
      "l1Fee": "0x7c908298",
      "l1GasPrice": "0x6f183d7",
      "l1GasUsed": "0x851"
    },
    {
      "status": "0x1",
      "cumulativeGasUsed": "0x376300",
      "logs": [
        {
          "address": "0xbc24012488bfcfe44875a139299595879c43c2cd",
          "topics": [
            "0x2e5977e12fac9a91696e22ba811f2893e11ad62f8aa53e99a628b031d18a379f",
            "0x000000000000000000000000000000000000000000000000000000000000001a"
          ],
          "data": "0x000000000000000000000000000000000000000000000000000000000000002000000000000000000000000000000000000000000000000000000000000000b9697066732f516d59537a434d727238475748323974366a5048356e6a423959536434746238584c4571686138796e5a6772507a2f30303030303030303030303030303030303030303030303030303030303030303030303030303030303030303030303030303030303030303030303030303236303030303030303030303030303030303030303030303030303030303030303030303030303030303030303030303030303030303030303030303030303030302e6a736f6e00000000000000",
          "blockHash": "0x8cee2151d68416f6e799ba6938b51a825fd05b593e12147900c1a90ec55bcdf9",
          "blockNumber": "0x879be20",
          "blockTimestamp": "0x68e755f9",
          "transactionHash": "0x3dbff81a464088ed259f9046111d41636724acef573bbbf2cc6463170aa066d2",
          "transactionIndex": "0x22",
          "logIndex": "0x20",
          "removed": false
        }
      ],
      "logsBloom": "0x00000000040000000200000000000000000000000000000000000000000000000000000000000000000000000000000000000000000000000000000000000000000000000000000000000000000000001000000000000000000000001000000000000000000000000000000000000000000000000000000000000000000004000000000000000000000000000000000000000000000000000000000000000000000000000000000000000000000000000000000000000100000000000000000000000000000000000000000000000000000000000000000000004000400000000000000000000000000000000000000000000000000004000000000000000000",
      "type": "0x2",
      "transactionHash": "0x3dbff81a464088ed259f9046111d41636724acef573bbbf2cc6463170aa066d2",
      "transactionIndex": "0x22",
      "blockHash": "0x8cee2151d68416f6e799ba6938b51a825fd05b593e12147900c1a90ec55bcdf9",
      "blockNumber": "0x879be20",
      "gasUsed": "0x2f346",
      "effectiveGasPrice": "0x1cd",
      "from": "0x8835669696fb92839ab198cd80ce9f0d35f45ad5",
      "to": "0xbc24012488bfcfe44875a139299595879c43c2cd",
      "contractAddress": null,
      "l1BaseFeeScalar": "0x146b",
      "l1BlobBaseFee": "0x32e5",
      "l1BlobBaseFeeScalar": "0xf79c5",
      "l1Fee": "0x7c908298",
      "l1GasPrice": "0x6f183d7",
      "l1GasUsed": "0x85e"
    },
    {
      "status": "0x1",
      "cumulativeGasUsed": "0x385afe",
      "logs": [
        {
          "address": "0xbc24012488bfcfe44875a139299595879c43c2cd",
          "topics": [
            "0x3e442b5d5a6ecd8c0a86017cabd5ee0efbf32debbee58f9cea68f1b8489e4193",
            "0x000000000000000000000000000000000000000000000000000000000000000b"
          ],
          "data": "0x0000000000000000000000000000000000000000000000000000000000000001000000000000000000000000000000000000000000000000000000000000004000000000000000000000000000000000000000000000000000000000000000b9697066732f516d59537a434d727238475748323974366a5048356e6a423959536434746238584c4571686138796e5a6772507a2f30303030303030303030303030303030303030303030303030303030303030303030303030303030303030303030303030303030303030303030303030303131303030303030303030303030303030303030303030303030303030303030303030303030303030303030303030303030303030303030303030303030303030312e6a736f6e00000000000000",
          "blockHash": "0xb74fda9c60c71c2959a8f5022f93fa8dee2607d64234eb9a044930d7b05fa1f9",
          "blockNumber": "0x879be20",
          "blockTimestamp": "0x68e755f9",
          "transactionHash": "0x309b8e191acc56940b49946067b8cd8fab14594065db1f3cb9d7715a75de421f",
          "transactionIndex": "0x23",
          "logIndex": "0x21",
          "removed": false
        }
      ],
      "logsBloom": "0x00000000040000000200004000000000000000000000000000000000000000000000000000000000000000000000000000000000000000000000000000000000000000000000000000000000000000000000000000000000000000000000000000000010000000000000000000000000000000000000000000000000000000000000000000000000000000000000000000000000000000000000000000000000000000200000000000000000000000000000000000000000000000000000000000000000000000000000000000000000002000000000000200004000000000000000000000000000000000000000000000000000000000040000000000000000",
      "type": "0x2",
      "transactionHash": "0x309b8e191acc56940b49946067b8cd8fab14594065db1f3cb9d7715a75de421f",
      "transactionIndex": "0x23",
      "blockHash": "0xb74fda9c60c71c2959a8f5022f93fa8dee2607d64234eb9a044930d7b05fa1f9",
      "blockNumber": "0x879be20",
      "gasUsed": "0xf7fe",
      "effectiveGasPrice": "0x1cd",
      "from": "0x8835669696fb92839ab198cd80ce9f0d35f45ad5",
      "to": "0xbc24012488bfcfe44875a139299595879c43c2cd",
      "contractAddress": null,
      "l1BaseFeeScalar": "0x146b",
      "l1BlobBaseFee": "0x32e5",
      "l1BlobBaseFeeScalar": "0xf79c5",
      "l1Fee": "0x523f3d2c",
      "l1GasPrice": "0x6f183d7",
      "l1GasUsed": "0x8d7"
    },
    {
      "status": "0x1",
      "cumulativeGasUsed": "0x3c0bce",
      "logs": [
        {
          "address": "0xbc24012488bfcfe44875a139299595879c43c2cd",
          "topics": [
            "0x5625f15df4cbadf2e6e3f80e2406aec5d99a432335ef0e9a1fba9e48b0558303",
            "0x000000000000000000000000000000000000000000000000000000000000001a"
          ],
          "data": "0x00000000000000000000000000000000000000000000000000000000000000010000000000000000000000000000000000000000000000000000000000000060000000000000000000000000000000000000000000000000000000000000001400000000000000000000000000000000000000000000000000000000000000b9697066732f516d59537a434d727238475748323974366a5048356e6a423959536434746238584c4571686138796e5a6772507a2f30303030303030303030303030303030303030303030303030303030303030303030303030303030303030303030303030303030303030303030303030303236303030303030303030303030303030303030303030303030303030303030303030303030303030303030303030303030303030303030303030303030303030312e6a736f6e00000000000000",
          "blockHash": "0x8cee2151d68416f6e799ba6938b51a825fd05b593e12147900c1a90ec55bcdf9",
          "blockNumber": "0x879be20",
          "blockTimestamp": "0x68e755f9",
          "transactionHash": "0x938c83f770bee8e9dae2b01f447836020f95beef05047525ec60f2f5cb234c25",
          "transactionIndex": "0x24",
          "logIndex": "0x22",
          "removed": false
        }
      ],
      "logsBloom": "0x00000000040000000200000000000000000000000000000000000000000000000000000000000000000000000000000000000000000000000000000000000000000000000000000000000000000000001000000000000000000000001000000000040000000000000000000000000000000000000000000000000000000000000000000000000000000000000000000000000000000000000000000000000000000000000000000000000000000000000000000000000000000000000000000000000000000000000000004000000000000000000000000000004000000000000000000000000000000000000000000000000000010004000000000000000000",
      "type": "0x2",
      "transactionHash": "0x938c83f770bee8e9dae2b01f447836020f95beef05047525ec60f2f5cb234c25",
      "transactionIndex": "0x24",
      "blockHash": "0x8cee2151d68416f6e799ba6938b51a825fd05b593e12147900c1a90ec55bcdf9",
      "blockNumber": "0x879be20",
      "gasUsed": "0x3b0d0",
      "effectiveGasPrice": "0x1cd",
      "from": "0x8835669696fb92839ab198cd80ce9f0d35f45ad5",
      "to": "0xbc24012488bfcfe44875a139299595879c43c2cd",
      "contractAddress": null,
      "l1BaseFeeScalar": "0x146b",
      "l1BlobBaseFee": "0x32e5",
      "l1BlobBaseFeeScalar": "0xf79c5",
      "l1Fee": "0x7c908298",
      "l1GasPrice": "0x6f183d7",
      "l1GasUsed": "0x927"
    },
    {
      "status": "0x1",
      "cumulativeGasUsed": "0x3f8380",
      "logs": [
        {
          "address": "0xbc24012488bfcfe44875a139299595879c43c2cd",
          "topics": [
            "0x5625f15df4cbadf2e6e3f80e2406aec5d99a432335ef0e9a1fba9e48b0558303",
            "0x000000000000000000000000000000000000000000000000000000000000001a"
          ],
          "data": "0x00000000000000000000000000000000000000000000000000000000000000020000000000000000000000000000000000000000000000000000000000000060000000000000000000000000000000000000000000000000000000000000002800000000000000000000000000000000000000000000000000000000000000b9697066732f516d59537a434d727238475748323974366a5048356e6a423959536434746238584c4571686138796e5a6772507a2f30303030303030303030303030303030303030303030303030303030303030303030303030303030303030303030303030303030303030303030303030303236303030303030303030303030303030303030303030303030303030303030303030303030303030303030303030303030303030303030303030303030303030322e6a736f6e00000000000000",
          "blockHash": "0xb74fda9c60c71c2959a8f5022f93fa8dee2607d64234eb9a044930d7b05fa1f9",
          "blockNumber": "0x879be20",
          "blockTimestamp": "0x68e755f9",
          "transactionHash": "0x3e58dd7059d73c31a9b41e83ebd22fa4848a9b4725fa8d25629129905e035b2c",
          "transactionIndex": "0x25",
          "logIndex": "0x23",
          "removed": false
        }
      ],
      "logsBloom": "0x00000000040000000200000000000000000000000000000000000000000000000000000000000000000000000000000000000000000000000000000000000000000000000000000000000000000000001000000000000000000000001000000000040000000000000000000000000000000000000000000000000000000000000000000000000000000000000000000000000000000000000000000000000000000000000000000000000000000000000000000000000000000000000000000000000000000000000000004000000000000000000000000000004000000000000000000000000000000000000000000000000000010004000000000000000000",
      "type": "0x2",
      "transactionHash": "0x3e58dd7059d73c31a9b41e83ebd22fa4848a9b4725fa8d25629129905e035b2c",
      "transactionIndex": "0x25",
      "blockHash": "0xb74fda9c60c71c2959a8f5022f93fa8dee2607d64234eb9a044930d7b05fa1f9",
      "blockNumber": "0x879be20",
      "gasUsed": "0x377b2",
      "effectiveGasPrice": "0x1cd",
      "from": "0x8835669696fb92839ab198cd80ce9f0d35f45ad5",
      "to": "0xbc24012488bfcfe44875a139299595879c43c2cd",
      "contractAddress": null,
      "l1BaseFeeScalar": "0x146b",
      "l1BlobBaseFee": "0x32e5",
      "l1BlobBaseFeeScalar": "0xf79c5",
      "l1Fee": "0x54add73b",
      "l1GasPrice": "0x6f183d7",
      "l1GasUsed": "0x91a"
    },
    {
      "status": "0x1",
      "cumulativeGasUsed": "0x42fb32",
      "logs": [
        {
          "address": "0xbc24012488bfcfe44875a139299595879c43c2cd",
          "topics": [
            "0x5625f15df4cbadf2e6e3f80e2406aec5d99a432335ef0e9a1fba9e48b0558303",
            "0x000000000000000000000000000000000000000000000000000000000000001a"
          ],
          "data": "0x00000000000000000000000000000000000000000000000000000000000000030000000000000000000000000000000000000000000000000000000000000060000000000000000000000000000000000000000000000000000000000000003c00000000000000000000000000000000000000000000000000000000000000b9697066732f516d59537a434d727238475748323974366a5048356e6a423959536434746238584c4571686138796e5a6772507a2f30303030303030303030303030303030303030303030303030303030303030303030303030303030303030303030303030303030303030303030303030303236303030303030303030303030303030303030303030303030303030303030303030303030303030303030303030303030303030303030303030303030303030332e6a736f6e00000000000000",
          "blockHash": "0x8cee2151d68416f6e799ba6938b51a825fd05b593e12147900c1a90ec55bcdf9",
          "blockNumber": "0x879be20",
          "blockTimestamp": "0x68e755f9",
          "transactionHash": "0xd376dfd046c8d3087ef44b3056678cb94d4155d1f897061c2e489b38cef80857",
          "transactionIndex": "0x26",
          "logIndex": "0x24",
          "removed": false
        }
      ],
      "logsBloom": "0x00000000040000000200000000000000000000000000000000000000000000000000000000000000000000000000000000000000000000000000000000000000000000000000000000000000000000001000000000000000000000001000000000040000000000000000000000000000000000000000000000000000000000000000000000000000000000000000000000000000000000000000000000000000000000000000000000000000000000000000000000000000000000000000000000000000000000000000004000000000000000000000000000004000000000000000000000000000000000000000000000000000010004000000000000000000",
      "type": "0x2",
      "transactionHash": "0xd376dfd046c8d3087ef44b3056678cb94d4155d1f897061c2e489b38cef80857",
      "transactionIndex": "0x26",
      "blockHash": "0x8cee2151d68416f6e799ba6938b51a825fd05b593e12147900c1a90ec55bcdf9",
      "blockNumber": "0x879be20",
      "gasUsed": "0x377b2",
      "effectiveGasPrice": "0x1cd",
      "from": "0x8835669696fb92839ab198cd80ce9f0d35f45ad5",
      "to": "0xbc24012488bfcfe44875a139299595879c43c2cd",
      "contractAddress": null,
      "l1BaseFeeScalar": "0x146b",
      "l1BlobBaseFee": "0x32e5",
      "l1BlobBaseFeeScalar": "0xf79c5",
      "l1Fee": "0x7c908298",
      "l1GasPrice": "0x6f183d7",
      "l1GasUsed": "0x927"
    },
    {
      "status": "0x1",
      "cumulativeGasUsed": "0x4672e4",
      "logs": [
        {
          "address": "0xbc24012488bfcfe44875a139299595879c43c2cd",
          "topics": [
            "0x5625f15df4cbadf2e6e3f80e2406aec5d99a432335ef0e9a1fba9e48b0558303",
            "0x000000000000000000000000000000000000000000000000000000000000001a"
          ],
          "data": "0x00000000000000000000000000000000000000000000000000000000000000040000000000000000000000000000000000000000000000000000000000000060000000000000000000000000000000000000000000000000000000000000005000000000000000000000000000000000000000000000000000000000000000b9697066732f516d59537a434d727238475748323974366a5048356e6a423959536434746238584c4571686138796e5a6772507a2f30303030303030303030303030303030303030303030303030303030303030303030303030303030303030303030303030303030303030303030303030303236303030303030303030303030303030303030303030303030303030303030303030303030303030303030303030303030303030303030303030303030303030342e6a736f6e00000000000000",
          "blockHash": "0x8cee2151d68416f6e799ba6938b51a825fd05b593e12147900c1a90ec55bcdf9",
          "blockNumber": "0x879be20",
          "blockTimestamp": "0x68e755f9",
          "transactionHash": "0xfa10f56375b0e692de8911ad6d279602bd2ef43cbcc88a560d57343144d4a860",
          "transactionIndex": "0x27",
          "logIndex": "0x25",
          "removed": false
        }
      ],
      "logsBloom": "0x00000000040000000200000000000000000000000000000000000000000000000000000000000000000000000000000000000000000000000000000000000000000000000000000000000000000000001000000000000000000000001000000000040000000000000000000000000000000000000000000000000000000000000000000000000000000000000000000000000000000000000000000000000000000000000000000000000000000000000000000000000000000000000000000000000000000000000000004000000000000000000000000000004000000000000000000000000000000000000000000000000000010004000000000000000000",
      "type": "0x2",
      "transactionHash": "0xfa10f56375b0e692de8911ad6d279602bd2ef43cbcc88a560d57343144d4a860",
      "transactionIndex": "0x27",
      "blockHash": "0x8cee2151d68416f6e799ba6938b51a825fd05b593e12147900c1a90ec55bcdf9",
      "blockNumber": "0x879be20",
      "gasUsed": "0x377b2",
      "effectiveGasPrice": "0x1cd",
      "from": "0x8835669696fb92839ab198cd80ce9f0d35f45ad5",
      "to": "0xbc24012488bfcfe44875a139299595879c43c2cd",
      "contractAddress": null,
      "l1BaseFeeScalar": "0x146b",
      "l1BlobBaseFee": "0x32e5",
      "l1BlobBaseFeeScalar": "0xf79c5",
      "l1Fee": "0x7c908298",
      "l1GasPrice": "0x6f183d7",
      "l1GasUsed": "0x927"
    },
    {
      "status": "0x1",
      "cumulativeGasUsed": "0x69049d",
      "logs": [
        {
          "address": "0xbc24012488bfcfe44875a139299595879c43c2cd",
          "topics": [
            "0x5625f15df4cbadf2e6e3f80e2406aec5d99a432335ef0e9a1fba9e48b0558303",
            "0x000000000000000000000000000000000000000000000000000000000000001a"
          ],
          "data": "0x00000000000000000000000000000000000000000000000000000000000000050000000000000000000000000000000000000000000000000000000000000060000000000000000000000000000000000000000000000000000000000000006400000000000000000000000000000000000000000000000000000000000000b9697066732f516d59537a434d727238475748323974366a5048356e6a423959536434746238584c4571686138796e5a6772507a2f30303030303030303030303030303030303030303030303030303030303030303030303030303030303030303030303030303030303030303030303030303236303030303030303030303030303030303030303030303030303030303030303030303030303030303030303030303030303030303030303030303030303030352e6a736f6e00000000000000",
          "blockHash": "0x8cee2151d68416f6e799ba6938b51a825fd05b593e12147900c1a90ec55bcdf9",
          "blockNumber": "0x879be20",
          "blockTimestamp": "0x68e755f9",
          "transactionHash": "0x8e64d18e9ad19a618425f20f5b937ae75334bbbec790655d21d5fe27b9237e06",
          "transactionIndex": "0x36",
          "logIndex": "0x29",
          "removed": false
        }
      ],
      "logsBloom": "0x00000000040000000200000000000000000000000000000000000000000000000000000000000000000000000000000000000000000000000000000000000000000000000000000000000000000000001000000000000000000000001000000000040000000000000000000000000000000000000000000000000000000000000000000000000000000000000000000000000000000000000000000000000000000000000000000000000000000000000000000000000000000000000000000000000000000000000000004000000000000000000000000000004000000000000000000000000000000000000000000000000000010004000000000000000000",
      "type": "0x2",
      "transactionHash": "0x8e64d18e9ad19a618425f20f5b937ae75334bbbec790655d21d5fe27b9237e06",
      "transactionIndex": "0x36",
      "blockHash": "0x8cee2151d68416f6e799ba6938b51a825fd05b593e12147900c1a90ec55bcdf9",
      "blockNumber": "0x879be20",
      "gasUsed": "0x377b2",
      "effectiveGasPrice": "0x1cd",
      "from": "0x8835669696fb92839ab198cd80ce9f0d35f45ad5",
      "to": "0xbc24012488bfcfe44875a139299595879c43c2cd",
      "contractAddress": null,
      "l1BaseFeeScalar": "0x146b",
      "l1BlobBaseFee": "0x32e5",
      "l1BlobBaseFeeScalar": "0xf79c5",
      "l1Fee": "0x7c908298",
      "l1GasPrice": "0x6f183d7",
      "l1GasUsed": "0x927"
    }
  ],
  "libraries": [],
  "pending": [],
  "returns": {},
  "timestamp": 1759991286,
  "chain": 10,
  "commit": "e650c85"
}