{
  "transactions": [
    {
      "hash": "0xfd736e72ae9b06c4f22ecdde3ea2b443bd87c299172b0aace43e89d2e9c422b4",
      "transactionType": "CALL",
      "contractName": null,
      "contractAddress": "0x03e2c563cf77e3cdc0b7663cee117da14ea60848",
      "function": "updateBadgeMetadata(uint256,string)",
      "arguments": [
        "23",
        "ipfs/QmUHF22H32Fz91DCVrwtVGgV5PzhdgCK5thRxC4fqLREWH/00000000000000000000000000000000000000000000000000000000000000230000000000000000000000000000000000000000000000000000000000000000.json"
      ],
      "transaction": {
        "from": "0x8835669696fb92839ab198cd80ce9f0d35f45ad5",
        "to": "0x03e2c563cf77e3cdc0b7663cee117da14ea60848",
        "value": "0x0",
        "input": "0x47461b400000000000000000000000000000000000000000000000000000000000000017000000000000000000000000000000000000000000000000000000000000004000000000000000000000000000000000000000000000000000000000000000b9697066732f516d5548463232483332467a39314443567277745647675635507a686467434b3574685278433466714c524557482f30303030303030303030303030303030303030303030303030303030303030303030303030303030303030303030303030303030303030303030303030303233303030303030303030303030303030303030303030303030303030303030303030303030303030303030303030303030303030303030303030303030303030302e6a736f6e00000000000000",
        "nonce": "0x39856",
        "chainId": "0xa"
      },
      "additionalContracts": [],
      "isFixedGasLimit": false
    },
    {
      "hash": "0xe69763e7d2c5668084067060b453278022df96904d1a787c6ab14da08b6f6c44",
      "transactionType": "CALL",
      "contractName": null,
      "contractAddress": "0x03e2c563cf77e3cdc0b7663cee117da14ea60848",
      "function": "setBadgeTier(uint256,uint256,string,uint256)",
      "arguments": [
        "23",
        "1",
        "ipfs/QmUHF22H32Fz91DCVrwtVGgV5PzhdgCK5thRxC4fqLREWH/00000000000000000000000000000000000000000000000000000000000000230000000000000000000000000000000000000000000000000000000000000001.json",
        "10"
      ],
      "transaction": {
        "from": "0x8835669696fb92839ab198cd80ce9f0d35f45ad5",
        "to": "0x03e2c563cf77e3cdc0b7663cee117da14ea60848",
        "value": "0x0",
        "input": "0xcf132d1c000000000000000000000000000000000000000000000000000000000000001700000000000000000000000000000000000000000000000000000000000000010000000000000000000000000000000000000000000000000000000000000080000000000000000000000000000000000000000000000000000000000000000a00000000000000000000000000000000000000000000000000000000000000b9697066732f516d5548463232483332467a39314443567277745647675635507a686467434b3574685278433466714c524557482f30303030303030303030303030303030303030303030303030303030303030303030303030303030303030303030303030303030303030303030303030303233303030303030303030303030303030303030303030303030303030303030303030303030303030303030303030303030303030303030303030303030303030312e6a736f6e00000000000000",
        "nonce": "0x39857",
        "chainId": "0xa"
      },
      "additionalContracts": [],
      "isFixedGasLimit": false
    },
    {
      "hash": "0x22d55e732d79e63a33a1ddeca4df68bba516a9adb5a2928bdf788f15b4b57036",
      "transactionType": "CALL",
      "contractName": null,
      "contractAddress": "0x03e2c563cf77e3cdc0b7663cee117da14ea60848",
      "function": "setBadgeTier(uint256,uint256,string,uint256)",
      "arguments": [
        "23",
        "2",
        "ipfs/QmUHF22H32Fz91DCVrwtVGgV5PzhdgCK5thRxC4fqLREWH/00000000000000000000000000000000000000000000000000000000000000230000000000000000000000000000000000000000000000000000000000000002.json",
        "20"
      ],
      "transaction": {
        "from": "0x8835669696fb92839ab198cd80ce9f0d35f45ad5",
        "to": "0x03e2c563cf77e3cdc0b7663cee117da14ea60848",
        "value": "0x0",
        "input": "0xcf132d1c000000000000000000000000000000000000000000000000000000000000001700000000000000000000000000000000000000000000000000000000000000020000000000000000000000000000000000000000000000000000000000000080000000000000000000000000000000000000000000000000000000000000001400000000000000000000000000000000000000000000000000000000000000b9697066732f516d5548463232483332467a39314443567277745647675635507a686467434b3574685278433466714c524557482f30303030303030303030303030303030303030303030303030303030303030303030303030303030303030303030303030303030303030303030303030303233303030303030303030303030303030303030303030303030303030303030303030303030303030303030303030303030303030303030303030303030303030322e6a736f6e00000000000000",
        "nonce": "0x39858",
        "chainId": "0xa"
      },
      "additionalContracts": [],
      "isFixedGasLimit": false
    },
    {
      "hash": "0x9b348e39becda70b291b10c19838fe1685d59d826b45f70b5503d3128abc9d65",
      "transactionType": "CALL",
      "contractName": null,
      "contractAddress": "0x03e2c563cf77e3cdc0b7663cee117da14ea60848",
      "function": "setBadgeTier(uint256,uint256,string,uint256)",
      "arguments": [
        "23",
        "3",
        "ipfs/QmUHF22H32Fz91DCVrwtVGgV5PzhdgCK5thRxC4fqLREWH/00000000000000000000000000000000000000000000000000000000000000230000000000000000000000000000000000000000000000000000000000000003.json",
        "30"
      ],
      "transaction": {
        "from": "0x8835669696fb92839ab198cd80ce9f0d35f45ad5",
        "to": "0x03e2c563cf77e3cdc0b7663cee117da14ea60848",
        "value": "0x0",
        "input": "0xcf132d1c000000000000000000000000000000000000000000000000000000000000001700000000000000000000000000000000000000000000000000000000000000030000000000000000000000000000000000000000000000000000000000000080000000000000000000000000000000000000000000000000000000000000001e00000000000000000000000000000000000000000000000000000000000000b9697066732f516d5548463232483332467a39314443567277745647675635507a686467434b3574685278433466714c524557482f30303030303030303030303030303030303030303030303030303030303030303030303030303030303030303030303030303030303030303030303030303233303030303030303030303030303030303030303030303030303030303030303030303030303030303030303030303030303030303030303030303030303030332e6a736f6e00000000000000",
        "nonce": "0x39859",
        "chainId": "0xa"
      },
      "additionalContracts": [],
      "isFixedGasLimit": false
    },
    {
      "hash": "0x3834b5a6ef390d00a05dca7e3dde221e2761b574913b7f12d7e4a2ea12cd85b0",
      "transactionType": "CALL",
      "contractName": null,
      "contractAddress": "0x03e2c563cf77e3cdc0b7663cee117da14ea60848",
      "function": "setBadgeTier(uint256,uint256,string,uint256)",
      "arguments": [
        "23",
        "4",
        "ipfs/QmUHF22H32Fz91DCVrwtVGgV5PzhdgCK5thRxC4fqLREWH/00000000000000000000000000000000000000000000000000000000000000230000000000000000000000000000000000000000000000000000000000000004.json",
        "40"
      ],
      "transaction": {
        "from": "0x8835669696fb92839ab198cd80ce9f0d35f45ad5",
        "to": "0x03e2c563cf77e3cdc0b7663cee117da14ea60848",
        "value": "0x0",
        "input": "0xcf132d1c000000000000000000000000000000000000000000000000000000000000001700000000000000000000000000000000000000000000000000000000000000040000000000000000000000000000000000000000000000000000000000000080000000000000000000000000000000000000000000000000000000000000002800000000000000000000000000000000000000000000000000000000000000b9697066732f516d5548463232483332467a39314443567277745647675635507a686467434b3574685278433466714c524557482f30303030303030303030303030303030303030303030303030303030303030303030303030303030303030303030303030303030303030303030303030303233303030303030303030303030303030303030303030303030303030303030303030303030303030303030303030303030303030303030303030303030303030342e6a736f6e00000000000000",
        "nonce": "0x3985a",
        "chainId": "0xa"
      },
      "additionalContracts": [],
      "isFixedGasLimit": false
    },
    {
      "hash": null,
      "transactionType": "CALL",
      "contractName": null,
      "contractAddress": "0x03e2c563cf77e3cdc0b7663cee117da14ea60848",
      "function": "setBadgeTier(uint256,uint256,string,uint256)",
      "arguments": [
        "23",
        "5",
        "ipfs/QmUHF22H32Fz91DCVrwtVGgV5PzhdgCK5thRxC4fqLREWH/00000000000000000000000000000000000000000000000000000000000000230000000000000000000000000000000000000000000000000000000000000005.json",
        "50"
      ],
      "transaction": {
        "from": "0x8835669696fb92839ab198cd80ce9f0d35f45ad5",
        "to": "0x03e2c563cf77e3cdc0b7663cee117da14ea60848",
        "value": "0x0",
        "input": "0xcf132d1c000000000000000000000000000000000000000000000000000000000000001700000000000000000000000000000000000000000000000000000000000000050000000000000000000000000000000000000000000000000000000000000080000000000000000000000000000000000000000000000000000000000000003200000000000000000000000000000000000000000000000000000000000000b9697066732f516d5548463232483332467a39314443567277745647675635507a686467434b3574685278433466714c524557482f30303030303030303030303030303030303030303030303030303030303030303030303030303030303030303030303030303030303030303030303030303233303030303030303030303030303030303030303030303030303030303030303030303030303030303030303030303030303030303030303030303030303030352e6a736f6e00000000000000",
        "nonce": "0x3985b",
        "chainId": "0xa"
      },
      "additionalContracts": [],
      "isFixedGasLimit": false
    }
  ],
  "receipts": [
    {
      "status": "0x1",
      "cumulativeGasUsed": "0x13b2981",
      "logs": [
        {
          "address": "0x03e2c563cf77e3cdc0b7663cee117da14ea60848",
          "topics": [
            "0xb810609e93b7325976c078b96d9c92d3160d0d165073b8c9a8a6a4d257fd0477",
            "0x0000000000000000000000000000000000000000000000000000000000000017"
          ],
          "data": "0x000000000000000000000000000000000000000000000000000000000000002000000000000000000000000000000000000000000000000000000000000000b9697066732f516d5548463232483332467a39314443567277745647675635507a686467434b3574685278433466714c524557482f30303030303030303030303030303030303030303030303030303030303030303030303030303030303030303030303030303030303030303030303030303233303030303030303030303030303030303030303030303030303030303030303030303030303030303030303030303030303030303030303030303030303030302e6a736f6e00000000000000",
          "blockHash": "0x9a5a4baccd352d288bc2b16db8c109795cb1d9bad9f53e0d5898845e3edbfa97",
          "blockNumber": "0x82e4140",
          "blockTimestamp": "0x68505c39",
          "transactionHash": "0xfd736e72ae9b06c4f22ecdde3ea2b443bd87c299172b0aace43e89d2e9c422b4",
          "transactionIndex": "0x20",
          "logIndex": "0x118",
          "removed": false
        }
      ],
      "logsBloom": "0x00000000000000000000000000000000000000000000000000000000000000040000000000000000000000000000000000001000000000000000001000008000000000000000000000000000000000000000000000000000000000400000000000000000000000000000000000000000000000000000000000000000000000000000000000000000001000000000000000000000000000000000000000000000000000000000000000000000000000000000000000000000000000000000001000000000000000000000000000000000000000000000000000000020000000000000000000000000000000000000000000000000000000000000000000080000",
      "type": "0x2",
      "transactionHash": "0xfd736e72ae9b06c4f22ecdde3ea2b443bd87c299172b0aace43e89d2e9c422b4",
      "transactionIndex": "0x20",
      "blockHash": "0x9a5a4baccd352d288bc2b16db8c109795cb1d9bad9f53e0d5898845e3edbfa97",
      "blockNumber": "0x82e4140",
      "gasUsed": "0xd431",
      "effectiveGasPrice": "0x1b3e8",
      "from": "0x8835669696fb92839ab198cd80ce9f0d35f45ad5",
      "to": "0x03e2c563cf77e3cdc0b7663cee117da14ea60848",
      "contractAddress": null,
      "l1BaseFeeScalar": "0x146b",
      "l1BlobBaseFee": "0x1",
      "l1BlobBaseFeeScalar": "0xf79c5",
      "l1Fee": "0x69100dc95",
      "l1GasPrice": "0x943e0343",
      "l1GasUsed": "0x879"
    },
    {
      "status": "0x1",
      "cumulativeGasUsed": "0xab9bc0",
      "logs": [
        {
          "address": "0x03e2c563cf77e3cdc0b7663cee117da14ea60848",
          "topics": [
            "0x5625f15df4cbadf2e6e3f80e2406aec5d99a432335ef0e9a1fba9e48b0558303",
            "0x0000000000000000000000000000000000000000000000000000000000000017"
          ],
          "data": "0x00000000000000000000000000000000000000000000000000000000000000010000000000000000000000000000000000000000000000000000000000000060000000000000000000000000000000000000000000000000000000000000000a00000000000000000000000000000000000000000000000000000000000000b9697066732f516d5548463232483332467a39314443567277745647675635507a686467434b3574685278433466714c524557482f30303030303030303030303030303030303030303030303030303030303030303030303030303030303030303030303030303030303030303030303030303233303030303030303030303030303030303030303030303030303030303030303030303030303030303030303030303030303030303030303030303030303030312e6a736f6e00000000000000",
          "blockHash": "0xe9852b2ef3501f50932bdf80c4b54732abaea30d8238f6f10b3bed761b612eeb",
          "blockNumber": "0x82e4141",
          "blockTimestamp": "0x68505c3b",
          "transactionHash": "0xe69763e7d2c5668084067060b453278022df96904d1a787c6ab14da08b6f6c44",
          "transactionIndex": "0x1c",
          "logIndex": "0x22",
          "removed": false
        }
      ],
      "logsBloom": "0x00000000000000000000000000000000000000000000000000000000000000000000000000000000000000000000000000001000000000000000001000008000000000000000000000000000000000000000000000000000000000000000000000040000000000000000000000000000000000000000000000000000000000000000000000000000001000000000000000000000000000000000000000000000000000000000000000000000000000000000000000000000000000000000001000000000000000000000004000000000000000000000000000000000000000000000000000000000000000000000000000000000010000000000000000080000",
      "type": "0x2",
      "transactionHash": "0xe69763e7d2c5668084067060b453278022df96904d1a787c6ab14da08b6f6c44",
      "transactionIndex": "0x1c",
      "blockHash": "0xe9852b2ef3501f50932bdf80c4b54732abaea30d8238f6f10b3bed761b612eeb",
      "blockNumber": "0x82e4141",
      "gasUsed": "0x3af7e",
      "effectiveGasPrice": "0x1b409",
      "from": "0x8835669696fb92839ab198cd80ce9f0d35f45ad5",
      "to": "0x03e2c563cf77e3cdc0b7663cee117da14ea60848",
      "contractAddress": null,
      "l1BaseFeeScalar": "0x146b",
      "l1BlobBaseFee": "0x1",
      "l1BlobBaseFeeScalar": "0xf79c5",
      "l1Fee": "0x736ef79c9",
      "l1GasPrice": "0x943e0343",
      "l1GasUsed": "0x94f"
    },
    {
      "status": "0x1",
      "cumulativeGasUsed": "0xb07ad5",
      "logs": [
        {
          "address": "0x03e2c563cf77e3cdc0b7663cee117da14ea60848",
          "topics": [
            "0x5625f15df4cbadf2e6e3f80e2406aec5d99a432335ef0e9a1fba9e48b0558303",
            "0x0000000000000000000000000000000000000000000000000000000000000017"
          ],
          "data": "0x00000000000000000000000000000000000000000000000000000000000000020000000000000000000000000000000000000000000000000000000000000060000000000000000000000000000000000000000000000000000000000000001400000000000000000000000000000000000000000000000000000000000000b9697066732f516d5548463232483332467a39314443567277745647675635507a686467434b3574685278433466714c524557482f30303030303030303030303030303030303030303030303030303030303030303030303030303030303030303030303030303030303030303030303030303233303030303030303030303030303030303030303030303030303030303030303030303030303030303030303030303030303030303030303030303030303030322e6a736f6e00000000000000",
          "blockHash": "0x3c49133602989df27d6e4d9a08d78accf4fff35f0fd70241894a5b2e07ca1407",
          "blockNumber": "0x82e4143",
          "blockTimestamp": "0x68505c3f",
          "transactionHash": "0x22d55e732d79e63a33a1ddeca4df68bba516a9adb5a2928bdf788f15b4b57036",
          "transactionIndex": "0x22",
          "logIndex": "0x2a",
          "removed": false
        }
      ],
      "logsBloom": "0x00000000000000000000000000000000000000000000000000000000000000000000000000000000000000000000000000001000000000000000001000008000000000000000000000000000000000000000000000000000000000000000000000040000000000000000000000000000000000000000000000000000000000000000000000000000001000000000000000000000000000000000000000000000000000000000000000000000000000000000000000000000000000000000001000000000000000000000004000000000000000000000000000000000000000000000000000000000000000000000000000000000010000000000000000080000",
      "type": "0x2",
      "transactionHash": "0x22d55e732d79e63a33a1ddeca4df68bba516a9adb5a2928bdf788f15b4b57036",
      "transactionIndex": "0x22",
      "blockHash": "0x3c49133602989df27d6e4d9a08d78accf4fff35f0fd70241894a5b2e07ca1407",
      "blockNumber": "0x82e4143",
      "gasUsed": "0x37660",
      "effectiveGasPrice": "0x1b33c",
      "from": "0x8835669696fb92839ab198cd80ce9f0d35f45ad5",
      "to": "0x03e2c563cf77e3cdc0b7663cee117da14ea60848",
      "contractAddress": null,
      "l1BaseFeeScalar": "0x146b",
      "l1BlobBaseFee": "0x1",
      "l1BlobBaseFeeScalar": "0xf79c5",
      "l1Fee": "0x811d363fc",
      "l1GasPrice": "0xa6bf5e40",
      "l1GasUsed": "0x942"
    },
    {
      "status": "0x1",
      "cumulativeGasUsed": "0xac574e",
      "logs": [
        {
          "address": "0x03e2c563cf77e3cdc0b7663cee117da14ea60848",
          "topics": [
            "0x5625f15df4cbadf2e6e3f80e2406aec5d99a432335ef0e9a1fba9e48b0558303",
            "0x0000000000000000000000000000000000000000000000000000000000000017"
          ],
          "data": "0x00000000000000000000000000000000000000000000000000000000000000030000000000000000000000000000000000000000000000000000000000000060000000000000000000000000000000000000000000000000000000000000001e00000000000000000000000000000000000000000000000000000000000000b9697066732f516d5548463232483332467a39314443567277745647675635507a686467434b3574685278433466714c524557482f30303030303030303030303030303030303030303030303030303030303030303030303030303030303030303030303030303030303030303030303030303233303030303030303030303030303030303030303030303030303030303030303030303030303030303030303030303030303030303030303030303030303030332e6a736f6e00000000000000",
          "blockHash": "0x0ae6897f23d39eab05280df27f35252b239d97d08907427e64695cc28b4dd928",
          "blockNumber": "0x82e4145",
          "blockTimestamp": "0x68505c43",
          "transactionHash": "0x9b348e39becda70b291b10c19838fe1685d59d826b45f70b5503d3128abc9d65",
          "transactionIndex": "0x19",
          "logIndex": "0x10",
          "removed": false
        }
      ],
      "logsBloom": "0x00000000000000000000000000000000000000000000000000000000000000000000000000000000000000000000000000001000000000000000001000008000000000000000000000000000000000000000000000000000000000000000000000040000000000000000000000000000000000000000000000000000000000000000000000000000001000000000000000000000000000000000000000000000000000000000000000000000000000000000000000000000000000000000001000000000000000000000004000000000000000000000000000000000000000000000000000000000000000000000000000000000010000000000000000080000",
      "type": "0x2",
      "transactionHash": "0x9b348e39becda70b291b10c19838fe1685d59d826b45f70b5503d3128abc9d65",
      "transactionIndex": "0x19",
      "blockHash": "0x0ae6897f23d39eab05280df27f35252b239d97d08907427e64695cc28b4dd928",
      "blockNumber": "0x82e4145",
      "gasUsed": "0x37660",
      "effectiveGasPrice": "0x1b2cd",
      "from": "0x8835669696fb92839ab198cd80ce9f0d35f45ad5",
      "to": "0x03e2c563cf77e3cdc0b7663cee117da14ea60848",
      "contractAddress": null,
      "l1BaseFeeScalar": "0x146b",
      "l1BlobBaseFee": "0x1",
      "l1BlobBaseFeeScalar": "0xf79c5",
      "l1Fee": "0x81d7db87d",
      "l1GasPrice": "0xa6bf5e40",
      "l1GasUsed": "0x94f"
    },
    {
      "status": "0x1",
      "cumulativeGasUsed": "0xe57ba6",
      "logs": [
        {
          "address": "0x03e2c563cf77e3cdc0b7663cee117da14ea60848",
          "topics": [
            "0x5625f15df4cbadf2e6e3f80e2406aec5d99a432335ef0e9a1fba9e48b0558303",
            "0x0000000000000000000000000000000000000000000000000000000000000017"
          ],
          "data": "0x00000000000000000000000000000000000000000000000000000000000000040000000000000000000000000000000000000000000000000000000000000060000000000000000000000000000000000000000000000000000000000000002800000000000000000000000000000000000000000000000000000000000000b9697066732f516d5548463232483332467a39314443567277745647675635507a686467434b3574685278433466714c524557482f30303030303030303030303030303030303030303030303030303030303030303030303030303030303030303030303030303030303030303030303030303233303030303030303030303030303030303030303030303030303030303030303030303030303030303030303030303030303030303030303030303030303030342e6a736f6e00000000000000",
          "blockHash": "0xb17a0f85231ade61c28fceca43ddaefccde15f0475a7b38a473b3f6417f0a836",
          "blockNumber": "0x82e4146",
          "blockTimestamp": "0x68505c45",
          "transactionHash": "0x3834b5a6ef390d00a05dca7e3dde221e2761b574913b7f12d7e4a2ea12cd85b0",
          "transactionIndex": "0x24",
          "logIndex": "0x81",
          "removed": false
        }
      ],
      "logsBloom": "0x00000000000000000000000000000000000000000000000000000000000000000000000000000000000000000000000000001000000000000000001000008000000000000000000000000000000000000000000000000000000000000000000000040000000000000000000000000000000000000000000000000000000000000000000000000000001000000000000000000000000000000000000000000000000000000000000000000000000000000000000000000000000000000000001000000000000000000000004000000000000000000000000000000000000000000000000000000000000000000000000000000000010000000000000000080000",
      "type": "0x2",
      "transactionHash": "0x3834b5a6ef390d00a05dca7e3dde221e2761b574913b7f12d7e4a2ea12cd85b0",
      "transactionIndex": "0x24",
      "blockHash": "0xb17a0f85231ade61c28fceca43ddaefccde15f0475a7b38a473b3f6417f0a836",
      "blockNumber": "0x82e4146",
      "gasUsed": "0x37660",
      "effectiveGasPrice": "0x1b278",
      "from": "0x8835669696fb92839ab198cd80ce9f0d35f45ad5",
      "to": "0x03e2c563cf77e3cdc0b7663cee117da14ea60848",
      "contractAddress": null,
      "l1BaseFeeScalar": "0x146b",
      "l1BlobBaseFee": "0x1",
      "l1BlobBaseFeeScalar": "0xf79c5",
      "l1Fee": "0x81d7db87d",
      "l1GasPrice": "0xa6bf5e40",
      "l1GasUsed": "0x94f"
    }
  ],
  "libraries": [],
  "pending": [],
  "returns": {},
  "timestamp": 1750097007903,
  "chain": 10,
  "commit": "9521aa9"
}