{
  "transactions": [
    {
      "hash": "0x7aa4eade28491f7078e7d82c746bf4f4d84b91f2c6dead8e5bf17c170b32b1f5",
      "transactionType": "CALL",
      "contractName": null,
      "contractAddress": "0xbc24012488bfcfe44875a139299595879c43c2cd",
      "function": "setBadgeMetadata(uint256,string)",
      "arguments": [
        "27",
        "ipfs/QmV788xYJFJ5ZTXKhE3ATNV3XhbvDg9k5SEbVNnnFdKvKe/00000000000000000000000000000000000000000000000000000000000000270000000000000000000000000000000000000000000000000000000000000000.json"
      ],
      "transaction": {
        "from": "0x8835669696fb92839ab198cd80ce9f0d35f45ad5",
        "to": "0xbc24012488bfcfe44875a139299595879c43c2cd",
        "gas": "0x41338",
        "value": "0x0",
        "input": "0xce64b45f000000000000000000000000000000000000000000000000000000000000001b000000000000000000000000000000000000000000000000000000000000004000000000000000000000000000000000000000000000000000000000000000b9697066732f516d5637383878594a464a355a54584b68453341544e5633586862764467396b35534562564e6e6e46644b764b652f30303030303030303030303030303030303030303030303030303030303030303030303030303030303030303030303030303030303030303030303030303237303030303030303030303030303030303030303030303030303030303030303030303030303030303030303030303030303030303030303030303030303030302e6a736f6e00000000000000",
        "nonce": "0x59d68",
        "chainId": "0xa"
      },
      "additionalContracts": [],
      "isFixedGasLimit": false
    },
    {
      "hash": "0xb0b96aca05fa565d19e29aa977e5ebec720aabb27fa6d0c47e2f8c4044984ff7",
      "transactionType": "CALL",
      "contractName": null,
      "contractAddress": "0xbc24012488bfcfe44875a139299595879c43c2cd",
      "function": "setBadgeTier(uint256,uint256,string,uint256)",
      "arguments": [
        "27",
        "1",
        "ipfs/QmV788xYJFJ5ZTXKhE3ATNV3XhbvDg9k5SEbVNnnFdKvKe/00000000000000000000000000000000000000000000000000000000000000270000000000000000000000000000000000000000000000000000000000000001.json",
        "150"
      ],
      "transaction": {
        "from": "0x8835669696fb92839ab198cd80ce9f0d35f45ad5",
        "to": "0xbc24012488bfcfe44875a139299595879c43c2cd",
        "gas": "0x51905",
        "value": "0x0",
        "input": "0xcf132d1c000000000000000000000000000000000000000000000000000000000000001b00000000000000000000000000000000000000000000000000000000000000010000000000000000000000000000000000000000000000000000000000000080000000000000000000000000000000000000000000000000000000000000009600000000000000000000000000000000000000000000000000000000000000b9697066732f516d5637383878594a464a355a54584b68453341544e5633586862764467396b35534562564e6e6e46644b764b652f30303030303030303030303030303030303030303030303030303030303030303030303030303030303030303030303030303030303030303030303030303237303030303030303030303030303030303030303030303030303030303030303030303030303030303030303030303030303030303030303030303030303030312e6a736f6e00000000000000",
        "nonce": "0x59d69",
        "chainId": "0xa"
      },
      "additionalContracts": [],
      "isFixedGasLimit": false
    }
  ],
  "receipts": [
    {
      "status": "0x1",
      "cumulativeGasUsed": "0x56c5ac",
      "logs": [
        {
          "address": "0xbc24012488bfcfe44875a139299595879c43c2cd",
          "topics": [
            "0x2e5977e12fac9a91696e22ba811f2893e11ad62f8aa53e99a628b031d18a379f",
            "0x000000000000000000000000000000000000000000000000000000000000001b"
          ],
          "data": "0x000000000000000000000000000000000000000000000000000000000000002000000000000000000000000000000000000000000000000000000000000000b9697066732f516d5637383878594a464a355a54584b68453341544e5633586862764467396b35534562564e6e6e46644b764b652f30303030303030303030303030303030303030303030303030303030303030303030303030303030303030303030303030303030303030303030303030303237303030303030303030303030303030303030303030303030303030303030303030303030303030303030303030303030303030303030303030303030303030302e6a736f6e00000000000000",
          "blockHash": "0x6298b486bea7451408db588479f7e4d8dd90fe245e5bc8efc3ee95aa89836ee2",
          "blockNumber": "0x886c70c",
          "blockTimestamp": "0x690167d1",
          "transactionHash": "0x7aa4eade28491f7078e7d82c746bf4f4d84b91f2c6dead8e5bf17c170b32b1f5",
          "transactionIndex": "0x21",
          "logIndex": "0x35",
          "removed": false
        }
      ],
      "logsBloom": "0x00000000040000000200000000000000000000000010000000000000000000000000000000000000000000000000000000000000000000000000000000000000000000000000000000000000000000000000000000000000000000000000000000000000000000000000000000000000000000000000000000000000000004000000000000000000000000000000000000000000000000000000000000000000000000000100000000000000000000000000000000008100000000000000000000000000000000000000000000000000000000000000000000004000400000000000000000000000000000000000000000000000000000000000000000000000",
      "type": "0x2",
      "transactionHash": "0x7aa4eade28491f7078e7d82c746bf4f4d84b91f2c6dead8e5bf17c170b32b1f5",
      "transactionIndex": "0x21",
      "blockHash": "0x6298b486bea7451408db588479f7e4d8dd90fe245e5bc8efc3ee95aa89836ee2",
      "blockNumber": "0x886c70c",
      "gasUsed": "0x2f346",
      "effectiveGasPrice": "0x19b",
      "from": "0x8835669696fb92839ab198cd80ce9f0d35f45ad5",
      "to": "0xbc24012488bfcfe44875a139299595879c43c2cd",
      "contractAddress": null,
      "l1BaseFeeScalar": "0x146b",
      "l1BlobBaseFee": "0x1",
      "l1BlobBaseFeeScalar": "0xf79c5",
      "l1Fee": "0x9dfe61f7",
      "l1GasPrice": "0x5c2888f",
      "l1GasUsed": "0x85e"
    },
    {
      "status": "0x1",
      "cumulativeGasUsed": "0x5a767c",
      "logs": [
        {
          "address": "0xbc24012488bfcfe44875a139299595879c43c2cd",
          "topics": [
            "0x5625f15df4cbadf2e6e3f80e2406aec5d99a432335ef0e9a1fba9e48b0558303",
            "0x000000000000000000000000000000000000000000000000000000000000001b"
          ],
          "data": "0x00000000000000000000000000000000000000000000000000000000000000010000000000000000000000000000000000000000000000000000000000000060000000000000000000000000000000000000000000000000000000000000009600000000000000000000000000000000000000000000000000000000000000b9697066732f516d5637383878594a464a355a54584b68453341544e5633586862764467396b35534562564e6e6e46644b764b652f30303030303030303030303030303030303030303030303030303030303030303030303030303030303030303030303030303030303030303030303030303237303030303030303030303030303030303030303030303030303030303030303030303030303030303030303030303030303030303030303030303030303030312e6a736f6e00000000000000",
          "blockHash": "0x2b005a4bdd73c3045a05ad0723b2045a7c66ce26dac3a97190858db1bddf5513",
          "blockNumber": "0x886c70c",
          "blockTimestamp": "0x690167d1",
          "transactionHash": "0xb0b96aca05fa565d19e29aa977e5ebec720aabb27fa6d0c47e2f8c4044984ff7",
          "transactionIndex": "0x22",
          "logIndex": "0x36",
          "removed": false
        }
      ],
      "logsBloom": "0x00000000040000000200000000000000000000000010000000000000000000000000000000000000000000000000000000000000000000000000000000000000000000000000000000000000000000000000000000000000000000000000000000040000000000000000000000000000000000000000000000000000000000000000000000000000000000000000000000000000000000000000000000000000000000000100000000000000000000000000000000008000000000000000000000000000000000000000004000000000000000000000000000004000000000000000000000000000000000000000000000000000010000000000000000000000",
      "type": "0x2",
      "transactionHash": "0xb0b96aca05fa565d19e29aa977e5ebec720aabb27fa6d0c47e2f8c4044984ff7",
      "transactionIndex": "0x22",
      "blockHash": "0x2b005a4bdd73c3045a05ad0723b2045a7c66ce26dac3a97190858db1bddf5513",
      "blockNumber": "0x886c70c",
      "gasUsed": "0x3b0d0",
      "effectiveGasPrice": "0x19b",
      "from": "0x8835669696fb92839ab198cd80ce9f0d35f45ad5",
      "to": "0xbc24012488bfcfe44875a139299595879c43c2cd",
      "contractAddress": null,
      "l1BaseFeeScalar": "0x146b",
      "l1BlobBaseFee": "0x1",
      "l1BlobBaseFeeScalar": "0xf79c5",
      "l1Fee": "0x9dfe61f7",
      "l1GasPrice": "0x5c2888f",
      "l1GasUsed": "0x927"
    }
  ],
  "libraries": [],
  "pending": [],
  "returns": {},
  "timestamp": 1761699793,
  "chain": 10,
  "commit": "962af24"
}