{
  "transactions": [
    {
      "hash": "0x372afec13f1544e68f178512cca86c42c0c149cbc4bfc5daf3e84c67d492053a",
      "transactionType": "CALL",
      "contractName": null,
      "contractAddress": "0x03e2c563cf77e3cdc0b7663cee117da14ea60848",
      "function": "updateBadgeMetadata(uint256,string)",
      "arguments": [
        "18",
        "ipfs/QmWeTXLReNDAMnaZZWXgchhdYTTfRCo87Xrs8GStLg9bek/00000000000000000000000000000000000000000000000000000000000000180000000000000000000000000000000000000000000000000000000000000000.json"
      ],
      "transaction": {
        "from": "0x8835669696fb92839ab198cd80ce9f0d35f45ad5",
        "to": "0x03e2c563cf77e3cdc0b7663cee117da14ea60848",
        "value": "0x0",
        "input": "0x47461b400000000000000000000000000000000000000000000000000000000000000012000000000000000000000000000000000000000000000000000000000000004000000000000000000000000000000000000000000000000000000000000000b9697066732f516d576554584c52654e44414d6e615a5a575867636868645954546652436f3837587273384753744c673962656b2f30303030303030303030303030303030303030303030303030303030303030303030303030303030303030303030303030303030303030303030303030303138303030303030303030303030303030303030303030303030303030303030303030303030303030303030303030303030303030303030303030303030303030302e6a736f6e00000000000000",
        "nonce": "0x276e0",
        "chainId": "0xa"
      },
      "additionalContracts": [],
      "isFixedGasLimit": false
    },
    {
      "hash": "0x31ad7f1430ce5b5cfd3cfdb204c9b816dbf2bd9dbaf54bbfb0ca77f8453221bd",
      "transactionType": "CALL",
      "contractName": null,
      "contractAddress": "0x03e2c563cf77e3cdc0b7663cee117da14ea60848",
      "function": "updateBadgeTierMetadata(uint256,uint256,string)",
      "arguments": [
        "18",
        "1",
        "ipfs/QmWeTXLReNDAMnaZZWXgchhdYTTfRCo87Xrs8GStLg9bek/00000000000000000000000000000000000000000000000000000000000000180000000000000000000000000000000000000000000000000000000000000001.json"
      ],
      "transaction": {
        "from": "0x8835669696fb92839ab198cd80ce9f0d35f45ad5",
        "to": "0x03e2c563cf77e3cdc0b7663cee117da14ea60848",
        "value": "0x0",
        "input": "0xc43e4f4c00000000000000000000000000000000000000000000000000000000000000120000000000000000000000000000000000000000000000000000000000000001000000000000000000000000000000000000000000000000000000000000006000000000000000000000000000000000000000000000000000000000000000b9697066732f516d576554584c52654e44414d6e615a5a575867636868645954546652436f3837587273384753744c673962656b2f30303030303030303030303030303030303030303030303030303030303030303030303030303030303030303030303030303030303030303030303030303138303030303030303030303030303030303030303030303030303030303030303030303030303030303030303030303030303030303030303030303030303030312e6a736f6e00000000000000",
        "nonce": "0x276e1",
        "chainId": "0xa"
      },
      "additionalContracts": [],
      "isFixedGasLimit": false
    },
    {
      "hash": "0x4d3a460265110b64416b12d85a9a166982862196fbf040f788af808e048ae45f",
      "transactionType": "CALL",
      "contractName": null,
      "contractAddress": "0x03e2c563cf77e3cdc0b7663cee117da14ea60848",
      "function": "updateBadgeTierMetadata(uint256,uint256,string)",
      "arguments": [
        "18",
        "2",
        "ipfs/QmWeTXLReNDAMnaZZWXgchhdYTTfRCo87Xrs8GStLg9bek/00000000000000000000000000000000000000000000000000000000000000180000000000000000000000000000000000000000000000000000000000000002.json"
      ],
      "transaction": {
        "from": "0x8835669696fb92839ab198cd80ce9f0d35f45ad5",
        "to": "0x03e2c563cf77e3cdc0b7663cee117da14ea60848",
        "value": "0x0",
        "input": "0xc43e4f4c00000000000000000000000000000000000000000000000000000000000000120000000000000000000000000000000000000000000000000000000000000002000000000000000000000000000000000000000000000000000000000000006000000000000000000000000000000000000000000000000000000000000000b9697066732f516d576554584c52654e44414d6e615a5a575867636868645954546652436f3837587273384753744c673962656b2f30303030303030303030303030303030303030303030303030303030303030303030303030303030303030303030303030303030303030303030303030303138303030303030303030303030303030303030303030303030303030303030303030303030303030303030303030303030303030303030303030303030303030322e6a736f6e00000000000000",
        "nonce": "0x276e2",
        "chainId": "0xa"
      },
      "additionalContracts": [],
      "isFixedGasLimit": false
    },
    {
      "hash": "0xcd9a8731bd74f25c4447d89da48b1ba958b9da8bf7f75d48b7248177eb8b3aaf",
      "transactionType": "CALL",
      "contractName": null,
      "contractAddress": "0x03e2c563cf77e3cdc0b7663cee117da14ea60848",
      "function": "updateBadgeTierMetadata(uint256,uint256,string)",
      "arguments": [
        "18",
        "3",
        "ipfs/QmWeTXLReNDAMnaZZWXgchhdYTTfRCo87Xrs8GStLg9bek/00000000000000000000000000000000000000000000000000000000000000180000000000000000000000000000000000000000000000000000000000000003.json"
      ],
      "transaction": {
        "from": "0x8835669696fb92839ab198cd80ce9f0d35f45ad5",
        "to": "0x03e2c563cf77e3cdc0b7663cee117da14ea60848",
        "value": "0x0",
        "input": "0xc43e4f4c00000000000000000000000000000000000000000000000000000000000000120000000000000000000000000000000000000000000000000000000000000003000000000000000000000000000000000000000000000000000000000000006000000000000000000000000000000000000000000000000000000000000000b9697066732f516d576554584c52654e44414d6e615a5a575867636868645954546652436f3837587273384753744c673962656b2f30303030303030303030303030303030303030303030303030303030303030303030303030303030303030303030303030303030303030303030303030303138303030303030303030303030303030303030303030303030303030303030303030303030303030303030303030303030303030303030303030303030303030332e6a736f6e00000000000000",
        "nonce": "0x276e3",
        "chainId": "0xa"
      },
      "additionalContracts": [],
      "isFixedGasLimit": false
    },
    {
      "hash": "0xaec8064c5ae7d9d66546138a98471ee7b0d07ffe47576eff6c8504525d02933f",
      "transactionType": "CALL",
      "contractName": null,
      "contractAddress": "0x03e2c563cf77e3cdc0b7663cee117da14ea60848",
      "function": "setBadgeTier(uint256,uint256,string,uint256)",
      "arguments": [
        "18",
        "4",
        "ipfs/QmWeTXLReNDAMnaZZWXgchhdYTTfRCo87Xrs8GStLg9bek/00000000000000000000000000000000000000000000000000000000000000180000000000000000000000000000000000000000000000000000000000000004.json",
        "80"
      ],
      "transaction": {
        "from": "0x8835669696fb92839ab198cd80ce9f0d35f45ad5",
        "to": "0x03e2c563cf77e3cdc0b7663cee117da14ea60848",
        "value": "0x0",
        "input": "0xcf132d1c000000000000000000000000000000000000000000000000000000000000001200000000000000000000000000000000000000000000000000000000000000040000000000000000000000000000000000000000000000000000000000000080000000000000000000000000000000000000000000000000000000000000005000000000000000000000000000000000000000000000000000000000000000b9697066732f516d576554584c52654e44414d6e615a5a575867636868645954546652436f3837587273384753744c673962656b2f30303030303030303030303030303030303030303030303030303030303030303030303030303030303030303030303030303030303030303030303030303138303030303030303030303030303030303030303030303030303030303030303030303030303030303030303030303030303030303030303030303030303030342e6a736f6e00000000000000",
        "nonce": "0x276e4",
        "chainId": "0xa"
      },
      "additionalContracts": [],
      "isFixedGasLimit": false
    },
    {
      "hash": "0x5a131575be2e7300e1e65d87207bc88e6f33d2575c254a32de5d9f7f13d8a92a",
      "transactionType": "CALL",
      "contractName": null,
      "contractAddress": "0x03e2c563cf77e3cdc0b7663cee117da14ea60848",
      "function": "setBadgeTier(uint256,uint256,string,uint256)",
      "arguments": [
        "18",
        "5",
        "ipfs/QmWeTXLReNDAMnaZZWXgchhdYTTfRCo87Xrs8GStLg9bek/00000000000000000000000000000000000000000000000000000000000000180000000000000000000000000000000000000000000000000000000000000005.json",
        "100"
      ],
      "transaction": {
        "from": "0x8835669696fb92839ab198cd80ce9f0d35f45ad5",
        "to": "0x03e2c563cf77e3cdc0b7663cee117da14ea60848",
        "value": "0x0",
        "input": "0xcf132d1c000000000000000000000000000000000000000000000000000000000000001200000000000000000000000000000000000000000000000000000000000000050000000000000000000000000000000000000000000000000000000000000080000000000000000000000000000000000000000000000000000000000000006400000000000000000000000000000000000000000000000000000000000000b9697066732f516d576554584c52654e44414d6e615a5a575867636868645954546652436f3837587273384753744c673962656b2f30303030303030303030303030303030303030303030303030303030303030303030303030303030303030303030303030303030303030303030303030303138303030303030303030303030303030303030303030303030303030303030303030303030303030303030303030303030303030303030303030303030303030352e6a736f6e00000000000000",
        "nonce": "0x276e5",
        "chainId": "0xa"
      },
      "additionalContracts": [],
      "isFixedGasLimit": false
    }
  ],
  "receipts": [
    {
      "status": "0x1",
      "cumulativeGasUsed": "0x545ea0",
      "logs": [
        {
          "address": "0x03e2c563cf77e3cdc0b7663cee117da14ea60848",
          "topics": [
            "0xb810609e93b7325976c078b96d9c92d3160d0d165073b8c9a8a6a4d257fd0477",
            "0x0000000000000000000000000000000000000000000000000000000000000012"
          ],
          "data": "0x000000000000000000000000000000000000000000000000000000000000002000000000000000000000000000000000000000000000000000000000000000b9697066732f516d576554584c52654e44414d6e615a5a575867636868645954546652436f3837587273384753744c673962656b2f30303030303030303030303030303030303030303030303030303030303030303030303030303030303030303030303030303030303030303030303030303138303030303030303030303030303030303030303030303030303030303030303030303030303030303030303030303030303030303030303030303030303030302e6a736f6e00000000000000",
          "blockHash": "0x3a90f9f24fa764cfed4c47fa8784126ef743e4a86a0cb4bcedaab79e077e44a4",
          "blockNumber": "0x8174432",
          "transactionHash": "0x372afec13f1544e68f178512cca86c42c0c149cbc4bfc5daf3e84c67d492053a",
          "transactionIndex": "0xf",
          "logIndex": "0x44",
          "removed": false
        }
      ],
      "logsBloom": "0x00000000000000000000000000000000000000000000000000000000000000040000000000000000000000000000000000000000000000000000000000008000000000000000000000000000000000000000000000000000000000400000000000000000000000000000000000000000000000000000000000000000000000000000000000000000001000000000040000000000000000000000000000000000000000000000000000000000000000000000000000000040000000000000001000000000000000000400000000000000000000000000000000000020000000000000000000000000000000000000000000000000000000000000000000000000",
      "type": "0x2",
      "transactionHash": "0x372afec13f1544e68f178512cca86c42c0c149cbc4bfc5daf3e84c67d492053a",
      "transactionIndex": "0xf",
      "blockHash": "0x3a90f9f24fa764cfed4c47fa8784126ef743e4a86a0cb4bcedaab79e077e44a4",
      "blockNumber": "0x8174432",
      "gasUsed": "0xd431",
      "effectiveGasPrice": "0x33260",
      "from": "0x8835669696fb92839ab198cd80ce9f0d35f45ad5",
      "to": "0x03e2c563cf77e3cdc0b7663cee117da14ea60848",
      "contractAddress": null,
      "l1BaseFeeScalar": "0x146b",
      "l1BlobBaseFee": "0x1",
      "l1BlobBaseFeeScalar": "0xf79c5",
      "l1Fee": "0x8f3d26aab",
      "l1GasPrice": "0xca1bbca8",
      "l1GasUsed": "0x879",
      "operatorFeeConstant": "0x0",
      "operatorFeeScalar": "0x0"
    },
    {
      "status": "0x1",
      "cumulativeGasUsed": "0xcef243",
      "logs": [
        {
          "address": "0x03e2c563cf77e3cdc0b7663cee117da14ea60848",
          "topics": [
            "0x3e442b5d5a6ecd8c0a86017cabd5ee0efbf32debbee58f9cea68f1b8489e4193",
            "0x0000000000000000000000000000000000000000000000000000000000000012"
          ],
          "data": "0x0000000000000000000000000000000000000000000000000000000000000001000000000000000000000000000000000000000000000000000000000000004000000000000000000000000000000000000000000000000000000000000000b9697066732f516d576554584c52654e44414d6e615a5a575867636868645954546652436f3837587273384753744c673962656b2f30303030303030303030303030303030303030303030303030303030303030303030303030303030303030303030303030303030303030303030303030303138303030303030303030303030303030303030303030303030303030303030303030303030303030303030303030303030303030303030303030303030303030312e6a736f6e00000000000000",
          "blockHash": "0xf3b018b15163006da90204c2ec535c455475e6c53d3db17daceff0c917156e5a",
          "blockNumber": "0x8174435",
          "transactionHash": "0x31ad7f1430ce5b5cfd3cfdb204c9b816dbf2bd9dbaf54bbfb0ca77f8453221bd",
          "transactionIndex": "0x21",
          "logIndex": "0x94",
          "removed": false
        }
      ],
      "logsBloom": "0x00000000000000000000000000000000000000000000000000000000000000000000000000000000000000000000000000000000000000000000000000008000000000000000000000000000000000000000000000000000000000000000000000000010000000000000000000000000000000000000000000000000000000000000000000000000001000000000040000000000000000000000000000000000000000200000000000000000000000000000000000000040000000000000001000000000000000000400000000000000000000000000000200000000000000000000000000000000000000000000000000000000000000000000000000000000",
      "type": "0x2",
      "transactionHash": "0x31ad7f1430ce5b5cfd3cfdb204c9b816dbf2bd9dbaf54bbfb0ca77f8453221bd",
      "transactionIndex": "0x21",
      "blockHash": "0xf3b018b15163006da90204c2ec535c455475e6c53d3db17daceff0c917156e5a",
      "blockNumber": "0x8174435",
      "gasUsed": "0xe0cc",
      "effectiveGasPrice": "0x333c6",
      "from": "0x8835669696fb92839ab198cd80ce9f0d35f45ad5",
      "to": "0x03e2c563cf77e3cdc0b7663cee117da14ea60848",
      "contractAddress": null,
      "l1BaseFeeScalar": "0x146b",
      "l1BlobBaseFee": "0x1",
      "l1BlobBaseFeeScalar": "0xf79c5",
      "l1Fee": "0x9813696c1",
      "l1GasPrice": "0xca1bbca8",
      "l1GasUsed": "0x8ff",
      "operatorFeeConstant": "0x0",
      "operatorFeeScalar": "0x0"
    },
    {
      "status": "0x1",
      "cumulativeGasUsed": "0x730201",
      "logs": [
        {
          "address": "0x03e2c563cf77e3cdc0b7663cee117da14ea60848",
          "topics": [
            "0x3e442b5d5a6ecd8c0a86017cabd5ee0efbf32debbee58f9cea68f1b8489e4193",
            "0x0000000000000000000000000000000000000000000000000000000000000012"
          ],
          "data": "0x0000000000000000000000000000000000000000000000000000000000000002000000000000000000000000000000000000000000000000000000000000004000000000000000000000000000000000000000000000000000000000000000b9697066732f516d576554584c52654e44414d6e615a5a575867636868645954546652436f3837587273384753744c673962656b2f30303030303030303030303030303030303030303030303030303030303030303030303030303030303030303030303030303030303030303030303030303138303030303030303030303030303030303030303030303030303030303030303030303030303030303030303030303030303030303030303030303030303030322e6a736f6e00000000000000",
          "blockHash": "0xb3195a5f789695bfcd9781fe0356a9ce240adce8f3370cf585d54a185d4e32e6",
          "blockNumber": "0x8174437",
          "transactionHash": "0x4d3a460265110b64416b12d85a9a166982862196fbf040f788af808e048ae45f",
          "transactionIndex": "0xf",
          "logIndex": "0xe6",
          "removed": false
        }
      ],
      "logsBloom": "0x00000000000000000000000000000000000000000000000000000000000000000000000000000000000000000000000000000000000000000000000000008000000000000000000000000000000000000000000000000000000000000000000000000010000000000000000000000000000000000000000000000000000000000000000000000000001000000000040000000000000000000000000000000000000000200000000000000000000000000000000000000040000000000000001000000000000000000400000000000000000000000000000200000000000000000000000000000000000000000000000000000000000000000000000000000000",
      "type": "0x2",
      "transactionHash": "0x4d3a460265110b64416b12d85a9a166982862196fbf040f788af808e048ae45f",
      "transactionIndex": "0xf",
      "blockHash": "0xb3195a5f789695bfcd9781fe0356a9ce240adce8f3370cf585d54a185d4e32e6",
      "blockNumber": "0x8174437",
      "gasUsed": "0xe0cc",
      "effectiveGasPrice": "0x334a6",
      "from": "0x8835669696fb92839ab198cd80ce9f0d35f45ad5",
      "to": "0x03e2c563cf77e3cdc0b7663cee117da14ea60848",
      "contractAddress": null,
      "l1BaseFeeScalar": "0x146b",
      "l1BlobBaseFee": "0x1",
      "l1BlobBaseFeeScalar": "0xf79c5",
      "l1Fee": "0x98f5a34c3",
      "l1GasPrice": "0xca1bbca8",
      "l1GasUsed": "0x90c",
      "operatorFeeConstant": "0x0",
      "operatorFeeScalar": "0x0"
    },
    {
      "status": "0x1",
      "cumulativeGasUsed": "0xf0e755",
      "logs": [
        {
          "address": "0x03e2c563cf77e3cdc0b7663cee117da14ea60848",
          "topics": [
            "0x3e442b5d5a6ecd8c0a86017cabd5ee0efbf32debbee58f9cea68f1b8489e4193",
            "0x0000000000000000000000000000000000000000000000000000000000000012"
          ],
          "data": "0x0000000000000000000000000000000000000000000000000000000000000003000000000000000000000000000000000000000000000000000000000000004000000000000000000000000000000000000000000000000000000000000000b9697066732f516d576554584c52654e44414d6e615a5a575867636868645954546652436f3837587273384753744c673962656b2f30303030303030303030303030303030303030303030303030303030303030303030303030303030303030303030303030303030303030303030303030303138303030303030303030303030303030303030303030303030303030303030303030303030303030303030303030303030303030303030303030303030303030332e6a736f6e00000000000000",
          "blockHash": "0x1edc400803445fcdc4f294e6dc3317d10c23b485f498f1dfb872e30c76fe5c9b",
          "blockNumber": "0x8174439",
          "transactionHash": "0xcd9a8731bd74f25c4447d89da48b1ba958b9da8bf7f75d48b7248177eb8b3aaf",
          "transactionIndex": "0x13",
          "logIndex": "0x86",
          "removed": false
        }
      ],
      "logsBloom": "0x00000000000000000000000000000000000000000000000000000000000000000000000000000000000000000000000000000000000000000000000000008000000000000000000000000000000000000000000000000000000000000000000000000010000000000000000000000000000000000000000000000000000000000000000000000000001000000000040000000000000000000000000000000000000000200000000000000000000000000000000000000040000000000000001000000000000000000400000000000000000000000000000200000000000000000000000000000000000000000000000000000000000000000000000000000000",
      "type": "0x2",
      "transactionHash": "0xcd9a8731bd74f25c4447d89da48b1ba958b9da8bf7f75d48b7248177eb8b3aaf",
      "transactionIndex": "0x13",
      "blockHash": "0x1edc400803445fcdc4f294e6dc3317d10c23b485f498f1dfb872e30c76fe5c9b",
      "blockNumber": "0x8174439",
      "gasUsed": "0xe0cc",
      "effectiveGasPrice": "0x33787",
      "from": "0x8835669696fb92839ab198cd80ce9f0d35f45ad5",
      "to": "0x03e2c563cf77e3cdc0b7663cee117da14ea60848",
      "contractAddress": null,
      "l1BaseFeeScalar": "0x146b",
      "l1BlobBaseFee": "0x1",
      "l1BlobBaseFeeScalar": "0xf79c5",
      "l1Fee": "0xa1b1e9aaa",
      "l1GasPrice": "0xd5a691dd",
      "l1GasUsed": "0x90c",
      "operatorFeeConstant": "0x0",
      "operatorFeeScalar": "0x0"
    },
    {
      "status": "0x1",
      "cumulativeGasUsed": "0x2242fcc",
      "logs": [
        {
          "address": "0x03e2c563cf77e3cdc0b7663cee117da14ea60848",
          "topics": [
            "0x5625f15df4cbadf2e6e3f80e2406aec5d99a432335ef0e9a1fba9e48b0558303",
            "0x0000000000000000000000000000000000000000000000000000000000000012"
          ],
          "data": "0x00000000000000000000000000000000000000000000000000000000000000040000000000000000000000000000000000000000000000000000000000000060000000000000000000000000000000000000000000000000000000000000005000000000000000000000000000000000000000000000000000000000000000b9697066732f516d576554584c52654e44414d6e615a5a575867636868645954546652436f3837587273384753744c673962656b2f30303030303030303030303030303030303030303030303030303030303030303030303030303030303030303030303030303030303030303030303030303138303030303030303030303030303030303030303030303030303030303030303030303030303030303030303030303030303030303030303030303030303030342e6a736f6e00000000000000",
          "blockHash": "0xdacd352f377daccf6ee29bdb6068ef087ea07b4ba18c57d170acf8b48226be79",
          "blockNumber": "0x817443b",
          "transactionHash": "0xaec8064c5ae7d9d66546138a98471ee7b0d07ffe47576eff6c8504525d02933f",
          "transactionIndex": "0xd",
          "logIndex": "0xad",
          "removed": false
        }
      ],
      "logsBloom": "0x00000000000000000000000000000000000000000000000000000000000000000000000000000000000000000000000000000000000000000000000000008000000000000000000000000000000000000000000000000000000000000000000000040000000000000000000000000000000000000000000000000000000000000000000000000000001000000000040000000000000000000000000000000000000000000000000000000000000000000000000000000040000000000000001000000000000000000400004000000000000000000000000000000000000000000000000000000000000000000000000000000000010000000000000000000000",
      "type": "0x2",
      "transactionHash": "0xaec8064c5ae7d9d66546138a98471ee7b0d07ffe47576eff6c8504525d02933f",
      "transactionIndex": "0xd",
      "blockHash": "0xdacd352f377daccf6ee29bdb6068ef087ea07b4ba18c57d170acf8b48226be79",
      "blockNumber": "0x817443b",
      "gasUsed": "0x37660",
      "effectiveGasPrice": "0x33666",
      "from": "0x8835669696fb92839ab198cd80ce9f0d35f45ad5",
      "to": "0x03e2c563cf77e3cdc0b7663cee117da14ea60848",
      "contractAddress": null,
      "l1BaseFeeScalar": "0x146b",
      "l1BlobBaseFee": "0x1",
      "l1BlobBaseFeeScalar": "0xf79c5",
      "l1Fee": "0xa65da4384",
      "l1GasPrice": "0xd5a691dd",
      "l1GasUsed": "0x94f",
      "operatorFeeConstant": "0x0",
      "operatorFeeScalar": "0x0"
    },
    {
      "status": "0x1",
      "cumulativeGasUsed": "0x48790d",
      "logs": [
        {
          "address": "0x03e2c563cf77e3cdc0b7663cee117da14ea60848",
          "topics": [
            "0x5625f15df4cbadf2e6e3f80e2406aec5d99a432335ef0e9a1fba9e48b0558303",
            "0x0000000000000000000000000000000000000000000000000000000000000012"
          ],
          "data": "0x00000000000000000000000000000000000000000000000000000000000000050000000000000000000000000000000000000000000000000000000000000060000000000000000000000000000000000000000000000000000000000000006400000000000000000000000000000000000000000000000000000000000000b9697066732f516d576554584c52654e44414d6e615a5a575867636868645954546652436f3837587273384753744c673962656b2f30303030303030303030303030303030303030303030303030303030303030303030303030303030303030303030303030303030303030303030303030303138303030303030303030303030303030303030303030303030303030303030303030303030303030303030303030303030303030303030303030303030303030352e6a736f6e00000000000000",
          "blockHash": "0x1b56abaa7a2c93861d1083ac16cc386b920abaa2a46ddfe6b8ee26877513e3d5",
          "blockNumber": "0x817443d",
          "transactionHash": "0x5a131575be2e7300e1e65d87207bc88e6f33d2575c254a32de5d9f7f13d8a92a",
          "transactionIndex": "0xc",
          "logIndex": "0x19",
          "removed": false
        }
      ],
      "logsBloom": "0x00000000000000000000000000000000000000000000000000000000000000000000000000000000000000000000000000000000000000000000000000008000000000000000000000000000000000000000000000000000000000000000000000040000000000000000000000000000000000000000000000000000000000000000000000000000001000000000040000000000000000000000000000000000000000000000000000000000000000000000000000000040000000000000001000000000000000000400004000000000000000000000000000000000000000000000000000000000000000000000000000000000010000000000000000000000",
      "type": "0x2",
      "transactionHash": "0x5a131575be2e7300e1e65d87207bc88e6f33d2575c254a32de5d9f7f13d8a92a",
      "transactionIndex": "0xc",
      "blockHash": "0x1b56abaa7a2c93861d1083ac16cc386b920abaa2a46ddfe6b8ee26877513e3d5",
      "blockNumber": "0x817443d",
      "gasUsed": "0x37660",
      "effectiveGasPrice": "0x33cca",
      "from": "0x8835669696fb92839ab198cd80ce9f0d35f45ad5",
      "to": "0x03e2c563cf77e3cdc0b7663cee117da14ea60848",
      "contractAddress": null,
      "l1BaseFeeScalar": "0x146b",
      "l1BlobBaseFee": "0x1",
      "l1BlobBaseFeeScalar": "0xf79c5",
      "l1Fee": "0xa65da4384",
      "l1GasPrice": "0xd5a691dd",
      "l1GasUsed": "0x94f",
      "operatorFeeConstant": "0x0",
      "operatorFeeScalar": "0x0"
    }
  ],
  "libraries": [],
  "pending": [],
  "returns": {},
  "timestamp": 1747083827,
  "chain": 10,
  "commit": "96a3219"
}