{
  "transactions": [
    {
      "hash": "0xe541cb443634fe9afd8d151443b66849b10019f5bd60f063616470349cc5efbc",
      "transactionType": "CALL",
      "contractName": null,
      "contractAddress": "0x03e2c563cf77e3cdc0b7663cee117da14ea60848",
      "function": "setBadgeMetadata(uint256,string)",
      "arguments": [
        "25",
        "ipfs/QmaPWyPXvBXHjd19jDJE5NWKdCLJxmqXE6rizoegfUzv14/00000000000000000000000000000000000000000000000000000000000000250000000000000000000000000000000000000000000000000000000000000000.json"
      ],
      "transaction": {
        "from": "0x8835669696fb92839ab198cd80ce9f0d35f45ad5",
        "to": "0x03e2c563cf77e3cdc0b7663cee117da14ea60848",
        "gas": "0x41165",
        "value": "0x0",
        "input": "0xce64b45f0000000000000000000000000000000000000000000000000000000000000019000000000000000000000000000000000000000000000000000000000000004000000000000000000000000000000000000000000000000000000000000000b9697066732f516d615057795058764258486a6431396a444a45354e574b64434c4a786d7158453672697a6f656766557a7631342f30303030303030303030303030303030303030303030303030303030303030303030303030303030303030303030303030303030303030303030303030303235303030303030303030303030303030303030303030303030303030303030303030303030303030303030303030303030303030303030303030303030303030302e6a736f6e00000000000000",
        "nonce": "0x50505",
        "chainId": "0xa"
      },
      "additionalContracts": [],
      "isFixedGasLimit": false
    },
    {
      "hash": "0x2f79311425dfd9aa0496666fef52cad73da817e2bd8427194a04e1d15d057afd",
      "transactionType": "CALL",
      "contractName": null,
      "contractAddress": "0x03e2c563cf77e3cdc0b7663cee117da14ea60848",
      "function": "setBadgeTier(uint256,uint256,string,uint256)",
      "arguments": [
        "25",
        "1",
        "ipfs/QmaPWyPXvBXHjd19jDJE5NWKdCLJxmqXE6rizoegfUzv14/00000000000000000000000000000000000000000000000000000000000000250000000000000000000000000000000000000000000000000000000000000001.json",
        "10"
      ],
      "transaction": {
        "from": "0x8835669696fb92839ab198cd80ce9f0d35f45ad5",
        "to": "0x03e2c563cf77e3cdc0b7663cee117da14ea60848",
        "gas": "0x51731",
        "value": "0x0",
        "input": "0xcf132d1c000000000000000000000000000000000000000000000000000000000000001900000000000000000000000000000000000000000000000000000000000000010000000000000000000000000000000000000000000000000000000000000080000000000000000000000000000000000000000000000000000000000000000a00000000000000000000000000000000000000000000000000000000000000b9697066732f516d615057795058764258486a6431396a444a45354e574b64434c4a786d7158453672697a6f656766557a7631342f30303030303030303030303030303030303030303030303030303030303030303030303030303030303030303030303030303030303030303030303030303235303030303030303030303030303030303030303030303030303030303030303030303030303030303030303030303030303030303030303030303030303030312e6a736f6e00000000000000",
        "nonce": "0x50506",
        "chainId": "0xa"
      },
      "additionalContracts": [],
      "isFixedGasLimit": false
    },
    {
      "hash": "0x7b4471f3b2d177892985a2a82c5e81d6511144a535bcbc4bb86887566d27a0be",
      "transactionType": "CALL",
      "contractName": null,
      "contractAddress": "0x03e2c563cf77e3cdc0b7663cee117da14ea60848",
      "function": "setBadgeTier(uint256,uint256,string,uint256)",
      "arguments": [
        "25",
        "2",
        "ipfs/QmaPWyPXvBXHjd19jDJE5NWKdCLJxmqXE6rizoegfUzv14/00000000000000000000000000000000000000000000000000000000000000250000000000000000000000000000000000000000000000000000000000000002.json",
        "20"
      ],
      "transaction": {
        "from": "0x8835669696fb92839ab198cd80ce9f0d35f45ad5",
        "to": "0x03e2c563cf77e3cdc0b7663cee117da14ea60848",
        "gas": "0x4c84e",
        "value": "0x0",
        "input": "0xcf132d1c000000000000000000000000000000000000000000000000000000000000001900000000000000000000000000000000000000000000000000000000000000020000000000000000000000000000000000000000000000000000000000000080000000000000000000000000000000000000000000000000000000000000001400000000000000000000000000000000000000000000000000000000000000b9697066732f516d615057795058764258486a6431396a444a45354e574b64434c4a786d7158453672697a6f656766557a7631342f30303030303030303030303030303030303030303030303030303030303030303030303030303030303030303030303030303030303030303030303030303235303030303030303030303030303030303030303030303030303030303030303030303030303030303030303030303030303030303030303030303030303030322e6a736f6e00000000000000",
        "nonce": "0x50507",
        "chainId": "0xa"
      },
      "additionalContracts": [],
      "isFixedGasLimit": false
    },
    {
      "hash": "0x6f59793ab09ea8c231df5dec415474d7a757a2ae4de178016f105040228eee9c",
      "transactionType": "CALL",
      "contractName": null,
      "contractAddress": "0x03e2c563cf77e3cdc0b7663cee117da14ea60848",
      "function": "setBadgeTier(uint256,uint256,string,uint256)",
      "arguments": [
        "25",
        "3",
        "ipfs/QmaPWyPXvBXHjd19jDJE5NWKdCLJxmqXE6rizoegfUzv14/00000000000000000000000000000000000000000000000000000000000000250000000000000000000000000000000000000000000000000000000000000003.json",
        "30"
      ],
      "transaction": {
        "from": "0x8835669696fb92839ab198cd80ce9f0d35f45ad5",
        "to": "0x03e2c563cf77e3cdc0b7663cee117da14ea60848",
        "gas": "0x4c84e",
        "value": "0x0",
        "input": "0xcf132d1c000000000000000000000000000000000000000000000000000000000000001900000000000000000000000000000000000000000000000000000000000000030000000000000000000000000000000000000000000000000000000000000080000000000000000000000000000000000000000000000000000000000000001e00000000000000000000000000000000000000000000000000000000000000b9697066732f516d615057795058764258486a6431396a444a45354e574b64434c4a786d7158453672697a6f656766557a7631342f30303030303030303030303030303030303030303030303030303030303030303030303030303030303030303030303030303030303030303030303030303235303030303030303030303030303030303030303030303030303030303030303030303030303030303030303030303030303030303030303030303030303030332e6a736f6e00000000000000",
        "nonce": "0x50508",
        "chainId": "0xa"
      },
      "additionalContracts": [],
      "isFixedGasLimit": false
    },
    {
      "hash": "0x622e6e2fb71bd3c11a83c81305589c7edd90ce82416ea370e9c245b2d2eb037f",
      "transactionType": "CALL",
      "contractName": null,
      "contractAddress": "0x03e2c563cf77e3cdc0b7663cee117da14ea60848",
      "function": "setBadgeTier(uint256,uint256,string,uint256)",
      "arguments": [
        "25",
        "4",
        "ipfs/QmaPWyPXvBXHjd19jDJE5NWKdCLJxmqXE6rizoegfUzv14/00000000000000000000000000000000000000000000000000000000000000250000000000000000000000000000000000000000000000000000000000000004.json",
        "40"
      ],
      "transaction": {
        "from": "0x8835669696fb92839ab198cd80ce9f0d35f45ad5",
        "to": "0x03e2c563cf77e3cdc0b7663cee117da14ea60848",
        "gas": "0x4c84e",
        "value": "0x0",
        "input": "0xcf132d1c000000000000000000000000000000000000000000000000000000000000001900000000000000000000000000000000000000000000000000000000000000040000000000000000000000000000000000000000000000000000000000000080000000000000000000000000000000000000000000000000000000000000002800000000000000000000000000000000000000000000000000000000000000b9697066732f516d615057795058764258486a6431396a444a45354e574b64434c4a786d7158453672697a6f656766557a7631342f30303030303030303030303030303030303030303030303030303030303030303030303030303030303030303030303030303030303030303030303030303235303030303030303030303030303030303030303030303030303030303030303030303030303030303030303030303030303030303030303030303030303030342e6a736f6e00000000000000",
        "nonce": "0x50509",
        "chainId": "0xa"
      },
      "additionalContracts": [],
      "isFixedGasLimit": false
    }
  ],
  "receipts": [
    {
      "status": "0x1",
      "cumulativeGasUsed": "0xba5972",
      "logs": [
        {
          "address": "0x03e2c563cf77e3cdc0b7663cee117da14ea60848",
          "topics": [
            "0x2e5977e12fac9a91696e22ba811f2893e11ad62f8aa53e99a628b031d18a379f",
            "0x0000000000000000000000000000000000000000000000000000000000000019"
          ],
          "data": "0x000000000000000000000000000000000000000000000000000000000000002000000000000000000000000000000000000000000000000000000000000000b9697066732f516d615057795058764258486a6431396a444a45354e574b64434c4a786d7158453672697a6f656766557a7631342f30303030303030303030303030303030303030303030303030303030303030303030303030303030303030303030303030303030303030303030303030303235303030303030303030303030303030303030303030303030303030303030303030303030303030303030303030303030303030303030303030303030303030302e6a736f6e00000000000000",
          "blockHash": "0x8f23dc5c8d88fecb0eb368eea095f6d82d166c3365636c1c455891b8bd8dd304",
          "blockNumber": "0x855f191",
          "transactionHash": "0xe541cb443634fe9afd8d151443b66849b10019f5bd60f063616470349cc5efbc",
          "transactionIndex": "0x22",
          "logIndex": "0x7b",
          "removed": false
        }
      ],
      "logsBloom": "0x00000000000000000000000000000000000000000000000000000000000000000000000000000000000000000000000000000000000000800000000000008000000000000000000000000000000000000000000000000000000000000000000000000000000000000000000000000000000000000000020000000000000004000000000000000000001000000000000000000000000000000000000000000000000000000000000000000000000000000000000000000100000000000000001000000000000000000000000000000000000000000000000000000000400000000000000000000000000000000000000000000000000000000000008000000000",
      "type": "0x2",
      "transactionHash": "0xe541cb443634fe9afd8d151443b66849b10019f5bd60f063616470349cc5efbc",
      "transactionIndex": "0x22",
      "blockHash": "0x8f23dc5c8d88fecb0eb368eea095f6d82d166c3365636c1c455891b8bd8dd304",
      "blockNumber": "0x855f191",
      "gasUsed": "0x2f1f4",
      "effectiveGasPrice": "0x19960",
      "from": "0x8835669696fb92839ab198cd80ce9f0d35f45ad5",
      "to": "0x03e2c563cf77e3cdc0b7663cee117da14ea60848",
      "contractAddress": null,
      "l1BaseFeeScalar": "0x146b",
      "l1BlobBaseFee": "0x1",
      "l1BlobBaseFeeScalar": "0xf79c5",
      "l1Fee": "0x165460729",
      "l1GasPrice": "0x1f1f6e6a",
      "l1GasUsed": "0x894",
      "operatorFeeConstant": "0x0",
      "operatorFeeScalar": "0x0"
    },
    {
      "status": "0x1",
      "cumulativeGasUsed": "0xbe08f0",
      "logs": [
        {
          "address": "0x03e2c563cf77e3cdc0b7663cee117da14ea60848",
          "topics": [
            "0x5625f15df4cbadf2e6e3f80e2406aec5d99a432335ef0e9a1fba9e48b0558303",
            "0x0000000000000000000000000000000000000000000000000000000000000019"
          ],
          "data": "0x00000000000000000000000000000000000000000000000000000000000000010000000000000000000000000000000000000000000000000000000000000060000000000000000000000000000000000000000000000000000000000000000a00000000000000000000000000000000000000000000000000000000000000b9697066732f516d615057795058764258486a6431396a444a45354e574b64434c4a786d7158453672697a6f656766557a7631342f30303030303030303030303030303030303030303030303030303030303030303030303030303030303030303030303030303030303030303030303030303235303030303030303030303030303030303030303030303030303030303030303030303030303030303030303030303030303030303030303030303030303030312e6a736f6e00000000000000",
          "blockHash": "0x8f23dc5c8d88fecb0eb368eea095f6d82d166c3365636c1c455891b8bd8dd304",
          "blockNumber": "0x855f191",
          "transactionHash": "0x2f79311425dfd9aa0496666fef52cad73da817e2bd8427194a04e1d15d057afd",
          "transactionIndex": "0x23",
          "logIndex": "0x7c",
          "removed": false
        }
      ],
      "logsBloom": "0x00000000000000000000000000000000000000000000000000000000000000000000000000000000000000000000000000000000000000800000000000008000000000000000000000000000000000000000000000000000000000000000000000040000000000000000000000000000000000000000020000000000000000000000000000000000001000000000000000000000000000000000000000000000000000000000000000000000000000000000000000000000000000000000001000000000000000000000004000000000000000000000000000000000000000000000000000000000000000000000000000000000010000000000008000000000",
      "type": "0x2",
      "transactionHash": "0x2f79311425dfd9aa0496666fef52cad73da817e2bd8427194a04e1d15d057afd",
      "transactionIndex": "0x23",
      "blockHash": "0x8f23dc5c8d88fecb0eb368eea095f6d82d166c3365636c1c455891b8bd8dd304",
      "blockNumber": "0x855f191",
      "gasUsed": "0x3af7e",
      "effectiveGasPrice": "0x19960",
      "from": "0x8835669696fb92839ab198cd80ce9f0d35f45ad5",
      "to": "0x03e2c563cf77e3cdc0b7663cee117da14ea60848",
      "contractAddress": null,
      "l1BaseFeeScalar": "0x146b",
      "l1BlobBaseFee": "0x1",
      "l1BlobBaseFeeScalar": "0xf79c5",
      "l1Fee": "0x185eed4e5",
      "l1GasPrice": "0x1f1f6e6a",
      "l1GasUsed": "0x95c",
      "operatorFeeConstant": "0x0",
      "operatorFeeScalar": "0x0"
    },
    {
      "status": "0x1",
      "cumulativeGasUsed": "0xc17f50",
      "logs": [
        {
          "address": "0x03e2c563cf77e3cdc0b7663cee117da14ea60848",
          "topics": [
            "0x5625f15df4cbadf2e6e3f80e2406aec5d99a432335ef0e9a1fba9e48b0558303",
            "0x0000000000000000000000000000000000000000000000000000000000000019"
          ],
          "data": "0x00000000000000000000000000000000000000000000000000000000000000020000000000000000000000000000000000000000000000000000000000000060000000000000000000000000000000000000000000000000000000000000001400000000000000000000000000000000000000000000000000000000000000b9697066732f516d615057795058764258486a6431396a444a45354e574b64434c4a786d7158453672697a6f656766557a7631342f30303030303030303030303030303030303030303030303030303030303030303030303030303030303030303030303030303030303030303030303030303235303030303030303030303030303030303030303030303030303030303030303030303030303030303030303030303030303030303030303030303030303030322e6a736f6e00000000000000",
          "blockHash": "0x8f23dc5c8d88fecb0eb368eea095f6d82d166c3365636c1c455891b8bd8dd304",
          "blockNumber": "0x855f191",
          "transactionHash": "0x7b4471f3b2d177892985a2a82c5e81d6511144a535bcbc4bb86887566d27a0be",
          "transactionIndex": "0x24",
          "logIndex": "0x7d",
          "removed": false
        }
      ],
      "logsBloom": "0x00000000000000000000000000000000000000000000000000000000000000000000000000000000000000000000000000000000000000800000000000008000000000000000000000000000000000000000000000000000000000000000000000040000000000000000000000000000000000000000020000000000000000000000000000000000001000000000000000000000000000000000000000000000000000000000000000000000000000000000000000000000000000000000001000000000000000000000004000000000000000000000000000000000000000000000000000000000000000000000000000000000010000000000008000000000",
      "type": "0x2",
      "transactionHash": "0x7b4471f3b2d177892985a2a82c5e81d6511144a535bcbc4bb86887566d27a0be",
      "transactionIndex": "0x24",
      "blockHash": "0x8f23dc5c8d88fecb0eb368eea095f6d82d166c3365636c1c455891b8bd8dd304",
      "blockNumber": "0x855f191",
      "gasUsed": "0x37660",
      "effectiveGasPrice": "0x19960",
      "from": "0x8835669696fb92839ab198cd80ce9f0d35f45ad5",
      "to": "0x03e2c563cf77e3cdc0b7663cee117da14ea60848",
      "contractAddress": null,
      "l1BaseFeeScalar": "0x146b",
      "l1BlobBaseFee": "0x1",
      "l1BlobBaseFeeScalar": "0xf79c5",
      "l1Fee": "0x183c171d9",
      "l1GasPrice": "0x1f1f6e6a",
      "l1GasUsed": "0x94f",
      "operatorFeeConstant": "0x0",
      "operatorFeeScalar": "0x0"
    },
    {
      "status": "0x1",
      "cumulativeGasUsed": "0xc4f5b0",
      "logs": [
        {
          "address": "0x03e2c563cf77e3cdc0b7663cee117da14ea60848",
          "topics": [
            "0x5625f15df4cbadf2e6e3f80e2406aec5d99a432335ef0e9a1fba9e48b0558303",
            "0x0000000000000000000000000000000000000000000000000000000000000019"
          ],
          "data": "0x00000000000000000000000000000000000000000000000000000000000000030000000000000000000000000000000000000000000000000000000000000060000000000000000000000000000000000000000000000000000000000000001e00000000000000000000000000000000000000000000000000000000000000b9697066732f516d615057795058764258486a6431396a444a45354e574b64434c4a786d7158453672697a6f656766557a7631342f30303030303030303030303030303030303030303030303030303030303030303030303030303030303030303030303030303030303030303030303030303235303030303030303030303030303030303030303030303030303030303030303030303030303030303030303030303030303030303030303030303030303030332e6a736f6e00000000000000",
          "blockHash": "0x8f23dc5c8d88fecb0eb368eea095f6d82d166c3365636c1c455891b8bd8dd304",
          "blockNumber": "0x855f191",
          "transactionHash": "0x6f59793ab09ea8c231df5dec415474d7a757a2ae4de178016f105040228eee9c",
          "transactionIndex": "0x25",
          "logIndex": "0x7e",
          "removed": false
        }
      ],
      "logsBloom": "0x00000000000000000000000000000000000000000000000000000000000000000000000000000000000000000000000000000000000000800000000000008000000000000000000000000000000000000000000000000000000000000000000000040000000000000000000000000000000000000000020000000000000000000000000000000000001000000000000000000000000000000000000000000000000000000000000000000000000000000000000000000000000000000000001000000000000000000000004000000000000000000000000000000000000000000000000000000000000000000000000000000000010000000000008000000000",
      "type": "0x2",
      "transactionHash": "0x6f59793ab09ea8c231df5dec415474d7a757a2ae4de178016f105040228eee9c",
      "transactionIndex": "0x25",
      "blockHash": "0x8f23dc5c8d88fecb0eb368eea095f6d82d166c3365636c1c455891b8bd8dd304",
      "blockNumber": "0x855f191",
      "gasUsed": "0x37660",
      "effectiveGasPrice": "0x19960",
      "from": "0x8835669696fb92839ab198cd80ce9f0d35f45ad5",
      "to": "0x03e2c563cf77e3cdc0b7663cee117da14ea60848",
      "contractAddress": null,
      "l1BaseFeeScalar": "0x146b",
      "l1BlobBaseFee": "0x1",
      "l1BlobBaseFeeScalar": "0xf79c5",
      "l1Fee": "0x185eed4e5",
      "l1GasPrice": "0x1f1f6e6a",
      "l1GasUsed": "0x95c",
      "operatorFeeConstant": "0x0",
      "operatorFeeScalar": "0x0"
    },
    {
      "status": "0x1",
      "cumulativeGasUsed": "0xc86c10",
      "logs": [
        {
          "address": "0x03e2c563cf77e3cdc0b7663cee117da14ea60848",
          "topics": [
            "0x5625f15df4cbadf2e6e3f80e2406aec5d99a432335ef0e9a1fba9e48b0558303",
            "0x0000000000000000000000000000000000000000000000000000000000000019"
          ],
          "data": "0x00000000000000000000000000000000000000000000000000000000000000040000000000000000000000000000000000000000000000000000000000000060000000000000000000000000000000000000000000000000000000000000002800000000000000000000000000000000000000000000000000000000000000b9697066732f516d615057795058764258486a6431396a444a45354e574b64434c4a786d7158453672697a6f656766557a7631342f30303030303030303030303030303030303030303030303030303030303030303030303030303030303030303030303030303030303030303030303030303235303030303030303030303030303030303030303030303030303030303030303030303030303030303030303030303030303030303030303030303030303030342e6a736f6e00000000000000",
          "blockHash": "0x8f23dc5c8d88fecb0eb368eea095f6d82d166c3365636c1c455891b8bd8dd304",
          "blockNumber": "0x855f191",
          "transactionHash": "0x622e6e2fb71bd3c11a83c81305589c7edd90ce82416ea370e9c245b2d2eb037f",
          "transactionIndex": "0x26",
          "logIndex": "0x7f",
          "removed": false
        }
      ],
      "logsBloom": "0x00000000000000000000000000000000000000000000000000000000000000000000000000000000000000000000000000000000000000800000000000008000000000000000000000000000000000000000000000000000000000000000000000040000000000000000000000000000000000000000020000000000000000000000000000000000001000000000000000000000000000000000000000000000000000000000000000000000000000000000000000000000000000000000001000000000000000000000004000000000000000000000000000000000000000000000000000000000000000000000000000000000010000000000008000000000",
      "type": "0x2",
      "transactionHash": "0x622e6e2fb71bd3c11a83c81305589c7edd90ce82416ea370e9c245b2d2eb037f",
      "transactionIndex": "0x26",
      "blockHash": "0x8f23dc5c8d88fecb0eb368eea095f6d82d166c3365636c1c455891b8bd8dd304",
      "blockNumber": "0x855f191",
      "gasUsed": "0x37660",
      "effectiveGasPrice": "0x19960",
      "from": "0x8835669696fb92839ab198cd80ce9f0d35f45ad5",
      "to": "0x03e2c563cf77e3cdc0b7663cee117da14ea60848",
      "contractAddress": null,
      "l1BaseFeeScalar": "0x146b",
      "l1BlobBaseFee": "0x1",
      "l1BlobBaseFeeScalar": "0xf79c5",
      "l1Fee": "0x185eed4e5",
      "l1GasPrice": "0x1f1f6e6a",
      "l1GasUsed": "0x95c",
      "operatorFeeConstant": "0x0",
      "operatorFeeScalar": "0x0"
    }
  ],
  "libraries": [],
  "pending": [],
  "returns": {},
  "timestamp": 1755299036,
  "chain": 10,
  "commit": "1502dc9"
}