{
  "transactions": [
    {
      "hash": "0x99bb36d90c5d5c94b6401a990e56227a63bb6db9db52bcb45551ae356a9e7bfd",
      "transactionType": "CALL",
      "contractName": null,
      "contractAddress": "0x03e2c563cf77e3cdc0b7663cee117da14ea60848",
      "function": "setBadgesAndTiers((uint256,string)[],(uint256,uint256,string,uint256)[])",
      "arguments": [
        "[(12, ipfs/QmNsW8fEBmXoSzVnuui6r2jk5xBVWoRqT9CjkavdTDYXyM/00000000000000000000000000000000000000000000000000000000000000120000000000000000000000000000000000000000000000000000000000000000.json), (13, ipfs/QmNsW8fEBmXoSzVnuui6r2jk5xBVWoRqT9CjkavdTDYXyM/00000000000000000000000000000000000000000000000000000000000000130000000000000000000000000000000000000000000000000000000000000000.json), (14, ipfs/QmNsW8fEBmXoSzVnuui6r2jk5xBVWoRqT9CjkavdTDYXyM/00000000000000000000000000000000000000000000000000000000000000140000000000000000000000000000000000000000000000000000000000000000.json)]",
        "[(12, 1, ipfs/QmNsW8fEBmXoSzVnuui6r2jk5xBVWoRqT9CjkavdTDYXyM/00000000000000000000000000000000000000000000000000000000000000120000000000000000000000000000000000000000000000000000000000000001.json, 10), (12, 2, ipfs/QmNsW8fEBmXoSzVnuui6r2jk5xBVWoRqT9CjkavdTDYXyM/00000000000000000000000000000000000000000000000000000000000000120000000000000000000000000000000000000000000000000000000000000002.json, 20), (12, 3, ipfs/QmNsW8fEBmXoSzVnuui6r2jk5xBVWoRqT9CjkavdTDYXyM/00000000000000000000000000000000000000000000000000000000000000120000000000000000000000000000000000000000000000000000000000000003.json, 30), (12, 4, ipfs/QmNsW8fEBmXoSzVnuui6r2jk5xBVWoRqT9CjkavdTDYXyM/00000000000000000000000000000000000000000000000000000000000000120000000000000000000000000000000000000000000000000000000000000004.json, 40), (12, 5, ipfs/QmNsW8fEBmXoSzVnuui6r2jk5xBVWoRqT9CjkavdTDYXyM/00000000000000000000000000000000000000000000000000000000000000120000000000000000000000000000000000000000000000000000000000000005.json, 50), (13, 1, ipfs/QmNsW8fEBmXoSzVnuui6r2jk5xBVWoRqT9CjkavdTDYXyM/00000000000000000000000000000000000000000000000000000000000000130000000000000000000000000000000000000000000000000000000000000001.json, 50), (14, 1, ipfs/QmNsW8fEBmXoSzVnuui6r2jk5xBVWoRqT9CjkavdTDYXyM/00000000000000000000000000000000000000000000000000000000000000140000000000000000000000000000000000000000000000000000000000000001.json, 100)]"
      ],
      "transaction": {
        "from": "0x8835669696fb92839ab198cd80ce9f0d35f45ad5",
        "to": "0x03e2c563cf77e3cdc0b7663cee117da14ea60848",
        "gas": "0x2aa30d",
        "value": "0x0",
        "input": "0x546186640000000000000000000000000000000000000000000000000000000000000040000000000000000000000000000000000000000000000000000000000000042000000000000000000000000000000000000000000000000000000000000000030000000000000000000000000000000000000000000000000000000000000060000000000000000000000000000000000000000000000000000000000000018000000000000000000000000000000000000000000000000000000000000002a0000000000000000000000000000000000000000000000000000000000000000c000000000000000000000000000000000000000000000000000000000000004000000000000000000000000000000000000000000000000000000000000000b9697066732f516d4e7357386645426d586f537a566e7575693672326a6b35784256576f52715439436a6b61766454445958794d2f30303030303030303030303030303030303030303030303030303030303030303030303030303030303030303030303030303030303030303030303030303132303030303030303030303030303030303030303030303030303030303030303030303030303030303030303030303030303030303030303030303030303030302e6a736f6e00000000000000000000000000000000000000000000000000000000000000000000000000000d000000000000000000000000000000000000000000000000000000000000004000000000000000000000000000000000000000000000000000000000000000b9697066732f516d4e7357386645426d586f537a566e7575693672326a6b35784256576f52715439436a6b61766454445958794d2f30303030303030303030303030303030303030303030303030303030303030303030303030303030303030303030303030303030303030303030303030303133303030303030303030303030303030303030303030303030303030303030303030303030303030303030303030303030303030303030303030303030303030302e6a736f6e00000000000000000000000000000000000000000000000000000000000000000000000000000e000000000000000000000000000000000000000000000000000000000000004000000000000000000000000000000000000000000000000000000000000000b9697066732f516d4e7357386645426d586f537a566e7575693672326a6b35784256576f52715439436a6b61766454445958794d2f30303030303030303030303030303030303030303030303030303030303030303030303030303030303030303030303030303030303030303030303030303134303030303030303030303030303030303030303030303030303030303030303030303030303030303030303030303030303030303030303030303030303030302e6a736f6e00000000000000000000000000000000000000000000000000000000000000000000000000000700000000000000000000000000000000000000000000000000000000000000e0000000000000000000000000000000000000000000000000000000000000024000000000000000000000000000000000000000000000000000000000000003a00000000000000000000000000000000000000000000000000000000000000500000000000000000000000000000000000000000000000000000000000000066000000000000000000000000000000000000000000000000000000000000007c00000000000000000000000000000000000000000000000000000000000000920000000000000000000000000000000000000000000000000000000000000000c00000000000000000000000000000000000000000000000000000000000000010000000000000000000000000000000000000000000000000000000000000080000000000000000000000000000000000000000000000000000000000000000a00000000000000000000000000000000000000000000000000000000000000b9697066732f516d4e7357386645426d586f537a566e7575693672326a6b35784256576f52715439436a6b61766454445958794d2f30303030303030303030303030303030303030303030303030303030303030303030303030303030303030303030303030303030303030303030303030303132303030303030303030303030303030303030303030303030303030303030303030303030303030303030303030303030303030303030303030303030303030312e6a736f6e00000000000000000000000000000000000000000000000000000000000000000000000000000c00000000000000000000000000000000000000000000000000000000000000020000000000000000000000000000000000000000000000000000000000000080000000000000000000000000000000000000000000000000000000000000001400000000000000000000000000000000000000000000000000000000000000b9697066732f516d4e7357386645426d586f537a566e7575693672326a6b35784256576f52715439436a6b61766454445958794d2f30303030303030303030303030303030303030303030303030303030303030303030303030303030303030303030303030303030303030303030303030303132303030303030303030303030303030303030303030303030303030303030303030303030303030303030303030303030303030303030303030303030303030322e6a736f6e00000000000000000000000000000000000000000000000000000000000000000000000000000c00000000000000000000000000000000000000000000000000000000000000030000000000000000000000000000000000000000000000000000000000000080000000000000000000000000000000000000000000000000000000000000001e00000000000000000000000000000000000000000000000000000000000000b9697066732f516d4e7357386645426d586f537a566e7575693672326a6b35784256576f52715439436a6b61766454445958794d2f30303030303030303030303030303030303030303030303030303030303030303030303030303030303030303030303030303030303030303030303030303132303030303030303030303030303030303030303030303030303030303030303030303030303030303030303030303030303030303030303030303030303030332e6a736f6e00000000000000000000000000000000000000000000000000000000000000000000000000000c00000000000000000000000000000000000000000000000000000000000000040000000000000000000000000000000000000000000000000000000000000080000000000000000000000000000000000000000000000000000000000000002800000000000000000000000000000000000000000000000000000000000000b9697066732f516d4e7357386645426d586f537a566e7575693672326a6b35784256576f52715439436a6b61766454445958794d2f30303030303030303030303030303030303030303030303030303030303030303030303030303030303030303030303030303030303030303030303030303132303030303030303030303030303030303030303030303030303030303030303030303030303030303030303030303030303030303030303030303030303030342e6a736f6e00000000000000000000000000000000000000000000000000000000000000000000000000000c00000000000000000000000000000000000000000000000000000000000000050000000000000000000000000000000000000000000000000000000000000080000000000000000000000000000000000000000000000000000000000000003200000000000000000000000000000000000000000000000000000000000000b9697066732f516d4e7357386645426d586f537a566e7575693672326a6b35784256576f52715439436a6b61766454445958794d2f30303030303030303030303030303030303030303030303030303030303030303030303030303030303030303030303030303030303030303030303030303132303030303030303030303030303030303030303030303030303030303030303030303030303030303030303030303030303030303030303030303030303030352e6a736f6e00000000000000000000000000000000000000000000000000000000000000000000000000000d00000000000000000000000000000000000000000000000000000000000000010000000000000000000000000000000000000000000000000000000000000080000000000000000000000000000000000000000000000000000000000000003200000000000000000000000000000000000000000000000000000000000000b9697066732f516d4e7357386645426d586f537a566e7575693672326a6b35784256576f52715439436a6b61766454445958794d2f30303030303030303030303030303030303030303030303030303030303030303030303030303030303030303030303030303030303030303030303030303133303030303030303030303030303030303030303030303030303030303030303030303030303030303030303030303030303030303030303030303030303030312e6a736f6e00000000000000000000000000000000000000000000000000000000000000000000000000000e00000000000000000000000000000000000000000000000000000000000000010000000000000000000000000000000000000000000000000000000000000080000000000000000000000000000000000000000000000000000000000000006400000000000000000000000000000000000000000000000000000000000000b9697066732f516d4e7357386645426d586f537a566e7575693672326a6b35784256576f52715439436a6b61766454445958794d2f30303030303030303030303030303030303030303030303030303030303030303030303030303030303030303030303030303030303030303030303030303134303030303030303030303030303030303030303030303030303030303030303030303030303030303030303030303030303030303030303030303030303030312e6a736f6e00000000000000",
        "nonce": "0x2c3f",
        "chainId": "0xa"
      },
      "additionalContracts": [],
      "isFixedGasLimit": false
    }
  ],
  "receipts": [],
  "libraries": [],
  "pending": [],
  "returns": {
    "0": {
      "internal_type": "address",
      "value": "0x0000000000000000000000000000000000000000"
    }
  },
  "timestamp": 1734028786,
  "chain": 10,
  "commit": "ea7f51c"
}