{
  "transactions": [
    {
      "hash": "0x4dd3f261eb42903b485759b8708de7267cb4ea18d7eb3aa6ce27ae626e6b6376",
      "transactionType": "CALL",
      "contractName": null,
      "contractAddress": "0x03e2c563cf77e3cdc0b7663cee117da14ea60848",
      "function": "setBadgesAndTiers((uint256,string)[],(uint256,uint256,string,uint256)[])",
      "arguments": [
        "[(27, ipfs/QmV788xYJFJ5ZTXKhE3ATNV3XhbvDg9k5SEbVNnnFdKvKe/00000000000000000000000000000000000000000000000000000000000000270000000000000000000000000000000000000000000000000000000000000000.json)]",
        "[(27, 1, ipfs/QmV788xYJFJ5ZTXKhE3ATNV3XhbvDg9k5SEbVNnnFdKvKe/00000000000000000000000000000000000000000000000000000000000000270000000000000000000000000000000000000000000000000000000000000001.json, 150)]"
      ],
      "transaction": {
        "from": "0x8835669696fb92839ab198cd80ce9f0d35f45ad5",
        "to": "0x03e2c563cf77e3cdc0b7663cee117da14ea60848",
        "gas": "0x89aa4",
        "value": "0x0",
        "input": "0x54618664000000000000000000000000000000000000000000000000000000000000004000000000000000000000000000000000000000000000000000000000000001a000000000000000000000000000000000000000000000000000000000000000010000000000000000000000000000000000000000000000000000000000000020000000000000000000000000000000000000000000000000000000000000001b000000000000000000000000000000000000000000000000000000000000004000000000000000000000000000000000000000000000000000000000000000b9697066732f516d5637383878594a464a355a54584b68453341544e5633586862764467396b35534562564e6e6e46644b764b652f30303030303030303030303030303030303030303030303030303030303030303030303030303030303030303030303030303030303030303030303030303237303030303030303030303030303030303030303030303030303030303030303030303030303030303030303030303030303030303030303030303030303030302e6a736f6e0000000000000000000000000000000000000000000000000000000000000000000000000000010000000000000000000000000000000000000000000000000000000000000020000000000000000000000000000000000000000000000000000000000000001b00000000000000000000000000000000000000000000000000000000000000010000000000000000000000000000000000000000000000000000000000000080000000000000000000000000000000000000000000000000000000000000009600000000000000000000000000000000000000000000000000000000000000b9697066732f516d5637383878594a464a355a54584b68453341544e5633586862764467396b35534562564e6e6e46644b764b652f30303030303030303030303030303030303030303030303030303030303030303030303030303030303030303030303030303030303030303030303030303237303030303030303030303030303030303030303030303030303030303030303030303030303030303030303030303030303030303030303030303030303030312e6a736f6e00000000000000",
        "nonce": "0x59d63",
        "chainId": "0xa"
      },
      "additionalContracts": [],
      "isFixedGasLimit": false
    }
  ],
  "receipts": [
    {
      "status": "0x1",
      "cumulativeGasUsed": "0x15adc7",
      "logs": [
        {
          "address": "0x03e2c563cf77e3cdc0b7663cee117da14ea60848",
          "topics": [
            "0x2e5977e12fac9a91696e22ba811f2893e11ad62f8aa53e99a628b031d18a379f",
            "0x000000000000000000000000000000000000000000000000000000000000001b"
          ],
          "data": "0x000000000000000000000000000000000000000000000000000000000000002000000000000000000000000000000000000000000000000000000000000000b9697066732f516d5637383878594a464a355a54584b68453341544e5633586862764467396b35534562564e6e6e46644b764b652f30303030303030303030303030303030303030303030303030303030303030303030303030303030303030303030303030303030303030303030303030303237303030303030303030303030303030303030303030303030303030303030303030303030303030303030303030303030303030303030303030303030303030302e6a736f6e00000000000000",
          "blockHash": "0xcd668771001fe00893ce60d7fce80c27b66fe39b28efe71bb52d4f10c786103a",
          "blockNumber": "0x886c4f8",
          "blockTimestamp": "0x690163a9",
          "transactionHash": "0x4dd3f261eb42903b485759b8708de7267cb4ea18d7eb3aa6ce27ae626e6b6376",
          "transactionIndex": "0x4",
          "logIndex": "0x22",
          "removed": false
        },
        {
          "address": "0x03e2c563cf77e3cdc0b7663cee117da14ea60848",
          "topics": [
            "0x5625f15df4cbadf2e6e3f80e2406aec5d99a432335ef0e9a1fba9e48b0558303",
            "0x000000000000000000000000000000000000000000000000000000000000001b"
          ],
          "data": "0x00000000000000000000000000000000000000000000000000000000000000010000000000000000000000000000000000000000000000000000000000000060000000000000000000000000000000000000000000000000000000000000009600000000000000000000000000000000000000000000000000000000000000b9697066732f516d5637383878594a464a355a54584b68453341544e5633586862764467396b35534562564e6e6e46644b764b652f30303030303030303030303030303030303030303030303030303030303030303030303030303030303030303030303030303030303030303030303030303237303030303030303030303030303030303030303030303030303030303030303030303030303030303030303030303030303030303030303030303030303030312e6a736f6e00000000000000",
          "blockHash": "0xcd668771001fe00893ce60d7fce80c27b66fe39b28efe71bb52d4f10c786103a",
          "blockNumber": "0x886c4f8",
          "blockTimestamp": "0x690163a9",
          "transactionHash": "0x4dd3f261eb42903b485759b8708de7267cb4ea18d7eb3aa6ce27ae626e6b6376",
          "transactionIndex": "0x4",
          "logIndex": "0x23",
          "removed": false
        }
      ],
      "logsBloom": "0x00000000000000000000000000000000000000000010000000000000000000000000000000000000000000000000000000000000000000000000000000008000000000000000000000000000000000000000000000000000000000000000000000040000000000000000000000000000000000000000000000000000000004000000000000000000001000000000000000000000000000000000000000000000000000000100000000000000000000000000000000008100000000000000001000000000000000000000004000000000000000000000000000000000400000000000000000000000000000000000000000000000010000000000000000000000",
      "type": "0x2",
      "transactionHash": "0x4dd3f261eb42903b485759b8708de7267cb4ea18d7eb3aa6ce27ae626e6b6376",
      "transactionIndex": "0x4",
      "blockHash": "0xcd668771001fe00893ce60d7fce80c27b66fe39b28efe71bb52d4f10c786103a",
      "blockNumber": "0x886c4f8",
      "gasUsed": "0x63aad",
      "effectiveGasPrice": "0x18b",
      "from": "0x8835669696fb92839ab198cd80ce9f0d35f45ad5",
      "to": "0x03e2c563cf77e3cdc0b7663cee117da14ea60848",
      "contractAddress": null,
      "l1BaseFeeScalar": "0x146b",
      "l1BlobBaseFee": "0x1",
      "l1BlobBaseFeeScalar": "0xf79c5",
      "l1Fee": "0x2fe0d548",
      "l1GasPrice": "0x4f4bf64",
      "l1GasUsed": "0xb09"
    }
  ],
  "libraries": [],
  "pending": [],
  "returns": {
    "0": {
      "internal_type": "address",
      "value": "0x0000000000000000000000000000000000000000"
    }
  },
  "timestamp": 1761698727,
  "chain": 10,
  "commit": "e9de124"
}