{
  "transactions": [
    {
      "hash": "0xfa42e2126853b8fd36b75433082744b70cabd8b6a053a7e7e2575fef98e3eead",
      "transactionType": "CALL",
      "contractName": null,
      "contractAddress": "0x03e2c563cf77e3cdc0b7663cee117da14ea60848",
      "function": "setBadgesAndTiers((uint256,string)[],(uint256,uint256,string,uint256)[])",
      "arguments": [
        "[(5, ipfs/QmfAVDAjhgV1ujcvJMCXv31TWSk8j7yquL5m7t7N8EQPEJ/00000000000000000000000000000000000000000000000000000000000000050000000000000000000000000000000000000000000000000000000000000000.json)]",
        "[(5, 1, ipfs/QmfAVDAjhgV1ujcvJMCXv31TWSk8j7yquL5m7t7N8EQPEJ/00000000000000000000000000000000000000000000000000000000000000050000000000000000000000000000000000000000000000000000000000000001.json, 150)]"
      ],
      "transaction": {
        "from": "0x8835669696fb92839ab198cd80ce9f0d35f45ad5",
        "to": "0x03e2c563cf77e3cdc0b7663cee117da14ea60848",
        "gas": "0x5cae6",
        "value": "0x0",
        "input": "0x54618664000000000000000000000000000000000000000000000000000000000000004000000000000000000000000000000000000000000000000000000000000001a0000000000000000000000000000000000000000000000000000000000000000100000000000000000000000000000000000000000000000000000000000000200000000000000000000000000000000000000000000000000000000000000005000000000000000000000000000000000000000000000000000000000000004000000000000000000000000000000000000000000000000000000000000000b9697066732f516d66415644416a68675631756a63764a4d43587633315457536b386a377971754c356d3774374e38455150454a2f30303030303030303030303030303030303030303030303030303030303030303030303030303030303030303030303030303030303030303030303030303035303030303030303030303030303030303030303030303030303030303030303030303030303030303030303030303030303030303030303030303030303030302e6a736f6e0000000000000000000000000000000000000000000000000000000000000000000000000000010000000000000000000000000000000000000000000000000000000000000020000000000000000000000000000000000000000000000000000000000000000500000000000000000000000000000000000000000000000000000000000000010000000000000000000000000000000000000000000000000000000000000080000000000000000000000000000000000000000000000000000000000000009600000000000000000000000000000000000000000000000000000000000000b9697066732f516d66415644416a68675631756a63764a4d43587633315457536b386a377971754c356d3774374e38455150454a2f30303030303030303030303030303030303030303030303030303030303030303030303030303030303030303030303030303030303030303030303030303035303030303030303030303030303030303030303030303030303030303030303030303030303030303030303030303030303030303030303030303030303030312e6a736f6e00000000000000",
        "nonce": "0x48976",
        "chainId": "0xa"
      },
      "additionalContracts": [],
      "isFixedGasLimit": false
    }
  ],
  "receipts": [
    {
      "status": "0x1",
      "cumulativeGasUsed": "0x7654de",
      "logs": [
        {
          "address": "0x03e2c563cf77e3cdc0b7663cee117da14ea60848",
          "topics": [
            "0x2e5977e12fac9a91696e22ba811f2893e11ad62f8aa53e99a628b031d18a379f",
            "0x0000000000000000000000000000000000000000000000000000000000000005"
          ],
          "data": "0x000000000000000000000000000000000000000000000000000000000000002000000000000000000000000000000000000000000000000000000000000000b9697066732f516d66415644416a68675631756a63764a4d43587633315457536b386a377971754c356d3774374e38455150454a2f30303030303030303030303030303030303030303030303030303030303030303030303030303030303030303030303030303030303030303030303030303035303030303030303030303030303030303030303030303030303030303030303030303030303030303030303030303030303030303030303030303030303030302e6a736f6e00000000000000",
          "blockHash": "0xdb3ab98dfb6fa4ec1f207f12773e1f910cf6acfc364a53097ee60d5d4c1952e0",
          "blockNumber": "0x83cbcc2",
          "transactionHash": "0xfa42e2126853b8fd36b75433082744b70cabd8b6a053a7e7e2575fef98e3eead",
          "transactionIndex": "0x16",
          "logIndex": "0x40",
          "removed": false
        },
        {
          "address": "0x03e2c563cf77e3cdc0b7663cee117da14ea60848",
          "topics": [
            "0x5625f15df4cbadf2e6e3f80e2406aec5d99a432335ef0e9a1fba9e48b0558303",
            "0x0000000000000000000000000000000000000000000000000000000000000005"
          ],
          "data": "0x00000000000000000000000000000000000000000000000000000000000000010000000000000000000000000000000000000000000000000000000000000060000000000000000000000000000000000000000000000000000000000000009600000000000000000000000000000000000000000000000000000000000000b9697066732f516d66415644416a68675631756a63764a4d43587633315457536b386a377971754c356d3774374e38455150454a2f30303030303030303030303030303030303030303030303030303030303030303030303030303030303030303030303030303030303030303030303030303035303030303030303030303030303030303030303030303030303030303030303030303030303030303030303030303030303030303030303030303030303030312e6a736f6e00000000000000",
          "blockHash": "0xdb3ab98dfb6fa4ec1f207f12773e1f910cf6acfc364a53097ee60d5d4c1952e0",
          "blockNumber": "0x83cbcc2",
          "transactionHash": "0xfa42e2126853b8fd36b75433082744b70cabd8b6a053a7e7e2575fef98e3eead",
          "transactionIndex": "0x16",
          "logIndex": "0x41",
          "removed": false
        }
      ],
      "logsBloom": "0x00000000000000000000000000000000000000000000000000000000000000000000000000000000000000000000000000000000000000000000000000008000000010000000000000000000000000000000000000000000000000000000000000040000000000000000000000000000000000000000000000000000000004000000000000000000001000000000001000000800000000000000000000000000000000000000000000000000000000000000000000000100000000000000001000000000000000000000004000000000000000000000000000000000400000000000000000000000000000000000000000000000010000000000000000000000",
      "type": "0x2",
      "transactionHash": "0xfa42e2126853b8fd36b75433082744b70cabd8b6a053a7e7e2575fef98e3eead",
      "transactionIndex": "0x16",
      "blockHash": "0xdb3ab98dfb6fa4ec1f207f12773e1f910cf6acfc364a53097ee60d5d4c1952e0",
      "blockNumber": "0x83cbcc2",
      "gasUsed": "0x43198",
      "effectiveGasPrice": "0x8a6",
      "from": "0x8835669696fb92839ab198cd80ce9f0d35f45ad5",
      "to": "0x03e2c563cf77e3cdc0b7663cee117da14ea60848",
      "contractAddress": null,
      "l1BaseFeeScalar": "0x146b",
      "l1BlobBaseFee": "0x1",
      "l1BlobBaseFeeScalar": "0xf79c5",
      "l1Fee": "0xdb6aa0307",
      "l1GasPrice": "0xec9b9c2b",
      "l1GasUsed": "0xb16",
      "operatorFeeConstant": "0x0",
      "operatorFeeScalar": "0x0"
    }
  ],
  "libraries": [],
  "pending": [],
  "returns": {
    "0": {
      "internal_type": "address",
      "value": "0x0000000000000000000000000000000000000000"
    }
  },
  "timestamp": 1751995197,
  "chain": 10,
  "commit": "a35791d"
}