{
  "transactions": [
    {
      "hash": "0x47ca16d91dc1918cfec653ce2ed82697bc9ebb642e509bc38d24a08a2b2d245a",
      "transactionType": "CALL",
      "contractName": null,
      "contractAddress": "0x03e2c563cf77e3cdc0b7663cee117da14ea60848",
      "function": "setBadgesAndTiers((uint256,string)[],(uint256,uint256,string,uint256)[])",
      "arguments": [
        "[(26, ipfs/QmdG7vwEF8yNMcgB4e1Mj3SLR488icvHX38gWvpNAQaRAK/00000000000000000000000000000000000000000000000000000000000000260000000000000000000000000000000000000000000000000000000000000000.json)]",
        "[(26, 1, ipfs/QmdG7vwEF8yNMcgB4e1Mj3SLR488icvHX38gWvpNAQaRAK/00000000000000000000000000000000000000000000000000000000000000260000000000000000000000000000000000000000000000000000000000000001.json, 20), (26, 2, ipfs/QmdG7vwEF8yNMcgB4e1Mj3SLR488icvHX38gWvpNAQaRAK/00000000000000000000000000000000000000000000000000000000000000260000000000000000000000000000000000000000000000000000000000000002.json, 40), (26, 3, ipfs/QmdG7vwEF8yNMcgB4e1Mj3SLR488icvHX38gWvpNAQaRAK/00000000000000000000000000000000000000000000000000000000000000260000000000000000000000000000000000000000000000000000000000000003.json, 60), (26, 4, ipfs/QmdG7vwEF8yNMcgB4e1Mj3SLR488icvHX38gWvpNAQaRAK/00000000000000000000000000000000000000000000000000000000000000260000000000000000000000000000000000000000000000000000000000000004.json, 80), (26, 5, ipfs/QmdG7vwEF8yNMcgB4e1Mj3SLR488icvHX38gWvpNAQaRAK/00000000000000000000000000000000000000000000000000000000000000260000000000000000000000000000000000000000000000000000000000000005.json, 100)]"
      ],
      "transaction": {
        "from": "0x8835669696fb92839ab198cd80ce9f0d35f45ad5",
        "to": "0x03e2c563cf77e3cdc0b7663cee117da14ea60848",
        "gas": "0x18af3e",
        "value": "0x0",
        "input": "0x54618664000000000000000000000000000000000000000000000000000000000000004000000000000000000000000000000000000000000000000000000000000001a000000000000000000000000000000000000000000000000000000000000000010000000000000000000000000000000000000000000000000000000000000020000000000000000000000000000000000000000000000000000000000000001a000000000000000000000000000000000000000000000000000000000000004000000000000000000000000000000000000000000000000000000000000000b9697066732f516d6447377677454638794e4d6367423465314d6a33534c5234383869637648583338675776704e41516152414b2f30303030303030303030303030303030303030303030303030303030303030303030303030303030303030303030303030303030303030303030303030303236303030303030303030303030303030303030303030303030303030303030303030303030303030303030303030303030303030303030303030303030303030302e6a736f6e00000000000000000000000000000000000000000000000000000000000000000000000000000500000000000000000000000000000000000000000000000000000000000000a00000000000000000000000000000000000000000000000000000000000000200000000000000000000000000000000000000000000000000000000000000036000000000000000000000000000000000000000000000000000000000000004c00000000000000000000000000000000000000000000000000000000000000620000000000000000000000000000000000000000000000000000000000000001a00000000000000000000000000000000000000000000000000000000000000010000000000000000000000000000000000000000000000000000000000000080000000000000000000000000000000000000000000000000000000000000001400000000000000000000000000000000000000000000000000000000000000b9697066732f516d6447377677454638794e4d6367423465314d6a33534c5234383869637648583338675776704e41516152414b2f30303030303030303030303030303030303030303030303030303030303030303030303030303030303030303030303030303030303030303030303030303236303030303030303030303030303030303030303030303030303030303030303030303030303030303030303030303030303030303030303030303030303030312e6a736f6e00000000000000000000000000000000000000000000000000000000000000000000000000001a00000000000000000000000000000000000000000000000000000000000000020000000000000000000000000000000000000000000000000000000000000080000000000000000000000000000000000000000000000000000000000000002800000000000000000000000000000000000000000000000000000000000000b9697066732f516d6447377677454638794e4d6367423465314d6a33534c5234383869637648583338675776704e41516152414b2f30303030303030303030303030303030303030303030303030303030303030303030303030303030303030303030303030303030303030303030303030303236303030303030303030303030303030303030303030303030303030303030303030303030303030303030303030303030303030303030303030303030303030322e6a736f6e00000000000000000000000000000000000000000000000000000000000000000000000000001a00000000000000000000000000000000000000000000000000000000000000030000000000000000000000000000000000000000000000000000000000000080000000000000000000000000000000000000000000000000000000000000003c00000000000000000000000000000000000000000000000000000000000000b9697066732f516d6447377677454638794e4d6367423465314d6a33534c5234383869637648583338675776704e41516152414b2f30303030303030303030303030303030303030303030303030303030303030303030303030303030303030303030303030303030303030303030303030303236303030303030303030303030303030303030303030303030303030303030303030303030303030303030303030303030303030303030303030303030303030332e6a736f6e00000000000000000000000000000000000000000000000000000000000000000000000000001a00000000000000000000000000000000000000000000000000000000000000040000000000000000000000000000000000000000000000000000000000000080000000000000000000000000000000000000000000000000000000000000005000000000000000000000000000000000000000000000000000000000000000b9697066732f516d6447377677454638794e4d6367423465314d6a33534c5234383869637648583338675776704e41516152414b2f30303030303030303030303030303030303030303030303030303030303030303030303030303030303030303030303030303030303030303030303030303236303030303030303030303030303030303030303030303030303030303030303030303030303030303030303030303030303030303030303030303030303030342e6a736f6e00000000000000000000000000000000000000000000000000000000000000000000000000001a00000000000000000000000000000000000000000000000000000000000000050000000000000000000000000000000000000000000000000000000000000080000000000000000000000000000000000000000000000000000000000000006400000000000000000000000000000000000000000000000000000000000000b9697066732f516d6447377677454638794e4d6367423465314d6a33534c5234383869637648583338675776704e41516152414b2f30303030303030303030303030303030303030303030303030303030303030303030303030303030303030303030303030303030303030303030303030303236303030303030303030303030303030303030303030303030303030303030303030303030303030303030303030303030303030303030303030303030303030352e6a736f6e00000000000000",
        "nonce": "0x53138",
        "chainId": "0xa"
      },
      "additionalContracts": [],
      "isFixedGasLimit": false
    }
  ],
  "receipts": [
    {
      "status": "0x1",
      "cumulativeGasUsed": "0x1ab0f8f",
      "logs": [
        {
          "address": "0x03e2c563cf77e3cdc0b7663cee117da14ea60848",
          "topics": [
            "0x2e5977e12fac9a91696e22ba811f2893e11ad62f8aa53e99a628b031d18a379f",
            "0x000000000000000000000000000000000000000000000000000000000000001a"
          ],
          "data": "0x000000000000000000000000000000000000000000000000000000000000002000000000000000000000000000000000000000000000000000000000000000b9697066732f516d6447377677454638794e4d6367423465314d6a33534c5234383869637648583338675776704e41516152414b2f30303030303030303030303030303030303030303030303030303030303030303030303030303030303030303030303030303030303030303030303030303236303030303030303030303030303030303030303030303030303030303030303030303030303030303030303030303030303030303030303030303030303030302e6a736f6e00000000000000",
          "blockHash": "0x69b451b56886400533bc486c73f9429099e71f17e492209f37d2607d2affacf6",
          "blockNumber": "0x863a7a8",
          "blockTimestamp": "0x68bb2909",
          "transactionHash": "0x47ca16d91dc1918cfec653ce2ed82697bc9ebb642e509bc38d24a08a2b2d245a",
          "transactionIndex": "0x56",
          "logIndex": "0x136",
          "removed": false
        },
        {
          "address": "0x03e2c563cf77e3cdc0b7663cee117da14ea60848",
          "topics": [
            "0x5625f15df4cbadf2e6e3f80e2406aec5d99a432335ef0e9a1fba9e48b0558303",
            "0x000000000000000000000000000000000000000000000000000000000000001a"
          ],
          "data": "0x00000000000000000000000000000000000000000000000000000000000000010000000000000000000000000000000000000000000000000000000000000060000000000000000000000000000000000000000000000000000000000000001400000000000000000000000000000000000000000000000000000000000000b9697066732f516d6447377677454638794e4d6367423465314d6a33534c5234383869637648583338675776704e41516152414b2f30303030303030303030303030303030303030303030303030303030303030303030303030303030303030303030303030303030303030303030303030303236303030303030303030303030303030303030303030303030303030303030303030303030303030303030303030303030303030303030303030303030303030312e6a736f6e00000000000000",
          "blockHash": "0x69b451b56886400533bc486c73f9429099e71f17e492209f37d2607d2affacf6",
          "blockNumber": "0x863a7a8",
          "blockTimestamp": "0x68bb2909",
          "transactionHash": "0x47ca16d91dc1918cfec653ce2ed82697bc9ebb642e509bc38d24a08a2b2d245a",
          "transactionIndex": "0x56",
          "logIndex": "0x137",
          "removed": false
        },
        {
          "address": "0x03e2c563cf77e3cdc0b7663cee117da14ea60848",
          "topics": [
            "0x5625f15df4cbadf2e6e3f80e2406aec5d99a432335ef0e9a1fba9e48b0558303",
            "0x000000000000000000000000000000000000000000000000000000000000001a"
          ],
          "data": "0x00000000000000000000000000000000000000000000000000000000000000020000000000000000000000000000000000000000000000000000000000000060000000000000000000000000000000000000000000000000000000000000002800000000000000000000000000000000000000000000000000000000000000b9697066732f516d6447377677454638794e4d6367423465314d6a33534c5234383869637648583338675776704e41516152414b2f30303030303030303030303030303030303030303030303030303030303030303030303030303030303030303030303030303030303030303030303030303236303030303030303030303030303030303030303030303030303030303030303030303030303030303030303030303030303030303030303030303030303030322e6a736f6e00000000000000",
          "blockHash": "0x69b451b56886400533bc486c73f9429099e71f17e492209f37d2607d2affacf6",
          "blockNumber": "0x863a7a8",
          "blockTimestamp": "0x68bb2909",
          "transactionHash": "0x47ca16d91dc1918cfec653ce2ed82697bc9ebb642e509bc38d24a08a2b2d245a",
          "transactionIndex": "0x56",
          "logIndex": "0x138",
          "removed": false
        },
        {
          "address": "0x03e2c563cf77e3cdc0b7663cee117da14ea60848",
          "topics": [
            "0x5625f15df4cbadf2e6e3f80e2406aec5d99a432335ef0e9a1fba9e48b0558303",
            "0x000000000000000000000000000000000000000000000000000000000000001a"
          ],
          "data": "0x00000000000000000000000000000000000000000000000000000000000000030000000000000000000000000000000000000000000000000000000000000060000000000000000000000000000000000000000000000000000000000000003c00000000000000000000000000000000000000000000000000000000000000b9697066732f516d6447377677454638794e4d6367423465314d6a33534c5234383869637648583338675776704e41516152414b2f30303030303030303030303030303030303030303030303030303030303030303030303030303030303030303030303030303030303030303030303030303236303030303030303030303030303030303030303030303030303030303030303030303030303030303030303030303030303030303030303030303030303030332e6a736f6e00000000000000",
          "blockHash": "0x69b451b56886400533bc486c73f9429099e71f17e492209f37d2607d2affacf6",
          "blockNumber": "0x863a7a8",
          "blockTimestamp": "0x68bb2909",
          "transactionHash": "0x47ca16d91dc1918cfec653ce2ed82697bc9ebb642e509bc38d24a08a2b2d245a",
          "transactionIndex": "0x56",
          "logIndex": "0x139",
          "removed": false
        },
        {
          "address": "0x03e2c563cf77e3cdc0b7663cee117da14ea60848",
          "topics": [
            "0x5625f15df4cbadf2e6e3f80e2406aec5d99a432335ef0e9a1fba9e48b0558303",
            "0x000000000000000000000000000000000000000000000000000000000000001a"
          ],
          "data": "0x00000000000000000000000000000000000000000000000000000000000000040000000000000000000000000000000000000000000000000000000000000060000000000000000000000000000000000000000000000000000000000000005000000000000000000000000000000000000000000000000000000000000000b9697066732f516d6447377677454638794e4d6367423465314d6a33534c5234383869637648583338675776704e41516152414b2f30303030303030303030303030303030303030303030303030303030303030303030303030303030303030303030303030303030303030303030303030303236303030303030303030303030303030303030303030303030303030303030303030303030303030303030303030303030303030303030303030303030303030342e6a736f6e00000000000000",
          "blockHash": "0x69b451b56886400533bc486c73f9429099e71f17e492209f37d2607d2affacf6",
          "blockNumber": "0x863a7a8",
          "blockTimestamp": "0x68bb2909",
          "transactionHash": "0x47ca16d91dc1918cfec653ce2ed82697bc9ebb642e509bc38d24a08a2b2d245a",
          "transactionIndex": "0x56",
          "logIndex": "0x13a",
          "removed": false
        },
        {
          "address": "0x03e2c563cf77e3cdc0b7663cee117da14ea60848",
          "topics": [
            "0x5625f15df4cbadf2e6e3f80e2406aec5d99a432335ef0e9a1fba9e48b0558303",
            "0x000000000000000000000000000000000000000000000000000000000000001a"
          ],
          "data": "0x00000000000000000000000000000000000000000000000000000000000000050000000000000000000000000000000000000000000000000000000000000060000000000000000000000000000000000000000000000000000000000000006400000000000000000000000000000000000000000000000000000000000000b9697066732f516d6447377677454638794e4d6367423465314d6a33534c5234383869637648583338675776704e41516152414b2f30303030303030303030303030303030303030303030303030303030303030303030303030303030303030303030303030303030303030303030303030303236303030303030303030303030303030303030303030303030303030303030303030303030303030303030303030303030303030303030303030303030303030352e6a736f6e00000000000000",
          "blockHash": "0x69b451b56886400533bc486c73f9429099e71f17e492209f37d2607d2affacf6",
          "blockNumber": "0x863a7a8",
          "blockTimestamp": "0x68bb2909",
          "transactionHash": "0x47ca16d91dc1918cfec653ce2ed82697bc9ebb642e509bc38d24a08a2b2d245a",
          "transactionIndex": "0x56",
          "logIndex": "0x13b",
          "removed": false
        }
      ],
      "logsBloom": "0x00000000000000000000000000000000000000000000000000000000000000000000000000000000000000000000000000000000000000000000000000008000000000000000000000000000000000001000000000000000000000001000000000040000000000000000000000000000000000000000000000000000000004000000000000000000001000000000000000000000000000000000000000000000000000000000000000000000000000000000000000000100000000000000001000000000000000000000004000000000000000000000000000000000400000000000000000000000000000000000000000000000010004000000000000000000",
      "type": "0x2",
      "transactionHash": "0x47ca16d91dc1918cfec653ce2ed82697bc9ebb642e509bc38d24a08a2b2d245a",
      "transactionIndex": "0x56",
      "blockHash": "0x69b451b56886400533bc486c73f9429099e71f17e492209f37d2607d2affacf6",
      "blockNumber": "0x863a7a8",
      "gasUsed": "0x11df05",
      "effectiveGasPrice": "0x834",
      "from": "0x8835669696fb92839ab198cd80ce9f0d35f45ad5",
      "to": "0x03e2c563cf77e3cdc0b7663cee117da14ea60848",
      "contractAddress": null,
      "l1BaseFeeScalar": "0x146b",
      "l1BlobBaseFee": "0x1",
      "l1BlobBaseFeeScalar": "0xf79c5",
      "l1Fee": "0x1c3cc3e4a",
      "l1GasPrice": "0x13549651",
      "l1GasUsed": "0x1177"
    }
  ],
  "libraries": [],
  "pending": [],
  "returns": {
    "0": {
      "internal_type": "address",
      "value": "0x0000000000000000000000000000000000000000"
    }
  },
  "timestamp": 1757096202,
  "chain": 10,
  "commit": "ca2ddd9"
}