{
  "transactions": [
    {
      "hash": "0xb0c1e985e06a32408d7369e689e92011fbf0d0605d7483fa36ade0ef1dbb773f",
      "transactionType": "CALL",
      "contractName": null,
      "contractAddress": "0x03e2c563cf77e3cdc0b7663cee117da14ea60848",
      "function": "setBadgeMetadata(uint256,string)",
      "arguments": [
        "26",
        "ipfs/QmYSzCMrr8GWH29t6jPH5njB9YSd4tb8XLEqha8ynZgrPz/00000000000000000000000000000000000000000000000000000000000000260000000000000000000000000000000000000000000000000000000000000000.json"
      ],
      "transaction": {
        "from": "0x8835669696fb92839ab198cd80ce9f0d35f45ad5",
        "to": "0x03e2c563cf77e3cdc0b7663cee117da14ea60848",
        "gas": "0x141a6",
        "value": "0x0",
        "input": "0xce64b45f000000000000000000000000000000000000000000000000000000000000001a000000000000000000000000000000000000000000000000000000000000004000000000000000000000000000000000000000000000000000000000000000b9697066732f516d59537a434d727238475748323974366a5048356e6a423959536434746238584c4571686138796e5a6772507a2f30303030303030303030303030303030303030303030303030303030303030303030303030303030303030303030303030303030303030303030303030303236303030303030303030303030303030303030303030303030303030303030303030303030303030303030303030303030303030303030303030303030303030302e6a736f6e00000000000000",
        "nonce": "0x534d2",
        "chainId": "0xa"
      },
      "additionalContracts": [],
      "isFixedGasLimit": false
    }
  ],
  "receipts": [
    {
      "status": "0x1",
      "cumulativeGasUsed": "0x71ea25",
      "logs": [
        {
          "address": "0x03e2c563cf77e3cdc0b7663cee117da14ea60848",
          "topics": [
            "0x2e5977e12fac9a91696e22ba811f2893e11ad62f8aa53e99a628b031d18a379f",
            "0x000000000000000000000000000000000000000000000000000000000000001a"
          ],
          "data": "0x000000000000000000000000000000000000000000000000000000000000002000000000000000000000000000000000000000000000000000000000000000b9697066732f516d59537a434d727238475748323974366a5048356e6a423959536434746238584c4571686138796e5a6772507a2f30303030303030303030303030303030303030303030303030303030303030303030303030303030303030303030303030303030303030303030303030303236303030303030303030303030303030303030303030303030303030303030303030303030303030303030303030303030303030303030303030303030303030302e6a736f6e00000000000000",
          "blockHash": "0x2612987f217f66a491a831ff18798d34e74d721400043ec6a2fb57e9e7a55fa1",
          "blockNumber": "0x86502ea",
          "blockTimestamp": "0x68bddf8d",
          "transactionHash": "0xb0c1e985e06a32408d7369e689e92011fbf0d0605d7483fa36ade0ef1dbb773f",
          "transactionIndex": "0x1b",
          "logIndex": "0xb",
          "removed": false
        }
      ],
      "logsBloom": "0x00000000000000000000000000000000000000000000000000000000000000000000000000000000000000000000000000000000000000000000000000008000000000000000000000000000000000001000000000000000000000001000000000000000000000000000000000000000000000000000000000000000000004000000000000000000001000000000000000000000000000000000000000000000000000000000000000000000000000000000000000000100000000000000001000000000000000000000000000000000000000000000000000000000400000000000000000000000000000000000000000000000000004000000000000000000",
      "type": "0x2",
      "transactionHash": "0xb0c1e985e06a32408d7369e689e92011fbf0d0605d7483fa36ade0ef1dbb773f",
      "transactionIndex": "0x1b",
      "blockHash": "0x2612987f217f66a491a831ff18798d34e74d721400043ec6a2fb57e9e7a55fa1",
      "blockNumber": "0x86502ea",
      "gasUsed": "0xe8df",
      "effectiveGasPrice": "0xfa0",
      "from": "0x8835669696fb92839ab198cd80ce9f0d35f45ad5",
      "to": "0x03e2c563cf77e3cdc0b7663cee117da14ea60848",
      "contractAddress": null,
      "l1BaseFeeScalar": "0x146b",
      "l1BlobBaseFee": "0x1",
      "l1BlobBaseFeeScalar": "0xf79c5",
      "l1Fee": "0x6555d591",
      "l1GasPrice": "0x8efb9e1",
      "l1GasUsed": "0x879"
    }
  ],
  "libraries": [],
  "pending": [],
  "returns": {
    "0": {
      "internal_type": "address",
      "value": "0x0000000000000000000000000000000000000000"
    }
  },
  "timestamp": 1757273997,
  "chain": 10,
  "commit": "84ce988"
}