{
  "transactions": [
    {
      "hash": "0x7d654bbba15d0cd57bba1ebae99181662df0d988da316c21976bfb550a238700",
      "transactionType": "CALL",
      "contractName": null,
      "contractAddress": "0x03e2c563cf77e3cdc0b7663cee117da14ea60848",
      "function": "setBadgesAndTiers((uint256,string)[],(uint256,uint256,string,uint256)[])",
      "arguments": [
        "[(12, ipfs/QmNsW8fEBmXoSzVnuui6r2jk5xBVWoRqT9CjkavdTDYXyM/00000000000000000000000000000000000000000000000000000000000000120000000000000000000000000000000000000000000000000000000000000000.json), (13, ipfs/QmNsW8fEBmXoSzVnuui6r2jk5xBVWoRqT9CjkavdTDYXyM/00000000000000000000000000000000000000000000000000000000000000130000000000000000000000000000000000000000000000000000000000000000.json), (14, ipfs/QmNsW8fEBmXoSzVnuui6r2jk5xBVWoRqT9CjkavdTDYXyM/00000000000000000000000000000000000000000000000000000000000000140000000000000000000000000000000000000000000000000000000000000000.json)]",
        "[(12, 1, ipfs/QmNsW8fEBmXoSzVnuui6r2jk5xBVWoRqT9CjkavdTDYXyM/00000000000000000000000000000000000000000000000000000000000000120000000000000000000000000000000000000000000000000000000000000001.json, 10), (12, 2, ipfs/QmNsW8fEBmXoSzVnuui6r2jk5xBVWoRqT9CjkavdTDYXyM/00000000000000000000000000000000000000000000000000000000000000120000000000000000000000000000000000000000000000000000000000000002.json, 20), (12, 3, ipfs/QmNsW8fEBmXoSzVnuui6r2jk5xBVWoRqT9CjkavdTDYXyM/00000000000000000000000000000000000000000000000000000000000000120000000000000000000000000000000000000000000000000000000000000003.json, 30), (12, 4, ipfs/QmNsW8fEBmXoSzVnuui6r2jk5xBVWoRqT9CjkavdTDYXyM/00000000000000000000000000000000000000000000000000000000000000120000000000000000000000000000000000000000000000000000000000000004.json, 40), (12, 5, ipfs/QmNsW8fEBmXoSzVnuui6r2jk5xBVWoRqT9CjkavdTDYXyM/00000000000000000000000000000000000000000000000000000000000000120000000000000000000000000000000000000000000000000000000000000005.json, 50), (13, 1, ipfs/QmNsW8fEBmXoSzVnuui6r2jk5xBVWoRqT9CjkavdTDYXyM/00000000000000000000000000000000000000000000000000000000000000130000000000000000000000000000000000000000000000000000000000000001.json, 50), (14, 1, ipfs/QmNsW8fEBmXoSzVnuui6r2jk5xBVWoRqT9CjkavdTDYXyM/00000000000000000000000000000000000000000000000000000000000000140000000000000000000000000000000000000000000000000000000000000001.json, 100)]"
      ],
      "transaction": {
        "from": "0x8835669696fb92839ab198cd80ce9f0d35f45ad5",
        "to": "0x03e2c563cf77e3cdc0b7663cee117da14ea60848",
        "gas": "0x2aa30d",
        "value": "0x0",
        "input": "0x546186640000000000000000000000000000000000000000000000000000000000000040000000000000000000000000000000000000000000000000000000000000042000000000000000000000000000000000000000000000000000000000000000030000000000000000000000000000000000000000000000000000000000000060000000000000000000000000000000000000000000000000000000000000018000000000000000000000000000000000000000000000000000000000000002a0000000000000000000000000000000000000000000000000000000000000000c000000000000000000000000000000000000000000000000000000000000004000000000000000000000000000000000000000000000000000000000000000b9697066732f516d4e7357386645426d586f537a566e7575693672326a6b35784256576f52715439436a6b61766454445958794d2f30303030303030303030303030303030303030303030303030303030303030303030303030303030303030303030303030303030303030303030303030303132303030303030303030303030303030303030303030303030303030303030303030303030303030303030303030303030303030303030303030303030303030302e6a736f6e00000000000000000000000000000000000000000000000000000000000000000000000000000d000000000000000000000000000000000000000000000000000000000000004000000000000000000000000000000000000000000000000000000000000000b9697066732f516d4e7357386645426d586f537a566e7575693672326a6b35784256576f52715439436a6b61766454445958794d2f30303030303030303030303030303030303030303030303030303030303030303030303030303030303030303030303030303030303030303030303030303133303030303030303030303030303030303030303030303030303030303030303030303030303030303030303030303030303030303030303030303030303030302e6a736f6e00000000000000000000000000000000000000000000000000000000000000000000000000000e000000000000000000000000000000000000000000000000000000000000004000000000000000000000000000000000000000000000000000000000000000b9697066732f516d4e7357386645426d586f537a566e7575693672326a6b35784256576f52715439436a6b61766454445958794d2f30303030303030303030303030303030303030303030303030303030303030303030303030303030303030303030303030303030303030303030303030303134303030303030303030303030303030303030303030303030303030303030303030303030303030303030303030303030303030303030303030303030303030302e6a736f6e00000000000000000000000000000000000000000000000000000000000000000000000000000700000000000000000000000000000000000000000000000000000000000000e0000000000000000000000000000000000000000000000000000000000000024000000000000000000000000000000000000000000000000000000000000003a00000000000000000000000000000000000000000000000000000000000000500000000000000000000000000000000000000000000000000000000000000066000000000000000000000000000000000000000000000000000000000000007c00000000000000000000000000000000000000000000000000000000000000920000000000000000000000000000000000000000000000000000000000000000c00000000000000000000000000000000000000000000000000000000000000010000000000000000000000000000000000000000000000000000000000000080000000000000000000000000000000000000000000000000000000000000000a00000000000000000000000000000000000000000000000000000000000000b9697066732f516d4e7357386645426d586f537a566e7575693672326a6b35784256576f52715439436a6b61766454445958794d2f30303030303030303030303030303030303030303030303030303030303030303030303030303030303030303030303030303030303030303030303030303132303030303030303030303030303030303030303030303030303030303030303030303030303030303030303030303030303030303030303030303030303030312e6a736f6e00000000000000000000000000000000000000000000000000000000000000000000000000000c00000000000000000000000000000000000000000000000000000000000000020000000000000000000000000000000000000000000000000000000000000080000000000000000000000000000000000000000000000000000000000000001400000000000000000000000000000000000000000000000000000000000000b9697066732f516d4e7357386645426d586f537a566e7575693672326a6b35784256576f52715439436a6b61766454445958794d2f30303030303030303030303030303030303030303030303030303030303030303030303030303030303030303030303030303030303030303030303030303132303030303030303030303030303030303030303030303030303030303030303030303030303030303030303030303030303030303030303030303030303030322e6a736f6e00000000000000000000000000000000000000000000000000000000000000000000000000000c00000000000000000000000000000000000000000000000000000000000000030000000000000000000000000000000000000000000000000000000000000080000000000000000000000000000000000000000000000000000000000000001e00000000000000000000000000000000000000000000000000000000000000b9697066732f516d4e7357386645426d586f537a566e7575693672326a6b35784256576f52715439436a6b61766454445958794d2f30303030303030303030303030303030303030303030303030303030303030303030303030303030303030303030303030303030303030303030303030303132303030303030303030303030303030303030303030303030303030303030303030303030303030303030303030303030303030303030303030303030303030332e6a736f6e00000000000000000000000000000000000000000000000000000000000000000000000000000c00000000000000000000000000000000000000000000000000000000000000040000000000000000000000000000000000000000000000000000000000000080000000000000000000000000000000000000000000000000000000000000002800000000000000000000000000000000000000000000000000000000000000b9697066732f516d4e7357386645426d586f537a566e7575693672326a6b35784256576f52715439436a6b61766454445958794d2f30303030303030303030303030303030303030303030303030303030303030303030303030303030303030303030303030303030303030303030303030303132303030303030303030303030303030303030303030303030303030303030303030303030303030303030303030303030303030303030303030303030303030342e6a736f6e00000000000000000000000000000000000000000000000000000000000000000000000000000c00000000000000000000000000000000000000000000000000000000000000050000000000000000000000000000000000000000000000000000000000000080000000000000000000000000000000000000000000000000000000000000003200000000000000000000000000000000000000000000000000000000000000b9697066732f516d4e7357386645426d586f537a566e7575693672326a6b35784256576f52715439436a6b61766454445958794d2f30303030303030303030303030303030303030303030303030303030303030303030303030303030303030303030303030303030303030303030303030303132303030303030303030303030303030303030303030303030303030303030303030303030303030303030303030303030303030303030303030303030303030352e6a736f6e00000000000000000000000000000000000000000000000000000000000000000000000000000d00000000000000000000000000000000000000000000000000000000000000010000000000000000000000000000000000000000000000000000000000000080000000000000000000000000000000000000000000000000000000000000003200000000000000000000000000000000000000000000000000000000000000b9697066732f516d4e7357386645426d586f537a566e7575693672326a6b35784256576f52715439436a6b61766454445958794d2f30303030303030303030303030303030303030303030303030303030303030303030303030303030303030303030303030303030303030303030303030303133303030303030303030303030303030303030303030303030303030303030303030303030303030303030303030303030303030303030303030303030303030312e6a736f6e00000000000000000000000000000000000000000000000000000000000000000000000000000e00000000000000000000000000000000000000000000000000000000000000010000000000000000000000000000000000000000000000000000000000000080000000000000000000000000000000000000000000000000000000000000006400000000000000000000000000000000000000000000000000000000000000b9697066732f516d4e7357386645426d586f537a566e7575693672326a6b35784256576f52715439436a6b61766454445958794d2f30303030303030303030303030303030303030303030303030303030303030303030303030303030303030303030303030303030303030303030303030303134303030303030303030303030303030303030303030303030303030303030303030303030303030303030303030303030303030303030303030303030303030312e6a736f6e00000000000000",
        "nonce": "0x2c45",
        "chainId": "0xa"
      },
      "additionalContracts": [],
      "isFixedGasLimit": false
    }
  ],
  "receipts": [
    {
      "status": "0x1",
      "cumulativeGasUsed": "0x784b35",
      "logs": [
        {
          "address": "0x03e2c563cf77e3cdc0b7663cee117da14ea60848",
          "topics": [
            "0x2e5977e12fac9a91696e22ba811f2893e11ad62f8aa53e99a628b031d18a379f",
            "0x000000000000000000000000000000000000000000000000000000000000000c"
          ],
          "data": "0x000000000000000000000000000000000000000000000000000000000000002000000000000000000000000000000000000000000000000000000000000000b9697066732f516d4e7357386645426d586f537a566e7575693672326a6b35784256576f52715439436a6b61766454445958794d2f30303030303030303030303030303030303030303030303030303030303030303030303030303030303030303030303030303030303030303030303030303132303030303030303030303030303030303030303030303030303030303030303030303030303030303030303030303030303030303030303030303030303030302e6a736f6e00000000000000",
          "blockHash": "0x253cab26b644deb435f7a17f74e0ae9b7180e60c2a3d8c179583cac4be7b3cb8",
          "blockNumber": "0x7b3aa34",
          "transactionHash": "0x7d654bbba15d0cd57bba1ebae99181662df0d988da316c21976bfb550a238700",
          "transactionIndex": "0x19",
          "logIndex": "0x57",
          "removed": false
        },
        {
          "address": "0x03e2c563cf77e3cdc0b7663cee117da14ea60848",
          "topics": [
            "0x2e5977e12fac9a91696e22ba811f2893e11ad62f8aa53e99a628b031d18a379f",
            "0x000000000000000000000000000000000000000000000000000000000000000d"
          ],
          "data": "0x000000000000000000000000000000000000000000000000000000000000002000000000000000000000000000000000000000000000000000000000000000b9697066732f516d4e7357386645426d586f537a566e7575693672326a6b35784256576f52715439436a6b61766454445958794d2f30303030303030303030303030303030303030303030303030303030303030303030303030303030303030303030303030303030303030303030303030303133303030303030303030303030303030303030303030303030303030303030303030303030303030303030303030303030303030303030303030303030303030302e6a736f6e00000000000000",
          "blockHash": "0x253cab26b644deb435f7a17f74e0ae9b7180e60c2a3d8c179583cac4be7b3cb8",
          "blockNumber": "0x7b3aa34",
          "transactionHash": "0x7d654bbba15d0cd57bba1ebae99181662df0d988da316c21976bfb550a238700",
          "transactionIndex": "0x19",
          "logIndex": "0x58",
          "removed": false
        },
        {
          "address": "0x03e2c563cf77e3cdc0b7663cee117da14ea60848",
          "topics": [
            "0x2e5977e12fac9a91696e22ba811f2893e11ad62f8aa53e99a628b031d18a379f",
            "0x000000000000000000000000000000000000000000000000000000000000000e"
          ],
          "data": "0x000000000000000000000000000000000000000000000000000000000000002000000000000000000000000000000000000000000000000000000000000000b9697066732f516d4e7357386645426d586f537a566e7575693672326a6b35784256576f52715439436a6b61766454445958794d2f30303030303030303030303030303030303030303030303030303030303030303030303030303030303030303030303030303030303030303030303030303134303030303030303030303030303030303030303030303030303030303030303030303030303030303030303030303030303030303030303030303030303030302e6a736f6e00000000000000",
          "blockHash": "0x253cab26b644deb435f7a17f74e0ae9b7180e60c2a3d8c179583cac4be7b3cb8",
          "blockNumber": "0x7b3aa34",
          "transactionHash": "0x7d654bbba15d0cd57bba1ebae99181662df0d988da316c21976bfb550a238700",
          "transactionIndex": "0x19",
          "logIndex": "0x59",
          "removed": false
        },
        {
          "address": "0x03e2c563cf77e3cdc0b7663cee117da14ea60848",
          "topics": [
            "0x5625f15df4cbadf2e6e3f80e2406aec5d99a432335ef0e9a1fba9e48b0558303",
            "0x000000000000000000000000000000000000000000000000000000000000000c"
          ],
          "data": "0x00000000000000000000000000000000000000000000000000000000000000010000000000000000000000000000000000000000000000000000000000000060000000000000000000000000000000000000000000000000000000000000000a00000000000000000000000000000000000000000000000000000000000000b9697066732f516d4e7357386645426d586f537a566e7575693672326a6b35784256576f52715439436a6b61766454445958794d2f30303030303030303030303030303030303030303030303030303030303030303030303030303030303030303030303030303030303030303030303030303132303030303030303030303030303030303030303030303030303030303030303030303030303030303030303030303030303030303030303030303030303030312e6a736f6e00000000000000",
          "blockHash": "0x253cab26b644deb435f7a17f74e0ae9b7180e60c2a3d8c179583cac4be7b3cb8",
          "blockNumber": "0x7b3aa34",
          "transactionHash": "0x7d654bbba15d0cd57bba1ebae99181662df0d988da316c21976bfb550a238700",
          "transactionIndex": "0x19",
          "logIndex": "0x5a",
          "removed": false
        },
        {
          "address": "0x03e2c563cf77e3cdc0b7663cee117da14ea60848",
          "topics": [
            "0x5625f15df4cbadf2e6e3f80e2406aec5d99a432335ef0e9a1fba9e48b0558303",
            "0x000000000000000000000000000000000000000000000000000000000000000c"
          ],
          "data": "0x00000000000000000000000000000000000000000000000000000000000000020000000000000000000000000000000000000000000000000000000000000060000000000000000000000000000000000000000000000000000000000000001400000000000000000000000000000000000000000000000000000000000000b9697066732f516d4e7357386645426d586f537a566e7575693672326a6b35784256576f52715439436a6b61766454445958794d2f30303030303030303030303030303030303030303030303030303030303030303030303030303030303030303030303030303030303030303030303030303132303030303030303030303030303030303030303030303030303030303030303030303030303030303030303030303030303030303030303030303030303030322e6a736f6e00000000000000",
          "blockHash": "0x253cab26b644deb435f7a17f74e0ae9b7180e60c2a3d8c179583cac4be7b3cb8",
          "blockNumber": "0x7b3aa34",
          "transactionHash": "0x7d654bbba15d0cd57bba1ebae99181662df0d988da316c21976bfb550a238700",
          "transactionIndex": "0x19",
          "logIndex": "0x5b",
          "removed": false
        },
        {
          "address": "0x03e2c563cf77e3cdc0b7663cee117da14ea60848",
          "topics": [
            "0x5625f15df4cbadf2e6e3f80e2406aec5d99a432335ef0e9a1fba9e48b0558303",
            "0x000000000000000000000000000000000000000000000000000000000000000c"
          ],
          "data": "0x00000000000000000000000000000000000000000000000000000000000000030000000000000000000000000000000000000000000000000000000000000060000000000000000000000000000000000000000000000000000000000000001e00000000000000000000000000000000000000000000000000000000000000b9697066732f516d4e7357386645426d586f537a566e7575693672326a6b35784256576f52715439436a6b61766454445958794d2f30303030303030303030303030303030303030303030303030303030303030303030303030303030303030303030303030303030303030303030303030303132303030303030303030303030303030303030303030303030303030303030303030303030303030303030303030303030303030303030303030303030303030332e6a736f6e00000000000000",
          "blockHash": "0x253cab26b644deb435f7a17f74e0ae9b7180e60c2a3d8c179583cac4be7b3cb8",
          "blockNumber": "0x7b3aa34",
          "transactionHash": "0x7d654bbba15d0cd57bba1ebae99181662df0d988da316c21976bfb550a238700",
          "transactionIndex": "0x19",
          "logIndex": "0x5c",
          "removed": false
        },
        {
          "address": "0x03e2c563cf77e3cdc0b7663cee117da14ea60848",
          "topics": [
            "0x5625f15df4cbadf2e6e3f80e2406aec5d99a432335ef0e9a1fba9e48b0558303",
            "0x000000000000000000000000000000000000000000000000000000000000000c"
          ],
          "data": "0x00000000000000000000000000000000000000000000000000000000000000040000000000000000000000000000000000000000000000000000000000000060000000000000000000000000000000000000000000000000000000000000002800000000000000000000000000000000000000000000000000000000000000b9697066732f516d4e7357386645426d586f537a566e7575693672326a6b35784256576f52715439436a6b61766454445958794d2f30303030303030303030303030303030303030303030303030303030303030303030303030303030303030303030303030303030303030303030303030303132303030303030303030303030303030303030303030303030303030303030303030303030303030303030303030303030303030303030303030303030303030342e6a736f6e00000000000000",
          "blockHash": "0x253cab26b644deb435f7a17f74e0ae9b7180e60c2a3d8c179583cac4be7b3cb8",
          "blockNumber": "0x7b3aa34",
          "transactionHash": "0x7d654bbba15d0cd57bba1ebae99181662df0d988da316c21976bfb550a238700",
          "transactionIndex": "0x19",
          "logIndex": "0x5d",
          "removed": false
        },
        {
          "address": "0x03e2c563cf77e3cdc0b7663cee117da14ea60848",
          "topics": [
            "0x5625f15df4cbadf2e6e3f80e2406aec5d99a432335ef0e9a1fba9e48b0558303",
            "0x000000000000000000000000000000000000000000000000000000000000000c"
          ],
          "data": "0x00000000000000000000000000000000000000000000000000000000000000050000000000000000000000000000000000000000000000000000000000000060000000000000000000000000000000000000000000000000000000000000003200000000000000000000000000000000000000000000000000000000000000b9697066732f516d4e7357386645426d586f537a566e7575693672326a6b35784256576f52715439436a6b61766454445958794d2f30303030303030303030303030303030303030303030303030303030303030303030303030303030303030303030303030303030303030303030303030303132303030303030303030303030303030303030303030303030303030303030303030303030303030303030303030303030303030303030303030303030303030352e6a736f6e00000000000000",
          "blockHash": "0x253cab26b644deb435f7a17f74e0ae9b7180e60c2a3d8c179583cac4be7b3cb8",
          "blockNumber": "0x7b3aa34",
          "transactionHash": "0x7d654bbba15d0cd57bba1ebae99181662df0d988da316c21976bfb550a238700",
          "transactionIndex": "0x19",
          "logIndex": "0x5e",
          "removed": false
        },
        {
          "address": "0x03e2c563cf77e3cdc0b7663cee117da14ea60848",
          "topics": [
            "0x5625f15df4cbadf2e6e3f80e2406aec5d99a432335ef0e9a1fba9e48b0558303",
            "0x000000000000000000000000000000000000000000000000000000000000000d"
          ],
          "data": "0x00000000000000000000000000000000000000000000000000000000000000010000000000000000000000000000000000000000000000000000000000000060000000000000000000000000000000000000000000000000000000000000003200000000000000000000000000000000000000000000000000000000000000b9697066732f516d4e7357386645426d586f537a566e7575693672326a6b35784256576f52715439436a6b61766454445958794d2f30303030303030303030303030303030303030303030303030303030303030303030303030303030303030303030303030303030303030303030303030303133303030303030303030303030303030303030303030303030303030303030303030303030303030303030303030303030303030303030303030303030303030312e6a736f6e00000000000000",
          "blockHash": "0x253cab26b644deb435f7a17f74e0ae9b7180e60c2a3d8c179583cac4be7b3cb8",
          "blockNumber": "0x7b3aa34",
          "transactionHash": "0x7d654bbba15d0cd57bba1ebae99181662df0d988da316c21976bfb550a238700",
          "transactionIndex": "0x19",
          "logIndex": "0x5f",
          "removed": false
        },
        {
          "address": "0x03e2c563cf77e3cdc0b7663cee117da14ea60848",
          "topics": [
            "0x5625f15df4cbadf2e6e3f80e2406aec5d99a432335ef0e9a1fba9e48b0558303",
            "0x000000000000000000000000000000000000000000000000000000000000000e"
          ],
          "data": "0x00000000000000000000000000000000000000000000000000000000000000010000000000000000000000000000000000000000000000000000000000000060000000000000000000000000000000000000000000000000000000000000006400000000000000000000000000000000000000000000000000000000000000b9697066732f516d4e7357386645426d586f537a566e7575693672326a6b35784256576f52715439436a6b61766454445958794d2f30303030303030303030303030303030303030303030303030303030303030303030303030303030303030303030303030303030303030303030303030303134303030303030303030303030303030303030303030303030303030303030303030303030303030303030303030303030303030303030303030303030303030312e6a736f6e00000000000000",
          "blockHash": "0x253cab26b644deb435f7a17f74e0ae9b7180e60c2a3d8c179583cac4be7b3cb8",
          "blockNumber": "0x7b3aa34",
          "transactionHash": "0x7d654bbba15d0cd57bba1ebae99181662df0d988da316c21976bfb550a238700",
          "transactionIndex": "0x19",
          "logIndex": "0x60",
          "removed": false
        }
      ],
      "logsBloom": "0x00000000000000000040000000000000000002000000000000000000000000000000000000000200000000000000000000000000000000000000000000008000000000000000000800000000000000000002000000000000000000000000000000040000000000000000000000000000000000000000000000000000000004000000000000000000001000000000000008000000000000000000000000000000000000000000000000000000000000000000000000000120000000000000001000000000000000000000004000000000000000000000000000000000400000220000000000000000000000000000000000000000010000000000000000000000",
      "type": "0x2",
      "transactionHash": "0x7d654bbba15d0cd57bba1ebae99181662df0d988da316c21976bfb550a238700",
      "transactionIndex": "0x19",
      "blockHash": "0x253cab26b644deb435f7a17f74e0ae9b7180e60c2a3d8c179583cac4be7b3cb8",
      "blockNumber": "0x7b3aa34",
      "gasUsed": "0x1d2749",
      "effectiveGasPrice": "0x189ec",
      "from": "0x8835669696fb92839ab198cd80ce9f0d35f45ad5",
      "to": "0x03e2c563cf77e3cdc0b7663cee117da14ea60848",
      "contractAddress": null,
      "l1BaseFeeScalar": "0x146b",
      "l1BlobBaseFee": "0x3f5694c1f",
      "l1BlobBaseFeeScalar": "0xf79c5",
      "l1Fee": "0x67272723d4f",
      "l1GasPrice": "0x599a439ae",
      "l1GasUsed": "0x1702"
    }
  ],
  "libraries": [],
  "pending": [],
  "returns": {
    "0": {
      "internal_type": "address",
      "value": "0x0000000000000000000000000000000000000000"
    }
  },
  "timestamp": 1734028835,
  "chain": 10,
  "commit": "ea7f51c"
}